{
	"Contracts/MainProjectFile.sol": {
		"SystemRegulator": {
			"abi": [
				{
					"inputs": [],
					"stateMutability": "nonpayable",
					"type": "constructor"
				},
				{
					"anonymous": false,
					"inputs": [
						{
							"indexed": true,
							"internalType": "address",
							"name": "customer",
							"type": "address"
						},
						{
							"indexed": false,
							"internalType": "uint256",
							"name": "amount",
							"type": "uint256"
						}
					],
					"name": "processedRefund",
					"type": "event"
				},
				{
					"anonymous": false,
					"inputs": [
						{
							"indexed": true,
							"internalType": "address",
							"name": "customer",
							"type": "address"
						},
						{
							"indexed": false,
							"internalType": "uint256",
							"name": "accommodationId",
							"type": "uint256"
						},
						{
							"indexed": false,
							"internalType": "uint256",
							"name": "amount",
							"type": "uint256"
						}
					],
					"name": "registeredBooking",
					"type": "event"
				},
				{
					"anonymous": false,
					"inputs": [
						{
							"indexed": false,
							"internalType": "address",
							"name": "provider",
							"type": "address"
						}
					],
					"name": "removedProvider",
					"type": "event"
				},
				{
					"anonymous": false,
					"inputs": [
						{
							"indexed": false,
							"internalType": "address",
							"name": "provider",
							"type": "address"
						}
					],
					"name": "verifiedProvider",
					"type": "event"
				},
				{
					"inputs": [
						{
							"internalType": "address",
							"name": "_provider",
							"type": "address"
						}
					],
					"name": "addAccommodationProvider",
					"outputs": [],
					"stateMutability": "nonpayable",
					"type": "function"
				},
				{
					"inputs": [
						{
							"internalType": "address",
							"name": "_provider",
							"type": "address"
						}
					],
					"name": "checkProviderVerification",
					"outputs": [
						{
							"internalType": "bool",
							"name": "",
							"type": "bool"
						}
					],
					"stateMutability": "view",
					"type": "function"
				},
				{
					"inputs": [],
					"name": "getVerifiedProviderCount",
					"outputs": [
						{
							"internalType": "uint256",
							"name": "",
							"type": "uint256"
						}
					],
					"stateMutability": "view",
					"type": "function"
				},
				{
					"inputs": [
						{
							"internalType": "address",
							"name": "_customer",
							"type": "address"
						},
						{
							"internalType": "uint256",
							"name": "_accommodationId",
							"type": "uint256"
						},
						{
							"internalType": "uint256",
							"name": "_amount",
							"type": "uint256"
						}
					],
					"name": "handleRefund",
					"outputs": [],
					"stateMutability": "nonpayable",
					"type": "function"
				},
				{
					"inputs": [],
					"name": "owner",
					"outputs": [
						{
							"internalType": "address",
							"name": "",
							"type": "address"
						}
					],
					"stateMutability": "view",
					"type": "function"
				},
				{
					"inputs": [],
					"name": "providerCount",
					"outputs": [
						{
							"internalType": "uint256",
							"name": "",
							"type": "uint256"
						}
					],
					"stateMutability": "view",
					"type": "function"
				},
				{
					"inputs": [
						{
							"internalType": "address",
							"name": "",
							"type": "address"
						}
					],
					"name": "providersVerified",
					"outputs": [
						{
							"internalType": "bool",
							"name": "",
							"type": "bool"
						}
					],
					"stateMutability": "view",
					"type": "function"
				},
				{
					"inputs": [
						{
							"internalType": "address",
							"name": "",
							"type": "address"
						}
					],
					"name": "refundsPending",
					"outputs": [
						{
							"internalType": "uint256",
							"name": "",
							"type": "uint256"
						}
					],
					"stateMutability": "view",
					"type": "function"
				},
				{
					"inputs": [
						{
							"internalType": "address",
							"name": "_customer",
							"type": "address"
						},
						{
							"internalType": "uint256",
							"name": "_accommodationId",
							"type": "uint256"
						},
						{
							"internalType": "uint256",
							"name": "_amount",
							"type": "uint256"
						}
					],
					"name": "registerBooking",
					"outputs": [],
					"stateMutability": "nonpayable",
					"type": "function"
				},
				{
					"inputs": [
						{
							"internalType": "address",
							"name": "_provider",
							"type": "address"
						}
					],
					"name": "removeAccommodationProvider",
					"outputs": [],
					"stateMutability": "nonpayable",
					"type": "function"
				}
			],
			"devdoc": {
				"kind": "dev",
				"methods": {},
				"version": 1
			},
			"evm": {
				"assembly": "    /* \"Contracts/MainProjectFile.sol\":4237:6557  contract SystemRegulator {... */\n  mstore(0x40, 0x80)\n    /* \"Contracts/MainProjectFile.sol\":4832:4882  constructor(){... */\n  callvalue\n  dup1\n  iszero\n  tag_1\n  jumpi\n  0x00\n  dup1\n  revert\ntag_1:\n  pop\n    /* \"Contracts/MainProjectFile.sol\":4864:4874  msg.sender */\n  caller\n    /* \"Contracts/MainProjectFile.sol\":4856:4861  owner */\n  0x00\n  dup1\n    /* \"Contracts/MainProjectFile.sol\":4856:4874  owner = msg.sender */\n  0x0100\n  exp\n  dup2\n  sload\n  dup2\n  0xffffffffffffffffffffffffffffffffffffffff\n  mul\n  not\n  and\n  swap1\n  dup4\n  0xffffffffffffffffffffffffffffffffffffffff\n  and\n  mul\n  or\n  swap1\n  sstore\n  pop\n    /* \"Contracts/MainProjectFile.sol\":4237:6557  contract SystemRegulator {... */\n  dataSize(sub_0)\n  dup1\n  dataOffset(sub_0)\n  0x00\n  codecopy\n  0x00\n  return\nstop\n\nsub_0: assembly {\n        /* \"Contracts/MainProjectFile.sol\":4237:6557  contract SystemRegulator {... */\n      mstore(0x40, 0x80)\n      callvalue\n      dup1\n      iszero\n      tag_1\n      jumpi\n      0x00\n      dup1\n      revert\n    tag_1:\n      pop\n      jumpi(tag_2, lt(calldatasize, 0x04))\n      shr(0xe0, calldataload(0x00))\n      dup1\n      0xa144efb1\n      gt\n      tag_13\n      jumpi\n      dup1\n      0xa144efb1\n      eq\n      tag_8\n      jumpi\n      dup1\n      0xced65c8e\n      eq\n      tag_9\n      jumpi\n      dup1\n      0xd2ab2098\n      eq\n      tag_10\n      jumpi\n      dup1\n      0xec431252\n      eq\n      tag_11\n      jumpi\n      dup1\n      0xfb44e514\n      eq\n      tag_12\n      jumpi\n      jump(tag_2)\n    tag_13:\n      dup1\n      0x466caad3\n      eq\n      tag_3\n      jumpi\n      dup1\n      0x476977f7\n      eq\n      tag_4\n      jumpi\n      dup1\n      0x74c83268\n      eq\n      tag_5\n      jumpi\n      dup1\n      0x8da5cb5b\n      eq\n      tag_6\n      jumpi\n      dup1\n      0x9ba588cc\n      eq\n      tag_7\n      jumpi\n    tag_2:\n      0x00\n      dup1\n      revert\n        /* \"Contracts/MainProjectFile.sol\":5815:6121  function registerBooking(address _customer, uint256 _accommodationId, uint256 _amount) public {... */\n    tag_3:\n      tag_14\n      0x04\n      dup1\n      calldatasize\n      sub\n      dup2\n      add\n      swap1\n      tag_15\n      swap2\n      swap1\n      tag_16\n      jump\t// in\n    tag_15:\n      tag_17\n      jump\t// in\n    tag_14:\n      stop\n        /* \"Contracts/MainProjectFile.sol\":5284:5552  function removeAccommodationProvider(address _provider) public Owner {... */\n    tag_4:\n      tag_18\n      0x04\n      dup1\n      calldatasize\n      sub\n      dup2\n      add\n      swap1\n      tag_19\n      swap2\n      swap1\n      tag_20\n      jump\t// in\n    tag_19:\n      tag_21\n      jump\t// in\n    tag_18:\n      stop\n        /* \"Contracts/MainProjectFile.sol\":4296:4324  uint256 public providerCount */\n    tag_5:\n      tag_22\n      tag_23\n      jump\t// in\n    tag_22:\n      mload(0x40)\n      tag_24\n      swap2\n      swap1\n      tag_25\n      jump\t// in\n    tag_24:\n      mload(0x40)\n      dup1\n      swap2\n      sub\n      swap1\n      return\n        /* \"Contracts/MainProjectFile.sol\":4269:4289  address public owner */\n    tag_6:\n      tag_26\n      tag_27\n      jump\t// in\n    tag_26:\n      mload(0x40)\n      tag_28\n      swap2\n      swap1\n      tag_29\n      jump\t// in\n    tag_28:\n      mload(0x40)\n      dup1\n      swap2\n      sub\n      swap1\n      return\n        /* \"Contracts/MainProjectFile.sol\":5702:5807  function getVerifiedProviderCount() public view returns (uint256) {... */\n    tag_7:\n      tag_30\n      tag_31\n      jump\t// in\n    tag_30:\n      mload(0x40)\n      tag_32\n      swap2\n      swap1\n      tag_25\n      jump\t// in\n    tag_32:\n      mload(0x40)\n      dup1\n      swap2\n      sub\n      swap1\n      return\n        /* \"Contracts/MainProjectFile.sol\":4387:4436  mapping(address => uint256) public refundsPending */\n    tag_8:\n      tag_33\n      0x04\n      dup1\n      calldatasize\n      sub\n      dup2\n      add\n      swap1\n      tag_34\n      swap2\n      swap1\n      tag_20\n      jump\t// in\n    tag_34:\n      tag_35\n      jump\t// in\n    tag_33:\n      mload(0x40)\n      tag_36\n      swap2\n      swap1\n      tag_25\n      jump\t// in\n    tag_36:\n      mload(0x40)\n      dup1\n      swap2\n      sub\n      swap1\n      return\n        /* \"Contracts/MainProjectFile.sol\":4949:5276  function addAccommodationProvider(address _provider) public Owner {... */\n    tag_9:\n      tag_37\n      0x04\n      dup1\n      calldatasize\n      sub\n      dup2\n      add\n      swap1\n      tag_38\n      swap2\n      swap1\n      tag_20\n      jump\t// in\n    tag_38:\n      tag_39\n      jump\t// in\n    tag_37:\n      stop\n        /* \"Contracts/MainProjectFile.sol\":4331:4380  mapping(address => bool) public providersVerified */\n    tag_10:\n      tag_40\n      0x04\n      dup1\n      calldatasize\n      sub\n      dup2\n      add\n      swap1\n      tag_41\n      swap2\n      swap1\n      tag_20\n      jump\t// in\n    tag_41:\n      tag_42\n      jump\t// in\n    tag_40:\n      mload(0x40)\n      tag_43\n      swap2\n      swap1\n      tag_44\n      jump\t// in\n    tag_43:\n      mload(0x40)\n      dup1\n      swap2\n      sub\n      swap1\n      return\n        /* \"Contracts/MainProjectFile.sol\":6129:6552  function handleRefund(address _customer, uint256 _accommodationId, uint256 _amount) public {... */\n    tag_11:\n      tag_45\n      0x04\n      dup1\n      calldatasize\n      sub\n      dup2\n      add\n      swap1\n      tag_46\n      swap2\n      swap1\n      tag_16\n      jump\t// in\n    tag_46:\n      tag_47\n      jump\t// in\n    tag_45:\n      stop\n        /* \"Contracts/MainProjectFile.sol\":5560:5694  function checkProviderVerification(address _provider) public view returns (bool){... */\n    tag_12:\n      tag_48\n      0x04\n      dup1\n      calldatasize\n      sub\n      dup2\n      add\n      swap1\n      tag_49\n      swap2\n      swap1\n      tag_20\n      jump\t// in\n    tag_49:\n      tag_50\n      jump\t// in\n    tag_48:\n      mload(0x40)\n      tag_51\n      swap2\n      swap1\n      tag_44\n      jump\t// in\n    tag_51:\n      mload(0x40)\n      dup1\n      swap2\n      sub\n      swap1\n      return\n        /* \"Contracts/MainProjectFile.sol\":5815:6121  function registerBooking(address _customer, uint256 _accommodationId, uint256 _amount) public {... */\n    tag_17:\n        /* \"Contracts/MainProjectFile.sol\":5928:5945  providersVerified */\n      0x02\n        /* \"Contracts/MainProjectFile.sol\":5928:5957  providersVerified[msg.sender] */\n      0x00\n        /* \"Contracts/MainProjectFile.sol\":5946:5956  msg.sender */\n      caller\n        /* \"Contracts/MainProjectFile.sol\":5928:5957  providersVerified[msg.sender] */\n      0xffffffffffffffffffffffffffffffffffffffff\n      and\n      0xffffffffffffffffffffffffffffffffffffffff\n      and\n      dup2\n      mstore\n      0x20\n      add\n      swap1\n      dup2\n      mstore\n      0x20\n      add\n      0x00\n      keccak256\n      0x00\n      swap1\n      sload\n      swap1\n      0x0100\n      exp\n      swap1\n      div\n      0xff\n      and\n        /* \"Contracts/MainProjectFile.sol\":5920:5995  require(providersVerified[msg.sender], \"Caller is not a verified provider\") */\n      tag_53\n      jumpi\n      mload(0x40)\n      0x08c379a000000000000000000000000000000000000000000000000000000000\n      dup2\n      mstore\n      0x04\n      add\n      tag_54\n      swap1\n      tag_55\n      jump\t// in\n    tag_54:\n      mload(0x40)\n      dup1\n      swap2\n      sub\n      swap1\n      revert\n    tag_53:\n        /* \"Contracts/MainProjectFile.sol\":6035:6042  _amount */\n      dup1\n        /* \"Contracts/MainProjectFile.sol\":6006:6020  refundsPending */\n      0x03\n        /* \"Contracts/MainProjectFile.sol\":6006:6031  refundsPending[_customer] */\n      0x00\n        /* \"Contracts/MainProjectFile.sol\":6021:6030  _customer */\n      dup6\n        /* \"Contracts/MainProjectFile.sol\":6006:6031  refundsPending[_customer] */\n      0xffffffffffffffffffffffffffffffffffffffff\n      and\n      0xffffffffffffffffffffffffffffffffffffffff\n      and\n      dup2\n      mstore\n      0x20\n      add\n      swap1\n      dup2\n      mstore\n      0x20\n      add\n      0x00\n      keccak256\n      0x00\n        /* \"Contracts/MainProjectFile.sol\":6006:6042  refundsPending[_customer] += _amount */\n      dup3\n      dup3\n      sload\n      tag_56\n      swap2\n      swap1\n      tag_57\n      jump\t// in\n    tag_56:\n      swap3\n      pop\n      pop\n      dup2\n      swap1\n      sstore\n      pop\n        /* \"Contracts/MainProjectFile.sol\":6076:6085  _customer */\n      dup3\n        /* \"Contracts/MainProjectFile.sol\":6058:6113  registeredBooking(_customer, _accommodationId, _amount) */\n      0xffffffffffffffffffffffffffffffffffffffff\n      and\n      0x12537b37a1526891b5a29640e94f14e2853cb73c79336a1da4334237cd170a1e\n        /* \"Contracts/MainProjectFile.sol\":6087:6103  _accommodationId */\n      dup4\n        /* \"Contracts/MainProjectFile.sol\":6105:6112  _amount */\n      dup4\n        /* \"Contracts/MainProjectFile.sol\":6058:6113  registeredBooking(_customer, _accommodationId, _amount) */\n      mload(0x40)\n      tag_58\n      swap3\n      swap2\n      swap1\n      tag_59\n      jump\t// in\n    tag_58:\n      mload(0x40)\n      dup1\n      swap2\n      sub\n      swap1\n      log2\n        /* \"Contracts/MainProjectFile.sol\":5815:6121  function registerBooking(address _customer, uint256 _accommodationId, uint256 _amount) public {... */\n      pop\n      pop\n      pop\n      jump\t// out\n        /* \"Contracts/MainProjectFile.sol\":5284:5552  function removeAccommodationProvider(address _provider) public Owner {... */\n    tag_21:\n        /* \"Contracts/MainProjectFile.sol\":4756:4761  owner */\n      0x00\n      dup1\n      sload\n      swap1\n      0x0100\n      exp\n      swap1\n      div\n      0xffffffffffffffffffffffffffffffffffffffff\n      and\n        /* \"Contracts/MainProjectFile.sol\":4742:4761  msg.sender == owner */\n      0xffffffffffffffffffffffffffffffffffffffff\n      and\n        /* \"Contracts/MainProjectFile.sol\":4742:4752  msg.sender */\n      caller\n        /* \"Contracts/MainProjectFile.sol\":4742:4761  msg.sender == owner */\n      0xffffffffffffffffffffffffffffffffffffffff\n      and\n      eq\n        /* \"Contracts/MainProjectFile.sol\":4734:4804  require(msg.sender == owner, \"Only the owner can execute this action\") */\n      tag_61\n      jumpi\n      mload(0x40)\n      0x08c379a000000000000000000000000000000000000000000000000000000000\n      dup2\n      mstore\n      0x04\n      add\n      tag_62\n      swap1\n      tag_63\n      jump\t// in\n    tag_62:\n      mload(0x40)\n      dup1\n      swap2\n      sub\n      swap1\n      revert\n    tag_61:\n        /* \"Contracts/MainProjectFile.sol\":5372:5389  providersVerified */\n      0x02\n        /* \"Contracts/MainProjectFile.sol\":5372:5400  providersVerified[_provider] */\n      0x00\n        /* \"Contracts/MainProjectFile.sol\":5390:5399  _provider */\n      dup3\n        /* \"Contracts/MainProjectFile.sol\":5372:5400  providersVerified[_provider] */\n      0xffffffffffffffffffffffffffffffffffffffff\n      and\n      0xffffffffffffffffffffffffffffffffffffffff\n      and\n      dup2\n      mstore\n      0x20\n      add\n      swap1\n      dup2\n      mstore\n      0x20\n      add\n      0x00\n      keccak256\n      0x00\n      swap1\n      sload\n      swap1\n      0x0100\n      exp\n      swap1\n      div\n      0xff\n      and\n        /* \"Contracts/MainProjectFile.sol\":5364:5429  require(providersVerified[_provider], \"Provider is not verified\") */\n      tag_65\n      jumpi\n      mload(0x40)\n      0x08c379a000000000000000000000000000000000000000000000000000000000\n      dup2\n      mstore\n      0x04\n      add\n      tag_66\n      swap1\n      tag_67\n      jump\t// in\n    tag_66:\n      mload(0x40)\n      dup1\n      swap2\n      sub\n      swap1\n      revert\n    tag_65:\n        /* \"Contracts/MainProjectFile.sol\":5471:5476  false */\n      0x00\n        /* \"Contracts/MainProjectFile.sol\":5440:5457  providersVerified */\n      0x02\n        /* \"Contracts/MainProjectFile.sol\":5440:5468  providersVerified[_provider] */\n      0x00\n        /* \"Contracts/MainProjectFile.sol\":5458:5467  _provider */\n      dup4\n        /* \"Contracts/MainProjectFile.sol\":5440:5468  providersVerified[_provider] */\n      0xffffffffffffffffffffffffffffffffffffffff\n      and\n      0xffffffffffffffffffffffffffffffffffffffff\n      and\n      dup2\n      mstore\n      0x20\n      add\n      swap1\n      dup2\n      mstore\n      0x20\n      add\n      0x00\n      keccak256\n      0x00\n        /* \"Contracts/MainProjectFile.sol\":5440:5476  providersVerified[_provider] = false */\n      0x0100\n      exp\n      dup2\n      sload\n      dup2\n      0xff\n      mul\n      not\n      and\n      swap1\n      dup4\n      iszero\n      iszero\n      mul\n      or\n      swap1\n      sstore\n      pop\n        /* \"Contracts/MainProjectFile.sol\":5487:5500  providerCount */\n      0x01\n      0x00\n        /* \"Contracts/MainProjectFile.sol\":5487:5502  providerCount-- */\n      dup2\n      sload\n      dup1\n      swap3\n      swap2\n      swap1\n      tag_68\n      swap1\n      tag_69\n      jump\t// in\n    tag_68:\n      swap2\n      swap1\n      pop\n      sstore\n      pop\n        /* \"Contracts/MainProjectFile.sol\":5518:5544  removedProvider(_provider) */\n      0xa62ee240a1c9c5f4487f63627c0fc50c051c76a964e85ee2844e34ff506a505a\n        /* \"Contracts/MainProjectFile.sol\":5534:5543  _provider */\n      dup2\n        /* \"Contracts/MainProjectFile.sol\":5518:5544  removedProvider(_provider) */\n      mload(0x40)\n      tag_70\n      swap2\n      swap1\n      tag_29\n      jump\t// in\n    tag_70:\n      mload(0x40)\n      dup1\n      swap2\n      sub\n      swap1\n      log1\n        /* \"Contracts/MainProjectFile.sol\":5284:5552  function removeAccommodationProvider(address _provider) public Owner {... */\n      pop\n      jump\t// out\n        /* \"Contracts/MainProjectFile.sol\":4296:4324  uint256 public providerCount */\n    tag_23:\n      sload(0x01)\n      dup2\n      jump\t// out\n        /* \"Contracts/MainProjectFile.sol\":4269:4289  address public owner */\n    tag_27:\n      0x00\n      dup1\n      sload\n      swap1\n      0x0100\n      exp\n      swap1\n      div\n      0xffffffffffffffffffffffffffffffffffffffff\n      and\n      dup2\n      jump\t// out\n        /* \"Contracts/MainProjectFile.sol\":5702:5807  function getVerifiedProviderCount() public view returns (uint256) {... */\n    tag_31:\n        /* \"Contracts/MainProjectFile.sol\":5759:5766  uint256 */\n      0x00\n        /* \"Contracts/MainProjectFile.sol\":5786:5799  providerCount */\n      sload(0x01)\n        /* \"Contracts/MainProjectFile.sol\":5779:5799  return providerCount */\n      swap1\n      pop\n        /* \"Contracts/MainProjectFile.sol\":5702:5807  function getVerifiedProviderCount() public view returns (uint256) {... */\n      swap1\n      jump\t// out\n        /* \"Contracts/MainProjectFile.sol\":4387:4436  mapping(address => uint256) public refundsPending */\n    tag_35:\n      mstore(0x20, 0x03)\n      dup1\n      0x00\n      mstore\n      keccak256(0x00, 0x40)\n      0x00\n      swap2\n      pop\n      swap1\n      pop\n      sload\n      dup2\n      jump\t// out\n        /* \"Contracts/MainProjectFile.sol\":4949:5276  function addAccommodationProvider(address _provider) public Owner {... */\n    tag_39:\n        /* \"Contracts/MainProjectFile.sol\":4756:4761  owner */\n      0x00\n      dup1\n      sload\n      swap1\n      0x0100\n      exp\n      swap1\n      div\n      0xffffffffffffffffffffffffffffffffffffffff\n      and\n        /* \"Contracts/MainProjectFile.sol\":4742:4761  msg.sender == owner */\n      0xffffffffffffffffffffffffffffffffffffffff\n      and\n        /* \"Contracts/MainProjectFile.sol\":4742:4752  msg.sender */\n      caller\n        /* \"Contracts/MainProjectFile.sol\":4742:4761  msg.sender == owner */\n      0xffffffffffffffffffffffffffffffffffffffff\n      and\n      eq\n        /* \"Contracts/MainProjectFile.sol\":4734:4804  require(msg.sender == owner, \"Only the owner can execute this action\") */\n      tag_73\n      jumpi\n      mload(0x40)\n      0x08c379a000000000000000000000000000000000000000000000000000000000\n      dup2\n      mstore\n      0x04\n      add\n      tag_74\n      swap1\n      tag_63\n      jump\t// in\n    tag_74:\n      mload(0x40)\n      dup1\n      swap2\n      sub\n      swap1\n      revert\n    tag_73:\n        /* \"Contracts/MainProjectFile.sol\":5092:5109  providersVerified */\n      0x02\n        /* \"Contracts/MainProjectFile.sol\":5092:5120  providersVerified[_provider] */\n      0x00\n        /* \"Contracts/MainProjectFile.sol\":5110:5119  _provider */\n      dup3\n        /* \"Contracts/MainProjectFile.sol\":5092:5120  providersVerified[_provider] */\n      0xffffffffffffffffffffffffffffffffffffffff\n      and\n      0xffffffffffffffffffffffffffffffffffffffff\n      and\n      dup2\n      mstore\n      0x20\n      add\n      swap1\n      dup2\n      mstore\n      0x20\n      add\n      0x00\n      keccak256\n      0x00\n      swap1\n      sload\n      swap1\n      0x0100\n      exp\n      swap1\n      div\n      0xff\n      and\n        /* \"Contracts/MainProjectFile.sol\":5091:5120  !providersVerified[_provider] */\n      iszero\n        /* \"Contracts/MainProjectFile.sol\":5083:5153  require(!providersVerified[_provider], \"Provider is already verified\") */\n      tag_76\n      jumpi\n      mload(0x40)\n      0x08c379a000000000000000000000000000000000000000000000000000000000\n      dup2\n      mstore\n      0x04\n      add\n      tag_77\n      swap1\n      tag_78\n      jump\t// in\n    tag_77:\n      mload(0x40)\n      dup1\n      swap2\n      sub\n      swap1\n      revert\n    tag_76:\n        /* \"Contracts/MainProjectFile.sol\":5195:5199  true */\n      0x01\n        /* \"Contracts/MainProjectFile.sol\":5164:5181  providersVerified */\n      0x02\n        /* \"Contracts/MainProjectFile.sol\":5164:5192  providersVerified[_provider] */\n      0x00\n        /* \"Contracts/MainProjectFile.sol\":5182:5191  _provider */\n      dup4\n        /* \"Contracts/MainProjectFile.sol\":5164:5192  providersVerified[_provider] */\n      0xffffffffffffffffffffffffffffffffffffffff\n      and\n      0xffffffffffffffffffffffffffffffffffffffff\n      and\n      dup2\n      mstore\n      0x20\n      add\n      swap1\n      dup2\n      mstore\n      0x20\n      add\n      0x00\n      keccak256\n      0x00\n        /* \"Contracts/MainProjectFile.sol\":5164:5199  providersVerified[_provider] = true */\n      0x0100\n      exp\n      dup2\n      sload\n      dup2\n      0xff\n      mul\n      not\n      and\n      swap1\n      dup4\n      iszero\n      iszero\n      mul\n      or\n      swap1\n      sstore\n      pop\n        /* \"Contracts/MainProjectFile.sol\":5210:5223  providerCount */\n      0x01\n      0x00\n        /* \"Contracts/MainProjectFile.sol\":5210:5225  providerCount++ */\n      dup2\n      sload\n      dup1\n      swap3\n      swap2\n      swap1\n      tag_79\n      swap1\n      tag_80\n      jump\t// in\n    tag_79:\n      swap2\n      swap1\n      pop\n      sstore\n      pop\n        /* \"Contracts/MainProjectFile.sol\":5241:5268  verifiedProvider(_provider) */\n      0x049c8250a65e3e2f188abf247b68be37f9ed7f867dc1671c11323587524206be\n        /* \"Contracts/MainProjectFile.sol\":5258:5267  _provider */\n      dup2\n        /* \"Contracts/MainProjectFile.sol\":5241:5268  verifiedProvider(_provider) */\n      mload(0x40)\n      tag_81\n      swap2\n      swap1\n      tag_29\n      jump\t// in\n    tag_81:\n      mload(0x40)\n      dup1\n      swap2\n      sub\n      swap1\n      log1\n        /* \"Contracts/MainProjectFile.sol\":4949:5276  function addAccommodationProvider(address _provider) public Owner {... */\n      pop\n      jump\t// out\n        /* \"Contracts/MainProjectFile.sol\":4331:4380  mapping(address => bool) public providersVerified */\n    tag_42:\n      mstore(0x20, 0x02)\n      dup1\n      0x00\n      mstore\n      keccak256(0x00, 0x40)\n      0x00\n      swap2\n      pop\n      sload\n      swap1\n      0x0100\n      exp\n      swap1\n      div\n      0xff\n      and\n      dup2\n      jump\t// out\n        /* \"Contracts/MainProjectFile.sol\":6129:6552  function handleRefund(address _customer, uint256 _accommodationId, uint256 _amount) public {... */\n    tag_47:\n        /* \"Contracts/MainProjectFile.sol\":6239:6256  providersVerified */\n      0x02\n        /* \"Contracts/MainProjectFile.sol\":6239:6268  providersVerified[msg.sender] */\n      0x00\n        /* \"Contracts/MainProjectFile.sol\":6257:6267  msg.sender */\n      caller\n        /* \"Contracts/MainProjectFile.sol\":6239:6268  providersVerified[msg.sender] */\n      0xffffffffffffffffffffffffffffffffffffffff\n      and\n      0xffffffffffffffffffffffffffffffffffffffff\n      and\n      dup2\n      mstore\n      0x20\n      add\n      swap1\n      dup2\n      mstore\n      0x20\n      add\n      0x00\n      keccak256\n      0x00\n      swap1\n      sload\n      swap1\n      0x0100\n      exp\n      swap1\n      div\n      0xff\n      and\n        /* \"Contracts/MainProjectFile.sol\":6231:6306  require(providersVerified[msg.sender], \"Caller is not a verified provider\") */\n      tag_83\n      jumpi\n      mload(0x40)\n      0x08c379a000000000000000000000000000000000000000000000000000000000\n      dup2\n      mstore\n      0x04\n      add\n      tag_84\n      swap1\n      tag_55\n      jump\t// in\n    tag_84:\n      mload(0x40)\n      dup1\n      swap2\n      sub\n      swap1\n      revert\n    tag_83:\n        /* \"Contracts/MainProjectFile.sol\":6356:6363  _amount */\n      dup1\n        /* \"Contracts/MainProjectFile.sol\":6327:6341  refundsPending */\n      0x03\n        /* \"Contracts/MainProjectFile.sol\":6327:6352  refundsPending[_customer] */\n      0x00\n        /* \"Contracts/MainProjectFile.sol\":6342:6351  _customer */\n      dup6\n        /* \"Contracts/MainProjectFile.sol\":6327:6352  refundsPending[_customer] */\n      0xffffffffffffffffffffffffffffffffffffffff\n      and\n      0xffffffffffffffffffffffffffffffffffffffff\n      and\n      dup2\n      mstore\n      0x20\n      add\n      swap1\n      dup2\n      mstore\n      0x20\n      add\n      0x00\n      keccak256\n      sload\n        /* \"Contracts/MainProjectFile.sol\":6327:6363  refundsPending[_customer] >= _amount */\n      lt\n      iszero\n        /* \"Contracts/MainProjectFile.sol\":6319:6397  require(refundsPending[_customer] >= _amount, \"Insufficient funds for refund\") */\n      tag_85\n      jumpi\n      mload(0x40)\n      0x08c379a000000000000000000000000000000000000000000000000000000000\n      dup2\n      mstore\n      0x04\n      add\n      tag_86\n      swap1\n      tag_87\n      jump\t// in\n    tag_86:\n      mload(0x40)\n      dup1\n      swap2\n      sub\n      swap1\n      revert\n    tag_85:\n        /* \"Contracts/MainProjectFile.sol\":6418:6427  _customer */\n      dup3\n        /* \"Contracts/MainProjectFile.sol\":6410:6437  payable(_customer).transfer */\n      0xffffffffffffffffffffffffffffffffffffffff\n      and\n        /* \"Contracts/MainProjectFile.sol\":6410:6446  payable(_customer).transfer(_amount) */\n      0x08fc\n        /* \"Contracts/MainProjectFile.sol\":6438:6445  _amount */\n      dup3\n        /* \"Contracts/MainProjectFile.sol\":6410:6446  payable(_customer).transfer(_amount) */\n      swap1\n      dup2\n      iszero\n      mul\n      swap1\n      mload(0x40)\n      0x00\n      mload(0x40)\n      dup1\n      dup4\n      sub\n      dup2\n      dup6\n      dup9\n      dup9\n      call\n      swap4\n      pop\n      pop\n      pop\n      pop\n      iszero\n      dup1\n      iszero\n      tag_89\n      jumpi\n      returndatasize\n      0x00\n      dup1\n      returndatacopy\n      revert(0x00, returndatasize)\n    tag_89:\n      pop\n        /* \"Contracts/MainProjectFile.sol\":6486:6493  _amount */\n      dup1\n        /* \"Contracts/MainProjectFile.sol\":6457:6471  refundsPending */\n      0x03\n        /* \"Contracts/MainProjectFile.sol\":6457:6482  refundsPending[_customer] */\n      0x00\n        /* \"Contracts/MainProjectFile.sol\":6472:6481  _customer */\n      dup6\n        /* \"Contracts/MainProjectFile.sol\":6457:6482  refundsPending[_customer] */\n      0xffffffffffffffffffffffffffffffffffffffff\n      and\n      0xffffffffffffffffffffffffffffffffffffffff\n      and\n      dup2\n      mstore\n      0x20\n      add\n      swap1\n      dup2\n      mstore\n      0x20\n      add\n      0x00\n      keccak256\n      0x00\n        /* \"Contracts/MainProjectFile.sol\":6457:6493  refundsPending[_customer] -= _amount */\n      dup3\n      dup3\n      sload\n      tag_90\n      swap2\n      swap1\n      tag_91\n      jump\t// in\n    tag_90:\n      swap3\n      pop\n      pop\n      dup2\n      swap1\n      sstore\n      pop\n        /* \"Contracts/MainProjectFile.sol\":6525:6534  _customer */\n      dup3\n        /* \"Contracts/MainProjectFile.sol\":6509:6544  processedRefund(_customer, _amount) */\n      0xffffffffffffffffffffffffffffffffffffffff\n      and\n      0x6719b0b1a59584aa9c860859562c6aa9fe1e2c849692a6add22e5d95e7f655d5\n        /* \"Contracts/MainProjectFile.sol\":6536:6543  _amount */\n      dup3\n        /* \"Contracts/MainProjectFile.sol\":6509:6544  processedRefund(_customer, _amount) */\n      mload(0x40)\n      tag_92\n      swap2\n      swap1\n      tag_25\n      jump\t// in\n    tag_92:\n      mload(0x40)\n      dup1\n      swap2\n      sub\n      swap1\n      log2\n        /* \"Contracts/MainProjectFile.sol\":6129:6552  function handleRefund(address _customer, uint256 _accommodationId, uint256 _amount) public {... */\n      pop\n      pop\n      pop\n      jump\t// out\n        /* \"Contracts/MainProjectFile.sol\":5560:5694  function checkProviderVerification(address _provider) public view returns (bool){... */\n    tag_50:\n        /* \"Contracts/MainProjectFile.sol\":5635:5639  bool */\n      0x00\n        /* \"Contracts/MainProjectFile.sol\":5658:5675  providersVerified */\n      0x02\n        /* \"Contracts/MainProjectFile.sol\":5658:5686  providersVerified[_provider] */\n      0x00\n        /* \"Contracts/MainProjectFile.sol\":5676:5685  _provider */\n      dup4\n        /* \"Contracts/MainProjectFile.sol\":5658:5686  providersVerified[_provider] */\n      0xffffffffffffffffffffffffffffffffffffffff\n      and\n      0xffffffffffffffffffffffffffffffffffffffff\n      and\n      dup2\n      mstore\n      0x20\n      add\n      swap1\n      dup2\n      mstore\n      0x20\n      add\n      0x00\n      keccak256\n      0x00\n      swap1\n      sload\n      swap1\n      0x0100\n      exp\n      swap1\n      div\n      0xff\n      and\n        /* \"Contracts/MainProjectFile.sol\":5651:5686  return providersVerified[_provider] */\n      swap1\n      pop\n        /* \"Contracts/MainProjectFile.sol\":5560:5694  function checkProviderVerification(address _provider) public view returns (bool){... */\n      swap2\n      swap1\n      pop\n      jump\t// out\n        /* \"#utility.yul\":88:205   */\n    tag_95:\n        /* \"#utility.yul\":197:198   */\n      0x00\n        /* \"#utility.yul\":194:195   */\n      dup1\n        /* \"#utility.yul\":187:199   */\n      revert\n        /* \"#utility.yul\":334:460   */\n    tag_97:\n        /* \"#utility.yul\":371:378   */\n      0x00\n        /* \"#utility.yul\":411:453   */\n      0xffffffffffffffffffffffffffffffffffffffff\n        /* \"#utility.yul\":404:409   */\n      dup3\n        /* \"#utility.yul\":400:454   */\n      and\n        /* \"#utility.yul\":389:454   */\n      swap1\n      pop\n        /* \"#utility.yul\":334:460   */\n      swap2\n      swap1\n      pop\n      jump\t// out\n        /* \"#utility.yul\":466:562   */\n    tag_98:\n        /* \"#utility.yul\":503:510   */\n      0x00\n        /* \"#utility.yul\":532:556   */\n      tag_126\n        /* \"#utility.yul\":550:555   */\n      dup3\n        /* \"#utility.yul\":532:556   */\n      tag_97\n      jump\t// in\n    tag_126:\n        /* \"#utility.yul\":521:556   */\n      swap1\n      pop\n        /* \"#utility.yul\":466:562   */\n      swap2\n      swap1\n      pop\n      jump\t// out\n        /* \"#utility.yul\":568:690   */\n    tag_99:\n        /* \"#utility.yul\":641:665   */\n      tag_128\n        /* \"#utility.yul\":659:664   */\n      dup2\n        /* \"#utility.yul\":641:665   */\n      tag_98\n      jump\t// in\n    tag_128:\n        /* \"#utility.yul\":634:639   */\n      dup2\n        /* \"#utility.yul\":631:666   */\n      eq\n        /* \"#utility.yul\":621:684   */\n      tag_129\n      jumpi\n        /* \"#utility.yul\":680:681   */\n      0x00\n        /* \"#utility.yul\":677:678   */\n      dup1\n        /* \"#utility.yul\":670:682   */\n      revert\n        /* \"#utility.yul\":621:684   */\n    tag_129:\n        /* \"#utility.yul\":568:690   */\n      pop\n      jump\t// out\n        /* \"#utility.yul\":696:835   */\n    tag_100:\n        /* \"#utility.yul\":742:747   */\n      0x00\n        /* \"#utility.yul\":780:786   */\n      dup2\n        /* \"#utility.yul\":767:787   */\n      calldataload\n        /* \"#utility.yul\":758:787   */\n      swap1\n      pop\n        /* \"#utility.yul\":796:829   */\n      tag_131\n        /* \"#utility.yul\":823:828   */\n      dup2\n        /* \"#utility.yul\":796:829   */\n      tag_99\n      jump\t// in\n    tag_131:\n        /* \"#utility.yul\":696:835   */\n      swap3\n      swap2\n      pop\n      pop\n      jump\t// out\n        /* \"#utility.yul\":841:918   */\n    tag_101:\n        /* \"#utility.yul\":878:885   */\n      0x00\n        /* \"#utility.yul\":907:912   */\n      dup2\n        /* \"#utility.yul\":896:912   */\n      swap1\n      pop\n        /* \"#utility.yul\":841:918   */\n      swap2\n      swap1\n      pop\n      jump\t// out\n        /* \"#utility.yul\":924:1046   */\n    tag_102:\n        /* \"#utility.yul\":997:1021   */\n      tag_134\n        /* \"#utility.yul\":1015:1020   */\n      dup2\n        /* \"#utility.yul\":997:1021   */\n      tag_101\n      jump\t// in\n    tag_134:\n        /* \"#utility.yul\":990:995   */\n      dup2\n        /* \"#utility.yul\":987:1022   */\n      eq\n        /* \"#utility.yul\":977:1040   */\n      tag_135\n      jumpi\n        /* \"#utility.yul\":1036:1037   */\n      0x00\n        /* \"#utility.yul\":1033:1034   */\n      dup1\n        /* \"#utility.yul\":1026:1038   */\n      revert\n        /* \"#utility.yul\":977:1040   */\n    tag_135:\n        /* \"#utility.yul\":924:1046   */\n      pop\n      jump\t// out\n        /* \"#utility.yul\":1052:1191   */\n    tag_103:\n        /* \"#utility.yul\":1098:1103   */\n      0x00\n        /* \"#utility.yul\":1136:1142   */\n      dup2\n        /* \"#utility.yul\":1123:1143   */\n      calldataload\n        /* \"#utility.yul\":1114:1143   */\n      swap1\n      pop\n        /* \"#utility.yul\":1152:1185   */\n      tag_137\n        /* \"#utility.yul\":1179:1184   */\n      dup2\n        /* \"#utility.yul\":1152:1185   */\n      tag_102\n      jump\t// in\n    tag_137:\n        /* \"#utility.yul\":1052:1191   */\n      swap3\n      swap2\n      pop\n      pop\n      jump\t// out\n        /* \"#utility.yul\":1197:1816   */\n    tag_16:\n        /* \"#utility.yul\":1274:1280   */\n      0x00\n        /* \"#utility.yul\":1282:1288   */\n      dup1\n        /* \"#utility.yul\":1290:1296   */\n      0x00\n        /* \"#utility.yul\":1339:1341   */\n      0x60\n        /* \"#utility.yul\":1327:1336   */\n      dup5\n        /* \"#utility.yul\":1318:1325   */\n      dup7\n        /* \"#utility.yul\":1314:1337   */\n      sub\n        /* \"#utility.yul\":1310:1342   */\n      slt\n        /* \"#utility.yul\":1307:1426   */\n      iszero\n      tag_139\n      jumpi\n        /* \"#utility.yul\":1345:1424   */\n      tag_140\n      tag_95\n      jump\t// in\n    tag_140:\n        /* \"#utility.yul\":1307:1426   */\n    tag_139:\n        /* \"#utility.yul\":1465:1466   */\n      0x00\n        /* \"#utility.yul\":1490:1543   */\n      tag_141\n        /* \"#utility.yul\":1535:1542   */\n      dup7\n        /* \"#utility.yul\":1526:1532   */\n      dup3\n        /* \"#utility.yul\":1515:1524   */\n      dup8\n        /* \"#utility.yul\":1511:1533   */\n      add\n        /* \"#utility.yul\":1490:1543   */\n      tag_100\n      jump\t// in\n    tag_141:\n        /* \"#utility.yul\":1480:1543   */\n      swap4\n      pop\n        /* \"#utility.yul\":1436:1553   */\n      pop\n        /* \"#utility.yul\":1592:1594   */\n      0x20\n        /* \"#utility.yul\":1618:1671   */\n      tag_142\n        /* \"#utility.yul\":1663:1670   */\n      dup7\n        /* \"#utility.yul\":1654:1660   */\n      dup3\n        /* \"#utility.yul\":1643:1652   */\n      dup8\n        /* \"#utility.yul\":1639:1661   */\n      add\n        /* \"#utility.yul\":1618:1671   */\n      tag_103\n      jump\t// in\n    tag_142:\n        /* \"#utility.yul\":1608:1671   */\n      swap3\n      pop\n        /* \"#utility.yul\":1563:1681   */\n      pop\n        /* \"#utility.yul\":1720:1722   */\n      0x40\n        /* \"#utility.yul\":1746:1799   */\n      tag_143\n        /* \"#utility.yul\":1791:1798   */\n      dup7\n        /* \"#utility.yul\":1782:1788   */\n      dup3\n        /* \"#utility.yul\":1771:1780   */\n      dup8\n        /* \"#utility.yul\":1767:1789   */\n      add\n        /* \"#utility.yul\":1746:1799   */\n      tag_103\n      jump\t// in\n    tag_143:\n        /* \"#utility.yul\":1736:1799   */\n      swap2\n      pop\n        /* \"#utility.yul\":1691:1809   */\n      pop\n        /* \"#utility.yul\":1197:1816   */\n      swap3\n      pop\n      swap3\n      pop\n      swap3\n      jump\t// out\n        /* \"#utility.yul\":1822:2151   */\n    tag_20:\n        /* \"#utility.yul\":1881:1887   */\n      0x00\n        /* \"#utility.yul\":1930:1932   */\n      0x20\n        /* \"#utility.yul\":1918:1927   */\n      dup3\n        /* \"#utility.yul\":1909:1916   */\n      dup5\n        /* \"#utility.yul\":1905:1928   */\n      sub\n        /* \"#utility.yul\":1901:1933   */\n      slt\n        /* \"#utility.yul\":1898:2017   */\n      iszero\n      tag_145\n      jumpi\n        /* \"#utility.yul\":1936:2015   */\n      tag_146\n      tag_95\n      jump\t// in\n    tag_146:\n        /* \"#utility.yul\":1898:2017   */\n    tag_145:\n        /* \"#utility.yul\":2056:2057   */\n      0x00\n        /* \"#utility.yul\":2081:2134   */\n      tag_147\n        /* \"#utility.yul\":2126:2133   */\n      dup5\n        /* \"#utility.yul\":2117:2123   */\n      dup3\n        /* \"#utility.yul\":2106:2115   */\n      dup6\n        /* \"#utility.yul\":2102:2124   */\n      add\n        /* \"#utility.yul\":2081:2134   */\n      tag_100\n      jump\t// in\n    tag_147:\n        /* \"#utility.yul\":2071:2134   */\n      swap2\n      pop\n        /* \"#utility.yul\":2027:2144   */\n      pop\n        /* \"#utility.yul\":1822:2151   */\n      swap3\n      swap2\n      pop\n      pop\n      jump\t// out\n        /* \"#utility.yul\":2157:2275   */\n    tag_104:\n        /* \"#utility.yul\":2244:2268   */\n      tag_149\n        /* \"#utility.yul\":2262:2267   */\n      dup2\n        /* \"#utility.yul\":2244:2268   */\n      tag_101\n      jump\t// in\n    tag_149:\n        /* \"#utility.yul\":2239:2242   */\n      dup3\n        /* \"#utility.yul\":2232:2269   */\n      mstore\n        /* \"#utility.yul\":2157:2275   */\n      pop\n      pop\n      jump\t// out\n        /* \"#utility.yul\":2281:2503   */\n    tag_25:\n        /* \"#utility.yul\":2374:2378   */\n      0x00\n        /* \"#utility.yul\":2412:2414   */\n      0x20\n        /* \"#utility.yul\":2401:2410   */\n      dup3\n        /* \"#utility.yul\":2397:2415   */\n      add\n        /* \"#utility.yul\":2389:2415   */\n      swap1\n      pop\n        /* \"#utility.yul\":2425:2496   */\n      tag_151\n        /* \"#utility.yul\":2493:2494   */\n      0x00\n        /* \"#utility.yul\":2482:2491   */\n      dup4\n        /* \"#utility.yul\":2478:2495   */\n      add\n        /* \"#utility.yul\":2469:2475   */\n      dup5\n        /* \"#utility.yul\":2425:2496   */\n      tag_104\n      jump\t// in\n    tag_151:\n        /* \"#utility.yul\":2281:2503   */\n      swap3\n      swap2\n      pop\n      pop\n      jump\t// out\n        /* \"#utility.yul\":2509:2627   */\n    tag_105:\n        /* \"#utility.yul\":2596:2620   */\n      tag_153\n        /* \"#utility.yul\":2614:2619   */\n      dup2\n        /* \"#utility.yul\":2596:2620   */\n      tag_98\n      jump\t// in\n    tag_153:\n        /* \"#utility.yul\":2591:2594   */\n      dup3\n        /* \"#utility.yul\":2584:2621   */\n      mstore\n        /* \"#utility.yul\":2509:2627   */\n      pop\n      pop\n      jump\t// out\n        /* \"#utility.yul\":2633:2855   */\n    tag_29:\n        /* \"#utility.yul\":2726:2730   */\n      0x00\n        /* \"#utility.yul\":2764:2766   */\n      0x20\n        /* \"#utility.yul\":2753:2762   */\n      dup3\n        /* \"#utility.yul\":2749:2767   */\n      add\n        /* \"#utility.yul\":2741:2767   */\n      swap1\n      pop\n        /* \"#utility.yul\":2777:2848   */\n      tag_155\n        /* \"#utility.yul\":2845:2846   */\n      0x00\n        /* \"#utility.yul\":2834:2843   */\n      dup4\n        /* \"#utility.yul\":2830:2847   */\n      add\n        /* \"#utility.yul\":2821:2827   */\n      dup5\n        /* \"#utility.yul\":2777:2848   */\n      tag_105\n      jump\t// in\n    tag_155:\n        /* \"#utility.yul\":2633:2855   */\n      swap3\n      swap2\n      pop\n      pop\n      jump\t// out\n        /* \"#utility.yul\":2861:2951   */\n    tag_106:\n        /* \"#utility.yul\":2895:2902   */\n      0x00\n        /* \"#utility.yul\":2938:2943   */\n      dup2\n        /* \"#utility.yul\":2931:2944   */\n      iszero\n        /* \"#utility.yul\":2924:2945   */\n      iszero\n        /* \"#utility.yul\":2913:2945   */\n      swap1\n      pop\n        /* \"#utility.yul\":2861:2951   */\n      swap2\n      swap1\n      pop\n      jump\t// out\n        /* \"#utility.yul\":2957:3066   */\n    tag_107:\n        /* \"#utility.yul\":3038:3059   */\n      tag_158\n        /* \"#utility.yul\":3053:3058   */\n      dup2\n        /* \"#utility.yul\":3038:3059   */\n      tag_106\n      jump\t// in\n    tag_158:\n        /* \"#utility.yul\":3033:3036   */\n      dup3\n        /* \"#utility.yul\":3026:3060   */\n      mstore\n        /* \"#utility.yul\":2957:3066   */\n      pop\n      pop\n      jump\t// out\n        /* \"#utility.yul\":3072:3282   */\n    tag_44:\n        /* \"#utility.yul\":3159:3163   */\n      0x00\n        /* \"#utility.yul\":3197:3199   */\n      0x20\n        /* \"#utility.yul\":3186:3195   */\n      dup3\n        /* \"#utility.yul\":3182:3200   */\n      add\n        /* \"#utility.yul\":3174:3200   */\n      swap1\n      pop\n        /* \"#utility.yul\":3210:3275   */\n      tag_160\n        /* \"#utility.yul\":3272:3273   */\n      0x00\n        /* \"#utility.yul\":3261:3270   */\n      dup4\n        /* \"#utility.yul\":3257:3274   */\n      add\n        /* \"#utility.yul\":3248:3254   */\n      dup5\n        /* \"#utility.yul\":3210:3275   */\n      tag_107\n      jump\t// in\n    tag_160:\n        /* \"#utility.yul\":3072:3282   */\n      swap3\n      swap2\n      pop\n      pop\n      jump\t// out\n        /* \"#utility.yul\":3288:3457   */\n    tag_108:\n        /* \"#utility.yul\":3372:3383   */\n      0x00\n        /* \"#utility.yul\":3406:3412   */\n      dup3\n        /* \"#utility.yul\":3401:3404   */\n      dup3\n        /* \"#utility.yul\":3394:3413   */\n      mstore\n        /* \"#utility.yul\":3446:3450   */\n      0x20\n        /* \"#utility.yul\":3441:3444   */\n      dup3\n        /* \"#utility.yul\":3437:3451   */\n      add\n        /* \"#utility.yul\":3422:3451   */\n      swap1\n      pop\n        /* \"#utility.yul\":3288:3457   */\n      swap3\n      swap2\n      pop\n      pop\n      jump\t// out\n        /* \"#utility.yul\":3463:3683   */\n    tag_109:\n        /* \"#utility.yul\":3603:3637   */\n      0x43616c6c6572206973206e6f7420612076657269666965642070726f76696465\n        /* \"#utility.yul\":3599:3600   */\n      0x00\n        /* \"#utility.yul\":3591:3597   */\n      dup3\n        /* \"#utility.yul\":3587:3601   */\n      add\n        /* \"#utility.yul\":3580:3638   */\n      mstore\n        /* \"#utility.yul\":3672:3675   */\n      0x7200000000000000000000000000000000000000000000000000000000000000\n        /* \"#utility.yul\":3667:3669   */\n      0x20\n        /* \"#utility.yul\":3659:3665   */\n      dup3\n        /* \"#utility.yul\":3655:3670   */\n      add\n        /* \"#utility.yul\":3648:3676   */\n      mstore\n        /* \"#utility.yul\":3463:3683   */\n      pop\n      jump\t// out\n        /* \"#utility.yul\":3689:4055   */\n    tag_110:\n        /* \"#utility.yul\":3831:3834   */\n      0x00\n        /* \"#utility.yul\":3852:3919   */\n      tag_164\n        /* \"#utility.yul\":3916:3918   */\n      0x21\n        /* \"#utility.yul\":3911:3914   */\n      dup4\n        /* \"#utility.yul\":3852:3919   */\n      tag_108\n      jump\t// in\n    tag_164:\n        /* \"#utility.yul\":3845:3919   */\n      swap2\n      pop\n        /* \"#utility.yul\":3928:4021   */\n      tag_165\n        /* \"#utility.yul\":4017:4020   */\n      dup3\n        /* \"#utility.yul\":3928:4021   */\n      tag_109\n      jump\t// in\n    tag_165:\n        /* \"#utility.yul\":4046:4048   */\n      0x40\n        /* \"#utility.yul\":4041:4044   */\n      dup3\n        /* \"#utility.yul\":4037:4049   */\n      add\n        /* \"#utility.yul\":4030:4049   */\n      swap1\n      pop\n        /* \"#utility.yul\":3689:4055   */\n      swap2\n      swap1\n      pop\n      jump\t// out\n        /* \"#utility.yul\":4061:4480   */\n    tag_55:\n        /* \"#utility.yul\":4227:4231   */\n      0x00\n        /* \"#utility.yul\":4265:4267   */\n      0x20\n        /* \"#utility.yul\":4254:4263   */\n      dup3\n        /* \"#utility.yul\":4250:4268   */\n      add\n        /* \"#utility.yul\":4242:4268   */\n      swap1\n      pop\n        /* \"#utility.yul\":4314:4323   */\n      dup2\n        /* \"#utility.yul\":4308:4312   */\n      dup2\n        /* \"#utility.yul\":4304:4324   */\n      sub\n        /* \"#utility.yul\":4300:4301   */\n      0x00\n        /* \"#utility.yul\":4289:4298   */\n      dup4\n        /* \"#utility.yul\":4285:4302   */\n      add\n        /* \"#utility.yul\":4278:4325   */\n      mstore\n        /* \"#utility.yul\":4342:4473   */\n      tag_167\n        /* \"#utility.yul\":4468:4472   */\n      dup2\n        /* \"#utility.yul\":4342:4473   */\n      tag_110\n      jump\t// in\n    tag_167:\n        /* \"#utility.yul\":4334:4473   */\n      swap1\n      pop\n        /* \"#utility.yul\":4061:4480   */\n      swap2\n      swap1\n      pop\n      jump\t// out\n        /* \"#utility.yul\":4486:4666   */\n    tag_111:\n        /* \"#utility.yul\":4534:4611   */\n      0x4e487b7100000000000000000000000000000000000000000000000000000000\n        /* \"#utility.yul\":4531:4532   */\n      0x00\n        /* \"#utility.yul\":4524:4612   */\n      mstore\n        /* \"#utility.yul\":4631:4635   */\n      0x11\n        /* \"#utility.yul\":4628:4629   */\n      0x04\n        /* \"#utility.yul\":4621:4636   */\n      mstore\n        /* \"#utility.yul\":4655:4659   */\n      0x24\n        /* \"#utility.yul\":4652:4653   */\n      0x00\n        /* \"#utility.yul\":4645:4660   */\n      revert\n        /* \"#utility.yul\":4672:4863   */\n    tag_57:\n        /* \"#utility.yul\":4712:4715   */\n      0x00\n        /* \"#utility.yul\":4731:4751   */\n      tag_170\n        /* \"#utility.yul\":4749:4750   */\n      dup3\n        /* \"#utility.yul\":4731:4751   */\n      tag_101\n      jump\t// in\n    tag_170:\n        /* \"#utility.yul\":4726:4751   */\n      swap2\n      pop\n        /* \"#utility.yul\":4765:4785   */\n      tag_171\n        /* \"#utility.yul\":4783:4784   */\n      dup4\n        /* \"#utility.yul\":4765:4785   */\n      tag_101\n      jump\t// in\n    tag_171:\n        /* \"#utility.yul\":4760:4785   */\n      swap3\n      pop\n        /* \"#utility.yul\":4808:4809   */\n      dup3\n        /* \"#utility.yul\":4805:4806   */\n      dup3\n        /* \"#utility.yul\":4801:4810   */\n      add\n        /* \"#utility.yul\":4794:4810   */\n      swap1\n      pop\n        /* \"#utility.yul\":4829:4832   */\n      dup1\n        /* \"#utility.yul\":4826:4827   */\n      dup3\n        /* \"#utility.yul\":4823:4833   */\n      gt\n        /* \"#utility.yul\":4820:4856   */\n      iszero\n      tag_172\n      jumpi\n        /* \"#utility.yul\":4836:4854   */\n      tag_173\n      tag_111\n      jump\t// in\n    tag_173:\n        /* \"#utility.yul\":4820:4856   */\n    tag_172:\n        /* \"#utility.yul\":4672:4863   */\n      swap3\n      swap2\n      pop\n      pop\n      jump\t// out\n        /* \"#utility.yul\":4869:5201   */\n    tag_59:\n        /* \"#utility.yul\":4990:4994   */\n      0x00\n        /* \"#utility.yul\":5028:5030   */\n      0x40\n        /* \"#utility.yul\":5017:5026   */\n      dup3\n        /* \"#utility.yul\":5013:5031   */\n      add\n        /* \"#utility.yul\":5005:5031   */\n      swap1\n      pop\n        /* \"#utility.yul\":5041:5112   */\n      tag_175\n        /* \"#utility.yul\":5109:5110   */\n      0x00\n        /* \"#utility.yul\":5098:5107   */\n      dup4\n        /* \"#utility.yul\":5094:5111   */\n      add\n        /* \"#utility.yul\":5085:5091   */\n      dup6\n        /* \"#utility.yul\":5041:5112   */\n      tag_104\n      jump\t// in\n    tag_175:\n        /* \"#utility.yul\":5122:5194   */\n      tag_176\n        /* \"#utility.yul\":5190:5192   */\n      0x20\n        /* \"#utility.yul\":5179:5188   */\n      dup4\n        /* \"#utility.yul\":5175:5193   */\n      add\n        /* \"#utility.yul\":5166:5172   */\n      dup5\n        /* \"#utility.yul\":5122:5194   */\n      tag_104\n      jump\t// in\n    tag_176:\n        /* \"#utility.yul\":4869:5201   */\n      swap4\n      swap3\n      pop\n      pop\n      pop\n      jump\t// out\n        /* \"#utility.yul\":5207:5432   */\n    tag_112:\n        /* \"#utility.yul\":5347:5381   */\n      0x4f6e6c7920746865206f776e65722063616e2065786563757465207468697320\n        /* \"#utility.yul\":5343:5344   */\n      0x00\n        /* \"#utility.yul\":5335:5341   */\n      dup3\n        /* \"#utility.yul\":5331:5345   */\n      add\n        /* \"#utility.yul\":5324:5382   */\n      mstore\n        /* \"#utility.yul\":5416:5424   */\n      0x616374696f6e0000000000000000000000000000000000000000000000000000\n        /* \"#utility.yul\":5411:5413   */\n      0x20\n        /* \"#utility.yul\":5403:5409   */\n      dup3\n        /* \"#utility.yul\":5399:5414   */\n      add\n        /* \"#utility.yul\":5392:5425   */\n      mstore\n        /* \"#utility.yul\":5207:5432   */\n      pop\n      jump\t// out\n        /* \"#utility.yul\":5438:5804   */\n    tag_113:\n        /* \"#utility.yul\":5580:5583   */\n      0x00\n        /* \"#utility.yul\":5601:5668   */\n      tag_179\n        /* \"#utility.yul\":5665:5667   */\n      0x26\n        /* \"#utility.yul\":5660:5663   */\n      dup4\n        /* \"#utility.yul\":5601:5668   */\n      tag_108\n      jump\t// in\n    tag_179:\n        /* \"#utility.yul\":5594:5668   */\n      swap2\n      pop\n        /* \"#utility.yul\":5677:5770   */\n      tag_180\n        /* \"#utility.yul\":5766:5769   */\n      dup3\n        /* \"#utility.yul\":5677:5770   */\n      tag_112\n      jump\t// in\n    tag_180:\n        /* \"#utility.yul\":5795:5797   */\n      0x40\n        /* \"#utility.yul\":5790:5793   */\n      dup3\n        /* \"#utility.yul\":5786:5798   */\n      add\n        /* \"#utility.yul\":5779:5798   */\n      swap1\n      pop\n        /* \"#utility.yul\":5438:5804   */\n      swap2\n      swap1\n      pop\n      jump\t// out\n        /* \"#utility.yul\":5810:6229   */\n    tag_63:\n        /* \"#utility.yul\":5976:5980   */\n      0x00\n        /* \"#utility.yul\":6014:6016   */\n      0x20\n        /* \"#utility.yul\":6003:6012   */\n      dup3\n        /* \"#utility.yul\":5999:6017   */\n      add\n        /* \"#utility.yul\":5991:6017   */\n      swap1\n      pop\n        /* \"#utility.yul\":6063:6072   */\n      dup2\n        /* \"#utility.yul\":6057:6061   */\n      dup2\n        /* \"#utility.yul\":6053:6073   */\n      sub\n        /* \"#utility.yul\":6049:6050   */\n      0x00\n        /* \"#utility.yul\":6038:6047   */\n      dup4\n        /* \"#utility.yul\":6034:6051   */\n      add\n        /* \"#utility.yul\":6027:6074   */\n      mstore\n        /* \"#utility.yul\":6091:6222   */\n      tag_182\n        /* \"#utility.yul\":6217:6221   */\n      dup2\n        /* \"#utility.yul\":6091:6222   */\n      tag_113\n      jump\t// in\n    tag_182:\n        /* \"#utility.yul\":6083:6222   */\n      swap1\n      pop\n        /* \"#utility.yul\":5810:6229   */\n      swap2\n      swap1\n      pop\n      jump\t// out\n        /* \"#utility.yul\":6235:6409   */\n    tag_114:\n        /* \"#utility.yul\":6375:6401   */\n      0x50726f7669646572206973206e6f742076657269666965640000000000000000\n        /* \"#utility.yul\":6371:6372   */\n      0x00\n        /* \"#utility.yul\":6363:6369   */\n      dup3\n        /* \"#utility.yul\":6359:6373   */\n      add\n        /* \"#utility.yul\":6352:6402   */\n      mstore\n        /* \"#utility.yul\":6235:6409   */\n      pop\n      jump\t// out\n        /* \"#utility.yul\":6415:6781   */\n    tag_115:\n        /* \"#utility.yul\":6557:6560   */\n      0x00\n        /* \"#utility.yul\":6578:6645   */\n      tag_185\n        /* \"#utility.yul\":6642:6644   */\n      0x18\n        /* \"#utility.yul\":6637:6640   */\n      dup4\n        /* \"#utility.yul\":6578:6645   */\n      tag_108\n      jump\t// in\n    tag_185:\n        /* \"#utility.yul\":6571:6645   */\n      swap2\n      pop\n        /* \"#utility.yul\":6654:6747   */\n      tag_186\n        /* \"#utility.yul\":6743:6746   */\n      dup3\n        /* \"#utility.yul\":6654:6747   */\n      tag_114\n      jump\t// in\n    tag_186:\n        /* \"#utility.yul\":6772:6774   */\n      0x20\n        /* \"#utility.yul\":6767:6770   */\n      dup3\n        /* \"#utility.yul\":6763:6775   */\n      add\n        /* \"#utility.yul\":6756:6775   */\n      swap1\n      pop\n        /* \"#utility.yul\":6415:6781   */\n      swap2\n      swap1\n      pop\n      jump\t// out\n        /* \"#utility.yul\":6787:7206   */\n    tag_67:\n        /* \"#utility.yul\":6953:6957   */\n      0x00\n        /* \"#utility.yul\":6991:6993   */\n      0x20\n        /* \"#utility.yul\":6980:6989   */\n      dup3\n        /* \"#utility.yul\":6976:6994   */\n      add\n        /* \"#utility.yul\":6968:6994   */\n      swap1\n      pop\n        /* \"#utility.yul\":7040:7049   */\n      dup2\n        /* \"#utility.yul\":7034:7038   */\n      dup2\n        /* \"#utility.yul\":7030:7050   */\n      sub\n        /* \"#utility.yul\":7026:7027   */\n      0x00\n        /* \"#utility.yul\":7015:7024   */\n      dup4\n        /* \"#utility.yul\":7011:7028   */\n      add\n        /* \"#utility.yul\":7004:7051   */\n      mstore\n        /* \"#utility.yul\":7068:7199   */\n      tag_188\n        /* \"#utility.yul\":7194:7198   */\n      dup2\n        /* \"#utility.yul\":7068:7199   */\n      tag_115\n      jump\t// in\n    tag_188:\n        /* \"#utility.yul\":7060:7199   */\n      swap1\n      pop\n        /* \"#utility.yul\":6787:7206   */\n      swap2\n      swap1\n      pop\n      jump\t// out\n        /* \"#utility.yul\":7212:7383   */\n    tag_69:\n        /* \"#utility.yul\":7251:7254   */\n      0x00\n        /* \"#utility.yul\":7274:7298   */\n      tag_190\n        /* \"#utility.yul\":7292:7297   */\n      dup3\n        /* \"#utility.yul\":7274:7298   */\n      tag_101\n      jump\t// in\n    tag_190:\n        /* \"#utility.yul\":7265:7298   */\n      swap2\n      pop\n        /* \"#utility.yul\":7320:7324   */\n      0x00\n        /* \"#utility.yul\":7313:7318   */\n      dup3\n        /* \"#utility.yul\":7310:7325   */\n      sub\n        /* \"#utility.yul\":7307:7348   */\n      tag_191\n      jumpi\n        /* \"#utility.yul\":7328:7346   */\n      tag_192\n      tag_111\n      jump\t// in\n    tag_192:\n        /* \"#utility.yul\":7307:7348   */\n    tag_191:\n        /* \"#utility.yul\":7375:7376   */\n      0x01\n        /* \"#utility.yul\":7368:7373   */\n      dup3\n        /* \"#utility.yul\":7364:7377   */\n      sub\n        /* \"#utility.yul\":7357:7377   */\n      swap1\n      pop\n        /* \"#utility.yul\":7212:7383   */\n      swap2\n      swap1\n      pop\n      jump\t// out\n        /* \"#utility.yul\":7389:7567   */\n    tag_116:\n        /* \"#utility.yul\":7529:7559   */\n      0x50726f766964657220697320616c726561647920766572696669656400000000\n        /* \"#utility.yul\":7525:7526   */\n      0x00\n        /* \"#utility.yul\":7517:7523   */\n      dup3\n        /* \"#utility.yul\":7513:7527   */\n      add\n        /* \"#utility.yul\":7506:7560   */\n      mstore\n        /* \"#utility.yul\":7389:7567   */\n      pop\n      jump\t// out\n        /* \"#utility.yul\":7573:7939   */\n    tag_117:\n        /* \"#utility.yul\":7715:7718   */\n      0x00\n        /* \"#utility.yul\":7736:7803   */\n      tag_195\n        /* \"#utility.yul\":7800:7802   */\n      0x1c\n        /* \"#utility.yul\":7795:7798   */\n      dup4\n        /* \"#utility.yul\":7736:7803   */\n      tag_108\n      jump\t// in\n    tag_195:\n        /* \"#utility.yul\":7729:7803   */\n      swap2\n      pop\n        /* \"#utility.yul\":7812:7905   */\n      tag_196\n        /* \"#utility.yul\":7901:7904   */\n      dup3\n        /* \"#utility.yul\":7812:7905   */\n      tag_116\n      jump\t// in\n    tag_196:\n        /* \"#utility.yul\":7930:7932   */\n      0x20\n        /* \"#utility.yul\":7925:7928   */\n      dup3\n        /* \"#utility.yul\":7921:7933   */\n      add\n        /* \"#utility.yul\":7914:7933   */\n      swap1\n      pop\n        /* \"#utility.yul\":7573:7939   */\n      swap2\n      swap1\n      pop\n      jump\t// out\n        /* \"#utility.yul\":7945:8364   */\n    tag_78:\n        /* \"#utility.yul\":8111:8115   */\n      0x00\n        /* \"#utility.yul\":8149:8151   */\n      0x20\n        /* \"#utility.yul\":8138:8147   */\n      dup3\n        /* \"#utility.yul\":8134:8152   */\n      add\n        /* \"#utility.yul\":8126:8152   */\n      swap1\n      pop\n        /* \"#utility.yul\":8198:8207   */\n      dup2\n        /* \"#utility.yul\":8192:8196   */\n      dup2\n        /* \"#utility.yul\":8188:8208   */\n      sub\n        /* \"#utility.yul\":8184:8185   */\n      0x00\n        /* \"#utility.yul\":8173:8182   */\n      dup4\n        /* \"#utility.yul\":8169:8186   */\n      add\n        /* \"#utility.yul\":8162:8209   */\n      mstore\n        /* \"#utility.yul\":8226:8357   */\n      tag_198\n        /* \"#utility.yul\":8352:8356   */\n      dup2\n        /* \"#utility.yul\":8226:8357   */\n      tag_117\n      jump\t// in\n    tag_198:\n        /* \"#utility.yul\":8218:8357   */\n      swap1\n      pop\n        /* \"#utility.yul\":7945:8364   */\n      swap2\n      swap1\n      pop\n      jump\t// out\n        /* \"#utility.yul\":8370:8603   */\n    tag_80:\n        /* \"#utility.yul\":8409:8412   */\n      0x00\n        /* \"#utility.yul\":8432:8456   */\n      tag_200\n        /* \"#utility.yul\":8450:8455   */\n      dup3\n        /* \"#utility.yul\":8432:8456   */\n      tag_101\n      jump\t// in\n    tag_200:\n        /* \"#utility.yul\":8423:8456   */\n      swap2\n      pop\n        /* \"#utility.yul\":8478:8544   */\n      0xffffffffffffffffffffffffffffffffffffffffffffffffffffffffffffffff\n        /* \"#utility.yul\":8471:8476   */\n      dup3\n        /* \"#utility.yul\":8468:8545   */\n      sub\n        /* \"#utility.yul\":8465:8568   */\n      tag_201\n      jumpi\n        /* \"#utility.yul\":8548:8566   */\n      tag_202\n      tag_111\n      jump\t// in\n    tag_202:\n        /* \"#utility.yul\":8465:8568   */\n    tag_201:\n        /* \"#utility.yul\":8595:8596   */\n      0x01\n        /* \"#utility.yul\":8588:8593   */\n      dup3\n        /* \"#utility.yul\":8584:8597   */\n      add\n        /* \"#utility.yul\":8577:8597   */\n      swap1\n      pop\n        /* \"#utility.yul\":8370:8603   */\n      swap2\n      swap1\n      pop\n      jump\t// out\n        /* \"#utility.yul\":8609:8788   */\n    tag_118:\n        /* \"#utility.yul\":8749:8780   */\n      0x496e73756666696369656e742066756e647320666f7220726566756e64000000\n        /* \"#utility.yul\":8745:8746   */\n      0x00\n        /* \"#utility.yul\":8737:8743   */\n      dup3\n        /* \"#utility.yul\":8733:8747   */\n      add\n        /* \"#utility.yul\":8726:8781   */\n      mstore\n        /* \"#utility.yul\":8609:8788   */\n      pop\n      jump\t// out\n        /* \"#utility.yul\":8794:9160   */\n    tag_119:\n        /* \"#utility.yul\":8936:8939   */\n      0x00\n        /* \"#utility.yul\":8957:9024   */\n      tag_205\n        /* \"#utility.yul\":9021:9023   */\n      0x1d\n        /* \"#utility.yul\":9016:9019   */\n      dup4\n        /* \"#utility.yul\":8957:9024   */\n      tag_108\n      jump\t// in\n    tag_205:\n        /* \"#utility.yul\":8950:9024   */\n      swap2\n      pop\n        /* \"#utility.yul\":9033:9126   */\n      tag_206\n        /* \"#utility.yul\":9122:9125   */\n      dup3\n        /* \"#utility.yul\":9033:9126   */\n      tag_118\n      jump\t// in\n    tag_206:\n        /* \"#utility.yul\":9151:9153   */\n      0x20\n        /* \"#utility.yul\":9146:9149   */\n      dup3\n        /* \"#utility.yul\":9142:9154   */\n      add\n        /* \"#utility.yul\":9135:9154   */\n      swap1\n      pop\n        /* \"#utility.yul\":8794:9160   */\n      swap2\n      swap1\n      pop\n      jump\t// out\n        /* \"#utility.yul\":9166:9585   */\n    tag_87:\n        /* \"#utility.yul\":9332:9336   */\n      0x00\n        /* \"#utility.yul\":9370:9372   */\n      0x20\n        /* \"#utility.yul\":9359:9368   */\n      dup3\n        /* \"#utility.yul\":9355:9373   */\n      add\n        /* \"#utility.yul\":9347:9373   */\n      swap1\n      pop\n        /* \"#utility.yul\":9419:9428   */\n      dup2\n        /* \"#utility.yul\":9413:9417   */\n      dup2\n        /* \"#utility.yul\":9409:9429   */\n      sub\n        /* \"#utility.yul\":9405:9406   */\n      0x00\n        /* \"#utility.yul\":9394:9403   */\n      dup4\n        /* \"#utility.yul\":9390:9407   */\n      add\n        /* \"#utility.yul\":9383:9430   */\n      mstore\n        /* \"#utility.yul\":9447:9578   */\n      tag_208\n        /* \"#utility.yul\":9573:9577   */\n      dup2\n        /* \"#utility.yul\":9447:9578   */\n      tag_119\n      jump\t// in\n    tag_208:\n        /* \"#utility.yul\":9439:9578   */\n      swap1\n      pop\n        /* \"#utility.yul\":9166:9585   */\n      swap2\n      swap1\n      pop\n      jump\t// out\n        /* \"#utility.yul\":9591:9785   */\n    tag_91:\n        /* \"#utility.yul\":9631:9635   */\n      0x00\n        /* \"#utility.yul\":9651:9671   */\n      tag_210\n        /* \"#utility.yul\":9669:9670   */\n      dup3\n        /* \"#utility.yul\":9651:9671   */\n      tag_101\n      jump\t// in\n    tag_210:\n        /* \"#utility.yul\":9646:9671   */\n      swap2\n      pop\n        /* \"#utility.yul\":9685:9705   */\n      tag_211\n        /* \"#utility.yul\":9703:9704   */\n      dup4\n        /* \"#utility.yul\":9685:9705   */\n      tag_101\n      jump\t// in\n    tag_211:\n        /* \"#utility.yul\":9680:9705   */\n      swap3\n      pop\n        /* \"#utility.yul\":9729:9730   */\n      dup3\n        /* \"#utility.yul\":9726:9727   */\n      dup3\n        /* \"#utility.yul\":9722:9731   */\n      sub\n        /* \"#utility.yul\":9714:9731   */\n      swap1\n      pop\n        /* \"#utility.yul\":9753:9754   */\n      dup2\n        /* \"#utility.yul\":9747:9751   */\n      dup2\n        /* \"#utility.yul\":9744:9755   */\n      gt\n        /* \"#utility.yul\":9741:9778   */\n      iszero\n      tag_212\n      jumpi\n        /* \"#utility.yul\":9758:9776   */\n      tag_213\n      tag_111\n      jump\t// in\n    tag_213:\n        /* \"#utility.yul\":9741:9778   */\n    tag_212:\n        /* \"#utility.yul\":9591:9785   */\n      swap3\n      swap2\n      pop\n      pop\n      jump\t// out\n\n    auxdata: 0xa264697066735822122087d9009c8cc8275c191a4ffff5b71cebb1f0eb7b2b9a8fd816dd436e6fbeb0c364736f6c63430008160033\n}\n",
				"bytecode": {
					"linkReferences": {},
					"object": "608060405234801561000f575f80fd5b50335f806101000a81548173ffffffffffffffffffffffffffffffffffffffff021916908373ffffffffffffffffffffffffffffffffffffffff160217905550610e9d8061005c5f395ff3fe608060405234801561000f575f80fd5b506004361061009c575f3560e01c8063a144efb111610064578063a144efb114610132578063ced65c8e14610162578063d2ab20981461017e578063ec431252146101ae578063fb44e514146101ca5761009c565b8063466caad3146100a0578063476977f7146100bc57806374c83268146100d85780638da5cb5b146100f65780639ba588cc14610114575b5f80fd5b6100ba60048036038101906100b591906109dd565b6101fa565b005b6100d660048036038101906100d19190610a2d565b61032b565b005b6100e06104e6565b6040516100ed9190610a67565b60405180910390f35b6100fe6104ec565b60405161010b9190610a8f565b60405180910390f35b61011c61050f565b6040516101299190610a67565b60405180910390f35b61014c60048036038101906101479190610a2d565b610518565b6040516101599190610a67565b60405180910390f35b61017c60048036038101906101779190610a2d565b61052d565b005b61019860048036038101906101939190610a2d565b6106ea565b6040516101a59190610ac2565b60405180910390f35b6101c860048036038101906101c391906109dd565b610707565b005b6101e460048036038101906101df9190610a2d565b6108fa565b6040516101f19190610ac2565b60405180910390f35b60025f3373ffffffffffffffffffffffffffffffffffffffff1673ffffffffffffffffffffffffffffffffffffffff1681526020019081526020015f205f9054906101000a900460ff16610283576040517f08c379a000000000000000000000000000000000000000000000000000000000815260040161027a90610b5b565b60405180910390fd5b8060035f8573ffffffffffffffffffffffffffffffffffffffff1673ffffffffffffffffffffffffffffffffffffffff1681526020019081526020015f205f8282546102cf9190610ba6565b925050819055508273ffffffffffffffffffffffffffffffffffffffff167f12537b37a1526891b5a29640e94f14e2853cb73c79336a1da4334237cd170a1e838360405161031e929190610bd9565b60405180910390a2505050565b5f8054906101000a900473ffffffffffffffffffffffffffffffffffffffff1673ffffffffffffffffffffffffffffffffffffffff163373ffffffffffffffffffffffffffffffffffffffff16146103b8576040517f08c379a00000000000000000000000000000000000000000000000000000000081526004016103af90610c70565b60405180910390fd5b60025f8273ffffffffffffffffffffffffffffffffffffffff1673ffffffffffffffffffffffffffffffffffffffff1681526020019081526020015f205f9054906101000a900460ff16610441576040517f08c379a000000000000000000000000000000000000000000000000000000000815260040161043890610cd8565b60405180910390fd5b5f60025f8373ffffffffffffffffffffffffffffffffffffffff1673ffffffffffffffffffffffffffffffffffffffff1681526020019081526020015f205f6101000a81548160ff02191690831515021790555060015f8154809291906104a790610cf6565b91905055507fa62ee240a1c9c5f4487f63627c0fc50c051c76a964e85ee2844e34ff506a505a816040516104db9190610a8f565b60405180910390a150565b60015481565b5f8054906101000a900473ffffffffffffffffffffffffffffffffffffffff1681565b5f600154905090565b6003602052805f5260405f205f915090505481565b5f8054906101000a900473ffffffffffffffffffffffffffffffffffffffff1673ffffffffffffffffffffffffffffffffffffffff163373ffffffffffffffffffffffffffffffffffffffff16146105ba576040517f08c379a00000000000000000000000000000000000000000000000000000000081526004016105b190610c70565b60405180910390fd5b60025f8273ffffffffffffffffffffffffffffffffffffffff1673ffffffffffffffffffffffffffffffffffffffff1681526020019081526020015f205f9054906101000a900460ff1615610644576040517f08c379a000000000000000000000000000000000000000000000000000000000815260040161063b90610d67565b60405180910390fd5b600160025f8373ffffffffffffffffffffffffffffffffffffffff1673ffffffffffffffffffffffffffffffffffffffff1681526020019081526020015f205f6101000a81548160ff02191690831515021790555060015f8154809291906106ab90610d85565b91905055507f049c8250a65e3e2f188abf247b68be37f9ed7f867dc1671c11323587524206be816040516106df9190610a8f565b60405180910390a150565b6002602052805f5260405f205f915054906101000a900460ff1681565b60025f3373ffffffffffffffffffffffffffffffffffffffff1673ffffffffffffffffffffffffffffffffffffffff1681526020019081526020015f205f9054906101000a900460ff16610790576040517f08c379a000000000000000000000000000000000000000000000000000000000815260040161078790610b5b565b60405180910390fd5b8060035f8573ffffffffffffffffffffffffffffffffffffffff1673ffffffffffffffffffffffffffffffffffffffff1681526020019081526020015f20541015610810576040517f08c379a000000000000000000000000000000000000000000000000000000000815260040161080790610e16565b60405180910390fd5b8273ffffffffffffffffffffffffffffffffffffffff166108fc8290811502906040515f60405180830381858888f19350505050158015610853573d5f803e3d5ffd5b508060035f8573ffffffffffffffffffffffffffffffffffffffff1673ffffffffffffffffffffffffffffffffffffffff1681526020019081526020015f205f8282546108a09190610e34565b925050819055508273ffffffffffffffffffffffffffffffffffffffff167f6719b0b1a59584aa9c860859562c6aa9fe1e2c849692a6add22e5d95e7f655d5826040516108ed9190610a67565b60405180910390a2505050565b5f60025f8373ffffffffffffffffffffffffffffffffffffffff1673ffffffffffffffffffffffffffffffffffffffff1681526020019081526020015f205f9054906101000a900460ff169050919050565b5f80fd5b5f73ffffffffffffffffffffffffffffffffffffffff82169050919050565b5f61097982610950565b9050919050565b6109898161096f565b8114610993575f80fd5b50565b5f813590506109a481610980565b92915050565b5f819050919050565b6109bc816109aa565b81146109c6575f80fd5b50565b5f813590506109d7816109b3565b92915050565b5f805f606084860312156109f4576109f361094c565b5b5f610a0186828701610996565b9350506020610a12868287016109c9565b9250506040610a23868287016109c9565b9150509250925092565b5f60208284031215610a4257610a4161094c565b5b5f610a4f84828501610996565b91505092915050565b610a61816109aa565b82525050565b5f602082019050610a7a5f830184610a58565b92915050565b610a898161096f565b82525050565b5f602082019050610aa25f830184610a80565b92915050565b5f8115159050919050565b610abc81610aa8565b82525050565b5f602082019050610ad55f830184610ab3565b92915050565b5f82825260208201905092915050565b7f43616c6c6572206973206e6f7420612076657269666965642070726f766964655f8201527f7200000000000000000000000000000000000000000000000000000000000000602082015250565b5f610b45602183610adb565b9150610b5082610aeb565b604082019050919050565b5f6020820190508181035f830152610b7281610b39565b9050919050565b7f4e487b71000000000000000000000000000000000000000000000000000000005f52601160045260245ffd5b5f610bb0826109aa565b9150610bbb836109aa565b9250828201905080821115610bd357610bd2610b79565b5b92915050565b5f604082019050610bec5f830185610a58565b610bf96020830184610a58565b9392505050565b7f4f6e6c7920746865206f776e65722063616e20657865637574652074686973205f8201527f616374696f6e0000000000000000000000000000000000000000000000000000602082015250565b5f610c5a602683610adb565b9150610c6582610c00565b604082019050919050565b5f6020820190508181035f830152610c8781610c4e565b9050919050565b7f50726f7669646572206973206e6f7420766572696669656400000000000000005f82015250565b5f610cc2601883610adb565b9150610ccd82610c8e565b602082019050919050565b5f6020820190508181035f830152610cef81610cb6565b9050919050565b5f610d00826109aa565b91505f8203610d1257610d11610b79565b5b600182039050919050565b7f50726f766964657220697320616c7265616479207665726966696564000000005f82015250565b5f610d51601c83610adb565b9150610d5c82610d1d565b602082019050919050565b5f6020820190508181035f830152610d7e81610d45565b9050919050565b5f610d8f826109aa565b91507fffffffffffffffffffffffffffffffffffffffffffffffffffffffffffffffff8203610dc157610dc0610b79565b5b600182019050919050565b7f496e73756666696369656e742066756e647320666f7220726566756e640000005f82015250565b5f610e00601d83610adb565b9150610e0b82610dcc565b602082019050919050565b5f6020820190508181035f830152610e2d81610df4565b9050919050565b5f610e3e826109aa565b9150610e49836109aa565b9250828203905081811115610e6157610e60610b79565b5b9291505056fea264697066735822122087d9009c8cc8275c191a4ffff5b71cebb1f0eb7b2b9a8fd816dd436e6fbeb0c364736f6c63430008160033",
					"opcodes": "PUSH1 0x80 PUSH1 0x40 MSTORE CALLVALUE DUP1 ISZERO PUSH2 0xF JUMPI PUSH0 DUP1 REVERT JUMPDEST POP CALLER PUSH0 DUP1 PUSH2 0x100 EXP DUP2 SLOAD DUP2 PUSH20 0xFFFFFFFFFFFFFFFFFFFFFFFFFFFFFFFFFFFFFFFF MUL NOT AND SWAP1 DUP4 PUSH20 0xFFFFFFFFFFFFFFFFFFFFFFFFFFFFFFFFFFFFFFFF AND MUL OR SWAP1 SSTORE POP PUSH2 0xE9D DUP1 PUSH2 0x5C PUSH0 CODECOPY PUSH0 RETURN INVALID PUSH1 0x80 PUSH1 0x40 MSTORE CALLVALUE DUP1 ISZERO PUSH2 0xF JUMPI PUSH0 DUP1 REVERT JUMPDEST POP PUSH1 0x4 CALLDATASIZE LT PUSH2 0x9C JUMPI PUSH0 CALLDATALOAD PUSH1 0xE0 SHR DUP1 PUSH4 0xA144EFB1 GT PUSH2 0x64 JUMPI DUP1 PUSH4 0xA144EFB1 EQ PUSH2 0x132 JUMPI DUP1 PUSH4 0xCED65C8E EQ PUSH2 0x162 JUMPI DUP1 PUSH4 0xD2AB2098 EQ PUSH2 0x17E JUMPI DUP1 PUSH4 0xEC431252 EQ PUSH2 0x1AE JUMPI DUP1 PUSH4 0xFB44E514 EQ PUSH2 0x1CA JUMPI PUSH2 0x9C JUMP JUMPDEST DUP1 PUSH4 0x466CAAD3 EQ PUSH2 0xA0 JUMPI DUP1 PUSH4 0x476977F7 EQ PUSH2 0xBC JUMPI DUP1 PUSH4 0x74C83268 EQ PUSH2 0xD8 JUMPI DUP1 PUSH4 0x8DA5CB5B EQ PUSH2 0xF6 JUMPI DUP1 PUSH4 0x9BA588CC EQ PUSH2 0x114 JUMPI JUMPDEST PUSH0 DUP1 REVERT JUMPDEST PUSH2 0xBA PUSH1 0x4 DUP1 CALLDATASIZE SUB DUP2 ADD SWAP1 PUSH2 0xB5 SWAP2 SWAP1 PUSH2 0x9DD JUMP JUMPDEST PUSH2 0x1FA JUMP JUMPDEST STOP JUMPDEST PUSH2 0xD6 PUSH1 0x4 DUP1 CALLDATASIZE SUB DUP2 ADD SWAP1 PUSH2 0xD1 SWAP2 SWAP1 PUSH2 0xA2D JUMP JUMPDEST PUSH2 0x32B JUMP JUMPDEST STOP JUMPDEST PUSH2 0xE0 PUSH2 0x4E6 JUMP JUMPDEST PUSH1 0x40 MLOAD PUSH2 0xED SWAP2 SWAP1 PUSH2 0xA67 JUMP JUMPDEST PUSH1 0x40 MLOAD DUP1 SWAP2 SUB SWAP1 RETURN JUMPDEST PUSH2 0xFE PUSH2 0x4EC JUMP JUMPDEST PUSH1 0x40 MLOAD PUSH2 0x10B SWAP2 SWAP1 PUSH2 0xA8F JUMP JUMPDEST PUSH1 0x40 MLOAD DUP1 SWAP2 SUB SWAP1 RETURN JUMPDEST PUSH2 0x11C PUSH2 0x50F JUMP JUMPDEST PUSH1 0x40 MLOAD PUSH2 0x129 SWAP2 SWAP1 PUSH2 0xA67 JUMP JUMPDEST PUSH1 0x40 MLOAD DUP1 SWAP2 SUB SWAP1 RETURN JUMPDEST PUSH2 0x14C PUSH1 0x4 DUP1 CALLDATASIZE SUB DUP2 ADD SWAP1 PUSH2 0x147 SWAP2 SWAP1 PUSH2 0xA2D JUMP JUMPDEST PUSH2 0x518 JUMP JUMPDEST PUSH1 0x40 MLOAD PUSH2 0x159 SWAP2 SWAP1 PUSH2 0xA67 JUMP JUMPDEST PUSH1 0x40 MLOAD DUP1 SWAP2 SUB SWAP1 RETURN JUMPDEST PUSH2 0x17C PUSH1 0x4 DUP1 CALLDATASIZE SUB DUP2 ADD SWAP1 PUSH2 0x177 SWAP2 SWAP1 PUSH2 0xA2D JUMP JUMPDEST PUSH2 0x52D JUMP JUMPDEST STOP JUMPDEST PUSH2 0x198 PUSH1 0x4 DUP1 CALLDATASIZE SUB DUP2 ADD SWAP1 PUSH2 0x193 SWAP2 SWAP1 PUSH2 0xA2D JUMP JUMPDEST PUSH2 0x6EA JUMP JUMPDEST PUSH1 0x40 MLOAD PUSH2 0x1A5 SWAP2 SWAP1 PUSH2 0xAC2 JUMP JUMPDEST PUSH1 0x40 MLOAD DUP1 SWAP2 SUB SWAP1 RETURN JUMPDEST PUSH2 0x1C8 PUSH1 0x4 DUP1 CALLDATASIZE SUB DUP2 ADD SWAP1 PUSH2 0x1C3 SWAP2 SWAP1 PUSH2 0x9DD JUMP JUMPDEST PUSH2 0x707 JUMP JUMPDEST STOP JUMPDEST PUSH2 0x1E4 PUSH1 0x4 DUP1 CALLDATASIZE SUB DUP2 ADD SWAP1 PUSH2 0x1DF SWAP2 SWAP1 PUSH2 0xA2D JUMP JUMPDEST PUSH2 0x8FA JUMP JUMPDEST PUSH1 0x40 MLOAD PUSH2 0x1F1 SWAP2 SWAP1 PUSH2 0xAC2 JUMP JUMPDEST PUSH1 0x40 MLOAD DUP1 SWAP2 SUB SWAP1 RETURN JUMPDEST PUSH1 0x2 PUSH0 CALLER PUSH20 0xFFFFFFFFFFFFFFFFFFFFFFFFFFFFFFFFFFFFFFFF AND PUSH20 0xFFFFFFFFFFFFFFFFFFFFFFFFFFFFFFFFFFFFFFFF AND DUP2 MSTORE PUSH1 0x20 ADD SWAP1 DUP2 MSTORE PUSH1 0x20 ADD PUSH0 KECCAK256 PUSH0 SWAP1 SLOAD SWAP1 PUSH2 0x100 EXP SWAP1 DIV PUSH1 0xFF AND PUSH2 0x283 JUMPI PUSH1 0x40 MLOAD PUSH32 0x8C379A000000000000000000000000000000000000000000000000000000000 DUP2 MSTORE PUSH1 0x4 ADD PUSH2 0x27A SWAP1 PUSH2 0xB5B JUMP JUMPDEST PUSH1 0x40 MLOAD DUP1 SWAP2 SUB SWAP1 REVERT JUMPDEST DUP1 PUSH1 0x3 PUSH0 DUP6 PUSH20 0xFFFFFFFFFFFFFFFFFFFFFFFFFFFFFFFFFFFFFFFF AND PUSH20 0xFFFFFFFFFFFFFFFFFFFFFFFFFFFFFFFFFFFFFFFF AND DUP2 MSTORE PUSH1 0x20 ADD SWAP1 DUP2 MSTORE PUSH1 0x20 ADD PUSH0 KECCAK256 PUSH0 DUP3 DUP3 SLOAD PUSH2 0x2CF SWAP2 SWAP1 PUSH2 0xBA6 JUMP JUMPDEST SWAP3 POP POP DUP2 SWAP1 SSTORE POP DUP3 PUSH20 0xFFFFFFFFFFFFFFFFFFFFFFFFFFFFFFFFFFFFFFFF AND PUSH32 0x12537B37A1526891B5A29640E94F14E2853CB73C79336A1DA4334237CD170A1E DUP4 DUP4 PUSH1 0x40 MLOAD PUSH2 0x31E SWAP3 SWAP2 SWAP1 PUSH2 0xBD9 JUMP JUMPDEST PUSH1 0x40 MLOAD DUP1 SWAP2 SUB SWAP1 LOG2 POP POP POP JUMP JUMPDEST PUSH0 DUP1 SLOAD SWAP1 PUSH2 0x100 EXP SWAP1 DIV PUSH20 0xFFFFFFFFFFFFFFFFFFFFFFFFFFFFFFFFFFFFFFFF AND PUSH20 0xFFFFFFFFFFFFFFFFFFFFFFFFFFFFFFFFFFFFFFFF AND CALLER PUSH20 0xFFFFFFFFFFFFFFFFFFFFFFFFFFFFFFFFFFFFFFFF AND EQ PUSH2 0x3B8 JUMPI PUSH1 0x40 MLOAD PUSH32 0x8C379A000000000000000000000000000000000000000000000000000000000 DUP2 MSTORE PUSH1 0x4 ADD PUSH2 0x3AF SWAP1 PUSH2 0xC70 JUMP JUMPDEST PUSH1 0x40 MLOAD DUP1 SWAP2 SUB SWAP1 REVERT JUMPDEST PUSH1 0x2 PUSH0 DUP3 PUSH20 0xFFFFFFFFFFFFFFFFFFFFFFFFFFFFFFFFFFFFFFFF AND PUSH20 0xFFFFFFFFFFFFFFFFFFFFFFFFFFFFFFFFFFFFFFFF AND DUP2 MSTORE PUSH1 0x20 ADD SWAP1 DUP2 MSTORE PUSH1 0x20 ADD PUSH0 KECCAK256 PUSH0 SWAP1 SLOAD SWAP1 PUSH2 0x100 EXP SWAP1 DIV PUSH1 0xFF AND PUSH2 0x441 JUMPI PUSH1 0x40 MLOAD PUSH32 0x8C379A000000000000000000000000000000000000000000000000000000000 DUP2 MSTORE PUSH1 0x4 ADD PUSH2 0x438 SWAP1 PUSH2 0xCD8 JUMP JUMPDEST PUSH1 0x40 MLOAD DUP1 SWAP2 SUB SWAP1 REVERT JUMPDEST PUSH0 PUSH1 0x2 PUSH0 DUP4 PUSH20 0xFFFFFFFFFFFFFFFFFFFFFFFFFFFFFFFFFFFFFFFF AND PUSH20 0xFFFFFFFFFFFFFFFFFFFFFFFFFFFFFFFFFFFFFFFF AND DUP2 MSTORE PUSH1 0x20 ADD SWAP1 DUP2 MSTORE PUSH1 0x20 ADD PUSH0 KECCAK256 PUSH0 PUSH2 0x100 EXP DUP2 SLOAD DUP2 PUSH1 0xFF MUL NOT AND SWAP1 DUP4 ISZERO ISZERO MUL OR SWAP1 SSTORE POP PUSH1 0x1 PUSH0 DUP2 SLOAD DUP1 SWAP3 SWAP2 SWAP1 PUSH2 0x4A7 SWAP1 PUSH2 0xCF6 JUMP JUMPDEST SWAP2 SWAP1 POP SSTORE POP PUSH32 0xA62EE240A1C9C5F4487F63627C0FC50C051C76A964E85EE2844E34FF506A505A DUP2 PUSH1 0x40 MLOAD PUSH2 0x4DB SWAP2 SWAP1 PUSH2 0xA8F JUMP JUMPDEST PUSH1 0x40 MLOAD DUP1 SWAP2 SUB SWAP1 LOG1 POP JUMP JUMPDEST PUSH1 0x1 SLOAD DUP2 JUMP JUMPDEST PUSH0 DUP1 SLOAD SWAP1 PUSH2 0x100 EXP SWAP1 DIV PUSH20 0xFFFFFFFFFFFFFFFFFFFFFFFFFFFFFFFFFFFFFFFF AND DUP2 JUMP JUMPDEST PUSH0 PUSH1 0x1 SLOAD SWAP1 POP SWAP1 JUMP JUMPDEST PUSH1 0x3 PUSH1 0x20 MSTORE DUP1 PUSH0 MSTORE PUSH1 0x40 PUSH0 KECCAK256 PUSH0 SWAP2 POP SWAP1 POP SLOAD DUP2 JUMP JUMPDEST PUSH0 DUP1 SLOAD SWAP1 PUSH2 0x100 EXP SWAP1 DIV PUSH20 0xFFFFFFFFFFFFFFFFFFFFFFFFFFFFFFFFFFFFFFFF AND PUSH20 0xFFFFFFFFFFFFFFFFFFFFFFFFFFFFFFFFFFFFFFFF AND CALLER PUSH20 0xFFFFFFFFFFFFFFFFFFFFFFFFFFFFFFFFFFFFFFFF AND EQ PUSH2 0x5BA JUMPI PUSH1 0x40 MLOAD PUSH32 0x8C379A000000000000000000000000000000000000000000000000000000000 DUP2 MSTORE PUSH1 0x4 ADD PUSH2 0x5B1 SWAP1 PUSH2 0xC70 JUMP JUMPDEST PUSH1 0x40 MLOAD DUP1 SWAP2 SUB SWAP1 REVERT JUMPDEST PUSH1 0x2 PUSH0 DUP3 PUSH20 0xFFFFFFFFFFFFFFFFFFFFFFFFFFFFFFFFFFFFFFFF AND PUSH20 0xFFFFFFFFFFFFFFFFFFFFFFFFFFFFFFFFFFFFFFFF AND DUP2 MSTORE PUSH1 0x20 ADD SWAP1 DUP2 MSTORE PUSH1 0x20 ADD PUSH0 KECCAK256 PUSH0 SWAP1 SLOAD SWAP1 PUSH2 0x100 EXP SWAP1 DIV PUSH1 0xFF AND ISZERO PUSH2 0x644 JUMPI PUSH1 0x40 MLOAD PUSH32 0x8C379A000000000000000000000000000000000000000000000000000000000 DUP2 MSTORE PUSH1 0x4 ADD PUSH2 0x63B SWAP1 PUSH2 0xD67 JUMP JUMPDEST PUSH1 0x40 MLOAD DUP1 SWAP2 SUB SWAP1 REVERT JUMPDEST PUSH1 0x1 PUSH1 0x2 PUSH0 DUP4 PUSH20 0xFFFFFFFFFFFFFFFFFFFFFFFFFFFFFFFFFFFFFFFF AND PUSH20 0xFFFFFFFFFFFFFFFFFFFFFFFFFFFFFFFFFFFFFFFF AND DUP2 MSTORE PUSH1 0x20 ADD SWAP1 DUP2 MSTORE PUSH1 0x20 ADD PUSH0 KECCAK256 PUSH0 PUSH2 0x100 EXP DUP2 SLOAD DUP2 PUSH1 0xFF MUL NOT AND SWAP1 DUP4 ISZERO ISZERO MUL OR SWAP1 SSTORE POP PUSH1 0x1 PUSH0 DUP2 SLOAD DUP1 SWAP3 SWAP2 SWAP1 PUSH2 0x6AB SWAP1 PUSH2 0xD85 JUMP JUMPDEST SWAP2 SWAP1 POP SSTORE POP PUSH32 0x49C8250A65E3E2F188ABF247B68BE37F9ED7F867DC1671C11323587524206BE DUP2 PUSH1 0x40 MLOAD PUSH2 0x6DF SWAP2 SWAP1 PUSH2 0xA8F JUMP JUMPDEST PUSH1 0x40 MLOAD DUP1 SWAP2 SUB SWAP1 LOG1 POP JUMP JUMPDEST PUSH1 0x2 PUSH1 0x20 MSTORE DUP1 PUSH0 MSTORE PUSH1 0x40 PUSH0 KECCAK256 PUSH0 SWAP2 POP SLOAD SWAP1 PUSH2 0x100 EXP SWAP1 DIV PUSH1 0xFF AND DUP2 JUMP JUMPDEST PUSH1 0x2 PUSH0 CALLER PUSH20 0xFFFFFFFFFFFFFFFFFFFFFFFFFFFFFFFFFFFFFFFF AND PUSH20 0xFFFFFFFFFFFFFFFFFFFFFFFFFFFFFFFFFFFFFFFF AND DUP2 MSTORE PUSH1 0x20 ADD SWAP1 DUP2 MSTORE PUSH1 0x20 ADD PUSH0 KECCAK256 PUSH0 SWAP1 SLOAD SWAP1 PUSH2 0x100 EXP SWAP1 DIV PUSH1 0xFF AND PUSH2 0x790 JUMPI PUSH1 0x40 MLOAD PUSH32 0x8C379A000000000000000000000000000000000000000000000000000000000 DUP2 MSTORE PUSH1 0x4 ADD PUSH2 0x787 SWAP1 PUSH2 0xB5B JUMP JUMPDEST PUSH1 0x40 MLOAD DUP1 SWAP2 SUB SWAP1 REVERT JUMPDEST DUP1 PUSH1 0x3 PUSH0 DUP6 PUSH20 0xFFFFFFFFFFFFFFFFFFFFFFFFFFFFFFFFFFFFFFFF AND PUSH20 0xFFFFFFFFFFFFFFFFFFFFFFFFFFFFFFFFFFFFFFFF AND DUP2 MSTORE PUSH1 0x20 ADD SWAP1 DUP2 MSTORE PUSH1 0x20 ADD PUSH0 KECCAK256 SLOAD LT ISZERO PUSH2 0x810 JUMPI PUSH1 0x40 MLOAD PUSH32 0x8C379A000000000000000000000000000000000000000000000000000000000 DUP2 MSTORE PUSH1 0x4 ADD PUSH2 0x807 SWAP1 PUSH2 0xE16 JUMP JUMPDEST PUSH1 0x40 MLOAD DUP1 SWAP2 SUB SWAP1 REVERT JUMPDEST DUP3 PUSH20 0xFFFFFFFFFFFFFFFFFFFFFFFFFFFFFFFFFFFFFFFF AND PUSH2 0x8FC DUP3 SWAP1 DUP2 ISZERO MUL SWAP1 PUSH1 0x40 MLOAD PUSH0 PUSH1 0x40 MLOAD DUP1 DUP4 SUB DUP2 DUP6 DUP9 DUP9 CALL SWAP4 POP POP POP POP ISZERO DUP1 ISZERO PUSH2 0x853 JUMPI RETURNDATASIZE PUSH0 DUP1 RETURNDATACOPY RETURNDATASIZE PUSH0 REVERT JUMPDEST POP DUP1 PUSH1 0x3 PUSH0 DUP6 PUSH20 0xFFFFFFFFFFFFFFFFFFFFFFFFFFFFFFFFFFFFFFFF AND PUSH20 0xFFFFFFFFFFFFFFFFFFFFFFFFFFFFFFFFFFFFFFFF AND DUP2 MSTORE PUSH1 0x20 ADD SWAP1 DUP2 MSTORE PUSH1 0x20 ADD PUSH0 KECCAK256 PUSH0 DUP3 DUP3 SLOAD PUSH2 0x8A0 SWAP2 SWAP1 PUSH2 0xE34 JUMP JUMPDEST SWAP3 POP POP DUP2 SWAP1 SSTORE POP DUP3 PUSH20 0xFFFFFFFFFFFFFFFFFFFFFFFFFFFFFFFFFFFFFFFF AND PUSH32 0x6719B0B1A59584AA9C860859562C6AA9FE1E2C849692A6ADD22E5D95E7F655D5 DUP3 PUSH1 0x40 MLOAD PUSH2 0x8ED SWAP2 SWAP1 PUSH2 0xA67 JUMP JUMPDEST PUSH1 0x40 MLOAD DUP1 SWAP2 SUB SWAP1 LOG2 POP POP POP JUMP JUMPDEST PUSH0 PUSH1 0x2 PUSH0 DUP4 PUSH20 0xFFFFFFFFFFFFFFFFFFFFFFFFFFFFFFFFFFFFFFFF AND PUSH20 0xFFFFFFFFFFFFFFFFFFFFFFFFFFFFFFFFFFFFFFFF AND DUP2 MSTORE PUSH1 0x20 ADD SWAP1 DUP2 MSTORE PUSH1 0x20 ADD PUSH0 KECCAK256 PUSH0 SWAP1 SLOAD SWAP1 PUSH2 0x100 EXP SWAP1 DIV PUSH1 0xFF AND SWAP1 POP SWAP2 SWAP1 POP JUMP JUMPDEST PUSH0 DUP1 REVERT JUMPDEST PUSH0 PUSH20 0xFFFFFFFFFFFFFFFFFFFFFFFFFFFFFFFFFFFFFFFF DUP3 AND SWAP1 POP SWAP2 SWAP1 POP JUMP JUMPDEST PUSH0 PUSH2 0x979 DUP3 PUSH2 0x950 JUMP JUMPDEST SWAP1 POP SWAP2 SWAP1 POP JUMP JUMPDEST PUSH2 0x989 DUP2 PUSH2 0x96F JUMP JUMPDEST DUP2 EQ PUSH2 0x993 JUMPI PUSH0 DUP1 REVERT JUMPDEST POP JUMP JUMPDEST PUSH0 DUP2 CALLDATALOAD SWAP1 POP PUSH2 0x9A4 DUP2 PUSH2 0x980 JUMP JUMPDEST SWAP3 SWAP2 POP POP JUMP JUMPDEST PUSH0 DUP2 SWAP1 POP SWAP2 SWAP1 POP JUMP JUMPDEST PUSH2 0x9BC DUP2 PUSH2 0x9AA JUMP JUMPDEST DUP2 EQ PUSH2 0x9C6 JUMPI PUSH0 DUP1 REVERT JUMPDEST POP JUMP JUMPDEST PUSH0 DUP2 CALLDATALOAD SWAP1 POP PUSH2 0x9D7 DUP2 PUSH2 0x9B3 JUMP JUMPDEST SWAP3 SWAP2 POP POP JUMP JUMPDEST PUSH0 DUP1 PUSH0 PUSH1 0x60 DUP5 DUP7 SUB SLT ISZERO PUSH2 0x9F4 JUMPI PUSH2 0x9F3 PUSH2 0x94C JUMP JUMPDEST JUMPDEST PUSH0 PUSH2 0xA01 DUP7 DUP3 DUP8 ADD PUSH2 0x996 JUMP JUMPDEST SWAP4 POP POP PUSH1 0x20 PUSH2 0xA12 DUP7 DUP3 DUP8 ADD PUSH2 0x9C9 JUMP JUMPDEST SWAP3 POP POP PUSH1 0x40 PUSH2 0xA23 DUP7 DUP3 DUP8 ADD PUSH2 0x9C9 JUMP JUMPDEST SWAP2 POP POP SWAP3 POP SWAP3 POP SWAP3 JUMP JUMPDEST PUSH0 PUSH1 0x20 DUP3 DUP5 SUB SLT ISZERO PUSH2 0xA42 JUMPI PUSH2 0xA41 PUSH2 0x94C JUMP JUMPDEST JUMPDEST PUSH0 PUSH2 0xA4F DUP5 DUP3 DUP6 ADD PUSH2 0x996 JUMP JUMPDEST SWAP2 POP POP SWAP3 SWAP2 POP POP JUMP JUMPDEST PUSH2 0xA61 DUP2 PUSH2 0x9AA JUMP JUMPDEST DUP3 MSTORE POP POP JUMP JUMPDEST PUSH0 PUSH1 0x20 DUP3 ADD SWAP1 POP PUSH2 0xA7A PUSH0 DUP4 ADD DUP5 PUSH2 0xA58 JUMP JUMPDEST SWAP3 SWAP2 POP POP JUMP JUMPDEST PUSH2 0xA89 DUP2 PUSH2 0x96F JUMP JUMPDEST DUP3 MSTORE POP POP JUMP JUMPDEST PUSH0 PUSH1 0x20 DUP3 ADD SWAP1 POP PUSH2 0xAA2 PUSH0 DUP4 ADD DUP5 PUSH2 0xA80 JUMP JUMPDEST SWAP3 SWAP2 POP POP JUMP JUMPDEST PUSH0 DUP2 ISZERO ISZERO SWAP1 POP SWAP2 SWAP1 POP JUMP JUMPDEST PUSH2 0xABC DUP2 PUSH2 0xAA8 JUMP JUMPDEST DUP3 MSTORE POP POP JUMP JUMPDEST PUSH0 PUSH1 0x20 DUP3 ADD SWAP1 POP PUSH2 0xAD5 PUSH0 DUP4 ADD DUP5 PUSH2 0xAB3 JUMP JUMPDEST SWAP3 SWAP2 POP POP JUMP JUMPDEST PUSH0 DUP3 DUP3 MSTORE PUSH1 0x20 DUP3 ADD SWAP1 POP SWAP3 SWAP2 POP POP JUMP JUMPDEST PUSH32 0x43616C6C6572206973206E6F7420612076657269666965642070726F76696465 PUSH0 DUP3 ADD MSTORE PUSH32 0x7200000000000000000000000000000000000000000000000000000000000000 PUSH1 0x20 DUP3 ADD MSTORE POP JUMP JUMPDEST PUSH0 PUSH2 0xB45 PUSH1 0x21 DUP4 PUSH2 0xADB JUMP JUMPDEST SWAP2 POP PUSH2 0xB50 DUP3 PUSH2 0xAEB JUMP JUMPDEST PUSH1 0x40 DUP3 ADD SWAP1 POP SWAP2 SWAP1 POP JUMP JUMPDEST PUSH0 PUSH1 0x20 DUP3 ADD SWAP1 POP DUP2 DUP2 SUB PUSH0 DUP4 ADD MSTORE PUSH2 0xB72 DUP2 PUSH2 0xB39 JUMP JUMPDEST SWAP1 POP SWAP2 SWAP1 POP JUMP JUMPDEST PUSH32 0x4E487B7100000000000000000000000000000000000000000000000000000000 PUSH0 MSTORE PUSH1 0x11 PUSH1 0x4 MSTORE PUSH1 0x24 PUSH0 REVERT JUMPDEST PUSH0 PUSH2 0xBB0 DUP3 PUSH2 0x9AA JUMP JUMPDEST SWAP2 POP PUSH2 0xBBB DUP4 PUSH2 0x9AA JUMP JUMPDEST SWAP3 POP DUP3 DUP3 ADD SWAP1 POP DUP1 DUP3 GT ISZERO PUSH2 0xBD3 JUMPI PUSH2 0xBD2 PUSH2 0xB79 JUMP JUMPDEST JUMPDEST SWAP3 SWAP2 POP POP JUMP JUMPDEST PUSH0 PUSH1 0x40 DUP3 ADD SWAP1 POP PUSH2 0xBEC PUSH0 DUP4 ADD DUP6 PUSH2 0xA58 JUMP JUMPDEST PUSH2 0xBF9 PUSH1 0x20 DUP4 ADD DUP5 PUSH2 0xA58 JUMP JUMPDEST SWAP4 SWAP3 POP POP POP JUMP JUMPDEST PUSH32 0x4F6E6C7920746865206F776E65722063616E2065786563757465207468697320 PUSH0 DUP3 ADD MSTORE PUSH32 0x616374696F6E0000000000000000000000000000000000000000000000000000 PUSH1 0x20 DUP3 ADD MSTORE POP JUMP JUMPDEST PUSH0 PUSH2 0xC5A PUSH1 0x26 DUP4 PUSH2 0xADB JUMP JUMPDEST SWAP2 POP PUSH2 0xC65 DUP3 PUSH2 0xC00 JUMP JUMPDEST PUSH1 0x40 DUP3 ADD SWAP1 POP SWAP2 SWAP1 POP JUMP JUMPDEST PUSH0 PUSH1 0x20 DUP3 ADD SWAP1 POP DUP2 DUP2 SUB PUSH0 DUP4 ADD MSTORE PUSH2 0xC87 DUP2 PUSH2 0xC4E JUMP JUMPDEST SWAP1 POP SWAP2 SWAP1 POP JUMP JUMPDEST PUSH32 0x50726F7669646572206973206E6F742076657269666965640000000000000000 PUSH0 DUP3 ADD MSTORE POP JUMP JUMPDEST PUSH0 PUSH2 0xCC2 PUSH1 0x18 DUP4 PUSH2 0xADB JUMP JUMPDEST SWAP2 POP PUSH2 0xCCD DUP3 PUSH2 0xC8E JUMP JUMPDEST PUSH1 0x20 DUP3 ADD SWAP1 POP SWAP2 SWAP1 POP JUMP JUMPDEST PUSH0 PUSH1 0x20 DUP3 ADD SWAP1 POP DUP2 DUP2 SUB PUSH0 DUP4 ADD MSTORE PUSH2 0xCEF DUP2 PUSH2 0xCB6 JUMP JUMPDEST SWAP1 POP SWAP2 SWAP1 POP JUMP JUMPDEST PUSH0 PUSH2 0xD00 DUP3 PUSH2 0x9AA JUMP JUMPDEST SWAP2 POP PUSH0 DUP3 SUB PUSH2 0xD12 JUMPI PUSH2 0xD11 PUSH2 0xB79 JUMP JUMPDEST JUMPDEST PUSH1 0x1 DUP3 SUB SWAP1 POP SWAP2 SWAP1 POP JUMP JUMPDEST PUSH32 0x50726F766964657220697320616C726561647920766572696669656400000000 PUSH0 DUP3 ADD MSTORE POP JUMP JUMPDEST PUSH0 PUSH2 0xD51 PUSH1 0x1C DUP4 PUSH2 0xADB JUMP JUMPDEST SWAP2 POP PUSH2 0xD5C DUP3 PUSH2 0xD1D JUMP JUMPDEST PUSH1 0x20 DUP3 ADD SWAP1 POP SWAP2 SWAP1 POP JUMP JUMPDEST PUSH0 PUSH1 0x20 DUP3 ADD SWAP1 POP DUP2 DUP2 SUB PUSH0 DUP4 ADD MSTORE PUSH2 0xD7E DUP2 PUSH2 0xD45 JUMP JUMPDEST SWAP1 POP SWAP2 SWAP1 POP JUMP JUMPDEST PUSH0 PUSH2 0xD8F DUP3 PUSH2 0x9AA JUMP JUMPDEST SWAP2 POP PUSH32 0xFFFFFFFFFFFFFFFFFFFFFFFFFFFFFFFFFFFFFFFFFFFFFFFFFFFFFFFFFFFFFFFF DUP3 SUB PUSH2 0xDC1 JUMPI PUSH2 0xDC0 PUSH2 0xB79 JUMP JUMPDEST JUMPDEST PUSH1 0x1 DUP3 ADD SWAP1 POP SWAP2 SWAP1 POP JUMP JUMPDEST PUSH32 0x496E73756666696369656E742066756E647320666F7220726566756E64000000 PUSH0 DUP3 ADD MSTORE POP JUMP JUMPDEST PUSH0 PUSH2 0xE00 PUSH1 0x1D DUP4 PUSH2 0xADB JUMP JUMPDEST SWAP2 POP PUSH2 0xE0B DUP3 PUSH2 0xDCC JUMP JUMPDEST PUSH1 0x20 DUP3 ADD SWAP1 POP SWAP2 SWAP1 POP JUMP JUMPDEST PUSH0 PUSH1 0x20 DUP3 ADD SWAP1 POP DUP2 DUP2 SUB PUSH0 DUP4 ADD MSTORE PUSH2 0xE2D DUP2 PUSH2 0xDF4 JUMP JUMPDEST SWAP1 POP SWAP2 SWAP1 POP JUMP JUMPDEST PUSH0 PUSH2 0xE3E DUP3 PUSH2 0x9AA JUMP JUMPDEST SWAP2 POP PUSH2 0xE49 DUP4 PUSH2 0x9AA JUMP JUMPDEST SWAP3 POP DUP3 DUP3 SUB SWAP1 POP DUP2 DUP2 GT ISZERO PUSH2 0xE61 JUMPI PUSH2 0xE60 PUSH2 0xB79 JUMP JUMPDEST JUMPDEST SWAP3 SWAP2 POP POP JUMP INVALID LOG2 PUSH5 0x6970667358 0x22 SLT KECCAK256 DUP8 0xD9 STOP SWAP13 DUP13 0xC8 0x27 0x5C NOT BYTE 0x4F SELFDESTRUCT CREATE2 0xB7 SHR 0xEB 0xB1 CREATE 0xEB PUSH28 0x2B9A8FD816DD436E6FBEB0C364736F6C634300081600330000000000 "
				},
				"gasEstimates": {
					"creation": {
						"codeDepositCost": "748200",
						"executionCost": "25042",
						"totalCost": "773242"
					},
					"external": {
						"addAccommodationProvider(address)": "infinite",
						"checkProviderVerification(address)": "2958",
						"getVerifiedProviderCount()": "2521",
						"handleRefund(address,uint256,uint256)": "infinite",
						"owner()": "2572",
						"providerCount()": "2470",
						"providersVerified(address)": "2877",
						"refundsPending(address)": "2802",
						"registerBooking(address,uint256,uint256)": "infinite",
						"removeAccommodationProvider(address)": "infinite"
					}
				},
				"methodIdentifiers": {
					"addAccommodationProvider(address)": "ced65c8e",
					"checkProviderVerification(address)": "fb44e514",
					"getVerifiedProviderCount()": "9ba588cc",
					"handleRefund(address,uint256,uint256)": "ec431252",
					"owner()": "8da5cb5b",
					"providerCount()": "74c83268",
					"providersVerified(address)": "d2ab2098",
					"refundsPending(address)": "a144efb1",
					"registerBooking(address,uint256,uint256)": "466caad3",
					"removeAccommodationProvider(address)": "476977f7"
				}
			},
			"storageLayout": {
				"storage": [
					{
						"astId": 391,
						"contract": "Contracts/MainProjectFile.sol:SystemRegulator",
						"label": "owner",
						"offset": 0,
						"slot": "0",
						"type": "t_address"
					},
					{
						"astId": 393,
						"contract": "Contracts/MainProjectFile.sol:SystemRegulator",
						"label": "providerCount",
						"offset": 0,
						"slot": "1",
						"type": "t_uint256"
					},
					{
						"astId": 397,
						"contract": "Contracts/MainProjectFile.sol:SystemRegulator",
						"label": "providersVerified",
						"offset": 0,
						"slot": "2",
						"type": "t_mapping(t_address,t_bool)"
					},
					{
						"astId": 401,
						"contract": "Contracts/MainProjectFile.sol:SystemRegulator",
						"label": "refundsPending",
						"offset": 0,
						"slot": "3",
						"type": "t_mapping(t_address,t_uint256)"
					}
				],
				"types": {
					"t_address": {
						"encoding": "inplace",
						"label": "address",
						"numberOfBytes": "20"
					},
					"t_bool": {
						"encoding": "inplace",
						"label": "bool",
						"numberOfBytes": "1"
					},
					"t_mapping(t_address,t_bool)": {
						"encoding": "mapping",
						"key": "t_address",
						"label": "mapping(address => bool)",
						"numberOfBytes": "32",
						"value": "t_bool"
					},
					"t_mapping(t_address,t_uint256)": {
						"encoding": "mapping",
						"key": "t_address",
						"label": "mapping(address => uint256)",
						"numberOfBytes": "32",
						"value": "t_uint256"
					},
					"t_uint256": {
						"encoding": "inplace",
						"label": "uint256",
						"numberOfBytes": "32"
					}
				}
			},
			"userdoc": {
				"kind": "user",
				"methods": {},
				"version": 1
			}
		}
	}
}