{
	"Contracts/MainProjectFile.sol": {
		"AccommodationSeeker": {
			"abi": [
				{
					"inputs": [
						{
							"internalType": "address",
							"name": "_providerAddress",
							"type": "address"
						}
					],
					"stateMutability": "nonpayable",
					"type": "constructor"
				},
				{
					"inputs": [
						{
							"internalType": "uint256",
							"name": "_id",
							"type": "uint256"
						}
					],
					"name": "bookAccommodation",
					"outputs": [],
					"stateMutability": "payable",
					"type": "function"
				},
				{
					"inputs": [
						{
							"internalType": "address",
							"name": "",
							"type": "address"
						},
						{
							"internalType": "uint256",
							"name": "",
							"type": "uint256"
						}
					],
					"name": "bookings",
					"outputs": [
						{
							"internalType": "uint256",
							"name": "accommodationId",
							"type": "uint256"
						},
						{
							"internalType": "uint256",
							"name": "price",
							"type": "uint256"
						},
						{
							"internalType": "bool",
							"name": "confirmed",
							"type": "bool"
						}
					],
					"stateMutability": "view",
					"type": "function"
				},
				{
					"inputs": [
						{
							"internalType": "uint256",
							"name": "_index",
							"type": "uint256"
						}
					],
					"name": "cancelAccommodation",
					"outputs": [],
					"stateMutability": "nonpayable",
					"type": "function"
				},
				{
					"inputs": [
						{
							"internalType": "address",
							"name": "_customer",
							"type": "address"
						}
					],
					"name": "getBookingDetails",
					"outputs": [
						{
							"components": [
								{
									"internalType": "uint256",
									"name": "accommodationId",
									"type": "uint256"
								},
								{
									"internalType": "uint256",
									"name": "price",
									"type": "uint256"
								},
								{
									"internalType": "bool",
									"name": "confirmed",
									"type": "bool"
								}
							],
							"internalType": "struct AccommodationSeeker.Booking[]",
							"name": "",
							"type": "tuple[]"
						}
					],
					"stateMutability": "view",
					"type": "function"
				},
				{
					"inputs": [],
					"name": "providerAddress",
					"outputs": [
						{
							"internalType": "address",
							"name": "",
							"type": "address"
						}
					],
					"stateMutability": "view",
					"type": "function"
				}
			],
			"devdoc": {
				"kind": "dev",
				"methods": {},
				"version": 1
			},
			"evm": {
				"assembly": "    /* \"Contracts/MainProjectFile.sol\":2772:4202  contract AccommodationSeeker {... */\n  mstore(0x40, 0x80)\n    /* \"Contracts/MainProjectFile.sol\":3067:3158  constructor(address _providerAddress) {... */\n  callvalue\n  dup1\n  iszero\n  tag_1\n  jumpi\n  0x00\n  dup1\n  revert\ntag_1:\n  pop\n  mload(0x40)\n  sub(codesize, bytecodeSize)\n  dup1\n  bytecodeSize\n  dup4\n  codecopy\n  dup2\n  dup2\n  add\n  0x40\n  mstore\n  dup2\n  add\n  swap1\n  tag_2\n  swap2\n  swap1\n  tag_3\n  jump\t// in\ntag_2:\n    /* \"Contracts/MainProjectFile.sol\":3134:3150  _providerAddress */\n  dup1\n    /* \"Contracts/MainProjectFile.sol\":3116:3131  providerAddress */\n  0x01\n  0x00\n    /* \"Contracts/MainProjectFile.sol\":3116:3150  providerAddress = _providerAddress */\n  0x0100\n  exp\n  dup2\n  sload\n  dup2\n  0xffffffffffffffffffffffffffffffffffffffff\n  mul\n  not\n  and\n  swap1\n  dup4\n  0xffffffffffffffffffffffffffffffffffffffff\n  and\n  mul\n  or\n  swap1\n  sstore\n  pop\n    /* \"Contracts/MainProjectFile.sol\":3067:3158  constructor(address _providerAddress) {... */\n  pop\n    /* \"Contracts/MainProjectFile.sol\":2772:4202  contract AccommodationSeeker {... */\n  jump(tag_6)\n    /* \"#utility.yul\":88:205   */\ntag_8:\n    /* \"#utility.yul\":197:198   */\n  0x00\n    /* \"#utility.yul\":194:195   */\n  dup1\n    /* \"#utility.yul\":187:199   */\n  revert\n    /* \"#utility.yul\":334:460   */\ntag_10:\n    /* \"#utility.yul\":371:378   */\n  0x00\n    /* \"#utility.yul\":411:453   */\n  0xffffffffffffffffffffffffffffffffffffffff\n    /* \"#utility.yul\":404:409   */\n  dup3\n    /* \"#utility.yul\":400:454   */\n  and\n    /* \"#utility.yul\":389:454   */\n  swap1\n  pop\n    /* \"#utility.yul\":334:460   */\n  swap2\n  swap1\n  pop\n  jump\t// out\n    /* \"#utility.yul\":466:562   */\ntag_11:\n    /* \"#utility.yul\":503:510   */\n  0x00\n    /* \"#utility.yul\":532:556   */\n  tag_20\n    /* \"#utility.yul\":550:555   */\n  dup3\n    /* \"#utility.yul\":532:556   */\n  tag_10\n  jump\t// in\ntag_20:\n    /* \"#utility.yul\":521:556   */\n  swap1\n  pop\n    /* \"#utility.yul\":466:562   */\n  swap2\n  swap1\n  pop\n  jump\t// out\n    /* \"#utility.yul\":568:690   */\ntag_12:\n    /* \"#utility.yul\":641:665   */\n  tag_22\n    /* \"#utility.yul\":659:664   */\n  dup2\n    /* \"#utility.yul\":641:665   */\n  tag_11\n  jump\t// in\ntag_22:\n    /* \"#utility.yul\":634:639   */\n  dup2\n    /* \"#utility.yul\":631:666   */\n  eq\n    /* \"#utility.yul\":621:684   */\n  tag_23\n  jumpi\n    /* \"#utility.yul\":680:681   */\n  0x00\n    /* \"#utility.yul\":677:678   */\n  dup1\n    /* \"#utility.yul\":670:682   */\n  revert\n    /* \"#utility.yul\":621:684   */\ntag_23:\n    /* \"#utility.yul\":568:690   */\n  pop\n  jump\t// out\n    /* \"#utility.yul\":696:839   */\ntag_13:\n    /* \"#utility.yul\":753:758   */\n  0x00\n    /* \"#utility.yul\":784:790   */\n  dup2\n    /* \"#utility.yul\":778:791   */\n  mload\n    /* \"#utility.yul\":769:791   */\n  swap1\n  pop\n    /* \"#utility.yul\":800:833   */\n  tag_25\n    /* \"#utility.yul\":827:832   */\n  dup2\n    /* \"#utility.yul\":800:833   */\n  tag_12\n  jump\t// in\ntag_25:\n    /* \"#utility.yul\":696:839   */\n  swap3\n  swap2\n  pop\n  pop\n  jump\t// out\n    /* \"#utility.yul\":845:1196   */\ntag_3:\n    /* \"#utility.yul\":915:921   */\n  0x00\n    /* \"#utility.yul\":964:966   */\n  0x20\n    /* \"#utility.yul\":952:961   */\n  dup3\n    /* \"#utility.yul\":943:950   */\n  dup5\n    /* \"#utility.yul\":939:962   */\n  sub\n    /* \"#utility.yul\":935:967   */\n  slt\n    /* \"#utility.yul\":932:1051   */\n  iszero\n  tag_27\n  jumpi\n    /* \"#utility.yul\":970:1049   */\n  tag_28\n  tag_8\n  jump\t// in\ntag_28:\n    /* \"#utility.yul\":932:1051   */\ntag_27:\n    /* \"#utility.yul\":1090:1091   */\n  0x00\n    /* \"#utility.yul\":1115:1179   */\n  tag_29\n    /* \"#utility.yul\":1171:1178   */\n  dup5\n    /* \"#utility.yul\":1162:1168   */\n  dup3\n    /* \"#utility.yul\":1151:1160   */\n  dup6\n    /* \"#utility.yul\":1147:1169   */\n  add\n    /* \"#utility.yul\":1115:1179   */\n  tag_13\n  jump\t// in\ntag_29:\n    /* \"#utility.yul\":1105:1179   */\n  swap2\n  pop\n    /* \"#utility.yul\":1061:1189   */\n  pop\n    /* \"#utility.yul\":845:1196   */\n  swap3\n  swap2\n  pop\n  pop\n  jump\t// out\n    /* \"Contracts/MainProjectFile.sol\":2772:4202  contract AccommodationSeeker {... */\ntag_6:\n  dataSize(sub_0)\n  dup1\n  dataOffset(sub_0)\n  0x00\n  codecopy\n  0x00\n  return\nstop\n\nsub_0: assembly {\n        /* \"Contracts/MainProjectFile.sol\":2772:4202  contract AccommodationSeeker {... */\n      mstore(0x40, 0x80)\n      jumpi(tag_1, lt(calldatasize, 0x04))\n      shr(0xe0, calldataload(0x00))\n      dup1\n      0x44aba633\n      eq\n      tag_2\n      jumpi\n      dup1\n      0x4d8b8862\n      eq\n      tag_3\n      jumpi\n      dup1\n      0x706e5257\n      eq\n      tag_4\n      jumpi\n      dup1\n      0x9c794e2a\n      eq\n      tag_5\n      jumpi\n      dup1\n      0xfe61f1d0\n      eq\n      tag_6\n      jumpi\n    tag_1:\n      0x00\n      dup1\n      revert\n        /* \"Contracts/MainProjectFile.sol\":3304:3747  function bookAccommodation(uint256 _id) public payable {... */\n    tag_2:\n      tag_7\n      0x04\n      dup1\n      calldatasize\n      sub\n      dup2\n      add\n      swap1\n      tag_8\n      swap2\n      swap1\n      tag_9\n      jump\t// in\n    tag_8:\n      tag_10\n      jump\t// in\n    tag_7:\n      stop\n        /* \"Contracts/MainProjectFile.sol\":3166:3296  function getBookingDetails(address _customer) public view returns (Booking[] memory) {... */\n    tag_3:\n      callvalue\n      dup1\n      iszero\n      tag_11\n      jumpi\n      0x00\n      dup1\n      revert\n    tag_11:\n      pop\n      tag_12\n      0x04\n      dup1\n      calldatasize\n      sub\n      dup2\n      add\n      swap1\n      tag_13\n      swap2\n      swap1\n      tag_14\n      jump\t// in\n    tag_13:\n      tag_15\n      jump\t// in\n    tag_12:\n      mload(0x40)\n      tag_16\n      swap2\n      swap1\n      tag_17\n      jump\t// in\n    tag_16:\n      mload(0x40)\n      dup1\n      swap2\n      sub\n      swap1\n      return\n        /* \"Contracts/MainProjectFile.sol\":3028:3058  address public providerAddress */\n    tag_4:\n      callvalue\n      dup1\n      iszero\n      tag_18\n      jumpi\n      0x00\n      dup1\n      revert\n    tag_18:\n      pop\n      tag_19\n      tag_20\n      jump\t// in\n    tag_19:\n      mload(0x40)\n      tag_21\n      swap2\n      swap1\n      tag_22\n      jump\t// in\n    tag_21:\n      mload(0x40)\n      dup1\n      swap2\n      sub\n      swap1\n      return\n        /* \"Contracts/MainProjectFile.sol\":2922:2967  mapping(address => Booking[]) public bookings */\n    tag_5:\n      callvalue\n      dup1\n      iszero\n      tag_23\n      jumpi\n      0x00\n      dup1\n      revert\n    tag_23:\n      pop\n      tag_24\n      0x04\n      dup1\n      calldatasize\n      sub\n      dup2\n      add\n      swap1\n      tag_25\n      swap2\n      swap1\n      tag_26\n      jump\t// in\n    tag_25:\n      tag_27\n      jump\t// in\n    tag_24:\n      mload(0x40)\n      tag_28\n      swap4\n      swap3\n      swap2\n      swap1\n      tag_29\n      jump\t// in\n    tag_28:\n      mload(0x40)\n      dup1\n      swap2\n      sub\n      swap1\n      return\n        /* \"Contracts/MainProjectFile.sol\":3755:4199  function cancelAccommodation(uint256 _index) public {... */\n    tag_6:\n      callvalue\n      dup1\n      iszero\n      tag_30\n      jumpi\n      0x00\n      dup1\n      revert\n    tag_30:\n      pop\n      tag_31\n      0x04\n      dup1\n      calldatasize\n      sub\n      dup2\n      add\n      swap1\n      tag_32\n      swap2\n      swap1\n      tag_9\n      jump\t// in\n    tag_32:\n      tag_33\n      jump\t// in\n    tag_31:\n      stop\n        /* \"Contracts/MainProjectFile.sol\":3304:3747  function bookAccommodation(uint256 _id) public payable {... */\n    tag_10:\n        /* \"Contracts/MainProjectFile.sol\":3370:3400  AccommodationProvider provider */\n      0x00\n        /* \"Contracts/MainProjectFile.sol\":3425:3440  providerAddress */\n      0x01\n      0x00\n      swap1\n      sload\n      swap1\n      0x0100\n      exp\n      swap1\n      div\n      0xffffffffffffffffffffffffffffffffffffffff\n      and\n        /* \"Contracts/MainProjectFile.sol\":3370:3441  AccommodationProvider provider = AccommodationProvider(providerAddress) */\n      swap1\n      pop\n        /* \"Contracts/MainProjectFile.sol\":3453:3475  string memory location */\n      0x00\n        /* \"Contracts/MainProjectFile.sol\":3477:3490  uint256 price */\n      dup1\n        /* \"Contracts/MainProjectFile.sol\":3492:3506  bool available */\n      0x00\n        /* \"Contracts/MainProjectFile.sol\":3510:3518  provider */\n      dup4\n        /* \"Contracts/MainProjectFile.sol\":3510:3542  provider.getAccommodationDetails */\n      0xffffffffffffffffffffffffffffffffffffffff\n      and\n      0xabad2243\n        /* \"Contracts/MainProjectFile.sol\":3543:3546  _id */\n      dup7\n        /* \"Contracts/MainProjectFile.sol\":3510:3547  provider.getAccommodationDetails(_id) */\n      mload(0x40)\n      dup3\n      0xffffffff\n      and\n      0xe0\n      shl\n      dup2\n      mstore\n      0x04\n      add\n      tag_35\n      swap2\n      swap1\n      tag_36\n      jump\t// in\n    tag_35:\n      0x00\n      mload(0x40)\n      dup1\n      dup4\n      sub\n      dup2\n      dup7\n      gas\n      staticcall\n      iszero\n      dup1\n      iszero\n      tag_38\n      jumpi\n      returndatasize\n      0x00\n      dup1\n      returndatacopy\n      revert(0x00, returndatasize)\n    tag_38:\n      pop\n      pop\n      pop\n      pop\n      mload(0x40)\n      returndatasize\n      0x00\n      dup3\n      returndatacopy\n      returndatasize\n      not(0x1f)\n      0x1f\n      dup3\n      add\n      and\n      dup3\n      add\n      dup1\n      0x40\n      mstore\n      pop\n      dup2\n      add\n      swap1\n      tag_39\n      swap2\n      swap1\n      tag_40\n      jump\t// in\n    tag_39:\n        /* \"Contracts/MainProjectFile.sol\":3452:3547  (string memory location, uint256 price, bool available) = provider.getAccommodationDetails(_id) */\n      swap3\n      pop\n      swap3\n      pop\n      swap3\n      pop\n        /* \"Contracts/MainProjectFile.sol\":3568:3577  available */\n      dup1\n        /* \"Contracts/MainProjectFile.sol\":3560:3612  require(available, \"Accommodation is not available\") */\n      tag_41\n      jumpi\n      mload(0x40)\n      0x08c379a000000000000000000000000000000000000000000000000000000000\n      dup2\n      mstore\n      0x04\n      add\n      tag_42\n      swap1\n      tag_43\n      jump\t// in\n    tag_42:\n      mload(0x40)\n      dup1\n      swap2\n      sub\n      swap1\n      revert\n    tag_41:\n        /* \"Contracts/MainProjectFile.sol\":3644:3649  price */\n      dup2\n        /* \"Contracts/MainProjectFile.sol\":3631:3640  msg.value */\n      callvalue\n        /* \"Contracts/MainProjectFile.sol\":3631:3649  msg.value >= price */\n      lt\n      iszero\n        /* \"Contracts/MainProjectFile.sol\":3623:3674  require(msg.value >= price, \"Insufficient payment\") */\n      tag_44\n      jumpi\n      mload(0x40)\n      0x08c379a000000000000000000000000000000000000000000000000000000000\n      dup2\n      mstore\n      0x04\n      add\n      tag_45\n      swap1\n      tag_46\n      jump\t// in\n    tag_45:\n      mload(0x40)\n      dup1\n      swap2\n      sub\n      swap1\n      revert\n    tag_44:\n        /* \"Contracts/MainProjectFile.sol\":3687:3695  bookings */\n      0x00\n        /* \"Contracts/MainProjectFile.sol\":3687:3707  bookings[msg.sender] */\n      dup1\n        /* \"Contracts/MainProjectFile.sol\":3696:3706  msg.sender */\n      caller\n        /* \"Contracts/MainProjectFile.sol\":3687:3707  bookings[msg.sender] */\n      0xffffffffffffffffffffffffffffffffffffffff\n      and\n      0xffffffffffffffffffffffffffffffffffffffff\n      and\n      dup2\n      mstore\n      0x20\n      add\n      swap1\n      dup2\n      mstore\n      0x20\n      add\n      0x00\n      keccak256\n        /* \"Contracts/MainProjectFile.sol\":3713:3738  Booking(_id, price, true) */\n      mload(0x40)\n      dup1\n      0x60\n      add\n      0x40\n      mstore\n      dup1\n        /* \"Contracts/MainProjectFile.sol\":3721:3724  _id */\n      dup8\n        /* \"Contracts/MainProjectFile.sol\":3713:3738  Booking(_id, price, true) */\n      dup2\n      mstore\n      0x20\n      add\n        /* \"Contracts/MainProjectFile.sol\":3726:3731  price */\n      dup5\n        /* \"Contracts/MainProjectFile.sol\":3713:3738  Booking(_id, price, true) */\n      dup2\n      mstore\n      0x20\n      add\n        /* \"Contracts/MainProjectFile.sol\":3733:3737  true */\n      0x01\n        /* \"Contracts/MainProjectFile.sol\":3713:3738  Booking(_id, price, true) */\n      iszero\n      iszero\n      dup2\n      mstore\n      pop\n        /* \"Contracts/MainProjectFile.sol\":3687:3739  bookings[msg.sender].push(Booking(_id, price, true)) */\n      swap1\n      dup1\n      0x01\n      dup2\n      sload\n      add\n      dup1\n      dup3\n      sstore\n      dup1\n      swap2\n      pop\n      pop\n      0x01\n      swap1\n      sub\n      swap1\n      0x00\n      mstore\n      keccak256(0x00, 0x20)\n      swap1\n      0x03\n      mul\n      add\n      0x00\n      swap1\n      swap2\n      swap1\n      swap2\n      swap1\n      swap2\n      pop\n      0x00\n      dup3\n      add\n      mload\n      dup2\n      0x00\n      add\n      sstore\n      0x20\n      dup3\n      add\n      mload\n      dup2\n      0x01\n      add\n      sstore\n      0x40\n      dup3\n      add\n      mload\n      dup2\n      0x02\n      add\n      exp(0x0100, 0x00)\n      dup2\n      sload\n      dup2\n      0xff\n      mul\n      not\n      and\n      swap1\n      dup4\n      iszero\n      iszero\n      mul\n      or\n      swap1\n      sstore\n      pop\n      pop\n      pop\n        /* \"Contracts/MainProjectFile.sol\":3359:3747  {... */\n      pop\n      pop\n      pop\n      pop\n        /* \"Contracts/MainProjectFile.sol\":3304:3747  function bookAccommodation(uint256 _id) public payable {... */\n      pop\n      jump\t// out\n        /* \"Contracts/MainProjectFile.sol\":3166:3296  function getBookingDetails(address _customer) public view returns (Booking[] memory) {... */\n    tag_15:\n        /* \"Contracts/MainProjectFile.sol\":3233:3249  Booking[] memory */\n      0x60\n        /* \"Contracts/MainProjectFile.sol\":3269:3277  bookings */\n      0x00\n        /* \"Contracts/MainProjectFile.sol\":3269:3288  bookings[_customer] */\n      dup1\n        /* \"Contracts/MainProjectFile.sol\":3278:3287  _customer */\n      dup4\n        /* \"Contracts/MainProjectFile.sol\":3269:3288  bookings[_customer] */\n      0xffffffffffffffffffffffffffffffffffffffff\n      and\n      0xffffffffffffffffffffffffffffffffffffffff\n      and\n      dup2\n      mstore\n      0x20\n      add\n      swap1\n      dup2\n      mstore\n      0x20\n      add\n      0x00\n      keccak256\n        /* \"Contracts/MainProjectFile.sol\":3262:3288  return bookings[_customer] */\n      dup1\n      sload\n      dup1\n      0x20\n      mul\n      0x20\n      add\n      mload(0x40)\n      swap1\n      dup2\n      add\n      0x40\n      mstore\n      dup1\n      swap3\n      swap2\n      swap1\n      dup2\n      dup2\n      mstore\n      0x20\n      add\n      0x00\n      swap1\n    tag_49:\n      dup3\n      dup3\n      lt\n      iszero\n      tag_50\n      jumpi\n      dup4\n      dup3\n      swap1\n      0x00\n      mstore\n      keccak256(0x00, 0x20)\n      swap1\n      0x03\n      mul\n      add\n      mload(0x40)\n      dup1\n      0x60\n      add\n      0x40\n      mstore\n      swap1\n      dup2\n      0x00\n      dup3\n      add\n      sload\n      dup2\n      mstore\n      0x20\n      add\n      0x01\n      dup3\n      add\n      sload\n      dup2\n      mstore\n      0x20\n      add\n      0x02\n      dup3\n      add\n      0x00\n      swap1\n      sload\n      swap1\n      0x0100\n      exp\n      swap1\n      div\n      0xff\n      and\n      iszero\n      iszero\n      iszero\n      iszero\n      dup2\n      mstore\n      pop\n      pop\n      dup2\n      mstore\n      0x20\n      add\n      swap1\n      0x01\n      add\n      swap1\n      jump(tag_49)\n    tag_50:\n      pop\n      pop\n      pop\n      pop\n      swap1\n      pop\n        /* \"Contracts/MainProjectFile.sol\":3166:3296  function getBookingDetails(address _customer) public view returns (Booking[] memory) {... */\n      swap2\n      swap1\n      pop\n      jump\t// out\n        /* \"Contracts/MainProjectFile.sol\":3028:3058  address public providerAddress */\n    tag_20:\n      0x01\n      0x00\n      swap1\n      sload\n      swap1\n      0x0100\n      exp\n      swap1\n      div\n      0xffffffffffffffffffffffffffffffffffffffff\n      and\n      dup2\n      jump\t// out\n        /* \"Contracts/MainProjectFile.sol\":2922:2967  mapping(address => Booking[]) public bookings */\n    tag_27:\n      mstore(0x20, 0x00)\n      dup2\n      0x00\n      mstore\n      keccak256(0x00, 0x40)\n      dup2\n      dup2\n      sload\n      dup2\n      lt\n      tag_52\n      jumpi\n      0x00\n      dup1\n      revert\n    tag_52:\n      swap1\n      0x00\n      mstore\n      keccak256(0x00, 0x20)\n      swap1\n      0x03\n      mul\n      add\n      0x00\n      swap2\n      pop\n      swap2\n      pop\n      pop\n      dup1\n      0x00\n      add\n      sload\n      swap1\n      dup1\n      0x01\n      add\n      sload\n      swap1\n      dup1\n      0x02\n      add\n      0x00\n      swap1\n      sload\n      swap1\n      0x0100\n      exp\n      swap1\n      div\n      0xff\n      and\n      swap1\n      pop\n      dup4\n      jump\t// out\n        /* \"Contracts/MainProjectFile.sol\":3755:4199  function cancelAccommodation(uint256 _index) public {... */\n    tag_33:\n        /* \"Contracts/MainProjectFile.sol\":3818:3848  AccommodationProvider provider */\n      0x00\n        /* \"Contracts/MainProjectFile.sol\":3873:3888  providerAddress */\n      0x01\n      0x00\n      swap1\n      sload\n      swap1\n      0x0100\n      exp\n      swap1\n      div\n      0xffffffffffffffffffffffffffffffffffffffff\n      and\n        /* \"Contracts/MainProjectFile.sol\":3818:3889  AccommodationProvider provider = AccommodationProvider(providerAddress) */\n      swap1\n      pop\n        /* \"Contracts/MainProjectFile.sol\":3900:3923  Booking storage booking */\n      0x00\n        /* \"Contracts/MainProjectFile.sol\":3926:3934  bookings */\n      dup1\n        /* \"Contracts/MainProjectFile.sol\":3926:3946  bookings[msg.sender] */\n      0x00\n        /* \"Contracts/MainProjectFile.sol\":3935:3945  msg.sender */\n      caller\n        /* \"Contracts/MainProjectFile.sol\":3926:3946  bookings[msg.sender] */\n      0xffffffffffffffffffffffffffffffffffffffff\n      and\n      0xffffffffffffffffffffffffffffffffffffffff\n      and\n      dup2\n      mstore\n      0x20\n      add\n      swap1\n      dup2\n      mstore\n      0x20\n      add\n      0x00\n      keccak256\n        /* \"Contracts/MainProjectFile.sol\":3947:3953  _index */\n      dup4\n        /* \"Contracts/MainProjectFile.sol\":3926:3954  bookings[msg.sender][_index] */\n      dup2\n      sload\n      dup2\n      lt\n      tag_55\n      jumpi\n      tag_56\n      tag_57\n      jump\t// in\n    tag_56:\n    tag_55:\n      swap1\n      0x00\n      mstore\n      keccak256(0x00, 0x20)\n      swap1\n      0x03\n      mul\n      add\n        /* \"Contracts/MainProjectFile.sol\":3900:3954  Booking storage booking = bookings[msg.sender][_index] */\n      swap1\n      pop\n        /* \"Contracts/MainProjectFile.sol\":3983:3990  booking */\n      dup1\n        /* \"Contracts/MainProjectFile.sol\":3983:4000  booking.confirmed */\n      0x02\n      add\n      0x00\n      swap1\n      sload\n      swap1\n      0x0100\n      exp\n      swap1\n      div\n      0xff\n      and\n        /* \"Contracts/MainProjectFile.sol\":3975:4047  require(booking.confirmed, \"Booking not confirmed or already cancelled\") */\n      tag_59\n      jumpi\n      mload(0x40)\n      0x08c379a000000000000000000000000000000000000000000000000000000000\n      dup2\n      mstore\n      0x04\n      add\n      tag_60\n      swap1\n      tag_61\n      jump\t// in\n    tag_60:\n      mload(0x40)\n      dup1\n      swap2\n      sub\n      swap1\n      revert\n    tag_59:\n        /* \"Contracts/MainProjectFile.sol\":4060:4068  provider */\n      dup2\n        /* \"Contracts/MainProjectFile.sol\":4060:4095  provider.updateAccommodationDetails */\n      0xffffffffffffffffffffffffffffffffffffffff\n      and\n      0xd40a7315\n        /* \"Contracts/MainProjectFile.sol\":4096:4103  booking */\n      dup3\n        /* \"Contracts/MainProjectFile.sol\":4096:4119  booking.accommodationId */\n      0x00\n      add\n      sload\n        /* \"Contracts/MainProjectFile.sol\":4125:4132  booking */\n      dup4\n        /* \"Contracts/MainProjectFile.sol\":4125:4138  booking.price */\n      0x01\n      add\n      sload\n        /* \"Contracts/MainProjectFile.sol\":4140:4144  true */\n      0x01\n        /* \"Contracts/MainProjectFile.sol\":4060:4145  provider.updateAccommodationDetails(booking.accommodationId, \"\", booking.price, true) */\n      mload(0x40)\n      dup5\n      0xffffffff\n      and\n      0xe0\n      shl\n      dup2\n      mstore\n      0x04\n      add\n      tag_62\n      swap4\n      swap3\n      swap2\n      swap1\n      tag_63\n      jump\t// in\n    tag_62:\n      0x00\n      mload(0x40)\n      dup1\n      dup4\n      sub\n      dup2\n      0x00\n      dup8\n      dup1\n      extcodesize\n      iszero\n      dup1\n      iszero\n      tag_64\n      jumpi\n      0x00\n      dup1\n      revert\n    tag_64:\n      pop\n      gas\n      call\n      iszero\n      dup1\n      iszero\n      tag_66\n      jumpi\n      returndatasize\n      0x00\n      dup1\n      returndatacopy\n      revert(0x00, returndatasize)\n    tag_66:\n      pop\n      pop\n      pop\n      pop\n        /* \"Contracts/MainProjectFile.sol\":4163:4171  bookings */\n      0x00\n        /* \"Contracts/MainProjectFile.sol\":4163:4183  bookings[msg.sender] */\n      dup1\n        /* \"Contracts/MainProjectFile.sol\":4172:4182  msg.sender */\n      caller\n        /* \"Contracts/MainProjectFile.sol\":4163:4183  bookings[msg.sender] */\n      0xffffffffffffffffffffffffffffffffffffffff\n      and\n      0xffffffffffffffffffffffffffffffffffffffff\n      and\n      dup2\n      mstore\n      0x20\n      add\n      swap1\n      dup2\n      mstore\n      0x20\n      add\n      0x00\n      keccak256\n        /* \"Contracts/MainProjectFile.sol\":4184:4190  _index */\n      dup4\n        /* \"Contracts/MainProjectFile.sol\":4163:4191  bookings[msg.sender][_index] */\n      dup2\n      sload\n      dup2\n      lt\n      tag_67\n      jumpi\n      tag_68\n      tag_57\n      jump\t// in\n    tag_68:\n    tag_67:\n      swap1\n      0x00\n      mstore\n      keccak256(0x00, 0x20)\n      swap1\n      0x03\n      mul\n      add\n      0x00\n        /* \"Contracts/MainProjectFile.sol\":4156:4191  delete bookings[msg.sender][_index] */\n      dup1\n      dup3\n      add\n      0x00\n      swap1\n      sstore\n      0x01\n      dup3\n      add\n      0x00\n      swap1\n      sstore\n      0x02\n      dup3\n      add\n      exp(0x0100, 0x00)\n      dup2\n      sload\n      swap1\n      0xff\n      mul\n      not\n      and\n      swap1\n      sstore\n      pop\n      pop\n        /* \"Contracts/MainProjectFile.sol\":3807:4199  {... */\n      pop\n      pop\n        /* \"Contracts/MainProjectFile.sol\":3755:4199  function cancelAccommodation(uint256 _index) public {... */\n      pop\n      jump\t// out\n        /* \"#utility.yul\":7:82   */\n    tag_70:\n        /* \"#utility.yul\":40:46   */\n      0x00\n        /* \"#utility.yul\":73:75   */\n      0x40\n        /* \"#utility.yul\":67:76   */\n      mload\n        /* \"#utility.yul\":57:76   */\n      swap1\n      pop\n        /* \"#utility.yul\":7:82   */\n      swap1\n      jump\t// out\n        /* \"#utility.yul\":88:205   */\n    tag_71:\n        /* \"#utility.yul\":197:198   */\n      0x00\n        /* \"#utility.yul\":194:195   */\n      dup1\n        /* \"#utility.yul\":187:199   */\n      revert\n        /* \"#utility.yul\":211:328   */\n    tag_72:\n        /* \"#utility.yul\":320:321   */\n      0x00\n        /* \"#utility.yul\":317:318   */\n      dup1\n        /* \"#utility.yul\":310:322   */\n      revert\n        /* \"#utility.yul\":334:411   */\n    tag_73:\n        /* \"#utility.yul\":371:378   */\n      0x00\n        /* \"#utility.yul\":400:405   */\n      dup2\n        /* \"#utility.yul\":389:405   */\n      swap1\n      pop\n        /* \"#utility.yul\":334:411   */\n      swap2\n      swap1\n      pop\n      jump\t// out\n        /* \"#utility.yul\":417:539   */\n    tag_74:\n        /* \"#utility.yul\":490:514   */\n      tag_121\n        /* \"#utility.yul\":508:513   */\n      dup2\n        /* \"#utility.yul\":490:514   */\n      tag_73\n      jump\t// in\n    tag_121:\n        /* \"#utility.yul\":483:488   */\n      dup2\n        /* \"#utility.yul\":480:515   */\n      eq\n        /* \"#utility.yul\":470:533   */\n      tag_122\n      jumpi\n        /* \"#utility.yul\":529:530   */\n      0x00\n        /* \"#utility.yul\":526:527   */\n      dup1\n        /* \"#utility.yul\":519:531   */\n      revert\n        /* \"#utility.yul\":470:533   */\n    tag_122:\n        /* \"#utility.yul\":417:539   */\n      pop\n      jump\t// out\n        /* \"#utility.yul\":545:684   */\n    tag_75:\n        /* \"#utility.yul\":591:596   */\n      0x00\n        /* \"#utility.yul\":629:635   */\n      dup2\n        /* \"#utility.yul\":616:636   */\n      calldataload\n        /* \"#utility.yul\":607:636   */\n      swap1\n      pop\n        /* \"#utility.yul\":645:678   */\n      tag_124\n        /* \"#utility.yul\":672:677   */\n      dup2\n        /* \"#utility.yul\":645:678   */\n      tag_74\n      jump\t// in\n    tag_124:\n        /* \"#utility.yul\":545:684   */\n      swap3\n      swap2\n      pop\n      pop\n      jump\t// out\n        /* \"#utility.yul\":690:1019   */\n    tag_9:\n        /* \"#utility.yul\":749:755   */\n      0x00\n        /* \"#utility.yul\":798:800   */\n      0x20\n        /* \"#utility.yul\":786:795   */\n      dup3\n        /* \"#utility.yul\":777:784   */\n      dup5\n        /* \"#utility.yul\":773:796   */\n      sub\n        /* \"#utility.yul\":769:801   */\n      slt\n        /* \"#utility.yul\":766:885   */\n      iszero\n      tag_126\n      jumpi\n        /* \"#utility.yul\":804:883   */\n      tag_127\n      tag_71\n      jump\t// in\n    tag_127:\n        /* \"#utility.yul\":766:885   */\n    tag_126:\n        /* \"#utility.yul\":924:925   */\n      0x00\n        /* \"#utility.yul\":949:1002   */\n      tag_128\n        /* \"#utility.yul\":994:1001   */\n      dup5\n        /* \"#utility.yul\":985:991   */\n      dup3\n        /* \"#utility.yul\":974:983   */\n      dup6\n        /* \"#utility.yul\":970:992   */\n      add\n        /* \"#utility.yul\":949:1002   */\n      tag_75\n      jump\t// in\n    tag_128:\n        /* \"#utility.yul\":939:1002   */\n      swap2\n      pop\n        /* \"#utility.yul\":895:1012   */\n      pop\n        /* \"#utility.yul\":690:1019   */\n      swap3\n      swap2\n      pop\n      pop\n      jump\t// out\n        /* \"#utility.yul\":1025:1151   */\n    tag_76:\n        /* \"#utility.yul\":1062:1069   */\n      0x00\n        /* \"#utility.yul\":1102:1144   */\n      0xffffffffffffffffffffffffffffffffffffffff\n        /* \"#utility.yul\":1095:1100   */\n      dup3\n        /* \"#utility.yul\":1091:1145   */\n      and\n        /* \"#utility.yul\":1080:1145   */\n      swap1\n      pop\n        /* \"#utility.yul\":1025:1151   */\n      swap2\n      swap1\n      pop\n      jump\t// out\n        /* \"#utility.yul\":1157:1253   */\n    tag_77:\n        /* \"#utility.yul\":1194:1201   */\n      0x00\n        /* \"#utility.yul\":1223:1247   */\n      tag_131\n        /* \"#utility.yul\":1241:1246   */\n      dup3\n        /* \"#utility.yul\":1223:1247   */\n      tag_76\n      jump\t// in\n    tag_131:\n        /* \"#utility.yul\":1212:1247   */\n      swap1\n      pop\n        /* \"#utility.yul\":1157:1253   */\n      swap2\n      swap1\n      pop\n      jump\t// out\n        /* \"#utility.yul\":1259:1381   */\n    tag_78:\n        /* \"#utility.yul\":1332:1356   */\n      tag_133\n        /* \"#utility.yul\":1350:1355   */\n      dup2\n        /* \"#utility.yul\":1332:1356   */\n      tag_77\n      jump\t// in\n    tag_133:\n        /* \"#utility.yul\":1325:1330   */\n      dup2\n        /* \"#utility.yul\":1322:1357   */\n      eq\n        /* \"#utility.yul\":1312:1375   */\n      tag_134\n      jumpi\n        /* \"#utility.yul\":1371:1372   */\n      0x00\n        /* \"#utility.yul\":1368:1369   */\n      dup1\n        /* \"#utility.yul\":1361:1373   */\n      revert\n        /* \"#utility.yul\":1312:1375   */\n    tag_134:\n        /* \"#utility.yul\":1259:1381   */\n      pop\n      jump\t// out\n        /* \"#utility.yul\":1387:1526   */\n    tag_79:\n        /* \"#utility.yul\":1433:1438   */\n      0x00\n        /* \"#utility.yul\":1471:1477   */\n      dup2\n        /* \"#utility.yul\":1458:1478   */\n      calldataload\n        /* \"#utility.yul\":1449:1478   */\n      swap1\n      pop\n        /* \"#utility.yul\":1487:1520   */\n      tag_136\n        /* \"#utility.yul\":1514:1519   */\n      dup2\n        /* \"#utility.yul\":1487:1520   */\n      tag_78\n      jump\t// in\n    tag_136:\n        /* \"#utility.yul\":1387:1526   */\n      swap3\n      swap2\n      pop\n      pop\n      jump\t// out\n        /* \"#utility.yul\":1532:1861   */\n    tag_14:\n        /* \"#utility.yul\":1591:1597   */\n      0x00\n        /* \"#utility.yul\":1640:1642   */\n      0x20\n        /* \"#utility.yul\":1628:1637   */\n      dup3\n        /* \"#utility.yul\":1619:1626   */\n      dup5\n        /* \"#utility.yul\":1615:1638   */\n      sub\n        /* \"#utility.yul\":1611:1643   */\n      slt\n        /* \"#utility.yul\":1608:1727   */\n      iszero\n      tag_138\n      jumpi\n        /* \"#utility.yul\":1646:1725   */\n      tag_139\n      tag_71\n      jump\t// in\n    tag_139:\n        /* \"#utility.yul\":1608:1727   */\n    tag_138:\n        /* \"#utility.yul\":1766:1767   */\n      0x00\n        /* \"#utility.yul\":1791:1844   */\n      tag_140\n        /* \"#utility.yul\":1836:1843   */\n      dup5\n        /* \"#utility.yul\":1827:1833   */\n      dup3\n        /* \"#utility.yul\":1816:1825   */\n      dup6\n        /* \"#utility.yul\":1812:1834   */\n      add\n        /* \"#utility.yul\":1791:1844   */\n      tag_79\n      jump\t// in\n    tag_140:\n        /* \"#utility.yul\":1781:1844   */\n      swap2\n      pop\n        /* \"#utility.yul\":1737:1854   */\n      pop\n        /* \"#utility.yul\":1532:1861   */\n      swap3\n      swap2\n      pop\n      pop\n      jump\t// out\n        /* \"#utility.yul\":1867:2005   */\n    tag_80:\n        /* \"#utility.yul\":1958:1964   */\n      0x00\n        /* \"#utility.yul\":1992:1997   */\n      dup2\n        /* \"#utility.yul\":1986:1998   */\n      mload\n        /* \"#utility.yul\":1976:1998   */\n      swap1\n      pop\n        /* \"#utility.yul\":1867:2005   */\n      swap2\n      swap1\n      pop\n      jump\t// out\n        /* \"#utility.yul\":2011:2219   */\n    tag_81:\n        /* \"#utility.yul\":2134:2145   */\n      0x00\n        /* \"#utility.yul\":2168:2174   */\n      dup3\n        /* \"#utility.yul\":2163:2166   */\n      dup3\n        /* \"#utility.yul\":2156:2175   */\n      mstore\n        /* \"#utility.yul\":2208:2212   */\n      0x20\n        /* \"#utility.yul\":2203:2206   */\n      dup3\n        /* \"#utility.yul\":2199:2213   */\n      add\n        /* \"#utility.yul\":2184:2213   */\n      swap1\n      pop\n        /* \"#utility.yul\":2011:2219   */\n      swap3\n      swap2\n      pop\n      pop\n      jump\t// out\n        /* \"#utility.yul\":2225:2381   */\n    tag_82:\n        /* \"#utility.yul\":2316:2320   */\n      0x00\n        /* \"#utility.yul\":2339:2342   */\n      dup2\n        /* \"#utility.yul\":2331:2342   */\n      swap1\n      pop\n        /* \"#utility.yul\":2369:2373   */\n      0x20\n        /* \"#utility.yul\":2364:2367   */\n      dup3\n        /* \"#utility.yul\":2360:2374   */\n      add\n        /* \"#utility.yul\":2352:2374   */\n      swap1\n      pop\n        /* \"#utility.yul\":2225:2381   */\n      swap2\n      swap1\n      pop\n      jump\t// out\n        /* \"#utility.yul\":2387:2495   */\n    tag_83:\n        /* \"#utility.yul\":2464:2488   */\n      tag_145\n        /* \"#utility.yul\":2482:2487   */\n      dup2\n        /* \"#utility.yul\":2464:2488   */\n      tag_73\n      jump\t// in\n    tag_145:\n        /* \"#utility.yul\":2459:2462   */\n      dup3\n        /* \"#utility.yul\":2452:2489   */\n      mstore\n        /* \"#utility.yul\":2387:2495   */\n      pop\n      pop\n      jump\t// out\n        /* \"#utility.yul\":2501:2591   */\n    tag_84:\n        /* \"#utility.yul\":2535:2542   */\n      0x00\n        /* \"#utility.yul\":2578:2583   */\n      dup2\n        /* \"#utility.yul\":2571:2584   */\n      iszero\n        /* \"#utility.yul\":2564:2585   */\n      iszero\n        /* \"#utility.yul\":2553:2585   */\n      swap1\n      pop\n        /* \"#utility.yul\":2501:2591   */\n      swap2\n      swap1\n      pop\n      jump\t// out\n        /* \"#utility.yul\":2597:2696   */\n    tag_85:\n        /* \"#utility.yul\":2668:2689   */\n      tag_148\n        /* \"#utility.yul\":2683:2688   */\n      dup2\n        /* \"#utility.yul\":2668:2689   */\n      tag_84\n      jump\t// in\n    tag_148:\n        /* \"#utility.yul\":2663:2666   */\n      dup3\n        /* \"#utility.yul\":2656:2690   */\n      mstore\n        /* \"#utility.yul\":2597:2696   */\n      pop\n      pop\n      jump\t// out\n        /* \"#utility.yul\":2782:3462   */\n    tag_86:\n        /* \"#utility.yul\":2917:2921   */\n      0x60\n        /* \"#utility.yul\":2912:2915   */\n      dup3\n        /* \"#utility.yul\":2908:2922   */\n      add\n        /* \"#utility.yul\":3015:3019   */\n      0x00\n        /* \"#utility.yul\":3008:3013   */\n      dup3\n        /* \"#utility.yul\":3004:3020   */\n      add\n        /* \"#utility.yul\":2998:3021   */\n      mload\n        /* \"#utility.yul\":3034:3097   */\n      tag_150\n        /* \"#utility.yul\":3091:3095   */\n      0x00\n        /* \"#utility.yul\":3086:3089   */\n      dup6\n        /* \"#utility.yul\":3082:3096   */\n      add\n        /* \"#utility.yul\":3068:3080   */\n      dup3\n        /* \"#utility.yul\":3034:3097   */\n      tag_83\n      jump\t// in\n    tag_150:\n        /* \"#utility.yul\":2932:3107   */\n      pop\n        /* \"#utility.yul\":3190:3194   */\n      0x20\n        /* \"#utility.yul\":3183:3188   */\n      dup3\n        /* \"#utility.yul\":3179:3195   */\n      add\n        /* \"#utility.yul\":3173:3196   */\n      mload\n        /* \"#utility.yul\":3209:3272   */\n      tag_151\n        /* \"#utility.yul\":3266:3270   */\n      0x20\n        /* \"#utility.yul\":3261:3264   */\n      dup6\n        /* \"#utility.yul\":3257:3271   */\n      add\n        /* \"#utility.yul\":3243:3255   */\n      dup3\n        /* \"#utility.yul\":3209:3272   */\n      tag_83\n      jump\t// in\n    tag_151:\n        /* \"#utility.yul\":3117:3282   */\n      pop\n        /* \"#utility.yul\":3369:3373   */\n      0x40\n        /* \"#utility.yul\":3362:3367   */\n      dup3\n        /* \"#utility.yul\":3358:3374   */\n      add\n        /* \"#utility.yul\":3352:3375   */\n      mload\n        /* \"#utility.yul\":3388:3445   */\n      tag_152\n        /* \"#utility.yul\":3439:3443   */\n      0x40\n        /* \"#utility.yul\":3434:3437   */\n      dup6\n        /* \"#utility.yul\":3430:3444   */\n      add\n        /* \"#utility.yul\":3416:3428   */\n      dup3\n        /* \"#utility.yul\":3388:3445   */\n      tag_85\n      jump\t// in\n    tag_152:\n        /* \"#utility.yul\":3292:3455   */\n      pop\n        /* \"#utility.yul\":2886:3462   */\n      pop\n        /* \"#utility.yul\":2782:3462   */\n      pop\n      pop\n      jump\t// out\n        /* \"#utility.yul\":3468:3743   */\n    tag_87:\n        /* \"#utility.yul\":3585:3595   */\n      0x00\n        /* \"#utility.yul\":3606:3700   */\n      tag_154\n        /* \"#utility.yul\":3696:3699   */\n      dup4\n        /* \"#utility.yul\":3688:3694   */\n      dup4\n        /* \"#utility.yul\":3606:3700   */\n      tag_86\n      jump\t// in\n    tag_154:\n        /* \"#utility.yul\":3732:3736   */\n      0x60\n        /* \"#utility.yul\":3727:3730   */\n      dup4\n        /* \"#utility.yul\":3723:3737   */\n      add\n        /* \"#utility.yul\":3709:3737   */\n      swap1\n      pop\n        /* \"#utility.yul\":3468:3743   */\n      swap3\n      swap2\n      pop\n      pop\n      jump\t// out\n        /* \"#utility.yul\":3749:3886   */\n    tag_88:\n        /* \"#utility.yul\":3843:3847   */\n      0x00\n        /* \"#utility.yul\":3875:3879   */\n      0x20\n        /* \"#utility.yul\":3870:3873   */\n      dup3\n        /* \"#utility.yul\":3866:3880   */\n      add\n        /* \"#utility.yul\":3858:3880   */\n      swap1\n      pop\n        /* \"#utility.yul\":3749:3886   */\n      swap2\n      swap1\n      pop\n      jump\t// out\n        /* \"#utility.yul\":3976:4900   */\n    tag_89:\n        /* \"#utility.yul\":4143:4146   */\n      0x00\n        /* \"#utility.yul\":4172:4250   */\n      tag_157\n        /* \"#utility.yul\":4244:4249   */\n      dup3\n        /* \"#utility.yul\":4172:4250   */\n      tag_80\n      jump\t// in\n    tag_157:\n        /* \"#utility.yul\":4266:4376   */\n      tag_158\n        /* \"#utility.yul\":4369:4375   */\n      dup2\n        /* \"#utility.yul\":4364:4367   */\n      dup6\n        /* \"#utility.yul\":4266:4376   */\n      tag_81\n      jump\t// in\n    tag_158:\n        /* \"#utility.yul\":4259:4376   */\n      swap4\n      pop\n        /* \"#utility.yul\":4400:4480   */\n      tag_159\n        /* \"#utility.yul\":4474:4479   */\n      dup4\n        /* \"#utility.yul\":4400:4480   */\n      tag_82\n      jump\t// in\n    tag_159:\n        /* \"#utility.yul\":4503:4510   */\n      dup1\n        /* \"#utility.yul\":4534:4535   */\n      0x00\n        /* \"#utility.yul\":4519:4875   */\n    tag_160:\n        /* \"#utility.yul\":4544:4550   */\n      dup4\n        /* \"#utility.yul\":4541:4542   */\n      dup2\n        /* \"#utility.yul\":4538:4551   */\n      lt\n        /* \"#utility.yul\":4519:4875   */\n      iszero\n      tag_162\n      jumpi\n        /* \"#utility.yul\":4620:4626   */\n      dup2\n        /* \"#utility.yul\":4614:4627   */\n      mload\n        /* \"#utility.yul\":4647:4758   */\n      tag_163\n        /* \"#utility.yul\":4754:4757   */\n      dup9\n        /* \"#utility.yul\":4739:4752   */\n      dup3\n        /* \"#utility.yul\":4647:4758   */\n      tag_87\n      jump\t// in\n    tag_163:\n        /* \"#utility.yul\":4640:4758   */\n      swap8\n      pop\n        /* \"#utility.yul\":4781:4865   */\n      tag_164\n        /* \"#utility.yul\":4858:4864   */\n      dup4\n        /* \"#utility.yul\":4781:4865   */\n      tag_88\n      jump\t// in\n    tag_164:\n        /* \"#utility.yul\":4771:4865   */\n      swap3\n      pop\n        /* \"#utility.yul\":4579:4875   */\n      pop\n        /* \"#utility.yul\":4566:4567   */\n      0x01\n        /* \"#utility.yul\":4563:4564   */\n      dup2\n        /* \"#utility.yul\":4559:4568   */\n      add\n        /* \"#utility.yul\":4554:4568   */\n      swap1\n      pop\n        /* \"#utility.yul\":4519:4875   */\n      jump(tag_160)\n    tag_162:\n        /* \"#utility.yul\":4523:4537   */\n      pop\n        /* \"#utility.yul\":4891:4894   */\n      dup6\n        /* \"#utility.yul\":4884:4894   */\n      swap4\n      pop\n        /* \"#utility.yul\":4148:4900   */\n      pop\n      pop\n      pop\n        /* \"#utility.yul\":3976:4900   */\n      swap3\n      swap2\n      pop\n      pop\n      jump\t// out\n        /* \"#utility.yul\":4906:5375   */\n    tag_17:\n        /* \"#utility.yul\":5097:5101   */\n      0x00\n        /* \"#utility.yul\":5135:5137   */\n      0x20\n        /* \"#utility.yul\":5124:5133   */\n      dup3\n        /* \"#utility.yul\":5120:5138   */\n      add\n        /* \"#utility.yul\":5112:5138   */\n      swap1\n      pop\n        /* \"#utility.yul\":5184:5193   */\n      dup2\n        /* \"#utility.yul\":5178:5182   */\n      dup2\n        /* \"#utility.yul\":5174:5194   */\n      sub\n        /* \"#utility.yul\":5170:5171   */\n      0x00\n        /* \"#utility.yul\":5159:5168   */\n      dup4\n        /* \"#utility.yul\":5155:5172   */\n      add\n        /* \"#utility.yul\":5148:5195   */\n      mstore\n        /* \"#utility.yul\":5212:5368   */\n      tag_166\n        /* \"#utility.yul\":5363:5367   */\n      dup2\n        /* \"#utility.yul\":5354:5360   */\n      dup5\n        /* \"#utility.yul\":5212:5368   */\n      tag_89\n      jump\t// in\n    tag_166:\n        /* \"#utility.yul\":5204:5368   */\n      swap1\n      pop\n        /* \"#utility.yul\":4906:5375   */\n      swap3\n      swap2\n      pop\n      pop\n      jump\t// out\n        /* \"#utility.yul\":5381:5499   */\n    tag_90:\n        /* \"#utility.yul\":5468:5492   */\n      tag_168\n        /* \"#utility.yul\":5486:5491   */\n      dup2\n        /* \"#utility.yul\":5468:5492   */\n      tag_77\n      jump\t// in\n    tag_168:\n        /* \"#utility.yul\":5463:5466   */\n      dup3\n        /* \"#utility.yul\":5456:5493   */\n      mstore\n        /* \"#utility.yul\":5381:5499   */\n      pop\n      pop\n      jump\t// out\n        /* \"#utility.yul\":5505:5727   */\n    tag_22:\n        /* \"#utility.yul\":5598:5602   */\n      0x00\n        /* \"#utility.yul\":5636:5638   */\n      0x20\n        /* \"#utility.yul\":5625:5634   */\n      dup3\n        /* \"#utility.yul\":5621:5639   */\n      add\n        /* \"#utility.yul\":5613:5639   */\n      swap1\n      pop\n        /* \"#utility.yul\":5649:5720   */\n      tag_170\n        /* \"#utility.yul\":5717:5718   */\n      0x00\n        /* \"#utility.yul\":5706:5715   */\n      dup4\n        /* \"#utility.yul\":5702:5719   */\n      add\n        /* \"#utility.yul\":5693:5699   */\n      dup5\n        /* \"#utility.yul\":5649:5720   */\n      tag_90\n      jump\t// in\n    tag_170:\n        /* \"#utility.yul\":5505:5727   */\n      swap3\n      swap2\n      pop\n      pop\n      jump\t// out\n        /* \"#utility.yul\":5733:6207   */\n    tag_26:\n        /* \"#utility.yul\":5801:5807   */\n      0x00\n        /* \"#utility.yul\":5809:5815   */\n      dup1\n        /* \"#utility.yul\":5858:5860   */\n      0x40\n        /* \"#utility.yul\":5846:5855   */\n      dup4\n        /* \"#utility.yul\":5837:5844   */\n      dup6\n        /* \"#utility.yul\":5833:5856   */\n      sub\n        /* \"#utility.yul\":5829:5861   */\n      slt\n        /* \"#utility.yul\":5826:5945   */\n      iszero\n      tag_172\n      jumpi\n        /* \"#utility.yul\":5864:5943   */\n      tag_173\n      tag_71\n      jump\t// in\n    tag_173:\n        /* \"#utility.yul\":5826:5945   */\n    tag_172:\n        /* \"#utility.yul\":5984:5985   */\n      0x00\n        /* \"#utility.yul\":6009:6062   */\n      tag_174\n        /* \"#utility.yul\":6054:6061   */\n      dup6\n        /* \"#utility.yul\":6045:6051   */\n      dup3\n        /* \"#utility.yul\":6034:6043   */\n      dup7\n        /* \"#utility.yul\":6030:6052   */\n      add\n        /* \"#utility.yul\":6009:6062   */\n      tag_79\n      jump\t// in\n    tag_174:\n        /* \"#utility.yul\":5999:6062   */\n      swap3\n      pop\n        /* \"#utility.yul\":5955:6072   */\n      pop\n        /* \"#utility.yul\":6111:6113   */\n      0x20\n        /* \"#utility.yul\":6137:6190   */\n      tag_175\n        /* \"#utility.yul\":6182:6189   */\n      dup6\n        /* \"#utility.yul\":6173:6179   */\n      dup3\n        /* \"#utility.yul\":6162:6171   */\n      dup7\n        /* \"#utility.yul\":6158:6180   */\n      add\n        /* \"#utility.yul\":6137:6190   */\n      tag_75\n      jump\t// in\n    tag_175:\n        /* \"#utility.yul\":6127:6190   */\n      swap2\n      pop\n        /* \"#utility.yul\":6082:6200   */\n      pop\n        /* \"#utility.yul\":5733:6207   */\n      swap3\n      pop\n      swap3\n      swap1\n      pop\n      jump\t// out\n        /* \"#utility.yul\":6213:6331   */\n    tag_91:\n        /* \"#utility.yul\":6300:6324   */\n      tag_177\n        /* \"#utility.yul\":6318:6323   */\n      dup2\n        /* \"#utility.yul\":6300:6324   */\n      tag_73\n      jump\t// in\n    tag_177:\n        /* \"#utility.yul\":6295:6298   */\n      dup3\n        /* \"#utility.yul\":6288:6325   */\n      mstore\n        /* \"#utility.yul\":6213:6331   */\n      pop\n      pop\n      jump\t// out\n        /* \"#utility.yul\":6337:6446   */\n    tag_92:\n        /* \"#utility.yul\":6418:6439   */\n      tag_179\n        /* \"#utility.yul\":6433:6438   */\n      dup2\n        /* \"#utility.yul\":6418:6439   */\n      tag_84\n      jump\t// in\n    tag_179:\n        /* \"#utility.yul\":6413:6416   */\n      dup3\n        /* \"#utility.yul\":6406:6440   */\n      mstore\n        /* \"#utility.yul\":6337:6446   */\n      pop\n      pop\n      jump\t// out\n        /* \"#utility.yul\":6452:6882   */\n    tag_29:\n        /* \"#utility.yul\":6595:6599   */\n      0x00\n        /* \"#utility.yul\":6633:6635   */\n      0x60\n        /* \"#utility.yul\":6622:6631   */\n      dup3\n        /* \"#utility.yul\":6618:6636   */\n      add\n        /* \"#utility.yul\":6610:6636   */\n      swap1\n      pop\n        /* \"#utility.yul\":6646:6717   */\n      tag_181\n        /* \"#utility.yul\":6714:6715   */\n      0x00\n        /* \"#utility.yul\":6703:6712   */\n      dup4\n        /* \"#utility.yul\":6699:6716   */\n      add\n        /* \"#utility.yul\":6690:6696   */\n      dup7\n        /* \"#utility.yul\":6646:6717   */\n      tag_91\n      jump\t// in\n    tag_181:\n        /* \"#utility.yul\":6727:6799   */\n      tag_182\n        /* \"#utility.yul\":6795:6797   */\n      0x20\n        /* \"#utility.yul\":6784:6793   */\n      dup4\n        /* \"#utility.yul\":6780:6798   */\n      add\n        /* \"#utility.yul\":6771:6777   */\n      dup6\n        /* \"#utility.yul\":6727:6799   */\n      tag_91\n      jump\t// in\n    tag_182:\n        /* \"#utility.yul\":6809:6875   */\n      tag_183\n        /* \"#utility.yul\":6871:6873   */\n      0x40\n        /* \"#utility.yul\":6860:6869   */\n      dup4\n        /* \"#utility.yul\":6856:6874   */\n      add\n        /* \"#utility.yul\":6847:6853   */\n      dup5\n        /* \"#utility.yul\":6809:6875   */\n      tag_92\n      jump\t// in\n    tag_183:\n        /* \"#utility.yul\":6452:6882   */\n      swap5\n      swap4\n      pop\n      pop\n      pop\n      pop\n      jump\t// out\n        /* \"#utility.yul\":6888:7110   */\n    tag_36:\n        /* \"#utility.yul\":6981:6985   */\n      0x00\n        /* \"#utility.yul\":7019:7021   */\n      0x20\n        /* \"#utility.yul\":7008:7017   */\n      dup3\n        /* \"#utility.yul\":7004:7022   */\n      add\n        /* \"#utility.yul\":6996:7022   */\n      swap1\n      pop\n        /* \"#utility.yul\":7032:7103   */\n      tag_185\n        /* \"#utility.yul\":7100:7101   */\n      0x00\n        /* \"#utility.yul\":7089:7098   */\n      dup4\n        /* \"#utility.yul\":7085:7102   */\n      add\n        /* \"#utility.yul\":7076:7082   */\n      dup5\n        /* \"#utility.yul\":7032:7103   */\n      tag_91\n      jump\t// in\n    tag_185:\n        /* \"#utility.yul\":6888:7110   */\n      swap3\n      swap2\n      pop\n      pop\n      jump\t// out\n        /* \"#utility.yul\":7116:7233   */\n    tag_93:\n        /* \"#utility.yul\":7225:7226   */\n      0x00\n        /* \"#utility.yul\":7222:7223   */\n      dup1\n        /* \"#utility.yul\":7215:7227   */\n      revert\n        /* \"#utility.yul\":7239:7356   */\n    tag_94:\n        /* \"#utility.yul\":7348:7349   */\n      0x00\n        /* \"#utility.yul\":7345:7346   */\n      dup1\n        /* \"#utility.yul\":7338:7350   */\n      revert\n        /* \"#utility.yul\":7362:7464   */\n    tag_95:\n        /* \"#utility.yul\":7403:7409   */\n      0x00\n        /* \"#utility.yul\":7454:7456   */\n      0x1f\n        /* \"#utility.yul\":7450:7457   */\n      not\n        /* \"#utility.yul\":7445:7447   */\n      0x1f\n        /* \"#utility.yul\":7438:7443   */\n      dup4\n        /* \"#utility.yul\":7434:7448   */\n      add\n        /* \"#utility.yul\":7430:7458   */\n      and\n        /* \"#utility.yul\":7420:7458   */\n      swap1\n      pop\n        /* \"#utility.yul\":7362:7464   */\n      swap2\n      swap1\n      pop\n      jump\t// out\n        /* \"#utility.yul\":7470:7650   */\n    tag_96:\n        /* \"#utility.yul\":7518:7595   */\n      0x4e487b7100000000000000000000000000000000000000000000000000000000\n        /* \"#utility.yul\":7515:7516   */\n      0x00\n        /* \"#utility.yul\":7508:7596   */\n      mstore\n        /* \"#utility.yul\":7615:7619   */\n      0x41\n        /* \"#utility.yul\":7612:7613   */\n      0x04\n        /* \"#utility.yul\":7605:7620   */\n      mstore\n        /* \"#utility.yul\":7639:7643   */\n      0x24\n        /* \"#utility.yul\":7636:7637   */\n      0x00\n        /* \"#utility.yul\":7629:7644   */\n      revert\n        /* \"#utility.yul\":7656:7937   */\n    tag_97:\n        /* \"#utility.yul\":7739:7766   */\n      tag_191\n        /* \"#utility.yul\":7761:7765   */\n      dup3\n        /* \"#utility.yul\":7739:7766   */\n      tag_95\n      jump\t// in\n    tag_191:\n        /* \"#utility.yul\":7731:7737   */\n      dup2\n        /* \"#utility.yul\":7727:7767   */\n      add\n        /* \"#utility.yul\":7869:7875   */\n      dup2\n        /* \"#utility.yul\":7857:7867   */\n      dup2\n        /* \"#utility.yul\":7854:7876   */\n      lt\n        /* \"#utility.yul\":7833:7851   */\n      0xffffffffffffffff\n        /* \"#utility.yul\":7821:7831   */\n      dup3\n        /* \"#utility.yul\":7818:7852   */\n      gt\n        /* \"#utility.yul\":7815:7877   */\n      or\n        /* \"#utility.yul\":7812:7900   */\n      iszero\n      tag_192\n      jumpi\n        /* \"#utility.yul\":7880:7898   */\n      tag_193\n      tag_96\n      jump\t// in\n    tag_193:\n        /* \"#utility.yul\":7812:7900   */\n    tag_192:\n        /* \"#utility.yul\":7920:7930   */\n      dup1\n        /* \"#utility.yul\":7916:7918   */\n      0x40\n        /* \"#utility.yul\":7909:7931   */\n      mstore\n        /* \"#utility.yul\":7699:7937   */\n      pop\n        /* \"#utility.yul\":7656:7937   */\n      pop\n      pop\n      jump\t// out\n        /* \"#utility.yul\":7943:8072   */\n    tag_98:\n        /* \"#utility.yul\":7977:7983   */\n      0x00\n        /* \"#utility.yul\":8004:8024   */\n      tag_195\n      tag_70\n      jump\t// in\n    tag_195:\n        /* \"#utility.yul\":7994:8024   */\n      swap1\n      pop\n        /* \"#utility.yul\":8033:8066   */\n      tag_196\n        /* \"#utility.yul\":8061:8065   */\n      dup3\n        /* \"#utility.yul\":8053:8059   */\n      dup3\n        /* \"#utility.yul\":8033:8066   */\n      tag_97\n      jump\t// in\n    tag_196:\n        /* \"#utility.yul\":7943:8072   */\n      swap2\n      swap1\n      pop\n      jump\t// out\n        /* \"#utility.yul\":8078:8386   */\n    tag_99:\n        /* \"#utility.yul\":8140:8144   */\n      0x00\n        /* \"#utility.yul\":8230:8248   */\n      0xffffffffffffffff\n        /* \"#utility.yul\":8222:8228   */\n      dup3\n        /* \"#utility.yul\":8219:8249   */\n      gt\n        /* \"#utility.yul\":8216:8272   */\n      iszero\n      tag_198\n      jumpi\n        /* \"#utility.yul\":8252:8270   */\n      tag_199\n      tag_96\n      jump\t// in\n    tag_199:\n        /* \"#utility.yul\":8216:8272   */\n    tag_198:\n        /* \"#utility.yul\":8290:8319   */\n      tag_200\n        /* \"#utility.yul\":8312:8318   */\n      dup3\n        /* \"#utility.yul\":8290:8319   */\n      tag_95\n      jump\t// in\n    tag_200:\n        /* \"#utility.yul\":8282:8319   */\n      swap1\n      pop\n        /* \"#utility.yul\":8374:8378   */\n      0x20\n        /* \"#utility.yul\":8368:8372   */\n      dup2\n        /* \"#utility.yul\":8364:8379   */\n      add\n        /* \"#utility.yul\":8356:8379   */\n      swap1\n      pop\n        /* \"#utility.yul\":8078:8386   */\n      swap2\n      swap1\n      pop\n      jump\t// out\n        /* \"#utility.yul\":8392:8638   */\n    tag_100:\n        /* \"#utility.yul\":8473:8474   */\n      0x00\n        /* \"#utility.yul\":8483:8596   */\n    tag_202:\n        /* \"#utility.yul\":8497:8503   */\n      dup4\n        /* \"#utility.yul\":8494:8495   */\n      dup2\n        /* \"#utility.yul\":8491:8504   */\n      lt\n        /* \"#utility.yul\":8483:8596   */\n      iszero\n      tag_204\n      jumpi\n        /* \"#utility.yul\":8582:8583   */\n      dup1\n        /* \"#utility.yul\":8577:8580   */\n      dup3\n        /* \"#utility.yul\":8573:8584   */\n      add\n        /* \"#utility.yul\":8567:8585   */\n      mload\n        /* \"#utility.yul\":8563:8564   */\n      dup2\n        /* \"#utility.yul\":8558:8561   */\n      dup5\n        /* \"#utility.yul\":8554:8565   */\n      add\n        /* \"#utility.yul\":8547:8586   */\n      mstore\n        /* \"#utility.yul\":8519:8521   */\n      0x20\n        /* \"#utility.yul\":8516:8517   */\n      dup2\n        /* \"#utility.yul\":8512:8522   */\n      add\n        /* \"#utility.yul\":8507:8522   */\n      swap1\n      pop\n        /* \"#utility.yul\":8483:8596   */\n      jump(tag_202)\n    tag_204:\n        /* \"#utility.yul\":8630:8631   */\n      0x00\n        /* \"#utility.yul\":8621:8627   */\n      dup5\n        /* \"#utility.yul\":8616:8619   */\n      dup5\n        /* \"#utility.yul\":8612:8628   */\n      add\n        /* \"#utility.yul\":8605:8632   */\n      mstore\n        /* \"#utility.yul\":8454:8638   */\n      pop\n        /* \"#utility.yul\":8392:8638   */\n      pop\n      pop\n      pop\n      jump\t// out\n        /* \"#utility.yul\":8644:9078   */\n    tag_101:\n        /* \"#utility.yul\":8733:8738   */\n      0x00\n        /* \"#utility.yul\":8758:8824   */\n      tag_206\n        /* \"#utility.yul\":8774:8823   */\n      tag_207\n        /* \"#utility.yul\":8816:8822   */\n      dup5\n        /* \"#utility.yul\":8774:8823   */\n      tag_99\n      jump\t// in\n    tag_207:\n        /* \"#utility.yul\":8758:8824   */\n      tag_98\n      jump\t// in\n    tag_206:\n        /* \"#utility.yul\":8749:8824   */\n      swap1\n      pop\n        /* \"#utility.yul\":8847:8853   */\n      dup3\n        /* \"#utility.yul\":8840:8845   */\n      dup2\n        /* \"#utility.yul\":8833:8854   */\n      mstore\n        /* \"#utility.yul\":8885:8889   */\n      0x20\n        /* \"#utility.yul\":8878:8883   */\n      dup2\n        /* \"#utility.yul\":8874:8890   */\n      add\n        /* \"#utility.yul\":8923:8926   */\n      dup5\n        /* \"#utility.yul\":8914:8920   */\n      dup5\n        /* \"#utility.yul\":8909:8912   */\n      dup5\n        /* \"#utility.yul\":8905:8921   */\n      add\n        /* \"#utility.yul\":8902:8927   */\n      gt\n        /* \"#utility.yul\":8899:9011   */\n      iszero\n      tag_208\n      jumpi\n        /* \"#utility.yul\":8930:9009   */\n      tag_209\n      tag_94\n      jump\t// in\n    tag_209:\n        /* \"#utility.yul\":8899:9011   */\n    tag_208:\n        /* \"#utility.yul\":9020:9072   */\n      tag_210\n        /* \"#utility.yul\":9065:9071   */\n      dup5\n        /* \"#utility.yul\":9060:9063   */\n      dup3\n        /* \"#utility.yul\":9055:9058   */\n      dup6\n        /* \"#utility.yul\":9020:9072   */\n      tag_100\n      jump\t// in\n    tag_210:\n        /* \"#utility.yul\":8739:9078   */\n      pop\n        /* \"#utility.yul\":8644:9078   */\n      swap4\n      swap3\n      pop\n      pop\n      pop\n      jump\t// out\n        /* \"#utility.yul\":9098:9453   */\n    tag_102:\n        /* \"#utility.yul\":9165:9170   */\n      0x00\n        /* \"#utility.yul\":9214:9217   */\n      dup3\n        /* \"#utility.yul\":9207:9211   */\n      0x1f\n        /* \"#utility.yul\":9199:9205   */\n      dup4\n        /* \"#utility.yul\":9195:9212   */\n      add\n        /* \"#utility.yul\":9191:9218   */\n      slt\n        /* \"#utility.yul\":9181:9303   */\n      tag_212\n      jumpi\n        /* \"#utility.yul\":9222:9301   */\n      tag_213\n      tag_93\n      jump\t// in\n    tag_213:\n        /* \"#utility.yul\":9181:9303   */\n    tag_212:\n        /* \"#utility.yul\":9332:9338   */\n      dup2\n        /* \"#utility.yul\":9326:9339   */\n      mload\n        /* \"#utility.yul\":9357:9447   */\n      tag_214\n        /* \"#utility.yul\":9443:9446   */\n      dup5\n        /* \"#utility.yul\":9435:9441   */\n      dup3\n        /* \"#utility.yul\":9428:9432   */\n      0x20\n        /* \"#utility.yul\":9420:9426   */\n      dup7\n        /* \"#utility.yul\":9416:9433   */\n      add\n        /* \"#utility.yul\":9357:9447   */\n      tag_101\n      jump\t// in\n    tag_214:\n        /* \"#utility.yul\":9348:9447   */\n      swap2\n      pop\n        /* \"#utility.yul\":9171:9453   */\n      pop\n        /* \"#utility.yul\":9098:9453   */\n      swap3\n      swap2\n      pop\n      pop\n      jump\t// out\n        /* \"#utility.yul\":9459:9602   */\n    tag_103:\n        /* \"#utility.yul\":9516:9521   */\n      0x00\n        /* \"#utility.yul\":9547:9553   */\n      dup2\n        /* \"#utility.yul\":9541:9554   */\n      mload\n        /* \"#utility.yul\":9532:9554   */\n      swap1\n      pop\n        /* \"#utility.yul\":9563:9596   */\n      tag_216\n        /* \"#utility.yul\":9590:9595   */\n      dup2\n        /* \"#utility.yul\":9563:9596   */\n      tag_74\n      jump\t// in\n    tag_216:\n        /* \"#utility.yul\":9459:9602   */\n      swap3\n      swap2\n      pop\n      pop\n      jump\t// out\n        /* \"#utility.yul\":9608:9724   */\n    tag_104:\n        /* \"#utility.yul\":9678:9699   */\n      tag_218\n        /* \"#utility.yul\":9693:9698   */\n      dup2\n        /* \"#utility.yul\":9678:9699   */\n      tag_84\n      jump\t// in\n    tag_218:\n        /* \"#utility.yul\":9671:9676   */\n      dup2\n        /* \"#utility.yul\":9668:9700   */\n      eq\n        /* \"#utility.yul\":9658:9718   */\n      tag_219\n      jumpi\n        /* \"#utility.yul\":9714:9715   */\n      0x00\n        /* \"#utility.yul\":9711:9712   */\n      dup1\n        /* \"#utility.yul\":9704:9716   */\n      revert\n        /* \"#utility.yul\":9658:9718   */\n    tag_219:\n        /* \"#utility.yul\":9608:9724   */\n      pop\n      jump\t// out\n        /* \"#utility.yul\":9730:9867   */\n    tag_105:\n        /* \"#utility.yul\":9784:9789   */\n      0x00\n        /* \"#utility.yul\":9815:9821   */\n      dup2\n        /* \"#utility.yul\":9809:9822   */\n      mload\n        /* \"#utility.yul\":9800:9822   */\n      swap1\n      pop\n        /* \"#utility.yul\":9831:9861   */\n      tag_221\n        /* \"#utility.yul\":9855:9860   */\n      dup2\n        /* \"#utility.yul\":9831:9861   */\n      tag_104\n      jump\t// in\n    tag_221:\n        /* \"#utility.yul\":9730:9867   */\n      swap3\n      swap2\n      pop\n      pop\n      jump\t// out\n        /* \"#utility.yul\":9873:10703   */\n    tag_40:\n        /* \"#utility.yul\":9968:9974   */\n      0x00\n        /* \"#utility.yul\":9976:9982   */\n      dup1\n        /* \"#utility.yul\":9984:9990   */\n      0x00\n        /* \"#utility.yul\":10033:10035   */\n      0x60\n        /* \"#utility.yul\":10021:10030   */\n      dup5\n        /* \"#utility.yul\":10012:10019   */\n      dup7\n        /* \"#utility.yul\":10008:10031   */\n      sub\n        /* \"#utility.yul\":10004:10036   */\n      slt\n        /* \"#utility.yul\":10001:10120   */\n      iszero\n      tag_223\n      jumpi\n        /* \"#utility.yul\":10039:10118   */\n      tag_224\n      tag_71\n      jump\t// in\n    tag_224:\n        /* \"#utility.yul\":10001:10120   */\n    tag_223:\n        /* \"#utility.yul\":10180:10181   */\n      0x00\n        /* \"#utility.yul\":10169:10178   */\n      dup5\n        /* \"#utility.yul\":10165:10182   */\n      add\n        /* \"#utility.yul\":10159:10183   */\n      mload\n        /* \"#utility.yul\":10210:10228   */\n      0xffffffffffffffff\n        /* \"#utility.yul\":10202:10208   */\n      dup2\n        /* \"#utility.yul\":10199:10229   */\n      gt\n        /* \"#utility.yul\":10196:10313   */\n      iszero\n      tag_225\n      jumpi\n        /* \"#utility.yul\":10232:10311   */\n      tag_226\n      tag_72\n      jump\t// in\n    tag_226:\n        /* \"#utility.yul\":10196:10313   */\n    tag_225:\n        /* \"#utility.yul\":10337:10411   */\n      tag_227\n        /* \"#utility.yul\":10403:10410   */\n      dup7\n        /* \"#utility.yul\":10394:10400   */\n      dup3\n        /* \"#utility.yul\":10383:10392   */\n      dup8\n        /* \"#utility.yul\":10379:10401   */\n      add\n        /* \"#utility.yul\":10337:10411   */\n      tag_102\n      jump\t// in\n    tag_227:\n        /* \"#utility.yul\":10327:10411   */\n      swap4\n      pop\n        /* \"#utility.yul\":10130:10421   */\n      pop\n        /* \"#utility.yul\":10460:10462   */\n      0x20\n        /* \"#utility.yul\":10486:10550   */\n      tag_228\n        /* \"#utility.yul\":10542:10549   */\n      dup7\n        /* \"#utility.yul\":10533:10539   */\n      dup3\n        /* \"#utility.yul\":10522:10531   */\n      dup8\n        /* \"#utility.yul\":10518:10540   */\n      add\n        /* \"#utility.yul\":10486:10550   */\n      tag_103\n      jump\t// in\n    tag_228:\n        /* \"#utility.yul\":10476:10550   */\n      swap3\n      pop\n        /* \"#utility.yul\":10431:10560   */\n      pop\n        /* \"#utility.yul\":10599:10601   */\n      0x40\n        /* \"#utility.yul\":10625:10686   */\n      tag_229\n        /* \"#utility.yul\":10678:10685   */\n      dup7\n        /* \"#utility.yul\":10669:10675   */\n      dup3\n        /* \"#utility.yul\":10658:10667   */\n      dup8\n        /* \"#utility.yul\":10654:10676   */\n      add\n        /* \"#utility.yul\":10625:10686   */\n      tag_105\n      jump\t// in\n    tag_229:\n        /* \"#utility.yul\":10615:10686   */\n      swap2\n      pop\n        /* \"#utility.yul\":10570:10696   */\n      pop\n        /* \"#utility.yul\":9873:10703   */\n      swap3\n      pop\n      swap3\n      pop\n      swap3\n      jump\t// out\n        /* \"#utility.yul\":10709:10878   */\n    tag_106:\n        /* \"#utility.yul\":10793:10804   */\n      0x00\n        /* \"#utility.yul\":10827:10833   */\n      dup3\n        /* \"#utility.yul\":10822:10825   */\n      dup3\n        /* \"#utility.yul\":10815:10834   */\n      mstore\n        /* \"#utility.yul\":10867:10871   */\n      0x20\n        /* \"#utility.yul\":10862:10865   */\n      dup3\n        /* \"#utility.yul\":10858:10872   */\n      add\n        /* \"#utility.yul\":10843:10872   */\n      swap1\n      pop\n        /* \"#utility.yul\":10709:10878   */\n      swap3\n      swap2\n      pop\n      pop\n      jump\t// out\n        /* \"#utility.yul\":10884:11064   */\n    tag_107:\n        /* \"#utility.yul\":11024:11056   */\n      0x4163636f6d6d6f646174696f6e206973206e6f7420617661696c61626c650000\n        /* \"#utility.yul\":11020:11021   */\n      0x00\n        /* \"#utility.yul\":11012:11018   */\n      dup3\n        /* \"#utility.yul\":11008:11022   */\n      add\n        /* \"#utility.yul\":11001:11057   */\n      mstore\n        /* \"#utility.yul\":10884:11064   */\n      pop\n      jump\t// out\n        /* \"#utility.yul\":11070:11436   */\n    tag_108:\n        /* \"#utility.yul\":11212:11215   */\n      0x00\n        /* \"#utility.yul\":11233:11300   */\n      tag_233\n        /* \"#utility.yul\":11297:11299   */\n      0x1e\n        /* \"#utility.yul\":11292:11295   */\n      dup4\n        /* \"#utility.yul\":11233:11300   */\n      tag_106\n      jump\t// in\n    tag_233:\n        /* \"#utility.yul\":11226:11300   */\n      swap2\n      pop\n        /* \"#utility.yul\":11309:11402   */\n      tag_234\n        /* \"#utility.yul\":11398:11401   */\n      dup3\n        /* \"#utility.yul\":11309:11402   */\n      tag_107\n      jump\t// in\n    tag_234:\n        /* \"#utility.yul\":11427:11429   */\n      0x20\n        /* \"#utility.yul\":11422:11425   */\n      dup3\n        /* \"#utility.yul\":11418:11430   */\n      add\n        /* \"#utility.yul\":11411:11430   */\n      swap1\n      pop\n        /* \"#utility.yul\":11070:11436   */\n      swap2\n      swap1\n      pop\n      jump\t// out\n        /* \"#utility.yul\":11442:11861   */\n    tag_43:\n        /* \"#utility.yul\":11608:11612   */\n      0x00\n        /* \"#utility.yul\":11646:11648   */\n      0x20\n        /* \"#utility.yul\":11635:11644   */\n      dup3\n        /* \"#utility.yul\":11631:11649   */\n      add\n        /* \"#utility.yul\":11623:11649   */\n      swap1\n      pop\n        /* \"#utility.yul\":11695:11704   */\n      dup2\n        /* \"#utility.yul\":11689:11693   */\n      dup2\n        /* \"#utility.yul\":11685:11705   */\n      sub\n        /* \"#utility.yul\":11681:11682   */\n      0x00\n        /* \"#utility.yul\":11670:11679   */\n      dup4\n        /* \"#utility.yul\":11666:11683   */\n      add\n        /* \"#utility.yul\":11659:11706   */\n      mstore\n        /* \"#utility.yul\":11723:11854   */\n      tag_236\n        /* \"#utility.yul\":11849:11853   */\n      dup2\n        /* \"#utility.yul\":11723:11854   */\n      tag_108\n      jump\t// in\n    tag_236:\n        /* \"#utility.yul\":11715:11854   */\n      swap1\n      pop\n        /* \"#utility.yul\":11442:11861   */\n      swap2\n      swap1\n      pop\n      jump\t// out\n        /* \"#utility.yul\":11867:12037   */\n    tag_109:\n        /* \"#utility.yul\":12007:12029   */\n      0x496e73756666696369656e74207061796d656e74000000000000000000000000\n        /* \"#utility.yul\":12003:12004   */\n      0x00\n        /* \"#utility.yul\":11995:12001   */\n      dup3\n        /* \"#utility.yul\":11991:12005   */\n      add\n        /* \"#utility.yul\":11984:12030   */\n      mstore\n        /* \"#utility.yul\":11867:12037   */\n      pop\n      jump\t// out\n        /* \"#utility.yul\":12043:12409   */\n    tag_110:\n        /* \"#utility.yul\":12185:12188   */\n      0x00\n        /* \"#utility.yul\":12206:12273   */\n      tag_239\n        /* \"#utility.yul\":12270:12272   */\n      0x14\n        /* \"#utility.yul\":12265:12268   */\n      dup4\n        /* \"#utility.yul\":12206:12273   */\n      tag_106\n      jump\t// in\n    tag_239:\n        /* \"#utility.yul\":12199:12273   */\n      swap2\n      pop\n        /* \"#utility.yul\":12282:12375   */\n      tag_240\n        /* \"#utility.yul\":12371:12374   */\n      dup3\n        /* \"#utility.yul\":12282:12375   */\n      tag_109\n      jump\t// in\n    tag_240:\n        /* \"#utility.yul\":12400:12402   */\n      0x20\n        /* \"#utility.yul\":12395:12398   */\n      dup3\n        /* \"#utility.yul\":12391:12403   */\n      add\n        /* \"#utility.yul\":12384:12403   */\n      swap1\n      pop\n        /* \"#utility.yul\":12043:12409   */\n      swap2\n      swap1\n      pop\n      jump\t// out\n        /* \"#utility.yul\":12415:12834   */\n    tag_46:\n        /* \"#utility.yul\":12581:12585   */\n      0x00\n        /* \"#utility.yul\":12619:12621   */\n      0x20\n        /* \"#utility.yul\":12608:12617   */\n      dup3\n        /* \"#utility.yul\":12604:12622   */\n      add\n        /* \"#utility.yul\":12596:12622   */\n      swap1\n      pop\n        /* \"#utility.yul\":12668:12677   */\n      dup2\n        /* \"#utility.yul\":12662:12666   */\n      dup2\n        /* \"#utility.yul\":12658:12678   */\n      sub\n        /* \"#utility.yul\":12654:12655   */\n      0x00\n        /* \"#utility.yul\":12643:12652   */\n      dup4\n        /* \"#utility.yul\":12639:12656   */\n      add\n        /* \"#utility.yul\":12632:12679   */\n      mstore\n        /* \"#utility.yul\":12696:12827   */\n      tag_242\n        /* \"#utility.yul\":12822:12826   */\n      dup2\n        /* \"#utility.yul\":12696:12827   */\n      tag_110\n      jump\t// in\n    tag_242:\n        /* \"#utility.yul\":12688:12827   */\n      swap1\n      pop\n        /* \"#utility.yul\":12415:12834   */\n      swap2\n      swap1\n      pop\n      jump\t// out\n        /* \"#utility.yul\":12840:13020   */\n    tag_57:\n        /* \"#utility.yul\":12888:12965   */\n      0x4e487b7100000000000000000000000000000000000000000000000000000000\n        /* \"#utility.yul\":12885:12886   */\n      0x00\n        /* \"#utility.yul\":12878:12966   */\n      mstore\n        /* \"#utility.yul\":12985:12989   */\n      0x32\n        /* \"#utility.yul\":12982:12983   */\n      0x04\n        /* \"#utility.yul\":12975:12990   */\n      mstore\n        /* \"#utility.yul\":13009:13013   */\n      0x24\n        /* \"#utility.yul\":13006:13007   */\n      0x00\n        /* \"#utility.yul\":12999:13014   */\n      revert\n        /* \"#utility.yul\":13026:13255   */\n    tag_111:\n        /* \"#utility.yul\":13166:13200   */\n      0x426f6f6b696e67206e6f7420636f6e6669726d6564206f7220616c7265616479\n        /* \"#utility.yul\":13162:13163   */\n      0x00\n        /* \"#utility.yul\":13154:13160   */\n      dup3\n        /* \"#utility.yul\":13150:13164   */\n      add\n        /* \"#utility.yul\":13143:13201   */\n      mstore\n        /* \"#utility.yul\":13235:13247   */\n      0x2063616e63656c6c656400000000000000000000000000000000000000000000\n        /* \"#utility.yul\":13230:13232   */\n      0x20\n        /* \"#utility.yul\":13222:13228   */\n      dup3\n        /* \"#utility.yul\":13218:13233   */\n      add\n        /* \"#utility.yul\":13211:13248   */\n      mstore\n        /* \"#utility.yul\":13026:13255   */\n      pop\n      jump\t// out\n        /* \"#utility.yul\":13261:13627   */\n    tag_112:\n        /* \"#utility.yul\":13403:13406   */\n      0x00\n        /* \"#utility.yul\":13424:13491   */\n      tag_246\n        /* \"#utility.yul\":13488:13490   */\n      0x2a\n        /* \"#utility.yul\":13483:13486   */\n      dup4\n        /* \"#utility.yul\":13424:13491   */\n      tag_106\n      jump\t// in\n    tag_246:\n        /* \"#utility.yul\":13417:13491   */\n      swap2\n      pop\n        /* \"#utility.yul\":13500:13593   */\n      tag_247\n        /* \"#utility.yul\":13589:13592   */\n      dup3\n        /* \"#utility.yul\":13500:13593   */\n      tag_111\n      jump\t// in\n    tag_247:\n        /* \"#utility.yul\":13618:13620   */\n      0x40\n        /* \"#utility.yul\":13613:13616   */\n      dup3\n        /* \"#utility.yul\":13609:13621   */\n      add\n        /* \"#utility.yul\":13602:13621   */\n      swap1\n      pop\n        /* \"#utility.yul\":13261:13627   */\n      swap2\n      swap1\n      pop\n      jump\t// out\n        /* \"#utility.yul\":13633:14052   */\n    tag_61:\n        /* \"#utility.yul\":13799:13803   */\n      0x00\n        /* \"#utility.yul\":13837:13839   */\n      0x20\n        /* \"#utility.yul\":13826:13835   */\n      dup3\n        /* \"#utility.yul\":13822:13840   */\n      add\n        /* \"#utility.yul\":13814:13840   */\n      swap1\n      pop\n        /* \"#utility.yul\":13886:13895   */\n      dup2\n        /* \"#utility.yul\":13880:13884   */\n      dup2\n        /* \"#utility.yul\":13876:13896   */\n      sub\n        /* \"#utility.yul\":13872:13873   */\n      0x00\n        /* \"#utility.yul\":13861:13870   */\n      dup4\n        /* \"#utility.yul\":13857:13874   */\n      add\n        /* \"#utility.yul\":13850:13897   */\n      mstore\n        /* \"#utility.yul\":13914:14045   */\n      tag_249\n        /* \"#utility.yul\":14040:14044   */\n      dup2\n        /* \"#utility.yul\":13914:14045   */\n      tag_112\n      jump\t// in\n    tag_249:\n        /* \"#utility.yul\":13906:14045   */\n      swap1\n      pop\n        /* \"#utility.yul\":13633:14052   */\n      swap2\n      swap1\n      pop\n      jump\t// out\n        /* \"#utility.yul\":14058:14172   */\n    tag_113:\n      pop\n      jump\t// out\n        /* \"#utility.yul\":14178:14542   */\n    tag_114:\n        /* \"#utility.yul\":14320:14323   */\n      0x00\n        /* \"#utility.yul\":14341:14407   */\n      tag_252\n        /* \"#utility.yul\":14405:14406   */\n      0x00\n        /* \"#utility.yul\":14400:14403   */\n      dup4\n        /* \"#utility.yul\":14341:14407   */\n      tag_106\n      jump\t// in\n    tag_252:\n        /* \"#utility.yul\":14334:14407   */\n      swap2\n      pop\n        /* \"#utility.yul\":14416:14509   */\n      tag_253\n        /* \"#utility.yul\":14505:14508   */\n      dup3\n        /* \"#utility.yul\":14416:14509   */\n      tag_113\n      jump\t// in\n    tag_253:\n        /* \"#utility.yul\":14534:14535   */\n      0x00\n        /* \"#utility.yul\":14529:14532   */\n      dup3\n        /* \"#utility.yul\":14525:14536   */\n      add\n        /* \"#utility.yul\":14518:14536   */\n      swap1\n      pop\n        /* \"#utility.yul\":14178:14542   */\n      swap2\n      swap1\n      pop\n      jump\t// out\n        /* \"#utility.yul\":14548:15286   */\n    tag_63:\n        /* \"#utility.yul\":14792:14796   */\n      0x00\n        /* \"#utility.yul\":14830:14833   */\n      0x80\n        /* \"#utility.yul\":14819:14828   */\n      dup3\n        /* \"#utility.yul\":14815:14834   */\n      add\n        /* \"#utility.yul\":14807:14834   */\n      swap1\n      pop\n        /* \"#utility.yul\":14844:14915   */\n      tag_255\n        /* \"#utility.yul\":14912:14913   */\n      0x00\n        /* \"#utility.yul\":14901:14910   */\n      dup4\n        /* \"#utility.yul\":14897:14914   */\n      add\n        /* \"#utility.yul\":14888:14894   */\n      dup7\n        /* \"#utility.yul\":14844:14915   */\n      tag_91\n      jump\t// in\n    tag_255:\n        /* \"#utility.yul\":14962:14971   */\n      dup2\n        /* \"#utility.yul\":14956:14960   */\n      dup2\n        /* \"#utility.yul\":14952:14972   */\n      sub\n        /* \"#utility.yul\":14947:14949   */\n      0x20\n        /* \"#utility.yul\":14936:14945   */\n      dup4\n        /* \"#utility.yul\":14932:14950   */\n      add\n        /* \"#utility.yul\":14925:14973   */\n      mstore\n        /* \"#utility.yul\":14990:15121   */\n      tag_256\n        /* \"#utility.yul\":15116:15120   */\n      dup2\n        /* \"#utility.yul\":14990:15121   */\n      tag_114\n      jump\t// in\n    tag_256:\n        /* \"#utility.yul\":14982:15121   */\n      swap1\n      pop\n        /* \"#utility.yul\":15131:15203   */\n      tag_257\n        /* \"#utility.yul\":15199:15201   */\n      0x40\n        /* \"#utility.yul\":15188:15197   */\n      dup4\n        /* \"#utility.yul\":15184:15202   */\n      add\n        /* \"#utility.yul\":15175:15181   */\n      dup6\n        /* \"#utility.yul\":15131:15203   */\n      tag_91\n      jump\t// in\n    tag_257:\n        /* \"#utility.yul\":15213:15279   */\n      tag_258\n        /* \"#utility.yul\":15275:15277   */\n      0x60\n        /* \"#utility.yul\":15264:15273   */\n      dup4\n        /* \"#utility.yul\":15260:15278   */\n      add\n        /* \"#utility.yul\":15251:15257   */\n      dup5\n        /* \"#utility.yul\":15213:15279   */\n      tag_92\n      jump\t// in\n    tag_258:\n        /* \"#utility.yul\":14548:15286   */\n      swap5\n      swap4\n      pop\n      pop\n      pop\n      pop\n      jump\t// out\n\n    auxdata: 0xa2646970667358221220ccfcaf1367a8c6c126fc2d256f24bf349d26a4e8f26dc09da3a4eae353637d7b64736f6c63430008160033\n}\n",
				"bytecode": {
					"linkReferences": {},
					"object": "608060405234801561000f575f80fd5b50604051610e56380380610e56833981810160405281019061003191906100d5565b8060015f6101000a81548173ffffffffffffffffffffffffffffffffffffffff021916908373ffffffffffffffffffffffffffffffffffffffff16021790555050610100565b5f80fd5b5f73ffffffffffffffffffffffffffffffffffffffff82169050919050565b5f6100a48261007b565b9050919050565b6100b48161009a565b81146100be575f80fd5b50565b5f815190506100cf816100ab565b92915050565b5f602082840312156100ea576100e9610077565b5b5f6100f7848285016100c1565b91505092915050565b610d498061010d5f395ff3fe608060405260043610610049575f3560e01c806344aba6331461004d5780634d8b886214610069578063706e5257146100a55780639c794e2a146100cf578063fe61f1d01461010d575b5f80fd5b6100676004803603810190610062919061065a565b610135565b005b348015610074575f80fd5b5061008f600480360381019061008a91906106df565b61031b565b60405161009c919061081b565b60405180910390f35b3480156100b0575f80fd5b506100b96103e0565b6040516100c6919061084a565b60405180910390f35b3480156100da575f80fd5b506100f560048036038101906100f09190610863565b610405565b604051610104939291906108bf565b60405180910390f35b348015610118575f80fd5b50610133600480360381019061012e919061065a565b610450565b005b5f60015f9054906101000a900473ffffffffffffffffffffffffffffffffffffffff1690505f805f8373ffffffffffffffffffffffffffffffffffffffff1663abad2243866040518263ffffffff1660e01b815260040161019691906108f4565b5f60405180830381865afa1580156101b0573d5f803e3d5ffd5b505050506040513d5f823e3d601f19601f820116820180604052508101906101d89190610aa1565b9250925092508061021e576040517f08c379a000000000000000000000000000000000000000000000000000000000815260040161021590610b67565b60405180910390fd5b81341015610261576040517f08c379a000000000000000000000000000000000000000000000000000000000815260040161025890610bcf565b60405180910390fd5b5f803373ffffffffffffffffffffffffffffffffffffffff1673ffffffffffffffffffffffffffffffffffffffff1681526020019081526020015f20604051806060016040528087815260200184815260200160011515815250908060018154018082558091505060019003905f5260205f2090600302015f909190919091505f820151815f0155602082015181600101556040820151816002015f6101000a81548160ff02191690831515021790555050505050505050565b60605f808373ffffffffffffffffffffffffffffffffffffffff1673ffffffffffffffffffffffffffffffffffffffff1681526020019081526020015f20805480602002602001604051908101604052809291908181526020015f905b828210156103d5578382905f5260205f2090600302016040518060600160405290815f820154815260200160018201548152602001600282015f9054906101000a900460ff16151515158152505081526020019060010190610378565b505050509050919050565b60015f9054906101000a900473ffffffffffffffffffffffffffffffffffffffff1681565b5f602052815f5260405f20818154811061041d575f80fd5b905f5260205f2090600302015f9150915050805f015490806001015490806002015f9054906101000a900460ff16905083565b5f60015f9054906101000a900473ffffffffffffffffffffffffffffffffffffffff1690505f805f3373ffffffffffffffffffffffffffffffffffffffff1673ffffffffffffffffffffffffffffffffffffffff1681526020019081526020015f2083815481106104c4576104c3610bed565b5b905f5260205f2090600302019050806002015f9054906101000a900460ff16610522576040517f08c379a000000000000000000000000000000000000000000000000000000000815260040161051990610c8a565b60405180910390fd5b8173ffffffffffffffffffffffffffffffffffffffff1663d40a7315825f0154836001015460016040518463ffffffff1660e01b815260040161056793929190610ccb565b5f604051808303815f87803b15801561057e575f80fd5b505af1158015610590573d5f803e3d5ffd5b505050505f803373ffffffffffffffffffffffffffffffffffffffff1673ffffffffffffffffffffffffffffffffffffffff1681526020019081526020015f2083815481106105e2576105e1610bed565b5b905f5260205f2090600302015f8082015f9055600182015f9055600282015f6101000a81549060ff02191690555050505050565b5f604051905090565b5f80fd5b5f80fd5b5f819050919050565b61063981610627565b8114610643575f80fd5b50565b5f8135905061065481610630565b92915050565b5f6020828403121561066f5761066e61061f565b5b5f61067c84828501610646565b91505092915050565b5f73ffffffffffffffffffffffffffffffffffffffff82169050919050565b5f6106ae82610685565b9050919050565b6106be816106a4565b81146106c8575f80fd5b50565b5f813590506106d9816106b5565b92915050565b5f602082840312156106f4576106f361061f565b5b5f610701848285016106cb565b91505092915050565b5f81519050919050565b5f82825260208201905092915050565b5f819050602082019050919050565b61073c81610627565b82525050565b5f8115159050919050565b61075681610742565b82525050565b606082015f8201516107705f850182610733565b5060208201516107836020850182610733565b506040820151610796604085018261074d565b50505050565b5f6107a7838361075c565b60608301905092915050565b5f602082019050919050565b5f6107c98261070a565b6107d38185610714565b93506107de83610724565b805f5b8381101561080e5781516107f5888261079c565b9750610800836107b3565b9250506001810190506107e1565b5085935050505092915050565b5f6020820190508181035f83015261083381846107bf565b905092915050565b610844816106a4565b82525050565b5f60208201905061085d5f83018461083b565b92915050565b5f80604083850312156108795761087861061f565b5b5f610886858286016106cb565b925050602061089785828601610646565b9150509250929050565b6108aa81610627565b82525050565b6108b981610742565b82525050565b5f6060820190506108d25f8301866108a1565b6108df60208301856108a1565b6108ec60408301846108b0565b949350505050565b5f6020820190506109075f8301846108a1565b92915050565b5f80fd5b5f80fd5b5f601f19601f8301169050919050565b7f4e487b71000000000000000000000000000000000000000000000000000000005f52604160045260245ffd5b61095b82610915565b810181811067ffffffffffffffff8211171561097a57610979610925565b5b80604052505050565b5f61098c610616565b90506109988282610952565b919050565b5f67ffffffffffffffff8211156109b7576109b6610925565b5b6109c082610915565b9050602081019050919050565b5f5b838110156109ea5780820151818401526020810190506109cf565b5f8484015250505050565b5f610a07610a028461099d565b610983565b905082815260208101848484011115610a2357610a22610911565b5b610a2e8482856109cd565b509392505050565b5f82601f830112610a4a57610a4961090d565b5b8151610a5a8482602086016109f5565b91505092915050565b5f81519050610a7181610630565b92915050565b610a8081610742565b8114610a8a575f80fd5b50565b5f81519050610a9b81610a77565b92915050565b5f805f60608486031215610ab857610ab761061f565b5b5f84015167ffffffffffffffff811115610ad557610ad4610623565b5b610ae186828701610a36565b9350506020610af286828701610a63565b9250506040610b0386828701610a8d565b9150509250925092565b5f82825260208201905092915050565b7f4163636f6d6d6f646174696f6e206973206e6f7420617661696c61626c6500005f82015250565b5f610b51601e83610b0d565b9150610b5c82610b1d565b602082019050919050565b5f6020820190508181035f830152610b7e81610b45565b9050919050565b7f496e73756666696369656e74207061796d656e740000000000000000000000005f82015250565b5f610bb9601483610b0d565b9150610bc482610b85565b602082019050919050565b5f6020820190508181035f830152610be681610bad565b9050919050565b7f4e487b71000000000000000000000000000000000000000000000000000000005f52603260045260245ffd5b7f426f6f6b696e67206e6f7420636f6e6669726d6564206f7220616c72656164795f8201527f2063616e63656c6c656400000000000000000000000000000000000000000000602082015250565b5f610c74602a83610b0d565b9150610c7f82610c1a565b604082019050919050565b5f6020820190508181035f830152610ca181610c68565b9050919050565b50565b5f610cb65f83610b0d565b9150610cc182610ca8565b5f82019050919050565b5f608082019050610cde5f8301866108a1565b8181036020830152610cef81610cab565b9050610cfe60408301856108a1565b610d0b60608301846108b0565b94935050505056fea2646970667358221220ccfcaf1367a8c6c126fc2d256f24bf349d26a4e8f26dc09da3a4eae353637d7b64736f6c63430008160033",
					"opcodes": "PUSH1 0x80 PUSH1 0x40 MSTORE CALLVALUE DUP1 ISZERO PUSH2 0xF JUMPI PUSH0 DUP1 REVERT JUMPDEST POP PUSH1 0x40 MLOAD PUSH2 0xE56 CODESIZE SUB DUP1 PUSH2 0xE56 DUP4 CODECOPY DUP2 DUP2 ADD PUSH1 0x40 MSTORE DUP2 ADD SWAP1 PUSH2 0x31 SWAP2 SWAP1 PUSH2 0xD5 JUMP JUMPDEST DUP1 PUSH1 0x1 PUSH0 PUSH2 0x100 EXP DUP2 SLOAD DUP2 PUSH20 0xFFFFFFFFFFFFFFFFFFFFFFFFFFFFFFFFFFFFFFFF MUL NOT AND SWAP1 DUP4 PUSH20 0xFFFFFFFFFFFFFFFFFFFFFFFFFFFFFFFFFFFFFFFF AND MUL OR SWAP1 SSTORE POP POP PUSH2 0x100 JUMP JUMPDEST PUSH0 DUP1 REVERT JUMPDEST PUSH0 PUSH20 0xFFFFFFFFFFFFFFFFFFFFFFFFFFFFFFFFFFFFFFFF DUP3 AND SWAP1 POP SWAP2 SWAP1 POP JUMP JUMPDEST PUSH0 PUSH2 0xA4 DUP3 PUSH2 0x7B JUMP JUMPDEST SWAP1 POP SWAP2 SWAP1 POP JUMP JUMPDEST PUSH2 0xB4 DUP2 PUSH2 0x9A JUMP JUMPDEST DUP2 EQ PUSH2 0xBE JUMPI PUSH0 DUP1 REVERT JUMPDEST POP JUMP JUMPDEST PUSH0 DUP2 MLOAD SWAP1 POP PUSH2 0xCF DUP2 PUSH2 0xAB JUMP JUMPDEST SWAP3 SWAP2 POP POP JUMP JUMPDEST PUSH0 PUSH1 0x20 DUP3 DUP5 SUB SLT ISZERO PUSH2 0xEA JUMPI PUSH2 0xE9 PUSH2 0x77 JUMP JUMPDEST JUMPDEST PUSH0 PUSH2 0xF7 DUP5 DUP3 DUP6 ADD PUSH2 0xC1 JUMP JUMPDEST SWAP2 POP POP SWAP3 SWAP2 POP POP JUMP JUMPDEST PUSH2 0xD49 DUP1 PUSH2 0x10D PUSH0 CODECOPY PUSH0 RETURN INVALID PUSH1 0x80 PUSH1 0x40 MSTORE PUSH1 0x4 CALLDATASIZE LT PUSH2 0x49 JUMPI PUSH0 CALLDATALOAD PUSH1 0xE0 SHR DUP1 PUSH4 0x44ABA633 EQ PUSH2 0x4D JUMPI DUP1 PUSH4 0x4D8B8862 EQ PUSH2 0x69 JUMPI DUP1 PUSH4 0x706E5257 EQ PUSH2 0xA5 JUMPI DUP1 PUSH4 0x9C794E2A EQ PUSH2 0xCF JUMPI DUP1 PUSH4 0xFE61F1D0 EQ PUSH2 0x10D JUMPI JUMPDEST PUSH0 DUP1 REVERT JUMPDEST PUSH2 0x67 PUSH1 0x4 DUP1 CALLDATASIZE SUB DUP2 ADD SWAP1 PUSH2 0x62 SWAP2 SWAP1 PUSH2 0x65A JUMP JUMPDEST PUSH2 0x135 JUMP JUMPDEST STOP JUMPDEST CALLVALUE DUP1 ISZERO PUSH2 0x74 JUMPI PUSH0 DUP1 REVERT JUMPDEST POP PUSH2 0x8F PUSH1 0x4 DUP1 CALLDATASIZE SUB DUP2 ADD SWAP1 PUSH2 0x8A SWAP2 SWAP1 PUSH2 0x6DF JUMP JUMPDEST PUSH2 0x31B JUMP JUMPDEST PUSH1 0x40 MLOAD PUSH2 0x9C SWAP2 SWAP1 PUSH2 0x81B JUMP JUMPDEST PUSH1 0x40 MLOAD DUP1 SWAP2 SUB SWAP1 RETURN JUMPDEST CALLVALUE DUP1 ISZERO PUSH2 0xB0 JUMPI PUSH0 DUP1 REVERT JUMPDEST POP PUSH2 0xB9 PUSH2 0x3E0 JUMP JUMPDEST PUSH1 0x40 MLOAD PUSH2 0xC6 SWAP2 SWAP1 PUSH2 0x84A JUMP JUMPDEST PUSH1 0x40 MLOAD DUP1 SWAP2 SUB SWAP1 RETURN JUMPDEST CALLVALUE DUP1 ISZERO PUSH2 0xDA JUMPI PUSH0 DUP1 REVERT JUMPDEST POP PUSH2 0xF5 PUSH1 0x4 DUP1 CALLDATASIZE SUB DUP2 ADD SWAP1 PUSH2 0xF0 SWAP2 SWAP1 PUSH2 0x863 JUMP JUMPDEST PUSH2 0x405 JUMP JUMPDEST PUSH1 0x40 MLOAD PUSH2 0x104 SWAP4 SWAP3 SWAP2 SWAP1 PUSH2 0x8BF JUMP JUMPDEST PUSH1 0x40 MLOAD DUP1 SWAP2 SUB SWAP1 RETURN JUMPDEST CALLVALUE DUP1 ISZERO PUSH2 0x118 JUMPI PUSH0 DUP1 REVERT JUMPDEST POP PUSH2 0x133 PUSH1 0x4 DUP1 CALLDATASIZE SUB DUP2 ADD SWAP1 PUSH2 0x12E SWAP2 SWAP1 PUSH2 0x65A JUMP JUMPDEST PUSH2 0x450 JUMP JUMPDEST STOP JUMPDEST PUSH0 PUSH1 0x1 PUSH0 SWAP1 SLOAD SWAP1 PUSH2 0x100 EXP SWAP1 DIV PUSH20 0xFFFFFFFFFFFFFFFFFFFFFFFFFFFFFFFFFFFFFFFF AND SWAP1 POP PUSH0 DUP1 PUSH0 DUP4 PUSH20 0xFFFFFFFFFFFFFFFFFFFFFFFFFFFFFFFFFFFFFFFF AND PUSH4 0xABAD2243 DUP7 PUSH1 0x40 MLOAD DUP3 PUSH4 0xFFFFFFFF AND PUSH1 0xE0 SHL DUP2 MSTORE PUSH1 0x4 ADD PUSH2 0x196 SWAP2 SWAP1 PUSH2 0x8F4 JUMP JUMPDEST PUSH0 PUSH1 0x40 MLOAD DUP1 DUP4 SUB DUP2 DUP7 GAS STATICCALL ISZERO DUP1 ISZERO PUSH2 0x1B0 JUMPI RETURNDATASIZE PUSH0 DUP1 RETURNDATACOPY RETURNDATASIZE PUSH0 REVERT JUMPDEST POP POP POP POP PUSH1 0x40 MLOAD RETURNDATASIZE PUSH0 DUP3 RETURNDATACOPY RETURNDATASIZE PUSH1 0x1F NOT PUSH1 0x1F DUP3 ADD AND DUP3 ADD DUP1 PUSH1 0x40 MSTORE POP DUP2 ADD SWAP1 PUSH2 0x1D8 SWAP2 SWAP1 PUSH2 0xAA1 JUMP JUMPDEST SWAP3 POP SWAP3 POP SWAP3 POP DUP1 PUSH2 0x21E JUMPI PUSH1 0x40 MLOAD PUSH32 0x8C379A000000000000000000000000000000000000000000000000000000000 DUP2 MSTORE PUSH1 0x4 ADD PUSH2 0x215 SWAP1 PUSH2 0xB67 JUMP JUMPDEST PUSH1 0x40 MLOAD DUP1 SWAP2 SUB SWAP1 REVERT JUMPDEST DUP2 CALLVALUE LT ISZERO PUSH2 0x261 JUMPI PUSH1 0x40 MLOAD PUSH32 0x8C379A000000000000000000000000000000000000000000000000000000000 DUP2 MSTORE PUSH1 0x4 ADD PUSH2 0x258 SWAP1 PUSH2 0xBCF JUMP JUMPDEST PUSH1 0x40 MLOAD DUP1 SWAP2 SUB SWAP1 REVERT JUMPDEST PUSH0 DUP1 CALLER PUSH20 0xFFFFFFFFFFFFFFFFFFFFFFFFFFFFFFFFFFFFFFFF AND PUSH20 0xFFFFFFFFFFFFFFFFFFFFFFFFFFFFFFFFFFFFFFFF AND DUP2 MSTORE PUSH1 0x20 ADD SWAP1 DUP2 MSTORE PUSH1 0x20 ADD PUSH0 KECCAK256 PUSH1 0x40 MLOAD DUP1 PUSH1 0x60 ADD PUSH1 0x40 MSTORE DUP1 DUP8 DUP2 MSTORE PUSH1 0x20 ADD DUP5 DUP2 MSTORE PUSH1 0x20 ADD PUSH1 0x1 ISZERO ISZERO DUP2 MSTORE POP SWAP1 DUP1 PUSH1 0x1 DUP2 SLOAD ADD DUP1 DUP3 SSTORE DUP1 SWAP2 POP POP PUSH1 0x1 SWAP1 SUB SWAP1 PUSH0 MSTORE PUSH1 0x20 PUSH0 KECCAK256 SWAP1 PUSH1 0x3 MUL ADD PUSH0 SWAP1 SWAP2 SWAP1 SWAP2 SWAP1 SWAP2 POP PUSH0 DUP3 ADD MLOAD DUP2 PUSH0 ADD SSTORE PUSH1 0x20 DUP3 ADD MLOAD DUP2 PUSH1 0x1 ADD SSTORE PUSH1 0x40 DUP3 ADD MLOAD DUP2 PUSH1 0x2 ADD PUSH0 PUSH2 0x100 EXP DUP2 SLOAD DUP2 PUSH1 0xFF MUL NOT AND SWAP1 DUP4 ISZERO ISZERO MUL OR SWAP1 SSTORE POP POP POP POP POP POP POP POP JUMP JUMPDEST PUSH1 0x60 PUSH0 DUP1 DUP4 PUSH20 0xFFFFFFFFFFFFFFFFFFFFFFFFFFFFFFFFFFFFFFFF AND PUSH20 0xFFFFFFFFFFFFFFFFFFFFFFFFFFFFFFFFFFFFFFFF AND DUP2 MSTORE PUSH1 0x20 ADD SWAP1 DUP2 MSTORE PUSH1 0x20 ADD PUSH0 KECCAK256 DUP1 SLOAD DUP1 PUSH1 0x20 MUL PUSH1 0x20 ADD PUSH1 0x40 MLOAD SWAP1 DUP2 ADD PUSH1 0x40 MSTORE DUP1 SWAP3 SWAP2 SWAP1 DUP2 DUP2 MSTORE PUSH1 0x20 ADD PUSH0 SWAP1 JUMPDEST DUP3 DUP3 LT ISZERO PUSH2 0x3D5 JUMPI DUP4 DUP3 SWAP1 PUSH0 MSTORE PUSH1 0x20 PUSH0 KECCAK256 SWAP1 PUSH1 0x3 MUL ADD PUSH1 0x40 MLOAD DUP1 PUSH1 0x60 ADD PUSH1 0x40 MSTORE SWAP1 DUP2 PUSH0 DUP3 ADD SLOAD DUP2 MSTORE PUSH1 0x20 ADD PUSH1 0x1 DUP3 ADD SLOAD DUP2 MSTORE PUSH1 0x20 ADD PUSH1 0x2 DUP3 ADD PUSH0 SWAP1 SLOAD SWAP1 PUSH2 0x100 EXP SWAP1 DIV PUSH1 0xFF AND ISZERO ISZERO ISZERO ISZERO DUP2 MSTORE POP POP DUP2 MSTORE PUSH1 0x20 ADD SWAP1 PUSH1 0x1 ADD SWAP1 PUSH2 0x378 JUMP JUMPDEST POP POP POP POP SWAP1 POP SWAP2 SWAP1 POP JUMP JUMPDEST PUSH1 0x1 PUSH0 SWAP1 SLOAD SWAP1 PUSH2 0x100 EXP SWAP1 DIV PUSH20 0xFFFFFFFFFFFFFFFFFFFFFFFFFFFFFFFFFFFFFFFF AND DUP2 JUMP JUMPDEST PUSH0 PUSH1 0x20 MSTORE DUP2 PUSH0 MSTORE PUSH1 0x40 PUSH0 KECCAK256 DUP2 DUP2 SLOAD DUP2 LT PUSH2 0x41D JUMPI PUSH0 DUP1 REVERT JUMPDEST SWAP1 PUSH0 MSTORE PUSH1 0x20 PUSH0 KECCAK256 SWAP1 PUSH1 0x3 MUL ADD PUSH0 SWAP2 POP SWAP2 POP POP DUP1 PUSH0 ADD SLOAD SWAP1 DUP1 PUSH1 0x1 ADD SLOAD SWAP1 DUP1 PUSH1 0x2 ADD PUSH0 SWAP1 SLOAD SWAP1 PUSH2 0x100 EXP SWAP1 DIV PUSH1 0xFF AND SWAP1 POP DUP4 JUMP JUMPDEST PUSH0 PUSH1 0x1 PUSH0 SWAP1 SLOAD SWAP1 PUSH2 0x100 EXP SWAP1 DIV PUSH20 0xFFFFFFFFFFFFFFFFFFFFFFFFFFFFFFFFFFFFFFFF AND SWAP1 POP PUSH0 DUP1 PUSH0 CALLER PUSH20 0xFFFFFFFFFFFFFFFFFFFFFFFFFFFFFFFFFFFFFFFF AND PUSH20 0xFFFFFFFFFFFFFFFFFFFFFFFFFFFFFFFFFFFFFFFF AND DUP2 MSTORE PUSH1 0x20 ADD SWAP1 DUP2 MSTORE PUSH1 0x20 ADD PUSH0 KECCAK256 DUP4 DUP2 SLOAD DUP2 LT PUSH2 0x4C4 JUMPI PUSH2 0x4C3 PUSH2 0xBED JUMP JUMPDEST JUMPDEST SWAP1 PUSH0 MSTORE PUSH1 0x20 PUSH0 KECCAK256 SWAP1 PUSH1 0x3 MUL ADD SWAP1 POP DUP1 PUSH1 0x2 ADD PUSH0 SWAP1 SLOAD SWAP1 PUSH2 0x100 EXP SWAP1 DIV PUSH1 0xFF AND PUSH2 0x522 JUMPI PUSH1 0x40 MLOAD PUSH32 0x8C379A000000000000000000000000000000000000000000000000000000000 DUP2 MSTORE PUSH1 0x4 ADD PUSH2 0x519 SWAP1 PUSH2 0xC8A JUMP JUMPDEST PUSH1 0x40 MLOAD DUP1 SWAP2 SUB SWAP1 REVERT JUMPDEST DUP2 PUSH20 0xFFFFFFFFFFFFFFFFFFFFFFFFFFFFFFFFFFFFFFFF AND PUSH4 0xD40A7315 DUP3 PUSH0 ADD SLOAD DUP4 PUSH1 0x1 ADD SLOAD PUSH1 0x1 PUSH1 0x40 MLOAD DUP5 PUSH4 0xFFFFFFFF AND PUSH1 0xE0 SHL DUP2 MSTORE PUSH1 0x4 ADD PUSH2 0x567 SWAP4 SWAP3 SWAP2 SWAP1 PUSH2 0xCCB JUMP JUMPDEST PUSH0 PUSH1 0x40 MLOAD DUP1 DUP4 SUB DUP2 PUSH0 DUP8 DUP1 EXTCODESIZE ISZERO DUP1 ISZERO PUSH2 0x57E JUMPI PUSH0 DUP1 REVERT JUMPDEST POP GAS CALL ISZERO DUP1 ISZERO PUSH2 0x590 JUMPI RETURNDATASIZE PUSH0 DUP1 RETURNDATACOPY RETURNDATASIZE PUSH0 REVERT JUMPDEST POP POP POP POP PUSH0 DUP1 CALLER PUSH20 0xFFFFFFFFFFFFFFFFFFFFFFFFFFFFFFFFFFFFFFFF AND PUSH20 0xFFFFFFFFFFFFFFFFFFFFFFFFFFFFFFFFFFFFFFFF AND DUP2 MSTORE PUSH1 0x20 ADD SWAP1 DUP2 MSTORE PUSH1 0x20 ADD PUSH0 KECCAK256 DUP4 DUP2 SLOAD DUP2 LT PUSH2 0x5E2 JUMPI PUSH2 0x5E1 PUSH2 0xBED JUMP JUMPDEST JUMPDEST SWAP1 PUSH0 MSTORE PUSH1 0x20 PUSH0 KECCAK256 SWAP1 PUSH1 0x3 MUL ADD PUSH0 DUP1 DUP3 ADD PUSH0 SWAP1 SSTORE PUSH1 0x1 DUP3 ADD PUSH0 SWAP1 SSTORE PUSH1 0x2 DUP3 ADD PUSH0 PUSH2 0x100 EXP DUP2 SLOAD SWAP1 PUSH1 0xFF MUL NOT AND SWAP1 SSTORE POP POP POP POP POP JUMP JUMPDEST PUSH0 PUSH1 0x40 MLOAD SWAP1 POP SWAP1 JUMP JUMPDEST PUSH0 DUP1 REVERT JUMPDEST PUSH0 DUP1 REVERT JUMPDEST PUSH0 DUP2 SWAP1 POP SWAP2 SWAP1 POP JUMP JUMPDEST PUSH2 0x639 DUP2 PUSH2 0x627 JUMP JUMPDEST DUP2 EQ PUSH2 0x643 JUMPI PUSH0 DUP1 REVERT JUMPDEST POP JUMP JUMPDEST PUSH0 DUP2 CALLDATALOAD SWAP1 POP PUSH2 0x654 DUP2 PUSH2 0x630 JUMP JUMPDEST SWAP3 SWAP2 POP POP JUMP JUMPDEST PUSH0 PUSH1 0x20 DUP3 DUP5 SUB SLT ISZERO PUSH2 0x66F JUMPI PUSH2 0x66E PUSH2 0x61F JUMP JUMPDEST JUMPDEST PUSH0 PUSH2 0x67C DUP5 DUP3 DUP6 ADD PUSH2 0x646 JUMP JUMPDEST SWAP2 POP POP SWAP3 SWAP2 POP POP JUMP JUMPDEST PUSH0 PUSH20 0xFFFFFFFFFFFFFFFFFFFFFFFFFFFFFFFFFFFFFFFF DUP3 AND SWAP1 POP SWAP2 SWAP1 POP JUMP JUMPDEST PUSH0 PUSH2 0x6AE DUP3 PUSH2 0x685 JUMP JUMPDEST SWAP1 POP SWAP2 SWAP1 POP JUMP JUMPDEST PUSH2 0x6BE DUP2 PUSH2 0x6A4 JUMP JUMPDEST DUP2 EQ PUSH2 0x6C8 JUMPI PUSH0 DUP1 REVERT JUMPDEST POP JUMP JUMPDEST PUSH0 DUP2 CALLDATALOAD SWAP1 POP PUSH2 0x6D9 DUP2 PUSH2 0x6B5 JUMP JUMPDEST SWAP3 SWAP2 POP POP JUMP JUMPDEST PUSH0 PUSH1 0x20 DUP3 DUP5 SUB SLT ISZERO PUSH2 0x6F4 JUMPI PUSH2 0x6F3 PUSH2 0x61F JUMP JUMPDEST JUMPDEST PUSH0 PUSH2 0x701 DUP5 DUP3 DUP6 ADD PUSH2 0x6CB JUMP JUMPDEST SWAP2 POP POP SWAP3 SWAP2 POP POP JUMP JUMPDEST PUSH0 DUP2 MLOAD SWAP1 POP SWAP2 SWAP1 POP JUMP JUMPDEST PUSH0 DUP3 DUP3 MSTORE PUSH1 0x20 DUP3 ADD SWAP1 POP SWAP3 SWAP2 POP POP JUMP JUMPDEST PUSH0 DUP2 SWAP1 POP PUSH1 0x20 DUP3 ADD SWAP1 POP SWAP2 SWAP1 POP JUMP JUMPDEST PUSH2 0x73C DUP2 PUSH2 0x627 JUMP JUMPDEST DUP3 MSTORE POP POP JUMP JUMPDEST PUSH0 DUP2 ISZERO ISZERO SWAP1 POP SWAP2 SWAP1 POP JUMP JUMPDEST PUSH2 0x756 DUP2 PUSH2 0x742 JUMP JUMPDEST DUP3 MSTORE POP POP JUMP JUMPDEST PUSH1 0x60 DUP3 ADD PUSH0 DUP3 ADD MLOAD PUSH2 0x770 PUSH0 DUP6 ADD DUP3 PUSH2 0x733 JUMP JUMPDEST POP PUSH1 0x20 DUP3 ADD MLOAD PUSH2 0x783 PUSH1 0x20 DUP6 ADD DUP3 PUSH2 0x733 JUMP JUMPDEST POP PUSH1 0x40 DUP3 ADD MLOAD PUSH2 0x796 PUSH1 0x40 DUP6 ADD DUP3 PUSH2 0x74D JUMP JUMPDEST POP POP POP POP JUMP JUMPDEST PUSH0 PUSH2 0x7A7 DUP4 DUP4 PUSH2 0x75C JUMP JUMPDEST PUSH1 0x60 DUP4 ADD SWAP1 POP SWAP3 SWAP2 POP POP JUMP JUMPDEST PUSH0 PUSH1 0x20 DUP3 ADD SWAP1 POP SWAP2 SWAP1 POP JUMP JUMPDEST PUSH0 PUSH2 0x7C9 DUP3 PUSH2 0x70A JUMP JUMPDEST PUSH2 0x7D3 DUP2 DUP6 PUSH2 0x714 JUMP JUMPDEST SWAP4 POP PUSH2 0x7DE DUP4 PUSH2 0x724 JUMP JUMPDEST DUP1 PUSH0 JUMPDEST DUP4 DUP2 LT ISZERO PUSH2 0x80E JUMPI DUP2 MLOAD PUSH2 0x7F5 DUP9 DUP3 PUSH2 0x79C JUMP JUMPDEST SWAP8 POP PUSH2 0x800 DUP4 PUSH2 0x7B3 JUMP JUMPDEST SWAP3 POP POP PUSH1 0x1 DUP2 ADD SWAP1 POP PUSH2 0x7E1 JUMP JUMPDEST POP DUP6 SWAP4 POP POP POP POP SWAP3 SWAP2 POP POP JUMP JUMPDEST PUSH0 PUSH1 0x20 DUP3 ADD SWAP1 POP DUP2 DUP2 SUB PUSH0 DUP4 ADD MSTORE PUSH2 0x833 DUP2 DUP5 PUSH2 0x7BF JUMP JUMPDEST SWAP1 POP SWAP3 SWAP2 POP POP JUMP JUMPDEST PUSH2 0x844 DUP2 PUSH2 0x6A4 JUMP JUMPDEST DUP3 MSTORE POP POP JUMP JUMPDEST PUSH0 PUSH1 0x20 DUP3 ADD SWAP1 POP PUSH2 0x85D PUSH0 DUP4 ADD DUP5 PUSH2 0x83B JUMP JUMPDEST SWAP3 SWAP2 POP POP JUMP JUMPDEST PUSH0 DUP1 PUSH1 0x40 DUP4 DUP6 SUB SLT ISZERO PUSH2 0x879 JUMPI PUSH2 0x878 PUSH2 0x61F JUMP JUMPDEST JUMPDEST PUSH0 PUSH2 0x886 DUP6 DUP3 DUP7 ADD PUSH2 0x6CB JUMP JUMPDEST SWAP3 POP POP PUSH1 0x20 PUSH2 0x897 DUP6 DUP3 DUP7 ADD PUSH2 0x646 JUMP JUMPDEST SWAP2 POP POP SWAP3 POP SWAP3 SWAP1 POP JUMP JUMPDEST PUSH2 0x8AA DUP2 PUSH2 0x627 JUMP JUMPDEST DUP3 MSTORE POP POP JUMP JUMPDEST PUSH2 0x8B9 DUP2 PUSH2 0x742 JUMP JUMPDEST DUP3 MSTORE POP POP JUMP JUMPDEST PUSH0 PUSH1 0x60 DUP3 ADD SWAP1 POP PUSH2 0x8D2 PUSH0 DUP4 ADD DUP7 PUSH2 0x8A1 JUMP JUMPDEST PUSH2 0x8DF PUSH1 0x20 DUP4 ADD DUP6 PUSH2 0x8A1 JUMP JUMPDEST PUSH2 0x8EC PUSH1 0x40 DUP4 ADD DUP5 PUSH2 0x8B0 JUMP JUMPDEST SWAP5 SWAP4 POP POP POP POP JUMP JUMPDEST PUSH0 PUSH1 0x20 DUP3 ADD SWAP1 POP PUSH2 0x907 PUSH0 DUP4 ADD DUP5 PUSH2 0x8A1 JUMP JUMPDEST SWAP3 SWAP2 POP POP JUMP JUMPDEST PUSH0 DUP1 REVERT JUMPDEST PUSH0 DUP1 REVERT JUMPDEST PUSH0 PUSH1 0x1F NOT PUSH1 0x1F DUP4 ADD AND SWAP1 POP SWAP2 SWAP1 POP JUMP JUMPDEST PUSH32 0x4E487B7100000000000000000000000000000000000000000000000000000000 PUSH0 MSTORE PUSH1 0x41 PUSH1 0x4 MSTORE PUSH1 0x24 PUSH0 REVERT JUMPDEST PUSH2 0x95B DUP3 PUSH2 0x915 JUMP JUMPDEST DUP2 ADD DUP2 DUP2 LT PUSH8 0xFFFFFFFFFFFFFFFF DUP3 GT OR ISZERO PUSH2 0x97A JUMPI PUSH2 0x979 PUSH2 0x925 JUMP JUMPDEST JUMPDEST DUP1 PUSH1 0x40 MSTORE POP POP POP JUMP JUMPDEST PUSH0 PUSH2 0x98C PUSH2 0x616 JUMP JUMPDEST SWAP1 POP PUSH2 0x998 DUP3 DUP3 PUSH2 0x952 JUMP JUMPDEST SWAP2 SWAP1 POP JUMP JUMPDEST PUSH0 PUSH8 0xFFFFFFFFFFFFFFFF DUP3 GT ISZERO PUSH2 0x9B7 JUMPI PUSH2 0x9B6 PUSH2 0x925 JUMP JUMPDEST JUMPDEST PUSH2 0x9C0 DUP3 PUSH2 0x915 JUMP JUMPDEST SWAP1 POP PUSH1 0x20 DUP2 ADD SWAP1 POP SWAP2 SWAP1 POP JUMP JUMPDEST PUSH0 JUMPDEST DUP4 DUP2 LT ISZERO PUSH2 0x9EA JUMPI DUP1 DUP3 ADD MLOAD DUP2 DUP5 ADD MSTORE PUSH1 0x20 DUP2 ADD SWAP1 POP PUSH2 0x9CF JUMP JUMPDEST PUSH0 DUP5 DUP5 ADD MSTORE POP POP POP POP JUMP JUMPDEST PUSH0 PUSH2 0xA07 PUSH2 0xA02 DUP5 PUSH2 0x99D JUMP JUMPDEST PUSH2 0x983 JUMP JUMPDEST SWAP1 POP DUP3 DUP2 MSTORE PUSH1 0x20 DUP2 ADD DUP5 DUP5 DUP5 ADD GT ISZERO PUSH2 0xA23 JUMPI PUSH2 0xA22 PUSH2 0x911 JUMP JUMPDEST JUMPDEST PUSH2 0xA2E DUP5 DUP3 DUP6 PUSH2 0x9CD JUMP JUMPDEST POP SWAP4 SWAP3 POP POP POP JUMP JUMPDEST PUSH0 DUP3 PUSH1 0x1F DUP4 ADD SLT PUSH2 0xA4A JUMPI PUSH2 0xA49 PUSH2 0x90D JUMP JUMPDEST JUMPDEST DUP2 MLOAD PUSH2 0xA5A DUP5 DUP3 PUSH1 0x20 DUP7 ADD PUSH2 0x9F5 JUMP JUMPDEST SWAP2 POP POP SWAP3 SWAP2 POP POP JUMP JUMPDEST PUSH0 DUP2 MLOAD SWAP1 POP PUSH2 0xA71 DUP2 PUSH2 0x630 JUMP JUMPDEST SWAP3 SWAP2 POP POP JUMP JUMPDEST PUSH2 0xA80 DUP2 PUSH2 0x742 JUMP JUMPDEST DUP2 EQ PUSH2 0xA8A JUMPI PUSH0 DUP1 REVERT JUMPDEST POP JUMP JUMPDEST PUSH0 DUP2 MLOAD SWAP1 POP PUSH2 0xA9B DUP2 PUSH2 0xA77 JUMP JUMPDEST SWAP3 SWAP2 POP POP JUMP JUMPDEST PUSH0 DUP1 PUSH0 PUSH1 0x60 DUP5 DUP7 SUB SLT ISZERO PUSH2 0xAB8 JUMPI PUSH2 0xAB7 PUSH2 0x61F JUMP JUMPDEST JUMPDEST PUSH0 DUP5 ADD MLOAD PUSH8 0xFFFFFFFFFFFFFFFF DUP2 GT ISZERO PUSH2 0xAD5 JUMPI PUSH2 0xAD4 PUSH2 0x623 JUMP JUMPDEST JUMPDEST PUSH2 0xAE1 DUP7 DUP3 DUP8 ADD PUSH2 0xA36 JUMP JUMPDEST SWAP4 POP POP PUSH1 0x20 PUSH2 0xAF2 DUP7 DUP3 DUP8 ADD PUSH2 0xA63 JUMP JUMPDEST SWAP3 POP POP PUSH1 0x40 PUSH2 0xB03 DUP7 DUP3 DUP8 ADD PUSH2 0xA8D JUMP JUMPDEST SWAP2 POP POP SWAP3 POP SWAP3 POP SWAP3 JUMP JUMPDEST PUSH0 DUP3 DUP3 MSTORE PUSH1 0x20 DUP3 ADD SWAP1 POP SWAP3 SWAP2 POP POP JUMP JUMPDEST PUSH32 0x4163636F6D6D6F646174696F6E206973206E6F7420617661696C61626C650000 PUSH0 DUP3 ADD MSTORE POP JUMP JUMPDEST PUSH0 PUSH2 0xB51 PUSH1 0x1E DUP4 PUSH2 0xB0D JUMP JUMPDEST SWAP2 POP PUSH2 0xB5C DUP3 PUSH2 0xB1D JUMP JUMPDEST PUSH1 0x20 DUP3 ADD SWAP1 POP SWAP2 SWAP1 POP JUMP JUMPDEST PUSH0 PUSH1 0x20 DUP3 ADD SWAP1 POP DUP2 DUP2 SUB PUSH0 DUP4 ADD MSTORE PUSH2 0xB7E DUP2 PUSH2 0xB45 JUMP JUMPDEST SWAP1 POP SWAP2 SWAP1 POP JUMP JUMPDEST PUSH32 0x496E73756666696369656E74207061796D656E74000000000000000000000000 PUSH0 DUP3 ADD MSTORE POP JUMP JUMPDEST PUSH0 PUSH2 0xBB9 PUSH1 0x14 DUP4 PUSH2 0xB0D JUMP JUMPDEST SWAP2 POP PUSH2 0xBC4 DUP3 PUSH2 0xB85 JUMP JUMPDEST PUSH1 0x20 DUP3 ADD SWAP1 POP SWAP2 SWAP1 POP JUMP JUMPDEST PUSH0 PUSH1 0x20 DUP3 ADD SWAP1 POP DUP2 DUP2 SUB PUSH0 DUP4 ADD MSTORE PUSH2 0xBE6 DUP2 PUSH2 0xBAD JUMP JUMPDEST SWAP1 POP SWAP2 SWAP1 POP JUMP JUMPDEST PUSH32 0x4E487B7100000000000000000000000000000000000000000000000000000000 PUSH0 MSTORE PUSH1 0x32 PUSH1 0x4 MSTORE PUSH1 0x24 PUSH0 REVERT JUMPDEST PUSH32 0x426F6F6B696E67206E6F7420636F6E6669726D6564206F7220616C7265616479 PUSH0 DUP3 ADD MSTORE PUSH32 0x2063616E63656C6C656400000000000000000000000000000000000000000000 PUSH1 0x20 DUP3 ADD MSTORE POP JUMP JUMPDEST PUSH0 PUSH2 0xC74 PUSH1 0x2A DUP4 PUSH2 0xB0D JUMP JUMPDEST SWAP2 POP PUSH2 0xC7F DUP3 PUSH2 0xC1A JUMP JUMPDEST PUSH1 0x40 DUP3 ADD SWAP1 POP SWAP2 SWAP1 POP JUMP JUMPDEST PUSH0 PUSH1 0x20 DUP3 ADD SWAP1 POP DUP2 DUP2 SUB PUSH0 DUP4 ADD MSTORE PUSH2 0xCA1 DUP2 PUSH2 0xC68 JUMP JUMPDEST SWAP1 POP SWAP2 SWAP1 POP JUMP JUMPDEST POP JUMP JUMPDEST PUSH0 PUSH2 0xCB6 PUSH0 DUP4 PUSH2 0xB0D JUMP JUMPDEST SWAP2 POP PUSH2 0xCC1 DUP3 PUSH2 0xCA8 JUMP JUMPDEST PUSH0 DUP3 ADD SWAP1 POP SWAP2 SWAP1 POP JUMP JUMPDEST PUSH0 PUSH1 0x80 DUP3 ADD SWAP1 POP PUSH2 0xCDE PUSH0 DUP4 ADD DUP7 PUSH2 0x8A1 JUMP JUMPDEST DUP2 DUP2 SUB PUSH1 0x20 DUP4 ADD MSTORE PUSH2 0xCEF DUP2 PUSH2 0xCAB JUMP JUMPDEST SWAP1 POP PUSH2 0xCFE PUSH1 0x40 DUP4 ADD DUP6 PUSH2 0x8A1 JUMP JUMPDEST PUSH2 0xD0B PUSH1 0x60 DUP4 ADD DUP5 PUSH2 0x8B0 JUMP JUMPDEST SWAP5 SWAP4 POP POP POP POP JUMP INVALID LOG2 PUSH5 0x6970667358 0x22 SLT KECCAK256 0xCC 0xFC 0xAF SGT PUSH8 0xA8C6C126FC2D256F 0x24 0xBF CALLVALUE SWAP14 0x26 LOG4 0xE8 CALLCODE PUSH14 0xC09DA3A4EAE353637D7B64736F6C PUSH4 0x43000816 STOP CALLER "
				},
				"gasEstimates": {
					"creation": {
						"codeDepositCost": "680200",
						"executionCost": "infinite",
						"totalCost": "infinite"
					},
					"external": {
						"bookAccommodation(uint256)": "infinite",
						"bookings(address,uint256)": "infinite",
						"cancelAccommodation(uint256)": "infinite",
						"getBookingDetails(address)": "infinite",
						"providerAddress()": "2530"
					}
				},
				"methodIdentifiers": {
					"bookAccommodation(uint256)": "44aba633",
					"bookings(address,uint256)": "9c794e2a",
					"cancelAccommodation(uint256)": "fe61f1d0",
					"getBookingDetails(address)": "4d8b8862",
					"providerAddress()": "706e5257"
				}
			},
			"storageLayout": {
				"storage": [
					{
						"astId": 265,
						"contract": "Contracts/MainProjectFile.sol:AccommodationSeeker",
						"label": "bookings",
						"offset": 0,
						"slot": "0",
						"type": "t_mapping(t_address,t_array(t_struct(Booking)259_storage)dyn_storage)"
					},
					{
						"astId": 267,
						"contract": "Contracts/MainProjectFile.sol:AccommodationSeeker",
						"label": "providerAddress",
						"offset": 0,
						"slot": "1",
						"type": "t_address"
					}
				],
				"types": {
					"t_address": {
						"encoding": "inplace",
						"label": "address",
						"numberOfBytes": "20"
					},
					"t_array(t_struct(Booking)259_storage)dyn_storage": {
						"base": "t_struct(Booking)259_storage",
						"encoding": "dynamic_array",
						"label": "struct AccommodationSeeker.Booking[]",
						"numberOfBytes": "32"
					},
					"t_bool": {
						"encoding": "inplace",
						"label": "bool",
						"numberOfBytes": "1"
					},
					"t_mapping(t_address,t_array(t_struct(Booking)259_storage)dyn_storage)": {
						"encoding": "mapping",
						"key": "t_address",
						"label": "mapping(address => struct AccommodationSeeker.Booking[])",
						"numberOfBytes": "32",
						"value": "t_array(t_struct(Booking)259_storage)dyn_storage"
					},
					"t_struct(Booking)259_storage": {
						"encoding": "inplace",
						"label": "struct AccommodationSeeker.Booking",
						"members": [
							{
								"astId": 254,
								"contract": "Contracts/MainProjectFile.sol:AccommodationSeeker",
								"label": "accommodationId",
								"offset": 0,
								"slot": "0",
								"type": "t_uint256"
							},
							{
								"astId": 256,
								"contract": "Contracts/MainProjectFile.sol:AccommodationSeeker",
								"label": "price",
								"offset": 0,
								"slot": "1",
								"type": "t_uint256"
							},
							{
								"astId": 258,
								"contract": "Contracts/MainProjectFile.sol:AccommodationSeeker",
								"label": "confirmed",
								"offset": 0,
								"slot": "2",
								"type": "t_bool"
							}
						],
						"numberOfBytes": "96"
					},
					"t_uint256": {
						"encoding": "inplace",
						"label": "uint256",
						"numberOfBytes": "32"
					}
				}
			},
			"userdoc": {
				"kind": "user",
				"methods": {},
				"version": 1
			}
		}
	}
}