{
	"Contracts/MainProjectFile.sol": {
		"AccommodationProvider": {
			"abi": [
				{
					"inputs": [],
					"name": "accomCount",
					"outputs": [
						{
							"internalType": "uint256",
							"name": "",
							"type": "uint256"
						}
					],
					"stateMutability": "view",
					"type": "function"
				},
				{
					"inputs": [
						{
							"internalType": "uint256",
							"name": "",
							"type": "uint256"
						}
					],
					"name": "accommodations",
					"outputs": [
						{
							"internalType": "string",
							"name": "location",
							"type": "string"
						},
						{
							"internalType": "uint256",
							"name": "price",
							"type": "uint256"
						},
						{
							"internalType": "bool",
							"name": "available",
							"type": "bool"
						}
					],
					"stateMutability": "view",
					"type": "function"
				},
				{
					"inputs": [
						{
							"internalType": "string",
							"name": "_location",
							"type": "string"
						},
						{
							"internalType": "uint256",
							"name": "_price",
							"type": "uint256"
						}
					],
					"name": "createAccommodation",
					"outputs": [],
					"stateMutability": "nonpayable",
					"type": "function"
				},
				{
					"inputs": [
						{
							"internalType": "uint256",
							"name": "_id",
							"type": "uint256"
						}
					],
					"name": "getAccommodationDetails",
					"outputs": [
						{
							"internalType": "string",
							"name": "",
							"type": "string"
						},
						{
							"internalType": "uint256",
							"name": "",
							"type": "uint256"
						},
						{
							"internalType": "bool",
							"name": "",
							"type": "bool"
						}
					],
					"stateMutability": "view",
					"type": "function"
				},
				{
					"inputs": [
						{
							"internalType": "uint256",
							"name": "_id",
							"type": "uint256"
						}
					],
					"name": "removeListing",
					"outputs": [],
					"stateMutability": "nonpayable",
					"type": "function"
				},
				{
					"inputs": [
						{
							"internalType": "uint256",
							"name": "_id",
							"type": "uint256"
						},
						{
							"internalType": "string",
							"name": "_location",
							"type": "string"
						},
						{
							"internalType": "uint256",
							"name": "_price",
							"type": "uint256"
						},
						{
							"internalType": "bool",
							"name": "_available",
							"type": "bool"
						}
					],
					"name": "updateAccommodationDetails",
					"outputs": [],
					"stateMutability": "nonpayable",
					"type": "function"
				}
			],
			"devdoc": {
				"kind": "dev",
				"methods": {},
				"version": 1
			},
			"evm": {
				"assembly": "    /* \"Contracts/MainProjectFile.sol\":50:1594  contract AccommodationProvider {... */\n  mstore(0x40, 0x80)\n  callvalue\n  dup1\n  iszero\n  tag_1\n  jumpi\n  0x00\n  dup1\n  revert\ntag_1:\n  pop\n  dataSize(sub_0)\n  dup1\n  dataOffset(sub_0)\n  0x00\n  codecopy\n  0x00\n  return\nstop\n\nsub_0: assembly {\n        /* \"Contracts/MainProjectFile.sol\":50:1594  contract AccommodationProvider {... */\n      mstore(0x40, 0x80)\n      callvalue\n      dup1\n      iszero\n      tag_1\n      jumpi\n      0x00\n      dup1\n      revert\n    tag_1:\n      pop\n      jumpi(tag_2, lt(calldatasize, 0x04))\n      shr(0xe0, calldataload(0x00))\n      dup1\n      0x1a92c875\n      eq\n      tag_3\n      jumpi\n      dup1\n      0x479ad4c3\n      eq\n      tag_4\n      jumpi\n      dup1\n      0x82b01cdf\n      eq\n      tag_5\n      jumpi\n      dup1\n      0xabad2243\n      eq\n      tag_6\n      jumpi\n      dup1\n      0xd40a7315\n      eq\n      tag_7\n      jumpi\n      dup1\n      0xd599db29\n      eq\n      tag_8\n      jumpi\n    tag_2:\n      0x00\n      dup1\n      revert\n        /* \"Contracts/MainProjectFile.sol\":262:287  uint256 public accomCount */\n    tag_3:\n      tag_9\n      tag_10\n      jump\t// in\n    tag_9:\n      mload(0x40)\n      tag_11\n      swap2\n      swap1\n      tag_12\n      jump\t// in\n    tag_11:\n      mload(0x40)\n      dup1\n      swap2\n      sub\n      swap1\n      return\n        /* \"Contracts/MainProjectFile.sol\":841:1251  function removeListing(uint256 _id) public {... */\n    tag_4:\n      tag_13\n      0x04\n      dup1\n      calldatasize\n      sub\n      dup2\n      add\n      swap1\n      tag_14\n      swap2\n      swap1\n      tag_15\n      jump\t// in\n    tag_14:\n      tag_16\n      jump\t// in\n    tag_13:\n      stop\n        /* \"Contracts/MainProjectFile.sol\":296:482  function createAccommodation(string memory _location, uint256 _price) public {... */\n    tag_5:\n      tag_17\n      0x04\n      dup1\n      calldatasize\n      sub\n      dup2\n      add\n      swap1\n      tag_18\n      swap2\n      swap1\n      tag_19\n      jump\t// in\n    tag_18:\n      tag_20\n      jump\t// in\n    tag_17:\n      stop\n        /* \"Contracts/MainProjectFile.sol\":1259:1591  function getAccommodationDetails(uint256 _id) public view returns (string memory, uint256, bool) {... */\n    tag_6:\n      tag_21\n      0x04\n      dup1\n      calldatasize\n      sub\n      dup2\n      add\n      swap1\n      tag_22\n      swap2\n      swap1\n      tag_15\n      jump\t// in\n    tag_22:\n      tag_23\n      jump\t// in\n    tag_21:\n      mload(0x40)\n      tag_24\n      swap4\n      swap3\n      swap2\n      swap1\n      tag_25\n      jump\t// in\n    tag_24:\n      mload(0x40)\n      dup1\n      swap2\n      sub\n      swap1\n      return\n        /* \"Contracts/MainProjectFile.sol\":490:833  function updateAccommodationDetails(uint256 _id, string memory _location, uint256 _price, bool _available) public {... */\n    tag_7:\n      tag_26\n      0x04\n      dup1\n      calldatasize\n      sub\n      dup2\n      add\n      swap1\n      tag_27\n      swap2\n      swap1\n      tag_28\n      jump\t// in\n    tag_27:\n      tag_29\n      jump\t// in\n    tag_26:\n      stop\n        /* \"Contracts/MainProjectFile.sol\":200:255  mapping(uint256 => Accommodation) public accommodations */\n    tag_8:\n      tag_30\n      0x04\n      dup1\n      calldatasize\n      sub\n      dup2\n      add\n      swap1\n      tag_31\n      swap2\n      swap1\n      tag_15\n      jump\t// in\n    tag_31:\n      tag_32\n      jump\t// in\n    tag_30:\n      mload(0x40)\n      tag_33\n      swap4\n      swap3\n      swap2\n      swap1\n      tag_25\n      jump\t// in\n    tag_33:\n      mload(0x40)\n      dup1\n      swap2\n      sub\n      swap1\n      return\n        /* \"Contracts/MainProjectFile.sol\":262:287  uint256 public accomCount */\n    tag_10:\n      sload(0x01)\n      dup2\n      jump\t// out\n        /* \"Contracts/MainProjectFile.sol\":841:1251  function removeListing(uint256 _id) public {... */\n    tag_16:\n        /* \"Contracts/MainProjectFile.sol\":909:919  accomCount */\n      sload(0x01)\n        /* \"Contracts/MainProjectFile.sol\":903:906  _id */\n      dup2\n        /* \"Contracts/MainProjectFile.sol\":903:919  _id < accomCount */\n      lt\n        /* \"Contracts/MainProjectFile.sol\":895:949  require(_id < accomCount, \"Non valid accomodation ID\") */\n      tag_35\n      jumpi\n      mload(0x40)\n      0x08c379a000000000000000000000000000000000000000000000000000000000\n      dup2\n      mstore\n      0x04\n      add\n      tag_36\n      swap1\n      tag_37\n      jump\t// in\n    tag_36:\n      mload(0x40)\n      dup1\n      swap2\n      sub\n      swap1\n      revert\n    tag_35:\n        /* \"Contracts/MainProjectFile.sol\":983:984  1 */\n      0x01\n        /* \"Contracts/MainProjectFile.sol\":970:980  accomCount */\n      dup1\n      sload\n        /* \"Contracts/MainProjectFile.sol\":970:984  accomCount - 1 */\n      tag_38\n      swap2\n      swap1\n      tag_39\n      jump\t// in\n    tag_38:\n        /* \"Contracts/MainProjectFile.sol\":964:967  _id */\n      dup2\n        /* \"Contracts/MainProjectFile.sol\":964:984  _id < accomCount - 1 */\n      lt\n        /* \"Contracts/MainProjectFile.sol\":960:1113  if (_id < accomCount - 1) {... */\n      iszero\n      tag_40\n      jumpi\n        /* \"Contracts/MainProjectFile.sol\":1023:1037  accommodations */\n      0x00\n        /* \"Contracts/MainProjectFile.sol\":1023:1053  accommodations[accomCount - 1] */\n      dup1\n        /* \"Contracts/MainProjectFile.sol\":1051:1052  1 */\n      0x01\n        /* \"Contracts/MainProjectFile.sol\":1038:1048  accomCount */\n      dup1\n      sload\n        /* \"Contracts/MainProjectFile.sol\":1038:1052  accomCount - 1 */\n      tag_41\n      swap2\n      swap1\n      tag_39\n      jump\t// in\n    tag_41:\n        /* \"Contracts/MainProjectFile.sol\":1023:1053  accommodations[accomCount - 1] */\n      dup2\n      mstore\n      0x20\n      add\n      swap1\n      dup2\n      mstore\n      0x20\n      add\n      0x00\n      keccak256\n        /* \"Contracts/MainProjectFile.sol\":1001:1015  accommodations */\n      0x00\n        /* \"Contracts/MainProjectFile.sol\":1001:1020  accommodations[_id] */\n      dup1\n        /* \"Contracts/MainProjectFile.sol\":1016:1019  _id */\n      dup4\n        /* \"Contracts/MainProjectFile.sol\":1001:1020  accommodations[_id] */\n      dup2\n      mstore\n      0x20\n      add\n      swap1\n      dup2\n      mstore\n      0x20\n      add\n      0x00\n      keccak256\n        /* \"Contracts/MainProjectFile.sol\":1001:1053  accommodations[_id] = accommodations[accomCount - 1] */\n      0x00\n      dup3\n      add\n      dup2\n      0x00\n      add\n      swap1\n      dup2\n      tag_42\n      swap2\n      swap1\n      tag_43\n      jump\t// in\n    tag_42:\n      pop\n      0x01\n      dup3\n      add\n      sload\n      dup2\n      0x01\n      add\n      sstore\n      0x02\n      dup3\n      add\n      0x00\n      swap1\n      sload\n      swap1\n      0x0100\n      exp\n      swap1\n      div\n      0xff\n      and\n      dup2\n      0x02\n      add\n      exp(0x0100, 0x00)\n      dup2\n      sload\n      dup2\n      0xff\n      mul\n      not\n      and\n      swap1\n      dup4\n      iszero\n      iszero\n      mul\n      or\n      swap1\n      sstore\n      pop\n      swap1\n      pop\n      pop\n        /* \"Contracts/MainProjectFile.sol\":960:1113  if (_id < accomCount - 1) {... */\n    tag_40:\n        /* \"Contracts/MainProjectFile.sol\":1130:1144  accommodations */\n      0x00\n        /* \"Contracts/MainProjectFile.sol\":1130:1160  accommodations[accomCount - 1] */\n      dup1\n        /* \"Contracts/MainProjectFile.sol\":1158:1159  1 */\n      0x01\n        /* \"Contracts/MainProjectFile.sol\":1145:1155  accomCount */\n      dup1\n      sload\n        /* \"Contracts/MainProjectFile.sol\":1145:1159  accomCount - 1 */\n      tag_44\n      swap2\n      swap1\n      tag_39\n      jump\t// in\n    tag_44:\n        /* \"Contracts/MainProjectFile.sol\":1130:1160  accommodations[accomCount - 1] */\n      dup2\n      mstore\n      0x20\n      add\n      swap1\n      dup2\n      mstore\n      0x20\n      add\n      0x00\n      keccak256\n      0x00\n        /* \"Contracts/MainProjectFile.sol\":1123:1160  delete accommodations[accomCount - 1] */\n      dup1\n      dup3\n      add\n      0x00\n      tag_45\n      swap2\n      swap1\n      tag_46\n      jump\t// in\n    tag_45:\n      0x01\n      dup3\n      add\n      0x00\n      swap1\n      sstore\n      0x02\n      dup3\n      add\n      exp(0x0100, 0x00)\n      dup2\n      sload\n      swap1\n      0xff\n      mul\n      not\n      and\n      swap1\n      sstore\n      pop\n      pop\n        /* \"Contracts/MainProjectFile.sol\":1205:1215  accomCount */\n      0x01\n      0x00\n        /* \"Contracts/MainProjectFile.sol\":1205:1217  accomCount-- */\n      dup2\n      sload\n      dup1\n      swap3\n      swap2\n      swap1\n      tag_47\n      swap1\n      tag_48\n      jump\t// in\n    tag_47:\n      swap2\n      swap1\n      pop\n      sstore\n      pop\n        /* \"Contracts/MainProjectFile.sol\":841:1251  function removeListing(uint256 _id) public {... */\n      pop\n      jump\t// out\n        /* \"Contracts/MainProjectFile.sol\":296:482  function createAccommodation(string memory _location, uint256 _price) public {... */\n    tag_20:\n        /* \"Contracts/MainProjectFile.sol\":413:451  Accommodation(_location, _price, true) */\n      mload(0x40)\n      dup1\n      0x60\n      add\n      0x40\n      mstore\n      dup1\n        /* \"Contracts/MainProjectFile.sol\":427:436  _location */\n      dup4\n        /* \"Contracts/MainProjectFile.sol\":413:451  Accommodation(_location, _price, true) */\n      dup2\n      mstore\n      0x20\n      add\n        /* \"Contracts/MainProjectFile.sol\":438:444  _price */\n      dup3\n        /* \"Contracts/MainProjectFile.sol\":413:451  Accommodation(_location, _price, true) */\n      dup2\n      mstore\n      0x20\n      add\n        /* \"Contracts/MainProjectFile.sol\":446:450  true */\n      0x01\n        /* \"Contracts/MainProjectFile.sol\":413:451  Accommodation(_location, _price, true) */\n      iszero\n      iszero\n      dup2\n      mstore\n      pop\n        /* \"Contracts/MainProjectFile.sol\":384:398  accommodations */\n      0x00\n        /* \"Contracts/MainProjectFile.sol\":384:410  accommodations[accomCount] */\n      dup1\n        /* \"Contracts/MainProjectFile.sol\":399:409  accomCount */\n      sload(0x01)\n        /* \"Contracts/MainProjectFile.sol\":384:410  accommodations[accomCount] */\n      dup2\n      mstore\n      0x20\n      add\n      swap1\n      dup2\n      mstore\n      0x20\n      add\n      0x00\n      keccak256\n        /* \"Contracts/MainProjectFile.sol\":384:451  accommodations[accomCount] = Accommodation(_location, _price, true) */\n      0x00\n      dup3\n      add\n      mload\n      dup2\n      0x00\n      add\n      swap1\n      dup2\n      tag_50\n      swap2\n      swap1\n      tag_51\n      jump\t// in\n    tag_50:\n      pop\n      0x20\n      dup3\n      add\n      mload\n      dup2\n      0x01\n      add\n      sstore\n      0x40\n      dup3\n      add\n      mload\n      dup2\n      0x02\n      add\n      exp(0x0100, 0x00)\n      dup2\n      sload\n      dup2\n      0xff\n      mul\n      not\n      and\n      swap1\n      dup4\n      iszero\n      iszero\n      mul\n      or\n      swap1\n      sstore\n      pop\n      swap1\n      pop\n      pop\n        /* \"Contracts/MainProjectFile.sol\":462:472  accomCount */\n      0x01\n      0x00\n        /* \"Contracts/MainProjectFile.sol\":462:474  accomCount++ */\n      dup2\n      sload\n      dup1\n      swap3\n      swap2\n      swap1\n      tag_52\n      swap1\n      tag_53\n      jump\t// in\n    tag_52:\n      swap2\n      swap1\n      pop\n      sstore\n      pop\n        /* \"Contracts/MainProjectFile.sol\":296:482  function createAccommodation(string memory _location, uint256 _price) public {... */\n      pop\n      pop\n      jump\t// out\n        /* \"Contracts/MainProjectFile.sol\":1259:1591  function getAccommodationDetails(uint256 _id) public view returns (string memory, uint256, bool) {... */\n    tag_23:\n        /* \"Contracts/MainProjectFile.sol\":1326:1339  string memory */\n      0x60\n        /* \"Contracts/MainProjectFile.sol\":1341:1348  uint256 */\n      0x00\n        /* \"Contracts/MainProjectFile.sol\":1350:1354  bool */\n      dup1\n        /* \"Contracts/MainProjectFile.sol\":1381:1391  accomCount */\n      sload(0x01)\n        /* \"Contracts/MainProjectFile.sol\":1375:1378  _id */\n      dup5\n        /* \"Contracts/MainProjectFile.sol\":1375:1391  _id < accomCount */\n      lt\n        /* \"Contracts/MainProjectFile.sol\":1367:1428  require(_id < accomCount, \"Accommodation ID does not exist.\") */\n      tag_55\n      jumpi\n      mload(0x40)\n      0x08c379a000000000000000000000000000000000000000000000000000000000\n      dup2\n      mstore\n      0x04\n      add\n      tag_56\n      swap1\n      tag_57\n      jump\t// in\n    tag_56:\n      mload(0x40)\n      dup1\n      swap2\n      sub\n      swap1\n      revert\n    tag_55:\n        /* \"Contracts/MainProjectFile.sol\":1439:1473  Accommodation memory accommodation */\n      0x00\n        /* \"Contracts/MainProjectFile.sol\":1476:1490  accommodations */\n      dup1\n        /* \"Contracts/MainProjectFile.sol\":1476:1495  accommodations[_id] */\n      0x00\n        /* \"Contracts/MainProjectFile.sol\":1491:1494  _id */\n      dup7\n        /* \"Contracts/MainProjectFile.sol\":1476:1495  accommodations[_id] */\n      dup2\n      mstore\n      0x20\n      add\n      swap1\n      dup2\n      mstore\n      0x20\n      add\n      0x00\n      keccak256\n        /* \"Contracts/MainProjectFile.sol\":1439:1495  Accommodation memory accommodation = accommodations[_id] */\n      mload(0x40)\n      dup1\n      0x60\n      add\n      0x40\n      mstore\n      swap1\n      dup2\n      0x00\n      dup3\n      add\n      dup1\n      sload\n      tag_58\n      swap1\n      tag_59\n      jump\t// in\n    tag_58:\n      dup1\n      0x1f\n      add\n      0x20\n      dup1\n      swap2\n      div\n      mul\n      0x20\n      add\n      mload(0x40)\n      swap1\n      dup2\n      add\n      0x40\n      mstore\n      dup1\n      swap3\n      swap2\n      swap1\n      dup2\n      dup2\n      mstore\n      0x20\n      add\n      dup3\n      dup1\n      sload\n      tag_60\n      swap1\n      tag_59\n      jump\t// in\n    tag_60:\n      dup1\n      iszero\n      tag_61\n      jumpi\n      dup1\n      0x1f\n      lt\n      tag_62\n      jumpi\n      0x0100\n      dup1\n      dup4\n      sload\n      div\n      mul\n      dup4\n      mstore\n      swap2\n      0x20\n      add\n      swap2\n      jump(tag_61)\n    tag_62:\n      dup3\n      add\n      swap2\n      swap1\n      0x00\n      mstore\n      keccak256(0x00, 0x20)\n      swap1\n    tag_63:\n      dup2\n      sload\n      dup2\n      mstore\n      swap1\n      0x01\n      add\n      swap1\n      0x20\n      add\n      dup1\n      dup4\n      gt\n      tag_63\n      jumpi\n      dup3\n      swap1\n      sub\n      0x1f\n      and\n      dup3\n      add\n      swap2\n    tag_61:\n      pop\n      pop\n      pop\n      pop\n      pop\n      dup2\n      mstore\n      0x20\n      add\n      0x01\n      dup3\n      add\n      sload\n      dup2\n      mstore\n      0x20\n      add\n      0x02\n      dup3\n      add\n      0x00\n      swap1\n      sload\n      swap1\n      0x0100\n      exp\n      swap1\n      div\n      0xff\n      and\n      iszero\n      iszero\n      iszero\n      iszero\n      dup2\n      mstore\n      pop\n      pop\n      swap1\n      pop\n        /* \"Contracts/MainProjectFile.sol\":1514:1527  accommodation */\n      dup1\n        /* \"Contracts/MainProjectFile.sol\":1514:1536  accommodation.location */\n      0x00\n      add\n      mload\n        /* \"Contracts/MainProjectFile.sol\":1538:1551  accommodation */\n      dup2\n        /* \"Contracts/MainProjectFile.sol\":1538:1557  accommodation.price */\n      0x20\n      add\n      mload\n        /* \"Contracts/MainProjectFile.sol\":1559:1572  accommodation */\n      dup3\n        /* \"Contracts/MainProjectFile.sol\":1559:1582  accommodation.available */\n      0x40\n      add\n      mload\n        /* \"Contracts/MainProjectFile.sol\":1506:1583  return (accommodation.location, accommodation.price, accommodation.available) */\n      swap4\n      pop\n      swap4\n      pop\n      swap4\n      pop\n      pop\n        /* \"Contracts/MainProjectFile.sol\":1259:1591  function getAccommodationDetails(uint256 _id) public view returns (string memory, uint256, bool) {... */\n      swap2\n      swap4\n      swap1\n      swap3\n      pop\n      jump\t// out\n        /* \"Contracts/MainProjectFile.sol\":490:833  function updateAccommodationDetails(uint256 _id, string memory _location, uint256 _price, bool _available) public {... */\n    tag_29:\n        /* \"Contracts/MainProjectFile.sol\":629:639  accomCount */\n      sload(0x01)\n        /* \"Contracts/MainProjectFile.sol\":623:626  _id */\n      dup5\n        /* \"Contracts/MainProjectFile.sol\":623:639  _id < accomCount */\n      lt\n        /* \"Contracts/MainProjectFile.sol\":615:676  require(_id < accomCount, \"Accommodation ID does not exist.\") */\n      tag_65\n      jumpi\n      mload(0x40)\n      0x08c379a000000000000000000000000000000000000000000000000000000000\n      dup2\n      mstore\n      0x04\n      add\n      tag_66\n      swap1\n      tag_57\n      jump\t// in\n    tag_66:\n      mload(0x40)\n      dup1\n      swap2\n      sub\n      swap1\n      revert\n    tag_65:\n        /* \"Contracts/MainProjectFile.sol\":718:727  _location */\n      dup3\n        /* \"Contracts/MainProjectFile.sol\":687:701  accommodations */\n      0x00\n        /* \"Contracts/MainProjectFile.sol\":687:706  accommodations[_id] */\n      dup1\n        /* \"Contracts/MainProjectFile.sol\":702:705  _id */\n      dup7\n        /* \"Contracts/MainProjectFile.sol\":687:706  accommodations[_id] */\n      dup2\n      mstore\n      0x20\n      add\n      swap1\n      dup2\n      mstore\n      0x20\n      add\n      0x00\n      keccak256\n        /* \"Contracts/MainProjectFile.sol\":687:715  accommodations[_id].location */\n      0x00\n      add\n        /* \"Contracts/MainProjectFile.sol\":687:727  accommodations[_id].location = _location */\n      swap1\n      dup2\n      tag_67\n      swap2\n      swap1\n      tag_51\n      jump\t// in\n    tag_67:\n      pop\n        /* \"Contracts/MainProjectFile.sol\":766:772  _price */\n      dup2\n        /* \"Contracts/MainProjectFile.sol\":738:752  accommodations */\n      0x00\n        /* \"Contracts/MainProjectFile.sol\":738:757  accommodations[_id] */\n      dup1\n        /* \"Contracts/MainProjectFile.sol\":753:756  _id */\n      dup7\n        /* \"Contracts/MainProjectFile.sol\":738:757  accommodations[_id] */\n      dup2\n      mstore\n      0x20\n      add\n      swap1\n      dup2\n      mstore\n      0x20\n      add\n      0x00\n      keccak256\n        /* \"Contracts/MainProjectFile.sol\":738:763  accommodations[_id].price */\n      0x01\n      add\n        /* \"Contracts/MainProjectFile.sol\":738:772  accommodations[_id].price = _price */\n      dup2\n      swap1\n      sstore\n      pop\n        /* \"Contracts/MainProjectFile.sol\":815:825  _available */\n      dup1\n        /* \"Contracts/MainProjectFile.sol\":783:797  accommodations */\n      0x00\n        /* \"Contracts/MainProjectFile.sol\":783:802  accommodations[_id] */\n      dup1\n        /* \"Contracts/MainProjectFile.sol\":798:801  _id */\n      dup7\n        /* \"Contracts/MainProjectFile.sol\":783:802  accommodations[_id] */\n      dup2\n      mstore\n      0x20\n      add\n      swap1\n      dup2\n      mstore\n      0x20\n      add\n      0x00\n      keccak256\n        /* \"Contracts/MainProjectFile.sol\":783:812  accommodations[_id].available */\n      0x02\n      add\n      0x00\n        /* \"Contracts/MainProjectFile.sol\":783:825  accommodations[_id].available = _available */\n      0x0100\n      exp\n      dup2\n      sload\n      dup2\n      0xff\n      mul\n      not\n      and\n      swap1\n      dup4\n      iszero\n      iszero\n      mul\n      or\n      swap1\n      sstore\n      pop\n        /* \"Contracts/MainProjectFile.sol\":490:833  function updateAccommodationDetails(uint256 _id, string memory _location, uint256 _price, bool _available) public {... */\n      pop\n      pop\n      pop\n      pop\n      jump\t// out\n        /* \"Contracts/MainProjectFile.sol\":200:255  mapping(uint256 => Accommodation) public accommodations */\n    tag_32:\n      mstore(0x20, 0x00)\n      dup1\n      0x00\n      mstore\n      keccak256(0x00, 0x40)\n      0x00\n      swap2\n      pop\n      swap1\n      pop\n      dup1\n      0x00\n      add\n      dup1\n      sload\n      tag_68\n      swap1\n      tag_59\n      jump\t// in\n    tag_68:\n      dup1\n      0x1f\n      add\n      0x20\n      dup1\n      swap2\n      div\n      mul\n      0x20\n      add\n      mload(0x40)\n      swap1\n      dup2\n      add\n      0x40\n      mstore\n      dup1\n      swap3\n      swap2\n      swap1\n      dup2\n      dup2\n      mstore\n      0x20\n      add\n      dup3\n      dup1\n      sload\n      tag_69\n      swap1\n      tag_59\n      jump\t// in\n    tag_69:\n      dup1\n      iszero\n      tag_70\n      jumpi\n      dup1\n      0x1f\n      lt\n      tag_71\n      jumpi\n      0x0100\n      dup1\n      dup4\n      sload\n      div\n      mul\n      dup4\n      mstore\n      swap2\n      0x20\n      add\n      swap2\n      jump(tag_70)\n    tag_71:\n      dup3\n      add\n      swap2\n      swap1\n      0x00\n      mstore\n      keccak256(0x00, 0x20)\n      swap1\n    tag_72:\n      dup2\n      sload\n      dup2\n      mstore\n      swap1\n      0x01\n      add\n      swap1\n      0x20\n      add\n      dup1\n      dup4\n      gt\n      tag_72\n      jumpi\n      dup3\n      swap1\n      sub\n      0x1f\n      and\n      dup3\n      add\n      swap2\n    tag_70:\n      pop\n      pop\n      pop\n      pop\n      pop\n      swap1\n      dup1\n      0x01\n      add\n      sload\n      swap1\n      dup1\n      0x02\n      add\n      0x00\n      swap1\n      sload\n      swap1\n      0x0100\n      exp\n      swap1\n      div\n      0xff\n      and\n      swap1\n      pop\n      dup4\n      jump\t// out\n    tag_46:\n      pop\n      dup1\n      sload\n      tag_73\n      swap1\n      tag_59\n      jump\t// in\n    tag_73:\n      0x00\n      dup3\n      sstore\n      dup1\n      0x1f\n      lt\n      tag_75\n      jumpi\n      pop\n      jump(tag_74)\n    tag_75:\n      0x1f\n      add\n      0x20\n      swap1\n      div\n      swap1\n      0x00\n      mstore\n      keccak256(0x00, 0x20)\n      swap1\n      dup2\n      add\n      swap1\n      tag_76\n      swap2\n      swap1\n      tag_77\n      jump\t// in\n    tag_76:\n    tag_74:\n      pop\n      jump\t// out\n    tag_77:\n    tag_78:\n      dup1\n      dup3\n      gt\n      iszero\n      tag_79\n      jumpi\n      0x00\n      dup2\n      0x00\n      swap1\n      sstore\n      pop\n      0x01\n      add\n      jump(tag_78)\n    tag_79:\n      pop\n      swap1\n      jump\t// out\n        /* \"#utility.yul\":7:84   */\n    tag_80:\n        /* \"#utility.yul\":44:51   */\n      0x00\n        /* \"#utility.yul\":73:78   */\n      dup2\n        /* \"#utility.yul\":62:78   */\n      swap1\n      pop\n        /* \"#utility.yul\":7:84   */\n      swap2\n      swap1\n      pop\n      jump\t// out\n        /* \"#utility.yul\":90:208   */\n    tag_81:\n        /* \"#utility.yul\":177:201   */\n      tag_130\n        /* \"#utility.yul\":195:200   */\n      dup2\n        /* \"#utility.yul\":177:201   */\n      tag_80\n      jump\t// in\n    tag_130:\n        /* \"#utility.yul\":172:175   */\n      dup3\n        /* \"#utility.yul\":165:202   */\n      mstore\n        /* \"#utility.yul\":90:208   */\n      pop\n      pop\n      jump\t// out\n        /* \"#utility.yul\":214:436   */\n    tag_12:\n        /* \"#utility.yul\":307:311   */\n      0x00\n        /* \"#utility.yul\":345:347   */\n      0x20\n        /* \"#utility.yul\":334:343   */\n      dup3\n        /* \"#utility.yul\":330:348   */\n      add\n        /* \"#utility.yul\":322:348   */\n      swap1\n      pop\n        /* \"#utility.yul\":358:429   */\n      tag_132\n        /* \"#utility.yul\":426:427   */\n      0x00\n        /* \"#utility.yul\":415:424   */\n      dup4\n        /* \"#utility.yul\":411:428   */\n      add\n        /* \"#utility.yul\":402:408   */\n      dup5\n        /* \"#utility.yul\":358:429   */\n      tag_81\n      jump\t// in\n    tag_132:\n        /* \"#utility.yul\":214:436   */\n      swap3\n      swap2\n      pop\n      pop\n      jump\t// out\n        /* \"#utility.yul\":442:517   */\n    tag_82:\n        /* \"#utility.yul\":475:481   */\n      0x00\n        /* \"#utility.yul\":508:510   */\n      0x40\n        /* \"#utility.yul\":502:511   */\n      mload\n        /* \"#utility.yul\":492:511   */\n      swap1\n      pop\n        /* \"#utility.yul\":442:517   */\n      swap1\n      jump\t// out\n        /* \"#utility.yul\":523:640   */\n    tag_83:\n        /* \"#utility.yul\":632:633   */\n      0x00\n        /* \"#utility.yul\":629:630   */\n      dup1\n        /* \"#utility.yul\":622:634   */\n      revert\n        /* \"#utility.yul\":646:763   */\n    tag_84:\n        /* \"#utility.yul\":755:756   */\n      0x00\n        /* \"#utility.yul\":752:753   */\n      dup1\n        /* \"#utility.yul\":745:757   */\n      revert\n        /* \"#utility.yul\":769:891   */\n    tag_85:\n        /* \"#utility.yul\":842:866   */\n      tag_137\n        /* \"#utility.yul\":860:865   */\n      dup2\n        /* \"#utility.yul\":842:866   */\n      tag_80\n      jump\t// in\n    tag_137:\n        /* \"#utility.yul\":835:840   */\n      dup2\n        /* \"#utility.yul\":832:867   */\n      eq\n        /* \"#utility.yul\":822:885   */\n      tag_138\n      jumpi\n        /* \"#utility.yul\":881:882   */\n      0x00\n        /* \"#utility.yul\":878:879   */\n      dup1\n        /* \"#utility.yul\":871:883   */\n      revert\n        /* \"#utility.yul\":822:885   */\n    tag_138:\n        /* \"#utility.yul\":769:891   */\n      pop\n      jump\t// out\n        /* \"#utility.yul\":897:1036   */\n    tag_86:\n        /* \"#utility.yul\":943:948   */\n      0x00\n        /* \"#utility.yul\":981:987   */\n      dup2\n        /* \"#utility.yul\":968:988   */\n      calldataload\n        /* \"#utility.yul\":959:988   */\n      swap1\n      pop\n        /* \"#utility.yul\":997:1030   */\n      tag_140\n        /* \"#utility.yul\":1024:1029   */\n      dup2\n        /* \"#utility.yul\":997:1030   */\n      tag_85\n      jump\t// in\n    tag_140:\n        /* \"#utility.yul\":897:1036   */\n      swap3\n      swap2\n      pop\n      pop\n      jump\t// out\n        /* \"#utility.yul\":1042:1371   */\n    tag_15:\n        /* \"#utility.yul\":1101:1107   */\n      0x00\n        /* \"#utility.yul\":1150:1152   */\n      0x20\n        /* \"#utility.yul\":1138:1147   */\n      dup3\n        /* \"#utility.yul\":1129:1136   */\n      dup5\n        /* \"#utility.yul\":1125:1148   */\n      sub\n        /* \"#utility.yul\":1121:1153   */\n      slt\n        /* \"#utility.yul\":1118:1237   */\n      iszero\n      tag_142\n      jumpi\n        /* \"#utility.yul\":1156:1235   */\n      tag_143\n      tag_83\n      jump\t// in\n    tag_143:\n        /* \"#utility.yul\":1118:1237   */\n    tag_142:\n        /* \"#utility.yul\":1276:1277   */\n      0x00\n        /* \"#utility.yul\":1301:1354   */\n      tag_144\n        /* \"#utility.yul\":1346:1353   */\n      dup5\n        /* \"#utility.yul\":1337:1343   */\n      dup3\n        /* \"#utility.yul\":1326:1335   */\n      dup6\n        /* \"#utility.yul\":1322:1344   */\n      add\n        /* \"#utility.yul\":1301:1354   */\n      tag_86\n      jump\t// in\n    tag_144:\n        /* \"#utility.yul\":1291:1354   */\n      swap2\n      pop\n        /* \"#utility.yul\":1247:1364   */\n      pop\n        /* \"#utility.yul\":1042:1371   */\n      swap3\n      swap2\n      pop\n      pop\n      jump\t// out\n        /* \"#utility.yul\":1377:1494   */\n    tag_87:\n        /* \"#utility.yul\":1486:1487   */\n      0x00\n        /* \"#utility.yul\":1483:1484   */\n      dup1\n        /* \"#utility.yul\":1476:1488   */\n      revert\n        /* \"#utility.yul\":1500:1617   */\n    tag_88:\n        /* \"#utility.yul\":1609:1610   */\n      0x00\n        /* \"#utility.yul\":1606:1607   */\n      dup1\n        /* \"#utility.yul\":1599:1611   */\n      revert\n        /* \"#utility.yul\":1623:1725   */\n    tag_89:\n        /* \"#utility.yul\":1664:1670   */\n      0x00\n        /* \"#utility.yul\":1715:1717   */\n      0x1f\n        /* \"#utility.yul\":1711:1718   */\n      not\n        /* \"#utility.yul\":1706:1708   */\n      0x1f\n        /* \"#utility.yul\":1699:1704   */\n      dup4\n        /* \"#utility.yul\":1695:1709   */\n      add\n        /* \"#utility.yul\":1691:1719   */\n      and\n        /* \"#utility.yul\":1681:1719   */\n      swap1\n      pop\n        /* \"#utility.yul\":1623:1725   */\n      swap2\n      swap1\n      pop\n      jump\t// out\n        /* \"#utility.yul\":1731:1911   */\n    tag_90:\n        /* \"#utility.yul\":1779:1856   */\n      0x4e487b7100000000000000000000000000000000000000000000000000000000\n        /* \"#utility.yul\":1776:1777   */\n      0x00\n        /* \"#utility.yul\":1769:1857   */\n      mstore\n        /* \"#utility.yul\":1876:1880   */\n      0x41\n        /* \"#utility.yul\":1873:1874   */\n      0x04\n        /* \"#utility.yul\":1866:1881   */\n      mstore\n        /* \"#utility.yul\":1900:1904   */\n      0x24\n        /* \"#utility.yul\":1897:1898   */\n      0x00\n        /* \"#utility.yul\":1890:1905   */\n      revert\n        /* \"#utility.yul\":1917:2198   */\n    tag_91:\n        /* \"#utility.yul\":2000:2027   */\n      tag_150\n        /* \"#utility.yul\":2022:2026   */\n      dup3\n        /* \"#utility.yul\":2000:2027   */\n      tag_89\n      jump\t// in\n    tag_150:\n        /* \"#utility.yul\":1992:1998   */\n      dup2\n        /* \"#utility.yul\":1988:2028   */\n      add\n        /* \"#utility.yul\":2130:2136   */\n      dup2\n        /* \"#utility.yul\":2118:2128   */\n      dup2\n        /* \"#utility.yul\":2115:2137   */\n      lt\n        /* \"#utility.yul\":2094:2112   */\n      0xffffffffffffffff\n        /* \"#utility.yul\":2082:2092   */\n      dup3\n        /* \"#utility.yul\":2079:2113   */\n      gt\n        /* \"#utility.yul\":2076:2138   */\n      or\n        /* \"#utility.yul\":2073:2161   */\n      iszero\n      tag_151\n      jumpi\n        /* \"#utility.yul\":2141:2159   */\n      tag_152\n      tag_90\n      jump\t// in\n    tag_152:\n        /* \"#utility.yul\":2073:2161   */\n    tag_151:\n        /* \"#utility.yul\":2181:2191   */\n      dup1\n        /* \"#utility.yul\":2177:2179   */\n      0x40\n        /* \"#utility.yul\":2170:2192   */\n      mstore\n        /* \"#utility.yul\":1960:2198   */\n      pop\n        /* \"#utility.yul\":1917:2198   */\n      pop\n      pop\n      jump\t// out\n        /* \"#utility.yul\":2204:2333   */\n    tag_92:\n        /* \"#utility.yul\":2238:2244   */\n      0x00\n        /* \"#utility.yul\":2265:2285   */\n      tag_154\n      tag_82\n      jump\t// in\n    tag_154:\n        /* \"#utility.yul\":2255:2285   */\n      swap1\n      pop\n        /* \"#utility.yul\":2294:2327   */\n      tag_155\n        /* \"#utility.yul\":2322:2326   */\n      dup3\n        /* \"#utility.yul\":2314:2320   */\n      dup3\n        /* \"#utility.yul\":2294:2327   */\n      tag_91\n      jump\t// in\n    tag_155:\n        /* \"#utility.yul\":2204:2333   */\n      swap2\n      swap1\n      pop\n      jump\t// out\n        /* \"#utility.yul\":2339:2647   */\n    tag_93:\n        /* \"#utility.yul\":2401:2405   */\n      0x00\n        /* \"#utility.yul\":2491:2509   */\n      0xffffffffffffffff\n        /* \"#utility.yul\":2483:2489   */\n      dup3\n        /* \"#utility.yul\":2480:2510   */\n      gt\n        /* \"#utility.yul\":2477:2533   */\n      iszero\n      tag_157\n      jumpi\n        /* \"#utility.yul\":2513:2531   */\n      tag_158\n      tag_90\n      jump\t// in\n    tag_158:\n        /* \"#utility.yul\":2477:2533   */\n    tag_157:\n        /* \"#utility.yul\":2551:2580   */\n      tag_159\n        /* \"#utility.yul\":2573:2579   */\n      dup3\n        /* \"#utility.yul\":2551:2580   */\n      tag_89\n      jump\t// in\n    tag_159:\n        /* \"#utility.yul\":2543:2580   */\n      swap1\n      pop\n        /* \"#utility.yul\":2635:2639   */\n      0x20\n        /* \"#utility.yul\":2629:2633   */\n      dup2\n        /* \"#utility.yul\":2625:2640   */\n      add\n        /* \"#utility.yul\":2617:2640   */\n      swap1\n      pop\n        /* \"#utility.yul\":2339:2647   */\n      swap2\n      swap1\n      pop\n      jump\t// out\n        /* \"#utility.yul\":2653:2799   */\n    tag_94:\n        /* \"#utility.yul\":2750:2756   */\n      dup3\n        /* \"#utility.yul\":2745:2748   */\n      dup2\n        /* \"#utility.yul\":2740:2743   */\n      dup4\n        /* \"#utility.yul\":2727:2757   */\n      calldatacopy\n        /* \"#utility.yul\":2791:2792   */\n      0x00\n        /* \"#utility.yul\":2782:2788   */\n      dup4\n        /* \"#utility.yul\":2777:2780   */\n      dup4\n        /* \"#utility.yul\":2773:2789   */\n      add\n        /* \"#utility.yul\":2766:2793   */\n      mstore\n        /* \"#utility.yul\":2653:2799   */\n      pop\n      pop\n      pop\n      jump\t// out\n        /* \"#utility.yul\":2805:3230   */\n    tag_95:\n        /* \"#utility.yul\":2883:2888   */\n      0x00\n        /* \"#utility.yul\":2908:2974   */\n      tag_162\n        /* \"#utility.yul\":2924:2973   */\n      tag_163\n        /* \"#utility.yul\":2966:2972   */\n      dup5\n        /* \"#utility.yul\":2924:2973   */\n      tag_93\n      jump\t// in\n    tag_163:\n        /* \"#utility.yul\":2908:2974   */\n      tag_92\n      jump\t// in\n    tag_162:\n        /* \"#utility.yul\":2899:2974   */\n      swap1\n      pop\n        /* \"#utility.yul\":2997:3003   */\n      dup3\n        /* \"#utility.yul\":2990:2995   */\n      dup2\n        /* \"#utility.yul\":2983:3004   */\n      mstore\n        /* \"#utility.yul\":3035:3039   */\n      0x20\n        /* \"#utility.yul\":3028:3033   */\n      dup2\n        /* \"#utility.yul\":3024:3040   */\n      add\n        /* \"#utility.yul\":3073:3076   */\n      dup5\n        /* \"#utility.yul\":3064:3070   */\n      dup5\n        /* \"#utility.yul\":3059:3062   */\n      dup5\n        /* \"#utility.yul\":3055:3071   */\n      add\n        /* \"#utility.yul\":3052:3077   */\n      gt\n        /* \"#utility.yul\":3049:3161   */\n      iszero\n      tag_164\n      jumpi\n        /* \"#utility.yul\":3080:3159   */\n      tag_165\n      tag_88\n      jump\t// in\n    tag_165:\n        /* \"#utility.yul\":3049:3161   */\n    tag_164:\n        /* \"#utility.yul\":3170:3224   */\n      tag_166\n        /* \"#utility.yul\":3217:3223   */\n      dup5\n        /* \"#utility.yul\":3212:3215   */\n      dup3\n        /* \"#utility.yul\":3207:3210   */\n      dup6\n        /* \"#utility.yul\":3170:3224   */\n      tag_94\n      jump\t// in\n    tag_166:\n        /* \"#utility.yul\":2889:3230   */\n      pop\n        /* \"#utility.yul\":2805:3230   */\n      swap4\n      swap3\n      pop\n      pop\n      pop\n      jump\t// out\n        /* \"#utility.yul\":3250:3590   */\n    tag_96:\n        /* \"#utility.yul\":3306:3311   */\n      0x00\n        /* \"#utility.yul\":3355:3358   */\n      dup3\n        /* \"#utility.yul\":3348:3352   */\n      0x1f\n        /* \"#utility.yul\":3340:3346   */\n      dup4\n        /* \"#utility.yul\":3336:3353   */\n      add\n        /* \"#utility.yul\":3332:3359   */\n      slt\n        /* \"#utility.yul\":3322:3444   */\n      tag_168\n      jumpi\n        /* \"#utility.yul\":3363:3442   */\n      tag_169\n      tag_87\n      jump\t// in\n    tag_169:\n        /* \"#utility.yul\":3322:3444   */\n    tag_168:\n        /* \"#utility.yul\":3480:3486   */\n      dup2\n        /* \"#utility.yul\":3467:3487   */\n      calldataload\n        /* \"#utility.yul\":3505:3584   */\n      tag_170\n        /* \"#utility.yul\":3580:3583   */\n      dup5\n        /* \"#utility.yul\":3572:3578   */\n      dup3\n        /* \"#utility.yul\":3565:3569   */\n      0x20\n        /* \"#utility.yul\":3557:3563   */\n      dup7\n        /* \"#utility.yul\":3553:3570   */\n      add\n        /* \"#utility.yul\":3505:3584   */\n      tag_95\n      jump\t// in\n    tag_170:\n        /* \"#utility.yul\":3496:3584   */\n      swap2\n      pop\n        /* \"#utility.yul\":3312:3590   */\n      pop\n        /* \"#utility.yul\":3250:3590   */\n      swap3\n      swap2\n      pop\n      pop\n      jump\t// out\n        /* \"#utility.yul\":3596:4250   */\n    tag_19:\n        /* \"#utility.yul\":3674:3680   */\n      0x00\n        /* \"#utility.yul\":3682:3688   */\n      dup1\n        /* \"#utility.yul\":3731:3733   */\n      0x40\n        /* \"#utility.yul\":3719:3728   */\n      dup4\n        /* \"#utility.yul\":3710:3717   */\n      dup6\n        /* \"#utility.yul\":3706:3729   */\n      sub\n        /* \"#utility.yul\":3702:3734   */\n      slt\n        /* \"#utility.yul\":3699:3818   */\n      iszero\n      tag_172\n      jumpi\n        /* \"#utility.yul\":3737:3816   */\n      tag_173\n      tag_83\n      jump\t// in\n    tag_173:\n        /* \"#utility.yul\":3699:3818   */\n    tag_172:\n        /* \"#utility.yul\":3885:3886   */\n      0x00\n        /* \"#utility.yul\":3874:3883   */\n      dup4\n        /* \"#utility.yul\":3870:3887   */\n      add\n        /* \"#utility.yul\":3857:3888   */\n      calldataload\n        /* \"#utility.yul\":3915:3933   */\n      0xffffffffffffffff\n        /* \"#utility.yul\":3907:3913   */\n      dup2\n        /* \"#utility.yul\":3904:3934   */\n      gt\n        /* \"#utility.yul\":3901:4018   */\n      iszero\n      tag_174\n      jumpi\n        /* \"#utility.yul\":3937:4016   */\n      tag_175\n      tag_84\n      jump\t// in\n    tag_175:\n        /* \"#utility.yul\":3901:4018   */\n    tag_174:\n        /* \"#utility.yul\":4042:4105   */\n      tag_176\n        /* \"#utility.yul\":4097:4104   */\n      dup6\n        /* \"#utility.yul\":4088:4094   */\n      dup3\n        /* \"#utility.yul\":4077:4086   */\n      dup7\n        /* \"#utility.yul\":4073:4095   */\n      add\n        /* \"#utility.yul\":4042:4105   */\n      tag_96\n      jump\t// in\n    tag_176:\n        /* \"#utility.yul\":4032:4105   */\n      swap3\n      pop\n        /* \"#utility.yul\":3828:4115   */\n      pop\n        /* \"#utility.yul\":4154:4156   */\n      0x20\n        /* \"#utility.yul\":4180:4233   */\n      tag_177\n        /* \"#utility.yul\":4225:4232   */\n      dup6\n        /* \"#utility.yul\":4216:4222   */\n      dup3\n        /* \"#utility.yul\":4205:4214   */\n      dup7\n        /* \"#utility.yul\":4201:4223   */\n      add\n        /* \"#utility.yul\":4180:4233   */\n      tag_86\n      jump\t// in\n    tag_177:\n        /* \"#utility.yul\":4170:4233   */\n      swap2\n      pop\n        /* \"#utility.yul\":4125:4243   */\n      pop\n        /* \"#utility.yul\":3596:4250   */\n      swap3\n      pop\n      swap3\n      swap1\n      pop\n      jump\t// out\n        /* \"#utility.yul\":4256:4355   */\n    tag_97:\n        /* \"#utility.yul\":4308:4314   */\n      0x00\n        /* \"#utility.yul\":4342:4347   */\n      dup2\n        /* \"#utility.yul\":4336:4348   */\n      mload\n        /* \"#utility.yul\":4326:4348   */\n      swap1\n      pop\n        /* \"#utility.yul\":4256:4355   */\n      swap2\n      swap1\n      pop\n      jump\t// out\n        /* \"#utility.yul\":4361:4530   */\n    tag_98:\n        /* \"#utility.yul\":4445:4456   */\n      0x00\n        /* \"#utility.yul\":4479:4485   */\n      dup3\n        /* \"#utility.yul\":4474:4477   */\n      dup3\n        /* \"#utility.yul\":4467:4486   */\n      mstore\n        /* \"#utility.yul\":4519:4523   */\n      0x20\n        /* \"#utility.yul\":4514:4517   */\n      dup3\n        /* \"#utility.yul\":4510:4524   */\n      add\n        /* \"#utility.yul\":4495:4524   */\n      swap1\n      pop\n        /* \"#utility.yul\":4361:4530   */\n      swap3\n      swap2\n      pop\n      pop\n      jump\t// out\n        /* \"#utility.yul\":4536:4782   */\n    tag_99:\n        /* \"#utility.yul\":4617:4618   */\n      0x00\n        /* \"#utility.yul\":4627:4740   */\n    tag_181:\n        /* \"#utility.yul\":4641:4647   */\n      dup4\n        /* \"#utility.yul\":4638:4639   */\n      dup2\n        /* \"#utility.yul\":4635:4648   */\n      lt\n        /* \"#utility.yul\":4627:4740   */\n      iszero\n      tag_183\n      jumpi\n        /* \"#utility.yul\":4726:4727   */\n      dup1\n        /* \"#utility.yul\":4721:4724   */\n      dup3\n        /* \"#utility.yul\":4717:4728   */\n      add\n        /* \"#utility.yul\":4711:4729   */\n      mload\n        /* \"#utility.yul\":4707:4708   */\n      dup2\n        /* \"#utility.yul\":4702:4705   */\n      dup5\n        /* \"#utility.yul\":4698:4709   */\n      add\n        /* \"#utility.yul\":4691:4730   */\n      mstore\n        /* \"#utility.yul\":4663:4665   */\n      0x20\n        /* \"#utility.yul\":4660:4661   */\n      dup2\n        /* \"#utility.yul\":4656:4666   */\n      add\n        /* \"#utility.yul\":4651:4666   */\n      swap1\n      pop\n        /* \"#utility.yul\":4627:4740   */\n      jump(tag_181)\n    tag_183:\n        /* \"#utility.yul\":4774:4775   */\n      0x00\n        /* \"#utility.yul\":4765:4771   */\n      dup5\n        /* \"#utility.yul\":4760:4763   */\n      dup5\n        /* \"#utility.yul\":4756:4772   */\n      add\n        /* \"#utility.yul\":4749:4776   */\n      mstore\n        /* \"#utility.yul\":4598:4782   */\n      pop\n        /* \"#utility.yul\":4536:4782   */\n      pop\n      pop\n      pop\n      jump\t// out\n        /* \"#utility.yul\":4788:5165   */\n    tag_100:\n        /* \"#utility.yul\":4876:4879   */\n      0x00\n        /* \"#utility.yul\":4904:4943   */\n      tag_185\n        /* \"#utility.yul\":4937:4942   */\n      dup3\n        /* \"#utility.yul\":4904:4943   */\n      tag_97\n      jump\t// in\n    tag_185:\n        /* \"#utility.yul\":4959:5030   */\n      tag_186\n        /* \"#utility.yul\":5023:5029   */\n      dup2\n        /* \"#utility.yul\":5018:5021   */\n      dup6\n        /* \"#utility.yul\":4959:5030   */\n      tag_98\n      jump\t// in\n    tag_186:\n        /* \"#utility.yul\":4952:5030   */\n      swap4\n      pop\n        /* \"#utility.yul\":5039:5104   */\n      tag_187\n        /* \"#utility.yul\":5097:5103   */\n      dup2\n        /* \"#utility.yul\":5092:5095   */\n      dup6\n        /* \"#utility.yul\":5085:5089   */\n      0x20\n        /* \"#utility.yul\":5078:5083   */\n      dup7\n        /* \"#utility.yul\":5074:5090   */\n      add\n        /* \"#utility.yul\":5039:5104   */\n      tag_99\n      jump\t// in\n    tag_187:\n        /* \"#utility.yul\":5129:5158   */\n      tag_188\n        /* \"#utility.yul\":5151:5157   */\n      dup2\n        /* \"#utility.yul\":5129:5158   */\n      tag_89\n      jump\t// in\n    tag_188:\n        /* \"#utility.yul\":5124:5127   */\n      dup5\n        /* \"#utility.yul\":5120:5159   */\n      add\n        /* \"#utility.yul\":5113:5159   */\n      swap2\n      pop\n        /* \"#utility.yul\":4880:5165   */\n      pop\n        /* \"#utility.yul\":4788:5165   */\n      swap3\n      swap2\n      pop\n      pop\n      jump\t// out\n        /* \"#utility.yul\":5171:5261   */\n    tag_101:\n        /* \"#utility.yul\":5205:5212   */\n      0x00\n        /* \"#utility.yul\":5248:5253   */\n      dup2\n        /* \"#utility.yul\":5241:5254   */\n      iszero\n        /* \"#utility.yul\":5234:5255   */\n      iszero\n        /* \"#utility.yul\":5223:5255   */\n      swap1\n      pop\n        /* \"#utility.yul\":5171:5261   */\n      swap2\n      swap1\n      pop\n      jump\t// out\n        /* \"#utility.yul\":5267:5376   */\n    tag_102:\n        /* \"#utility.yul\":5348:5369   */\n      tag_191\n        /* \"#utility.yul\":5363:5368   */\n      dup2\n        /* \"#utility.yul\":5348:5369   */\n      tag_101\n      jump\t// in\n    tag_191:\n        /* \"#utility.yul\":5343:5346   */\n      dup3\n        /* \"#utility.yul\":5336:5370   */\n      mstore\n        /* \"#utility.yul\":5267:5376   */\n      pop\n      pop\n      jump\t// out\n        /* \"#utility.yul\":5382:5903   */\n    tag_25:\n        /* \"#utility.yul\":5545:5549   */\n      0x00\n        /* \"#utility.yul\":5583:5585   */\n      0x60\n        /* \"#utility.yul\":5572:5581   */\n      dup3\n        /* \"#utility.yul\":5568:5586   */\n      add\n        /* \"#utility.yul\":5560:5586   */\n      swap1\n      pop\n        /* \"#utility.yul\":5632:5641   */\n      dup2\n        /* \"#utility.yul\":5626:5630   */\n      dup2\n        /* \"#utility.yul\":5622:5642   */\n      sub\n        /* \"#utility.yul\":5618:5619   */\n      0x00\n        /* \"#utility.yul\":5607:5616   */\n      dup4\n        /* \"#utility.yul\":5603:5620   */\n      add\n        /* \"#utility.yul\":5596:5643   */\n      mstore\n        /* \"#utility.yul\":5660:5738   */\n      tag_193\n        /* \"#utility.yul\":5733:5737   */\n      dup2\n        /* \"#utility.yul\":5724:5730   */\n      dup7\n        /* \"#utility.yul\":5660:5738   */\n      tag_100\n      jump\t// in\n    tag_193:\n        /* \"#utility.yul\":5652:5738   */\n      swap1\n      pop\n        /* \"#utility.yul\":5748:5820   */\n      tag_194\n        /* \"#utility.yul\":5816:5818   */\n      0x20\n        /* \"#utility.yul\":5805:5814   */\n      dup4\n        /* \"#utility.yul\":5801:5819   */\n      add\n        /* \"#utility.yul\":5792:5798   */\n      dup6\n        /* \"#utility.yul\":5748:5820   */\n      tag_81\n      jump\t// in\n    tag_194:\n        /* \"#utility.yul\":5830:5896   */\n      tag_195\n        /* \"#utility.yul\":5892:5894   */\n      0x40\n        /* \"#utility.yul\":5881:5890   */\n      dup4\n        /* \"#utility.yul\":5877:5895   */\n      add\n        /* \"#utility.yul\":5868:5874   */\n      dup5\n        /* \"#utility.yul\":5830:5896   */\n      tag_102\n      jump\t// in\n    tag_195:\n        /* \"#utility.yul\":5382:5903   */\n      swap5\n      swap4\n      pop\n      pop\n      pop\n      pop\n      jump\t// out\n        /* \"#utility.yul\":5909:6025   */\n    tag_103:\n        /* \"#utility.yul\":5979:6000   */\n      tag_197\n        /* \"#utility.yul\":5994:5999   */\n      dup2\n        /* \"#utility.yul\":5979:6000   */\n      tag_101\n      jump\t// in\n    tag_197:\n        /* \"#utility.yul\":5972:5977   */\n      dup2\n        /* \"#utility.yul\":5969:6001   */\n      eq\n        /* \"#utility.yul\":5959:6019   */\n      tag_198\n      jumpi\n        /* \"#utility.yul\":6015:6016   */\n      0x00\n        /* \"#utility.yul\":6012:6013   */\n      dup1\n        /* \"#utility.yul\":6005:6017   */\n      revert\n        /* \"#utility.yul\":5959:6019   */\n    tag_198:\n        /* \"#utility.yul\":5909:6025   */\n      pop\n      jump\t// out\n        /* \"#utility.yul\":6031:6164   */\n    tag_104:\n        /* \"#utility.yul\":6074:6079   */\n      0x00\n        /* \"#utility.yul\":6112:6118   */\n      dup2\n        /* \"#utility.yul\":6099:6119   */\n      calldataload\n        /* \"#utility.yul\":6090:6119   */\n      swap1\n      pop\n        /* \"#utility.yul\":6128:6158   */\n      tag_200\n        /* \"#utility.yul\":6152:6157   */\n      dup2\n        /* \"#utility.yul\":6128:6158   */\n      tag_103\n      jump\t// in\n    tag_200:\n        /* \"#utility.yul\":6031:6164   */\n      swap3\n      swap2\n      pop\n      pop\n      jump\t// out\n        /* \"#utility.yul\":6170:7109   */\n    tag_28:\n        /* \"#utility.yul\":6263:6269   */\n      0x00\n        /* \"#utility.yul\":6271:6277   */\n      dup1\n        /* \"#utility.yul\":6279:6285   */\n      0x00\n        /* \"#utility.yul\":6287:6293   */\n      dup1\n        /* \"#utility.yul\":6336:6339   */\n      0x80\n        /* \"#utility.yul\":6324:6333   */\n      dup6\n        /* \"#utility.yul\":6315:6322   */\n      dup8\n        /* \"#utility.yul\":6311:6334   */\n      sub\n        /* \"#utility.yul\":6307:6340   */\n      slt\n        /* \"#utility.yul\":6304:6424   */\n      iszero\n      tag_202\n      jumpi\n        /* \"#utility.yul\":6343:6422   */\n      tag_203\n      tag_83\n      jump\t// in\n    tag_203:\n        /* \"#utility.yul\":6304:6424   */\n    tag_202:\n        /* \"#utility.yul\":6463:6464   */\n      0x00\n        /* \"#utility.yul\":6488:6541   */\n      tag_204\n        /* \"#utility.yul\":6533:6540   */\n      dup8\n        /* \"#utility.yul\":6524:6530   */\n      dup3\n        /* \"#utility.yul\":6513:6522   */\n      dup9\n        /* \"#utility.yul\":6509:6531   */\n      add\n        /* \"#utility.yul\":6488:6541   */\n      tag_86\n      jump\t// in\n    tag_204:\n        /* \"#utility.yul\":6478:6541   */\n      swap5\n      pop\n        /* \"#utility.yul\":6434:6551   */\n      pop\n        /* \"#utility.yul\":6618:6620   */\n      0x20\n        /* \"#utility.yul\":6607:6616   */\n      dup6\n        /* \"#utility.yul\":6603:6621   */\n      add\n        /* \"#utility.yul\":6590:6622   */\n      calldataload\n        /* \"#utility.yul\":6649:6667   */\n      0xffffffffffffffff\n        /* \"#utility.yul\":6641:6647   */\n      dup2\n        /* \"#utility.yul\":6638:6668   */\n      gt\n        /* \"#utility.yul\":6635:6752   */\n      iszero\n      tag_205\n      jumpi\n        /* \"#utility.yul\":6671:6750   */\n      tag_206\n      tag_84\n      jump\t// in\n    tag_206:\n        /* \"#utility.yul\":6635:6752   */\n    tag_205:\n        /* \"#utility.yul\":6776:6839   */\n      tag_207\n        /* \"#utility.yul\":6831:6838   */\n      dup8\n        /* \"#utility.yul\":6822:6828   */\n      dup3\n        /* \"#utility.yul\":6811:6820   */\n      dup9\n        /* \"#utility.yul\":6807:6829   */\n      add\n        /* \"#utility.yul\":6776:6839   */\n      tag_96\n      jump\t// in\n    tag_207:\n        /* \"#utility.yul\":6766:6839   */\n      swap4\n      pop\n        /* \"#utility.yul\":6561:6849   */\n      pop\n        /* \"#utility.yul\":6888:6890   */\n      0x40\n        /* \"#utility.yul\":6914:6967   */\n      tag_208\n        /* \"#utility.yul\":6959:6966   */\n      dup8\n        /* \"#utility.yul\":6950:6956   */\n      dup3\n        /* \"#utility.yul\":6939:6948   */\n      dup9\n        /* \"#utility.yul\":6935:6957   */\n      add\n        /* \"#utility.yul\":6914:6967   */\n      tag_86\n      jump\t// in\n    tag_208:\n        /* \"#utility.yul\":6904:6967   */\n      swap3\n      pop\n        /* \"#utility.yul\":6859:6977   */\n      pop\n        /* \"#utility.yul\":7016:7018   */\n      0x60\n        /* \"#utility.yul\":7042:7092   */\n      tag_209\n        /* \"#utility.yul\":7084:7091   */\n      dup8\n        /* \"#utility.yul\":7075:7081   */\n      dup3\n        /* \"#utility.yul\":7064:7073   */\n      dup9\n        /* \"#utility.yul\":7060:7082   */\n      add\n        /* \"#utility.yul\":7042:7092   */\n      tag_104\n      jump\t// in\n    tag_209:\n        /* \"#utility.yul\":7032:7092   */\n      swap2\n      pop\n        /* \"#utility.yul\":6987:7102   */\n      pop\n        /* \"#utility.yul\":6170:7109   */\n      swap3\n      swap6\n      swap2\n      swap5\n      pop\n      swap3\n      pop\n      jump\t// out\n        /* \"#utility.yul\":7115:7290   */\n    tag_105:\n        /* \"#utility.yul\":7255:7282   */\n      0x4e6f6e2076616c6964206163636f6d6f646174696f6e20494400000000000000\n        /* \"#utility.yul\":7251:7252   */\n      0x00\n        /* \"#utility.yul\":7243:7249   */\n      dup3\n        /* \"#utility.yul\":7239:7253   */\n      add\n        /* \"#utility.yul\":7232:7283   */\n      mstore\n        /* \"#utility.yul\":7115:7290   */\n      pop\n      jump\t// out\n        /* \"#utility.yul\":7296:7662   */\n    tag_106:\n        /* \"#utility.yul\":7438:7441   */\n      0x00\n        /* \"#utility.yul\":7459:7526   */\n      tag_212\n        /* \"#utility.yul\":7523:7525   */\n      0x19\n        /* \"#utility.yul\":7518:7521   */\n      dup4\n        /* \"#utility.yul\":7459:7526   */\n      tag_98\n      jump\t// in\n    tag_212:\n        /* \"#utility.yul\":7452:7526   */\n      swap2\n      pop\n        /* \"#utility.yul\":7535:7628   */\n      tag_213\n        /* \"#utility.yul\":7624:7627   */\n      dup3\n        /* \"#utility.yul\":7535:7628   */\n      tag_105\n      jump\t// in\n    tag_213:\n        /* \"#utility.yul\":7653:7655   */\n      0x20\n        /* \"#utility.yul\":7648:7651   */\n      dup3\n        /* \"#utility.yul\":7644:7656   */\n      add\n        /* \"#utility.yul\":7637:7656   */\n      swap1\n      pop\n        /* \"#utility.yul\":7296:7662   */\n      swap2\n      swap1\n      pop\n      jump\t// out\n        /* \"#utility.yul\":7668:8087   */\n    tag_37:\n        /* \"#utility.yul\":7834:7838   */\n      0x00\n        /* \"#utility.yul\":7872:7874   */\n      0x20\n        /* \"#utility.yul\":7861:7870   */\n      dup3\n        /* \"#utility.yul\":7857:7875   */\n      add\n        /* \"#utility.yul\":7849:7875   */\n      swap1\n      pop\n        /* \"#utility.yul\":7921:7930   */\n      dup2\n        /* \"#utility.yul\":7915:7919   */\n      dup2\n        /* \"#utility.yul\":7911:7931   */\n      sub\n        /* \"#utility.yul\":7907:7908   */\n      0x00\n        /* \"#utility.yul\":7896:7905   */\n      dup4\n        /* \"#utility.yul\":7892:7909   */\n      add\n        /* \"#utility.yul\":7885:7932   */\n      mstore\n        /* \"#utility.yul\":7949:8080   */\n      tag_215\n        /* \"#utility.yul\":8075:8079   */\n      dup2\n        /* \"#utility.yul\":7949:8080   */\n      tag_106\n      jump\t// in\n    tag_215:\n        /* \"#utility.yul\":7941:8080   */\n      swap1\n      pop\n        /* \"#utility.yul\":7668:8087   */\n      swap2\n      swap1\n      pop\n      jump\t// out\n        /* \"#utility.yul\":8093:8273   */\n    tag_107:\n        /* \"#utility.yul\":8141:8218   */\n      0x4e487b7100000000000000000000000000000000000000000000000000000000\n        /* \"#utility.yul\":8138:8139   */\n      0x00\n        /* \"#utility.yul\":8131:8219   */\n      mstore\n        /* \"#utility.yul\":8238:8242   */\n      0x11\n        /* \"#utility.yul\":8235:8236   */\n      0x04\n        /* \"#utility.yul\":8228:8243   */\n      mstore\n        /* \"#utility.yul\":8262:8266   */\n      0x24\n        /* \"#utility.yul\":8259:8260   */\n      0x00\n        /* \"#utility.yul\":8252:8267   */\n      revert\n        /* \"#utility.yul\":8279:8473   */\n    tag_39:\n        /* \"#utility.yul\":8319:8323   */\n      0x00\n        /* \"#utility.yul\":8339:8359   */\n      tag_218\n        /* \"#utility.yul\":8357:8358   */\n      dup3\n        /* \"#utility.yul\":8339:8359   */\n      tag_80\n      jump\t// in\n    tag_218:\n        /* \"#utility.yul\":8334:8359   */\n      swap2\n      pop\n        /* \"#utility.yul\":8373:8393   */\n      tag_219\n        /* \"#utility.yul\":8391:8392   */\n      dup4\n        /* \"#utility.yul\":8373:8393   */\n      tag_80\n      jump\t// in\n    tag_219:\n        /* \"#utility.yul\":8368:8393   */\n      swap3\n      pop\n        /* \"#utility.yul\":8417:8418   */\n      dup3\n        /* \"#utility.yul\":8414:8415   */\n      dup3\n        /* \"#utility.yul\":8410:8419   */\n      sub\n        /* \"#utility.yul\":8402:8419   */\n      swap1\n      pop\n        /* \"#utility.yul\":8441:8442   */\n      dup2\n        /* \"#utility.yul\":8435:8439   */\n      dup2\n        /* \"#utility.yul\":8432:8443   */\n      gt\n        /* \"#utility.yul\":8429:8466   */\n      iszero\n      tag_220\n      jumpi\n        /* \"#utility.yul\":8446:8464   */\n      tag_221\n      tag_107\n      jump\t// in\n    tag_221:\n        /* \"#utility.yul\":8429:8466   */\n    tag_220:\n        /* \"#utility.yul\":8279:8473   */\n      swap3\n      swap2\n      pop\n      pop\n      jump\t// out\n        /* \"#utility.yul\":8479:8659   */\n    tag_108:\n        /* \"#utility.yul\":8527:8604   */\n      0x4e487b7100000000000000000000000000000000000000000000000000000000\n        /* \"#utility.yul\":8524:8525   */\n      0x00\n        /* \"#utility.yul\":8517:8605   */\n      mstore\n        /* \"#utility.yul\":8624:8628   */\n      0x22\n        /* \"#utility.yul\":8621:8622   */\n      0x04\n        /* \"#utility.yul\":8614:8629   */\n      mstore\n        /* \"#utility.yul\":8648:8652   */\n      0x24\n        /* \"#utility.yul\":8645:8646   */\n      0x00\n        /* \"#utility.yul\":8638:8653   */\n      revert\n        /* \"#utility.yul\":8665:8985   */\n    tag_59:\n        /* \"#utility.yul\":8709:8715   */\n      0x00\n        /* \"#utility.yul\":8746:8747   */\n      0x02\n        /* \"#utility.yul\":8740:8744   */\n      dup3\n        /* \"#utility.yul\":8736:8748   */\n      div\n        /* \"#utility.yul\":8726:8748   */\n      swap1\n      pop\n        /* \"#utility.yul\":8793:8794   */\n      0x01\n        /* \"#utility.yul\":8787:8791   */\n      dup3\n        /* \"#utility.yul\":8783:8795   */\n      and\n        /* \"#utility.yul\":8814:8832   */\n      dup1\n        /* \"#utility.yul\":8804:8885   */\n      tag_224\n      jumpi\n        /* \"#utility.yul\":8870:8874   */\n      0x7f\n        /* \"#utility.yul\":8862:8868   */\n      dup3\n        /* \"#utility.yul\":8858:8875   */\n      and\n        /* \"#utility.yul\":8848:8875   */\n      swap2\n      pop\n        /* \"#utility.yul\":8804:8885   */\n    tag_224:\n        /* \"#utility.yul\":8932:8934   */\n      0x20\n        /* \"#utility.yul\":8924:8930   */\n      dup3\n        /* \"#utility.yul\":8921:8935   */\n      lt\n        /* \"#utility.yul\":8901:8919   */\n      dup2\n        /* \"#utility.yul\":8898:8936   */\n      sub\n        /* \"#utility.yul\":8895:8979   */\n      tag_225\n      jumpi\n        /* \"#utility.yul\":8951:8969   */\n      tag_226\n      tag_108\n      jump\t// in\n    tag_226:\n        /* \"#utility.yul\":8895:8979   */\n    tag_225:\n        /* \"#utility.yul\":8716:8985   */\n      pop\n        /* \"#utility.yul\":8665:8985   */\n      swap2\n      swap1\n      pop\n      jump\t// out\n        /* \"#utility.yul\":8991:9140   */\n    tag_109:\n        /* \"#utility.yul\":9040:9046   */\n      0x00\n        /* \"#utility.yul\":9074:9079   */\n      dup2\n        /* \"#utility.yul\":9068:9080   */\n      sload\n        /* \"#utility.yul\":9058:9080   */\n      swap1\n      pop\n        /* \"#utility.yul\":9100:9133   */\n      tag_228\n        /* \"#utility.yul\":9126:9132   */\n      dup2\n        /* \"#utility.yul\":9100:9133   */\n      tag_59\n      jump\t// in\n    tag_228:\n        /* \"#utility.yul\":9090:9133   */\n      swap1\n      pop\n        /* \"#utility.yul\":8991:9140   */\n      swap2\n      swap1\n      pop\n      jump\t// out\n        /* \"#utility.yul\":9146:9287   */\n    tag_110:\n        /* \"#utility.yul\":9195:9199   */\n      0x00\n        /* \"#utility.yul\":9218:9221   */\n      dup2\n        /* \"#utility.yul\":9210:9221   */\n      swap1\n      pop\n        /* \"#utility.yul\":9241:9244   */\n      dup2\n        /* \"#utility.yul\":9238:9239   */\n      0x00\n        /* \"#utility.yul\":9231:9245   */\n      mstore\n        /* \"#utility.yul\":9275:9279   */\n      0x20\n        /* \"#utility.yul\":9272:9273   */\n      0x00\n        /* \"#utility.yul\":9262:9280   */\n      keccak256\n        /* \"#utility.yul\":9254:9280   */\n      swap1\n      pop\n        /* \"#utility.yul\":9146:9287   */\n      swap2\n      swap1\n      pop\n      jump\t// out\n        /* \"#utility.yul\":9293:9386   */\n    tag_111:\n        /* \"#utility.yul\":9330:9336   */\n      0x00\n        /* \"#utility.yul\":9377:9379   */\n      0x20\n        /* \"#utility.yul\":9372:9374   */\n      0x1f\n        /* \"#utility.yul\":9365:9370   */\n      dup4\n        /* \"#utility.yul\":9361:9375   */\n      add\n        /* \"#utility.yul\":9357:9380   */\n      div\n        /* \"#utility.yul\":9347:9380   */\n      swap1\n      pop\n        /* \"#utility.yul\":9293:9386   */\n      swap2\n      swap1\n      pop\n      jump\t// out\n        /* \"#utility.yul\":9392:9499   */\n    tag_112:\n        /* \"#utility.yul\":9436:9444   */\n      0x00\n        /* \"#utility.yul\":9486:9491   */\n      dup3\n        /* \"#utility.yul\":9480:9484   */\n      dup3\n        /* \"#utility.yul\":9476:9492   */\n      shl\n        /* \"#utility.yul\":9455:9492   */\n      swap1\n      pop\n        /* \"#utility.yul\":9392:9499   */\n      swap3\n      swap2\n      pop\n      pop\n      jump\t// out\n        /* \"#utility.yul\":9505:9898   */\n    tag_113:\n        /* \"#utility.yul\":9574:9580   */\n      0x00\n        /* \"#utility.yul\":9624:9625   */\n      0x08\n        /* \"#utility.yul\":9612:9622   */\n      dup4\n        /* \"#utility.yul\":9608:9626   */\n      mul\n        /* \"#utility.yul\":9647:9744   */\n      tag_233\n        /* \"#utility.yul\":9677:9743   */\n      0xffffffffffffffffffffffffffffffffffffffffffffffffffffffffffffffff\n        /* \"#utility.yul\":9666:9675   */\n      dup3\n        /* \"#utility.yul\":9647:9744   */\n      tag_112\n      jump\t// in\n    tag_233:\n        /* \"#utility.yul\":9765:9804   */\n      tag_234\n        /* \"#utility.yul\":9795:9803   */\n      dup7\n        /* \"#utility.yul\":9784:9793   */\n      dup4\n        /* \"#utility.yul\":9765:9804   */\n      tag_112\n      jump\t// in\n    tag_234:\n        /* \"#utility.yul\":9753:9804   */\n      swap6\n      pop\n        /* \"#utility.yul\":9837:9841   */\n      dup1\n        /* \"#utility.yul\":9833:9842   */\n      not\n        /* \"#utility.yul\":9826:9831   */\n      dup5\n        /* \"#utility.yul\":9822:9843   */\n      and\n        /* \"#utility.yul\":9813:9843   */\n      swap4\n      pop\n        /* \"#utility.yul\":9886:9890   */\n      dup1\n        /* \"#utility.yul\":9876:9884   */\n      dup7\n        /* \"#utility.yul\":9872:9891   */\n      and\n        /* \"#utility.yul\":9865:9870   */\n      dup5\n        /* \"#utility.yul\":9862:9892   */\n      or\n        /* \"#utility.yul\":9852:9892   */\n      swap3\n      pop\n        /* \"#utility.yul\":9581:9898   */\n      pop\n      pop\n        /* \"#utility.yul\":9505:9898   */\n      swap4\n      swap3\n      pop\n      pop\n      pop\n      jump\t// out\n        /* \"#utility.yul\":9904:9964   */\n    tag_114:\n        /* \"#utility.yul\":9932:9935   */\n      0x00\n        /* \"#utility.yul\":9953:9958   */\n      dup2\n        /* \"#utility.yul\":9946:9958   */\n      swap1\n      pop\n        /* \"#utility.yul\":9904:9964   */\n      swap2\n      swap1\n      pop\n      jump\t// out\n        /* \"#utility.yul\":9970:10112   */\n    tag_115:\n        /* \"#utility.yul\":10020:10029   */\n      0x00\n        /* \"#utility.yul\":10053:10106   */\n      tag_237\n        /* \"#utility.yul\":10071:10105   */\n      tag_238\n        /* \"#utility.yul\":10080:10104   */\n      tag_239\n        /* \"#utility.yul\":10098:10103   */\n      dup5\n        /* \"#utility.yul\":10080:10104   */\n      tag_80\n      jump\t// in\n    tag_239:\n        /* \"#utility.yul\":10071:10105   */\n      tag_114\n      jump\t// in\n    tag_238:\n        /* \"#utility.yul\":10053:10106   */\n      tag_80\n      jump\t// in\n    tag_237:\n        /* \"#utility.yul\":10040:10106   */\n      swap1\n      pop\n        /* \"#utility.yul\":9970:10112   */\n      swap2\n      swap1\n      pop\n      jump\t// out\n        /* \"#utility.yul\":10118:10193   */\n    tag_116:\n        /* \"#utility.yul\":10161:10164   */\n      0x00\n        /* \"#utility.yul\":10182:10187   */\n      dup2\n        /* \"#utility.yul\":10175:10187   */\n      swap1\n      pop\n        /* \"#utility.yul\":10118:10193   */\n      swap2\n      swap1\n      pop\n      jump\t// out\n        /* \"#utility.yul\":10199:10468   */\n    tag_117:\n        /* \"#utility.yul\":10309:10348   */\n      tag_242\n        /* \"#utility.yul\":10340:10347   */\n      dup4\n        /* \"#utility.yul\":10309:10348   */\n      tag_115\n      jump\t// in\n    tag_242:\n        /* \"#utility.yul\":10370:10461   */\n      tag_243\n        /* \"#utility.yul\":10419:10460   */\n      tag_244\n        /* \"#utility.yul\":10443:10459   */\n      dup3\n        /* \"#utility.yul\":10419:10460   */\n      tag_116\n      jump\t// in\n    tag_244:\n        /* \"#utility.yul\":10411:10417   */\n      dup5\n        /* \"#utility.yul\":10404:10408   */\n      dup5\n        /* \"#utility.yul\":10398:10409   */\n      sload\n        /* \"#utility.yul\":10370:10461   */\n      tag_113\n      jump\t// in\n    tag_243:\n        /* \"#utility.yul\":10364:10368   */\n      dup3\n        /* \"#utility.yul\":10357:10462   */\n      sstore\n        /* \"#utility.yul\":10275:10468   */\n      pop\n        /* \"#utility.yul\":10199:10468   */\n      pop\n      pop\n      pop\n      jump\t// out\n        /* \"#utility.yul\":10474:10547   */\n    tag_118:\n        /* \"#utility.yul\":10519:10522   */\n      0x00\n        /* \"#utility.yul\":10474:10547   */\n      swap1\n      jump\t// out\n        /* \"#utility.yul\":10553:10742   */\n    tag_119:\n        /* \"#utility.yul\":10630:10662   */\n      tag_247\n      tag_118\n      jump\t// in\n    tag_247:\n        /* \"#utility.yul\":10671:10736   */\n      tag_248\n        /* \"#utility.yul\":10729:10735   */\n      dup2\n        /* \"#utility.yul\":10721:10727   */\n      dup5\n        /* \"#utility.yul\":10715:10719   */\n      dup5\n        /* \"#utility.yul\":10671:10736   */\n      tag_117\n      jump\t// in\n    tag_248:\n        /* \"#utility.yul\":10606:10742   */\n      pop\n        /* \"#utility.yul\":10553:10742   */\n      pop\n      pop\n      jump\t// out\n        /* \"#utility.yul\":10748:10934   */\n    tag_120:\n        /* \"#utility.yul\":10808:10928   */\n    tag_250:\n        /* \"#utility.yul\":10825:10828   */\n      dup2\n        /* \"#utility.yul\":10818:10823   */\n      dup2\n        /* \"#utility.yul\":10815:10829   */\n      lt\n        /* \"#utility.yul\":10808:10928   */\n      iszero\n      tag_252\n      jumpi\n        /* \"#utility.yul\":10879:10918   */\n      tag_253\n        /* \"#utility.yul\":10916:10917   */\n      0x00\n        /* \"#utility.yul\":10909:10914   */\n      dup3\n        /* \"#utility.yul\":10879:10918   */\n      tag_119\n      jump\t// in\n    tag_253:\n        /* \"#utility.yul\":10852:10853   */\n      0x01\n        /* \"#utility.yul\":10845:10850   */\n      dup2\n        /* \"#utility.yul\":10841:10854   */\n      add\n        /* \"#utility.yul\":10832:10854   */\n      swap1\n      pop\n        /* \"#utility.yul\":10808:10928   */\n      jump(tag_250)\n    tag_252:\n        /* \"#utility.yul\":10748:10934   */\n      pop\n      pop\n      jump\t// out\n        /* \"#utility.yul\":10940:11483   */\n    tag_121:\n        /* \"#utility.yul\":11041:11043   */\n      0x1f\n        /* \"#utility.yul\":11036:11039   */\n      dup3\n        /* \"#utility.yul\":11033:11044   */\n      gt\n        /* \"#utility.yul\":11030:11476   */\n      iszero\n      tag_255\n      jumpi\n        /* \"#utility.yul\":11075:11113   */\n      tag_256\n        /* \"#utility.yul\":11107:11112   */\n      dup2\n        /* \"#utility.yul\":11075:11113   */\n      tag_110\n      jump\t// in\n    tag_256:\n        /* \"#utility.yul\":11159:11188   */\n      tag_257\n        /* \"#utility.yul\":11177:11187   */\n      dup5\n        /* \"#utility.yul\":11159:11188   */\n      tag_111\n      jump\t// in\n    tag_257:\n        /* \"#utility.yul\":11149:11157   */\n      dup2\n        /* \"#utility.yul\":11145:11189   */\n      add\n        /* \"#utility.yul\":11342:11344   */\n      0x20\n        /* \"#utility.yul\":11330:11340   */\n      dup6\n        /* \"#utility.yul\":11327:11345   */\n      lt\n        /* \"#utility.yul\":11324:11373   */\n      iszero\n      tag_258\n      jumpi\n        /* \"#utility.yul\":11363:11371   */\n      dup2\n        /* \"#utility.yul\":11348:11371   */\n      swap1\n      pop\n        /* \"#utility.yul\":11324:11373   */\n    tag_258:\n        /* \"#utility.yul\":11386:11466   */\n      tag_259\n        /* \"#utility.yul\":11442:11464   */\n      tag_260\n        /* \"#utility.yul\":11460:11463   */\n      dup6\n        /* \"#utility.yul\":11442:11464   */\n      tag_111\n      jump\t// in\n    tag_260:\n        /* \"#utility.yul\":11432:11440   */\n      dup4\n        /* \"#utility.yul\":11428:11465   */\n      add\n        /* \"#utility.yul\":11415:11426   */\n      dup3\n        /* \"#utility.yul\":11386:11466   */\n      tag_120\n      jump\t// in\n    tag_259:\n        /* \"#utility.yul\":11045:11476   */\n      pop\n      pop\n        /* \"#utility.yul\":11030:11476   */\n    tag_255:\n        /* \"#utility.yul\":10940:11483   */\n      pop\n      pop\n      pop\n      jump\t// out\n        /* \"#utility.yul\":11489:11606   */\n    tag_122:\n        /* \"#utility.yul\":11543:11551   */\n      0x00\n        /* \"#utility.yul\":11593:11598   */\n      dup3\n        /* \"#utility.yul\":11587:11591   */\n      dup3\n        /* \"#utility.yul\":11583:11599   */\n      shr\n        /* \"#utility.yul\":11562:11599   */\n      swap1\n      pop\n        /* \"#utility.yul\":11489:11606   */\n      swap3\n      swap2\n      pop\n      pop\n      jump\t// out\n        /* \"#utility.yul\":11612:11781   */\n    tag_123:\n        /* \"#utility.yul\":11656:11662   */\n      0x00\n        /* \"#utility.yul\":11689:11740   */\n      tag_263\n        /* \"#utility.yul\":11737:11738   */\n      0x00\n        /* \"#utility.yul\":11733:11739   */\n      not\n        /* \"#utility.yul\":11725:11730   */\n      dup5\n        /* \"#utility.yul\":11722:11723   */\n      0x08\n        /* \"#utility.yul\":11718:11731   */\n      mul\n        /* \"#utility.yul\":11689:11740   */\n      tag_122\n      jump\t// in\n    tag_263:\n        /* \"#utility.yul\":11685:11741   */\n      not\n        /* \"#utility.yul\":11770:11774   */\n      dup1\n        /* \"#utility.yul\":11764:11768   */\n      dup4\n        /* \"#utility.yul\":11760:11775   */\n      and\n        /* \"#utility.yul\":11750:11775   */\n      swap2\n      pop\n        /* \"#utility.yul\":11663:11781   */\n      pop\n        /* \"#utility.yul\":11612:11781   */\n      swap3\n      swap2\n      pop\n      pop\n      jump\t// out\n        /* \"#utility.yul\":11786:12081   */\n    tag_124:\n        /* \"#utility.yul\":11862:11866   */\n      0x00\n        /* \"#utility.yul\":12008:12037   */\n      tag_265\n        /* \"#utility.yul\":12033:12036   */\n      dup4\n        /* \"#utility.yul\":12027:12031   */\n      dup4\n        /* \"#utility.yul\":12008:12037   */\n      tag_123\n      jump\t// in\n    tag_265:\n        /* \"#utility.yul\":12000:12037   */\n      swap2\n      pop\n        /* \"#utility.yul\":12070:12073   */\n      dup3\n        /* \"#utility.yul\":12067:12068   */\n      0x02\n        /* \"#utility.yul\":12063:12074   */\n      mul\n        /* \"#utility.yul\":12057:12061   */\n      dup3\n        /* \"#utility.yul\":12054:12075   */\n      or\n        /* \"#utility.yul\":12046:12075   */\n      swap1\n      pop\n        /* \"#utility.yul\":11786:12081   */\n      swap3\n      swap2\n      pop\n      pop\n      jump\t// out\n        /* \"#utility.yul\":12086:13537   */\n    tag_43:\n        /* \"#utility.yul\":12197:12200   */\n      dup2\n        /* \"#utility.yul\":12191:12195   */\n      dup2\n        /* \"#utility.yul\":12188:12201   */\n      sub\n        /* \"#utility.yul\":12185:12211   */\n      tag_267\n      jumpi\n        /* \"#utility.yul\":12204:12209   */\n      pop\n      pop\n      jump(tag_266)\n        /* \"#utility.yul\":12185:12211   */\n    tag_267:\n        /* \"#utility.yul\":12235:12269   */\n      tag_268\n        /* \"#utility.yul\":12265:12268   */\n      dup3\n        /* \"#utility.yul\":12235:12269   */\n      tag_109\n      jump\t// in\n    tag_268:\n        /* \"#utility.yul\":12334:12352   */\n      0xffffffffffffffff\n        /* \"#utility.yul\":12326:12332   */\n      dup2\n        /* \"#utility.yul\":12323:12353   */\n      gt\n        /* \"#utility.yul\":12320:12376   */\n      iszero\n      tag_269\n      jumpi\n        /* \"#utility.yul\":12356:12374   */\n      tag_270\n      tag_90\n      jump\t// in\n    tag_270:\n        /* \"#utility.yul\":12320:12376   */\n    tag_269:\n        /* \"#utility.yul\":12400:12438   */\n      tag_271\n        /* \"#utility.yul\":12432:12436   */\n      dup3\n        /* \"#utility.yul\":12426:12437   */\n      sload\n        /* \"#utility.yul\":12400:12438   */\n      tag_59\n      jump\t// in\n    tag_271:\n        /* \"#utility.yul\":12485:12552   */\n      tag_272\n        /* \"#utility.yul\":12545:12551   */\n      dup3\n        /* \"#utility.yul\":12537:12543   */\n      dup3\n        /* \"#utility.yul\":12531:12535   */\n      dup6\n        /* \"#utility.yul\":12485:12552   */\n      tag_121\n      jump\t// in\n    tag_272:\n        /* \"#utility.yul\":12579:12580   */\n      0x00\n        /* \"#utility.yul\":12608:12610   */\n      0x1f\n        /* \"#utility.yul\":12600:12606   */\n      dup4\n        /* \"#utility.yul\":12597:12611   */\n      gt\n        /* \"#utility.yul\":12625:12626   */\n      0x01\n        /* \"#utility.yul\":12620:13292   */\n      dup2\n      eq\n      tag_274\n      jumpi\n        /* \"#utility.yul\":13336:13337   */\n      0x00\n        /* \"#utility.yul\":13353:13359   */\n      dup5\n        /* \"#utility.yul\":13350:13427   */\n      iszero\n      tag_275\n      jumpi\n        /* \"#utility.yul\":13402:13411   */\n      dup3\n        /* \"#utility.yul\":13397:13400   */\n      dup8\n        /* \"#utility.yul\":13393:13412   */\n      add\n        /* \"#utility.yul\":13387:13413   */\n      sload\n        /* \"#utility.yul\":13378:13413   */\n      swap1\n      pop\n        /* \"#utility.yul\":13350:13427   */\n    tag_275:\n        /* \"#utility.yul\":13453:13520   */\n      tag_276\n        /* \"#utility.yul\":13513:13519   */\n      dup6\n        /* \"#utility.yul\":13506:13511   */\n      dup3\n        /* \"#utility.yul\":13453:13520   */\n      tag_124\n      jump\t// in\n    tag_276:\n        /* \"#utility.yul\":13447:13451   */\n      dup7\n        /* \"#utility.yul\":13440:13521   */\n      sstore\n        /* \"#utility.yul\":13309:13531   */\n      pop\n        /* \"#utility.yul\":12590:13531   */\n      jump(tag_273)\n        /* \"#utility.yul\":12620:13292   */\n    tag_274:\n        /* \"#utility.yul\":12672:12676   */\n      0x1f\n        /* \"#utility.yul\":12668:12677   */\n      not\n        /* \"#utility.yul\":12660:12666   */\n      dup5\n        /* \"#utility.yul\":12656:12678   */\n      and\n        /* \"#utility.yul\":12698:12734   */\n      tag_277\n        /* \"#utility.yul\":12730:12733   */\n      dup8\n        /* \"#utility.yul\":12698:12734   */\n      tag_110\n      jump\t// in\n    tag_277:\n        /* \"#utility.yul\":12691:12734   */\n      swap7\n      pop\n        /* \"#utility.yul\":12761:12798   */\n      tag_278\n        /* \"#utility.yul\":12793:12797   */\n      dup7\n        /* \"#utility.yul\":12761:12798   */\n      tag_110\n      jump\t// in\n    tag_278:\n        /* \"#utility.yul\":12820:12821   */\n      0x00\n        /* \"#utility.yul\":12834:13041   */\n    tag_279:\n        /* \"#utility.yul\":12848:12855   */\n      dup3\n        /* \"#utility.yul\":12845:12846   */\n      dup2\n        /* \"#utility.yul\":12842:12856   */\n      lt\n        /* \"#utility.yul\":12834:13041   */\n      iszero\n      tag_281\n      jumpi\n        /* \"#utility.yul\":12927:12936   */\n      dup5\n        /* \"#utility.yul\":12922:12925   */\n      dup10\n        /* \"#utility.yul\":12918:12937   */\n      add\n        /* \"#utility.yul\":12912:12938   */\n      sload\n        /* \"#utility.yul\":12904:12910   */\n      dup3\n        /* \"#utility.yul\":12897:12939   */\n      sstore\n        /* \"#utility.yul\":12978:12979   */\n      0x01\n        /* \"#utility.yul\":12970:12976   */\n      dup3\n        /* \"#utility.yul\":12966:12980   */\n      add\n        /* \"#utility.yul\":12956:12980   */\n      swap2\n      pop\n        /* \"#utility.yul\":13025:13026   */\n      0x01\n        /* \"#utility.yul\":13014:13023   */\n      dup6\n        /* \"#utility.yul\":13010:13027   */\n      add\n        /* \"#utility.yul\":12997:13027   */\n      swap5\n      pop\n        /* \"#utility.yul\":12871:12875   */\n      0x20\n        /* \"#utility.yul\":12868:12869   */\n      dup2\n        /* \"#utility.yul\":12864:12876   */\n      add\n        /* \"#utility.yul\":12859:12876   */\n      swap1\n      pop\n        /* \"#utility.yul\":12834:13041   */\n      jump(tag_279)\n    tag_281:\n        /* \"#utility.yul\":13069:13075   */\n      dup7\n        /* \"#utility.yul\":13060:13067   */\n      dup4\n        /* \"#utility.yul\":13057:13076   */\n      lt\n        /* \"#utility.yul\":13054:13233   */\n      iszero\n      tag_282\n      jumpi\n        /* \"#utility.yul\":13127:13136   */\n      dup5\n        /* \"#utility.yul\":13122:13125   */\n      dup10\n        /* \"#utility.yul\":13118:13137   */\n      add\n        /* \"#utility.yul\":13112:13138   */\n      sload\n        /* \"#utility.yul\":13170:13218   */\n      tag_283\n        /* \"#utility.yul\":13212:13216   */\n      0x1f\n        /* \"#utility.yul\":13204:13210   */\n      dup10\n        /* \"#utility.yul\":13200:13217   */\n      and\n        /* \"#utility.yul\":13189:13198   */\n      dup3\n        /* \"#utility.yul\":13170:13218   */\n      tag_123\n      jump\t// in\n    tag_283:\n        /* \"#utility.yul\":13162:13168   */\n      dup4\n        /* \"#utility.yul\":13155:13219   */\n      sstore\n        /* \"#utility.yul\":13077:13233   */\n      pop\n        /* \"#utility.yul\":13054:13233   */\n    tag_282:\n        /* \"#utility.yul\":13279:13280   */\n      0x01\n        /* \"#utility.yul\":13275:13276   */\n      0x02\n        /* \"#utility.yul\":13267:13273   */\n      dup9\n        /* \"#utility.yul\":13263:13277   */\n      mul\n        /* \"#utility.yul\":13259:13281   */\n      add\n        /* \"#utility.yul\":13253:13257   */\n      dup9\n        /* \"#utility.yul\":13246:13282   */\n      sstore\n        /* \"#utility.yul\":12627:13292   */\n      pop\n      pop\n      pop\n        /* \"#utility.yul\":12590:13531   */\n    tag_273:\n      pop\n        /* \"#utility.yul\":12175:13537   */\n      pop\n      pop\n      pop\n        /* \"#utility.yul\":12086:13537   */\n      pop\n      pop\n    tag_266:\n      jump\t// out\n        /* \"#utility.yul\":13543:13714   */\n    tag_48:\n        /* \"#utility.yul\":13582:13585   */\n      0x00\n        /* \"#utility.yul\":13605:13629   */\n      tag_285\n        /* \"#utility.yul\":13623:13628   */\n      dup3\n        /* \"#utility.yul\":13605:13629   */\n      tag_80\n      jump\t// in\n    tag_285:\n        /* \"#utility.yul\":13596:13629   */\n      swap2\n      pop\n        /* \"#utility.yul\":13651:13655   */\n      0x00\n        /* \"#utility.yul\":13644:13649   */\n      dup3\n        /* \"#utility.yul\":13641:13656   */\n      sub\n        /* \"#utility.yul\":13638:13679   */\n      tag_286\n      jumpi\n        /* \"#utility.yul\":13659:13677   */\n      tag_287\n      tag_107\n      jump\t// in\n    tag_287:\n        /* \"#utility.yul\":13638:13679   */\n    tag_286:\n        /* \"#utility.yul\":13706:13707   */\n      0x01\n        /* \"#utility.yul\":13699:13704   */\n      dup3\n        /* \"#utility.yul\":13695:13708   */\n      sub\n        /* \"#utility.yul\":13688:13708   */\n      swap1\n      pop\n        /* \"#utility.yul\":13543:13714   */\n      swap2\n      swap1\n      pop\n      jump\t// out\n        /* \"#utility.yul\":13720:15115   */\n    tag_51:\n        /* \"#utility.yul\":13837:13874   */\n      tag_289\n        /* \"#utility.yul\":13870:13873   */\n      dup3\n        /* \"#utility.yul\":13837:13874   */\n      tag_97\n      jump\t// in\n    tag_289:\n        /* \"#utility.yul\":13939:13957   */\n      0xffffffffffffffff\n        /* \"#utility.yul\":13931:13937   */\n      dup2\n        /* \"#utility.yul\":13928:13958   */\n      gt\n        /* \"#utility.yul\":13925:13981   */\n      iszero\n      tag_290\n      jumpi\n        /* \"#utility.yul\":13961:13979   */\n      tag_291\n      tag_90\n      jump\t// in\n    tag_291:\n        /* \"#utility.yul\":13925:13981   */\n    tag_290:\n        /* \"#utility.yul\":14005:14043   */\n      tag_292\n        /* \"#utility.yul\":14037:14041   */\n      dup3\n        /* \"#utility.yul\":14031:14042   */\n      sload\n        /* \"#utility.yul\":14005:14043   */\n      tag_59\n      jump\t// in\n    tag_292:\n        /* \"#utility.yul\":14090:14157   */\n      tag_293\n        /* \"#utility.yul\":14150:14156   */\n      dup3\n        /* \"#utility.yul\":14142:14148   */\n      dup3\n        /* \"#utility.yul\":14136:14140   */\n      dup6\n        /* \"#utility.yul\":14090:14157   */\n      tag_121\n      jump\t// in\n    tag_293:\n        /* \"#utility.yul\":14184:14185   */\n      0x00\n        /* \"#utility.yul\":14208:14212   */\n      0x20\n        /* \"#utility.yul\":14195:14212   */\n      swap1\n      pop\n        /* \"#utility.yul\":14240:14242   */\n      0x1f\n        /* \"#utility.yul\":14232:14238   */\n      dup4\n        /* \"#utility.yul\":14229:14243   */\n      gt\n        /* \"#utility.yul\":14257:14258   */\n      0x01\n        /* \"#utility.yul\":14252:14870   */\n      dup2\n      eq\n      tag_295\n      jumpi\n        /* \"#utility.yul\":14914:14915   */\n      0x00\n        /* \"#utility.yul\":14931:14937   */\n      dup5\n        /* \"#utility.yul\":14928:15005   */\n      iszero\n      tag_296\n      jumpi\n        /* \"#utility.yul\":14980:14989   */\n      dup3\n        /* \"#utility.yul\":14975:14978   */\n      dup8\n        /* \"#utility.yul\":14971:14990   */\n      add\n        /* \"#utility.yul\":14965:14991   */\n      mload\n        /* \"#utility.yul\":14956:14991   */\n      swap1\n      pop\n        /* \"#utility.yul\":14928:15005   */\n    tag_296:\n        /* \"#utility.yul\":15031:15098   */\n      tag_297\n        /* \"#utility.yul\":15091:15097   */\n      dup6\n        /* \"#utility.yul\":15084:15089   */\n      dup3\n        /* \"#utility.yul\":15031:15098   */\n      tag_124\n      jump\t// in\n    tag_297:\n        /* \"#utility.yul\":15025:15029   */\n      dup7\n        /* \"#utility.yul\":15018:15099   */\n      sstore\n        /* \"#utility.yul\":14887:15109   */\n      pop\n        /* \"#utility.yul\":14222:15109   */\n      jump(tag_294)\n        /* \"#utility.yul\":14252:14870   */\n    tag_295:\n        /* \"#utility.yul\":14304:14308   */\n      0x1f\n        /* \"#utility.yul\":14300:14309   */\n      not\n        /* \"#utility.yul\":14292:14298   */\n      dup5\n        /* \"#utility.yul\":14288:14310   */\n      and\n        /* \"#utility.yul\":14338:14375   */\n      tag_298\n        /* \"#utility.yul\":14370:14374   */\n      dup7\n        /* \"#utility.yul\":14338:14375   */\n      tag_110\n      jump\t// in\n    tag_298:\n        /* \"#utility.yul\":14397:14398   */\n      0x00\n        /* \"#utility.yul\":14411:14619   */\n    tag_299:\n        /* \"#utility.yul\":14425:14432   */\n      dup3\n        /* \"#utility.yul\":14422:14423   */\n      dup2\n        /* \"#utility.yul\":14419:14433   */\n      lt\n        /* \"#utility.yul\":14411:14619   */\n      iszero\n      tag_301\n      jumpi\n        /* \"#utility.yul\":14504:14513   */\n      dup5\n        /* \"#utility.yul\":14499:14502   */\n      dup10\n        /* \"#utility.yul\":14495:14514   */\n      add\n        /* \"#utility.yul\":14489:14515   */\n      mload\n        /* \"#utility.yul\":14481:14487   */\n      dup3\n        /* \"#utility.yul\":14474:14516   */\n      sstore\n        /* \"#utility.yul\":14555:14556   */\n      0x01\n        /* \"#utility.yul\":14547:14553   */\n      dup3\n        /* \"#utility.yul\":14543:14557   */\n      add\n        /* \"#utility.yul\":14533:14557   */\n      swap2\n      pop\n        /* \"#utility.yul\":14602:14604   */\n      0x20\n        /* \"#utility.yul\":14591:14600   */\n      dup6\n        /* \"#utility.yul\":14587:14605   */\n      add\n        /* \"#utility.yul\":14574:14605   */\n      swap5\n      pop\n        /* \"#utility.yul\":14448:14452   */\n      0x20\n        /* \"#utility.yul\":14445:14446   */\n      dup2\n        /* \"#utility.yul\":14441:14453   */\n      add\n        /* \"#utility.yul\":14436:14453   */\n      swap1\n      pop\n        /* \"#utility.yul\":14411:14619   */\n      jump(tag_299)\n    tag_301:\n        /* \"#utility.yul\":14647:14653   */\n      dup7\n        /* \"#utility.yul\":14638:14645   */\n      dup4\n        /* \"#utility.yul\":14635:14654   */\n      lt\n        /* \"#utility.yul\":14632:14811   */\n      iszero\n      tag_302\n      jumpi\n        /* \"#utility.yul\":14705:14714   */\n      dup5\n        /* \"#utility.yul\":14700:14703   */\n      dup10\n        /* \"#utility.yul\":14696:14715   */\n      add\n        /* \"#utility.yul\":14690:14716   */\n      mload\n        /* \"#utility.yul\":14748:14796   */\n      tag_303\n        /* \"#utility.yul\":14790:14794   */\n      0x1f\n        /* \"#utility.yul\":14782:14788   */\n      dup10\n        /* \"#utility.yul\":14778:14795   */\n      and\n        /* \"#utility.yul\":14767:14776   */\n      dup3\n        /* \"#utility.yul\":14748:14796   */\n      tag_123\n      jump\t// in\n    tag_303:\n        /* \"#utility.yul\":14740:14746   */\n      dup4\n        /* \"#utility.yul\":14733:14797   */\n      sstore\n        /* \"#utility.yul\":14655:14811   */\n      pop\n        /* \"#utility.yul\":14632:14811   */\n    tag_302:\n        /* \"#utility.yul\":14857:14858   */\n      0x01\n        /* \"#utility.yul\":14853:14854   */\n      0x02\n        /* \"#utility.yul\":14845:14851   */\n      dup9\n        /* \"#utility.yul\":14841:14855   */\n      mul\n        /* \"#utility.yul\":14837:14859   */\n      add\n        /* \"#utility.yul\":14831:14835   */\n      dup9\n        /* \"#utility.yul\":14824:14860   */\n      sstore\n        /* \"#utility.yul\":14259:14870   */\n      pop\n      pop\n      pop\n        /* \"#utility.yul\":14222:15109   */\n    tag_294:\n      pop\n        /* \"#utility.yul\":13812:15115   */\n      pop\n      pop\n      pop\n        /* \"#utility.yul\":13720:15115   */\n      pop\n      pop\n      jump\t// out\n        /* \"#utility.yul\":15121:15354   */\n    tag_53:\n        /* \"#utility.yul\":15160:15163   */\n      0x00\n        /* \"#utility.yul\":15183:15207   */\n      tag_305\n        /* \"#utility.yul\":15201:15206   */\n      dup3\n        /* \"#utility.yul\":15183:15207   */\n      tag_80\n      jump\t// in\n    tag_305:\n        /* \"#utility.yul\":15174:15207   */\n      swap2\n      pop\n        /* \"#utility.yul\":15229:15295   */\n      0xffffffffffffffffffffffffffffffffffffffffffffffffffffffffffffffff\n        /* \"#utility.yul\":15222:15227   */\n      dup3\n        /* \"#utility.yul\":15219:15296   */\n      sub\n        /* \"#utility.yul\":15216:15319   */\n      tag_306\n      jumpi\n        /* \"#utility.yul\":15299:15317   */\n      tag_307\n      tag_107\n      jump\t// in\n    tag_307:\n        /* \"#utility.yul\":15216:15319   */\n    tag_306:\n        /* \"#utility.yul\":15346:15347   */\n      0x01\n        /* \"#utility.yul\":15339:15344   */\n      dup3\n        /* \"#utility.yul\":15335:15348   */\n      add\n        /* \"#utility.yul\":15328:15348   */\n      swap1\n      pop\n        /* \"#utility.yul\":15121:15354   */\n      swap2\n      swap1\n      pop\n      jump\t// out\n        /* \"#utility.yul\":15360:15542   */\n    tag_125:\n        /* \"#utility.yul\":15500:15534   */\n      0x4163636f6d6d6f646174696f6e20494420646f6573206e6f742065786973742e\n        /* \"#utility.yul\":15496:15497   */\n      0x00\n        /* \"#utility.yul\":15488:15494   */\n      dup3\n        /* \"#utility.yul\":15484:15498   */\n      add\n        /* \"#utility.yul\":15477:15535   */\n      mstore\n        /* \"#utility.yul\":15360:15542   */\n      pop\n      jump\t// out\n        /* \"#utility.yul\":15548:15914   */\n    tag_126:\n        /* \"#utility.yul\":15690:15693   */\n      0x00\n        /* \"#utility.yul\":15711:15778   */\n      tag_310\n        /* \"#utility.yul\":15775:15777   */\n      0x20\n        /* \"#utility.yul\":15770:15773   */\n      dup4\n        /* \"#utility.yul\":15711:15778   */\n      tag_98\n      jump\t// in\n    tag_310:\n        /* \"#utility.yul\":15704:15778   */\n      swap2\n      pop\n        /* \"#utility.yul\":15787:15880   */\n      tag_311\n        /* \"#utility.yul\":15876:15879   */\n      dup3\n        /* \"#utility.yul\":15787:15880   */\n      tag_125\n      jump\t// in\n    tag_311:\n        /* \"#utility.yul\":15905:15907   */\n      0x20\n        /* \"#utility.yul\":15900:15903   */\n      dup3\n        /* \"#utility.yul\":15896:15908   */\n      add\n        /* \"#utility.yul\":15889:15908   */\n      swap1\n      pop\n        /* \"#utility.yul\":15548:15914   */\n      swap2\n      swap1\n      pop\n      jump\t// out\n        /* \"#utility.yul\":15920:16339   */\n    tag_57:\n        /* \"#utility.yul\":16086:16090   */\n      0x00\n        /* \"#utility.yul\":16124:16126   */\n      0x20\n        /* \"#utility.yul\":16113:16122   */\n      dup3\n        /* \"#utility.yul\":16109:16127   */\n      add\n        /* \"#utility.yul\":16101:16127   */\n      swap1\n      pop\n        /* \"#utility.yul\":16173:16182   */\n      dup2\n        /* \"#utility.yul\":16167:16171   */\n      dup2\n        /* \"#utility.yul\":16163:16183   */\n      sub\n        /* \"#utility.yul\":16159:16160   */\n      0x00\n        /* \"#utility.yul\":16148:16157   */\n      dup4\n        /* \"#utility.yul\":16144:16161   */\n      add\n        /* \"#utility.yul\":16137:16184   */\n      mstore\n        /* \"#utility.yul\":16201:16332   */\n      tag_313\n        /* \"#utility.yul\":16327:16331   */\n      dup2\n        /* \"#utility.yul\":16201:16332   */\n      tag_126\n      jump\t// in\n    tag_313:\n        /* \"#utility.yul\":16193:16332   */\n      swap1\n      pop\n        /* \"#utility.yul\":15920:16339   */\n      swap2\n      swap1\n      pop\n      jump\t// out\n\n    auxdata: 0xa26469706673582212204a4d1652265e816176a9882cd31f087868a918657ed011f5e5665a894c3fe81d64736f6c63430008160033\n}\n",
				"bytecode": {
					"linkReferences": {},
					"object": "608060405234801561000f575f80fd5b50610f2d8061001d5f395ff3fe608060405234801561000f575f80fd5b5060043610610060575f3560e01c80631a92c87514610064578063479ad4c31461008257806382b01cdf1461009e578063abad2243146100ba578063d40a7315146100ec578063d599db2914610108575b5f80fd5b61006c61013a565b6040516100799190610607565b60405180910390f35b61009c6004803603810190610097919061065b565b610140565b005b6100b860048036038101906100b391906107c2565b610274565b005b6100d460048036038101906100cf919061065b565b6102ff565b6040516100e3939291906108b0565b60405180910390f35b61010660048036038101906101019190610916565b610434565b005b610122600480360381019061011d919061065b565b6104e0565b604051610131939291906108b0565b60405180910390f35b60015481565b6001548110610184576040517f08c379a000000000000000000000000000000000000000000000000000000000815260040161017b906109e0565b60405180910390fd5b600180546101929190610a2b565b811015610212575f80600180546101a99190610a2b565b81526020019081526020015f205f808381526020019081526020015f205f8201815f0190816101d89190610c6d565b5060018201548160010155600282015f9054906101000a900460ff16816002015f6101000a81548160ff0219169083151502179055509050505b5f80600180546102229190610a2b565b81526020019081526020015f205f8082015f61023e9190610597565b600182015f9055600282015f6101000a81549060ff0219169055505060015f81548092919061026c90610d52565b919050555050565b6040518060600160405280838152602001828152602001600115158152505f8060015481526020019081526020015f205f820151815f0190816102b79190610d79565b50602082015181600101556040820151816002015f6101000a81548160ff02191690831515021790555090505060015f8154809291906102f690610e48565b91905055505050565b60605f806001548410610347576040517f08c379a000000000000000000000000000000000000000000000000000000000815260040161033e90610ed9565b60405180910390fd5b5f805f8681526020019081526020015f206040518060600160405290815f8201805461037290610a8b565b80601f016020809104026020016040519081016040528092919081815260200182805461039e90610a8b565b80156103e95780601f106103c0576101008083540402835291602001916103e9565b820191905f5260205f20905b8154815290600101906020018083116103cc57829003601f168201915b5050505050815260200160018201548152602001600282015f9054906101000a900460ff1615151515815250509050805f015181602001518260400151935093509350509193909250565b6001548410610478576040517f08c379a000000000000000000000000000000000000000000000000000000000815260040161046f90610ed9565b60405180910390fd5b825f808681526020019081526020015f205f0190816104979190610d79565b50815f808681526020019081526020015f2060010181905550805f808681526020019081526020015f206002015f6101000a81548160ff02191690831515021790555050505050565b5f602052805f5260405f205f91509050805f0180546104fe90610a8b565b80601f016020809104026020016040519081016040528092919081815260200182805461052a90610a8b565b80156105755780601f1061054c57610100808354040283529160200191610575565b820191905f5260205f20905b81548152906001019060200180831161055857829003601f168201915b505050505090806001015490806002015f9054906101000a900460ff16905083565b5080546105a390610a8b565b5f825580601f106105b457506105d1565b601f0160209004905f5260205f20908101906105d091906105d4565b5b50565b5b808211156105eb575f815f9055506001016105d5565b5090565b5f819050919050565b610601816105ef565b82525050565b5f60208201905061061a5f8301846105f8565b92915050565b5f604051905090565b5f80fd5b5f80fd5b61063a816105ef565b8114610644575f80fd5b50565b5f8135905061065581610631565b92915050565b5f602082840312156106705761066f610629565b5b5f61067d84828501610647565b91505092915050565b5f80fd5b5f80fd5b5f601f19601f8301169050919050565b7f4e487b71000000000000000000000000000000000000000000000000000000005f52604160045260245ffd5b6106d48261068e565b810181811067ffffffffffffffff821117156106f3576106f261069e565b5b80604052505050565b5f610705610620565b905061071182826106cb565b919050565b5f67ffffffffffffffff8211156107305761072f61069e565b5b6107398261068e565b9050602081019050919050565b828183375f83830152505050565b5f61076661076184610716565b6106fc565b9050828152602081018484840111156107825761078161068a565b5b61078d848285610746565b509392505050565b5f82601f8301126107a9576107a8610686565b5b81356107b9848260208601610754565b91505092915050565b5f80604083850312156107d8576107d7610629565b5b5f83013567ffffffffffffffff8111156107f5576107f461062d565b5b61080185828601610795565b925050602061081285828601610647565b9150509250929050565b5f81519050919050565b5f82825260208201905092915050565b5f5b83811015610853578082015181840152602081019050610838565b5f8484015250505050565b5f6108688261081c565b6108728185610826565b9350610882818560208601610836565b61088b8161068e565b840191505092915050565b5f8115159050919050565b6108aa81610896565b82525050565b5f6060820190508181035f8301526108c8818661085e565b90506108d760208301856105f8565b6108e460408301846108a1565b949350505050565b6108f581610896565b81146108ff575f80fd5b50565b5f81359050610910816108ec565b92915050565b5f805f806080858703121561092e5761092d610629565b5b5f61093b87828801610647565b945050602085013567ffffffffffffffff81111561095c5761095b61062d565b5b61096887828801610795565b935050604061097987828801610647565b925050606061098a87828801610902565b91505092959194509250565b7f4e6f6e2076616c6964206163636f6d6f646174696f6e204944000000000000005f82015250565b5f6109ca601983610826565b91506109d582610996565b602082019050919050565b5f6020820190508181035f8301526109f7816109be565b9050919050565b7f4e487b71000000000000000000000000000000000000000000000000000000005f52601160045260245ffd5b5f610a35826105ef565b9150610a40836105ef565b9250828203905081811115610a5857610a576109fe565b5b92915050565b7f4e487b71000000000000000000000000000000000000000000000000000000005f52602260045260245ffd5b5f6002820490506001821680610aa257607f821691505b602082108103610ab557610ab4610a5e565b5b50919050565b5f81549050610ac981610a8b565b9050919050565b5f819050815f5260205f209050919050565b5f6020601f8301049050919050565b5f82821b905092915050565b5f60088302610b2c7fffffffffffffffffffffffffffffffffffffffffffffffffffffffffffffffff82610af1565b610b368683610af1565b95508019841693508086168417925050509392505050565b5f819050919050565b5f610b71610b6c610b67846105ef565b610b4e565b6105ef565b9050919050565b5f819050919050565b610b8a83610b57565b610b9e610b9682610b78565b848454610afd565b825550505050565b5f90565b610bb2610ba6565b610bbd818484610b81565b505050565b5b81811015610be057610bd55f82610baa565b600181019050610bc3565b5050565b601f821115610c2557610bf681610ad0565b610bff84610ae2565b81016020851015610c0e578190505b610c22610c1a85610ae2565b830182610bc2565b50505b505050565b5f82821c905092915050565b5f610c455f1984600802610c2a565b1980831691505092915050565b5f610c5d8383610c36565b9150826002028217905092915050565b818103610c7b575050610d50565b610c8482610abb565b67ffffffffffffffff811115610c9d57610c9c61069e565b5b610ca78254610a8b565b610cb2828285610be4565b5f601f831160018114610cdf575f8415610ccd578287015490505b610cd78582610c52565b865550610d49565b601f198416610ced87610ad0565b9650610cf886610ad0565b5f5b82811015610d1f57848901548255600182019150600185019450602081019050610cfa565b86831015610d3c5784890154610d38601f891682610c36565b8355505b6001600288020188555050505b5050505050505b565b5f610d5c826105ef565b91505f8203610d6e57610d6d6109fe565b5b600182039050919050565b610d828261081c565b67ffffffffffffffff811115610d9b57610d9a61069e565b5b610da58254610a8b565b610db0828285610be4565b5f60209050601f831160018114610de1575f8415610dcf578287015190505b610dd98582610c52565b865550610e40565b601f198416610def86610ad0565b5f5b82811015610e1657848901518255600182019150602085019450602081019050610df1565b86831015610e335784890151610e2f601f891682610c36565b8355505b6001600288020188555050505b505050505050565b5f610e52826105ef565b91507fffffffffffffffffffffffffffffffffffffffffffffffffffffffffffffffff8203610e8457610e836109fe565b5b600182019050919050565b7f4163636f6d6d6f646174696f6e20494420646f6573206e6f742065786973742e5f82015250565b5f610ec3602083610826565b9150610ece82610e8f565b602082019050919050565b5f6020820190508181035f830152610ef081610eb7565b905091905056fea26469706673582212204a4d1652265e816176a9882cd31f087868a918657ed011f5e5665a894c3fe81d64736f6c63430008160033",
					"opcodes": "PUSH1 0x80 PUSH1 0x40 MSTORE CALLVALUE DUP1 ISZERO PUSH2 0xF JUMPI PUSH0 DUP1 REVERT JUMPDEST POP PUSH2 0xF2D DUP1 PUSH2 0x1D PUSH0 CODECOPY PUSH0 RETURN INVALID PUSH1 0x80 PUSH1 0x40 MSTORE CALLVALUE DUP1 ISZERO PUSH2 0xF JUMPI PUSH0 DUP1 REVERT JUMPDEST POP PUSH1 0x4 CALLDATASIZE LT PUSH2 0x60 JUMPI PUSH0 CALLDATALOAD PUSH1 0xE0 SHR DUP1 PUSH4 0x1A92C875 EQ PUSH2 0x64 JUMPI DUP1 PUSH4 0x479AD4C3 EQ PUSH2 0x82 JUMPI DUP1 PUSH4 0x82B01CDF EQ PUSH2 0x9E JUMPI DUP1 PUSH4 0xABAD2243 EQ PUSH2 0xBA JUMPI DUP1 PUSH4 0xD40A7315 EQ PUSH2 0xEC JUMPI DUP1 PUSH4 0xD599DB29 EQ PUSH2 0x108 JUMPI JUMPDEST PUSH0 DUP1 REVERT JUMPDEST PUSH2 0x6C PUSH2 0x13A JUMP JUMPDEST PUSH1 0x40 MLOAD PUSH2 0x79 SWAP2 SWAP1 PUSH2 0x607 JUMP JUMPDEST PUSH1 0x40 MLOAD DUP1 SWAP2 SUB SWAP1 RETURN JUMPDEST PUSH2 0x9C PUSH1 0x4 DUP1 CALLDATASIZE SUB DUP2 ADD SWAP1 PUSH2 0x97 SWAP2 SWAP1 PUSH2 0x65B JUMP JUMPDEST PUSH2 0x140 JUMP JUMPDEST STOP JUMPDEST PUSH2 0xB8 PUSH1 0x4 DUP1 CALLDATASIZE SUB DUP2 ADD SWAP1 PUSH2 0xB3 SWAP2 SWAP1 PUSH2 0x7C2 JUMP JUMPDEST PUSH2 0x274 JUMP JUMPDEST STOP JUMPDEST PUSH2 0xD4 PUSH1 0x4 DUP1 CALLDATASIZE SUB DUP2 ADD SWAP1 PUSH2 0xCF SWAP2 SWAP1 PUSH2 0x65B JUMP JUMPDEST PUSH2 0x2FF JUMP JUMPDEST PUSH1 0x40 MLOAD PUSH2 0xE3 SWAP4 SWAP3 SWAP2 SWAP1 PUSH2 0x8B0 JUMP JUMPDEST PUSH1 0x40 MLOAD DUP1 SWAP2 SUB SWAP1 RETURN JUMPDEST PUSH2 0x106 PUSH1 0x4 DUP1 CALLDATASIZE SUB DUP2 ADD SWAP1 PUSH2 0x101 SWAP2 SWAP1 PUSH2 0x916 JUMP JUMPDEST PUSH2 0x434 JUMP JUMPDEST STOP JUMPDEST PUSH2 0x122 PUSH1 0x4 DUP1 CALLDATASIZE SUB DUP2 ADD SWAP1 PUSH2 0x11D SWAP2 SWAP1 PUSH2 0x65B JUMP JUMPDEST PUSH2 0x4E0 JUMP JUMPDEST PUSH1 0x40 MLOAD PUSH2 0x131 SWAP4 SWAP3 SWAP2 SWAP1 PUSH2 0x8B0 JUMP JUMPDEST PUSH1 0x40 MLOAD DUP1 SWAP2 SUB SWAP1 RETURN JUMPDEST PUSH1 0x1 SLOAD DUP2 JUMP JUMPDEST PUSH1 0x1 SLOAD DUP2 LT PUSH2 0x184 JUMPI PUSH1 0x40 MLOAD PUSH32 0x8C379A000000000000000000000000000000000000000000000000000000000 DUP2 MSTORE PUSH1 0x4 ADD PUSH2 0x17B SWAP1 PUSH2 0x9E0 JUMP JUMPDEST PUSH1 0x40 MLOAD DUP1 SWAP2 SUB SWAP1 REVERT JUMPDEST PUSH1 0x1 DUP1 SLOAD PUSH2 0x192 SWAP2 SWAP1 PUSH2 0xA2B JUMP JUMPDEST DUP2 LT ISZERO PUSH2 0x212 JUMPI PUSH0 DUP1 PUSH1 0x1 DUP1 SLOAD PUSH2 0x1A9 SWAP2 SWAP1 PUSH2 0xA2B JUMP JUMPDEST DUP2 MSTORE PUSH1 0x20 ADD SWAP1 DUP2 MSTORE PUSH1 0x20 ADD PUSH0 KECCAK256 PUSH0 DUP1 DUP4 DUP2 MSTORE PUSH1 0x20 ADD SWAP1 DUP2 MSTORE PUSH1 0x20 ADD PUSH0 KECCAK256 PUSH0 DUP3 ADD DUP2 PUSH0 ADD SWAP1 DUP2 PUSH2 0x1D8 SWAP2 SWAP1 PUSH2 0xC6D JUMP JUMPDEST POP PUSH1 0x1 DUP3 ADD SLOAD DUP2 PUSH1 0x1 ADD SSTORE PUSH1 0x2 DUP3 ADD PUSH0 SWAP1 SLOAD SWAP1 PUSH2 0x100 EXP SWAP1 DIV PUSH1 0xFF AND DUP2 PUSH1 0x2 ADD PUSH0 PUSH2 0x100 EXP DUP2 SLOAD DUP2 PUSH1 0xFF MUL NOT AND SWAP1 DUP4 ISZERO ISZERO MUL OR SWAP1 SSTORE POP SWAP1 POP POP JUMPDEST PUSH0 DUP1 PUSH1 0x1 DUP1 SLOAD PUSH2 0x222 SWAP2 SWAP1 PUSH2 0xA2B JUMP JUMPDEST DUP2 MSTORE PUSH1 0x20 ADD SWAP1 DUP2 MSTORE PUSH1 0x20 ADD PUSH0 KECCAK256 PUSH0 DUP1 DUP3 ADD PUSH0 PUSH2 0x23E SWAP2 SWAP1 PUSH2 0x597 JUMP JUMPDEST PUSH1 0x1 DUP3 ADD PUSH0 SWAP1 SSTORE PUSH1 0x2 DUP3 ADD PUSH0 PUSH2 0x100 EXP DUP2 SLOAD SWAP1 PUSH1 0xFF MUL NOT AND SWAP1 SSTORE POP POP PUSH1 0x1 PUSH0 DUP2 SLOAD DUP1 SWAP3 SWAP2 SWAP1 PUSH2 0x26C SWAP1 PUSH2 0xD52 JUMP JUMPDEST SWAP2 SWAP1 POP SSTORE POP POP JUMP JUMPDEST PUSH1 0x40 MLOAD DUP1 PUSH1 0x60 ADD PUSH1 0x40 MSTORE DUP1 DUP4 DUP2 MSTORE PUSH1 0x20 ADD DUP3 DUP2 MSTORE PUSH1 0x20 ADD PUSH1 0x1 ISZERO ISZERO DUP2 MSTORE POP PUSH0 DUP1 PUSH1 0x1 SLOAD DUP2 MSTORE PUSH1 0x20 ADD SWAP1 DUP2 MSTORE PUSH1 0x20 ADD PUSH0 KECCAK256 PUSH0 DUP3 ADD MLOAD DUP2 PUSH0 ADD SWAP1 DUP2 PUSH2 0x2B7 SWAP2 SWAP1 PUSH2 0xD79 JUMP JUMPDEST POP PUSH1 0x20 DUP3 ADD MLOAD DUP2 PUSH1 0x1 ADD SSTORE PUSH1 0x40 DUP3 ADD MLOAD DUP2 PUSH1 0x2 ADD PUSH0 PUSH2 0x100 EXP DUP2 SLOAD DUP2 PUSH1 0xFF MUL NOT AND SWAP1 DUP4 ISZERO ISZERO MUL OR SWAP1 SSTORE POP SWAP1 POP POP PUSH1 0x1 PUSH0 DUP2 SLOAD DUP1 SWAP3 SWAP2 SWAP1 PUSH2 0x2F6 SWAP1 PUSH2 0xE48 JUMP JUMPDEST SWAP2 SWAP1 POP SSTORE POP POP POP JUMP JUMPDEST PUSH1 0x60 PUSH0 DUP1 PUSH1 0x1 SLOAD DUP5 LT PUSH2 0x347 JUMPI PUSH1 0x40 MLOAD PUSH32 0x8C379A000000000000000000000000000000000000000000000000000000000 DUP2 MSTORE PUSH1 0x4 ADD PUSH2 0x33E SWAP1 PUSH2 0xED9 JUMP JUMPDEST PUSH1 0x40 MLOAD DUP1 SWAP2 SUB SWAP1 REVERT JUMPDEST PUSH0 DUP1 PUSH0 DUP7 DUP2 MSTORE PUSH1 0x20 ADD SWAP1 DUP2 MSTORE PUSH1 0x20 ADD PUSH0 KECCAK256 PUSH1 0x40 MLOAD DUP1 PUSH1 0x60 ADD PUSH1 0x40 MSTORE SWAP1 DUP2 PUSH0 DUP3 ADD DUP1 SLOAD PUSH2 0x372 SWAP1 PUSH2 0xA8B JUMP JUMPDEST DUP1 PUSH1 0x1F ADD PUSH1 0x20 DUP1 SWAP2 DIV MUL PUSH1 0x20 ADD PUSH1 0x40 MLOAD SWAP1 DUP2 ADD PUSH1 0x40 MSTORE DUP1 SWAP3 SWAP2 SWAP1 DUP2 DUP2 MSTORE PUSH1 0x20 ADD DUP3 DUP1 SLOAD PUSH2 0x39E SWAP1 PUSH2 0xA8B JUMP JUMPDEST DUP1 ISZERO PUSH2 0x3E9 JUMPI DUP1 PUSH1 0x1F LT PUSH2 0x3C0 JUMPI PUSH2 0x100 DUP1 DUP4 SLOAD DIV MUL DUP4 MSTORE SWAP2 PUSH1 0x20 ADD SWAP2 PUSH2 0x3E9 JUMP JUMPDEST DUP3 ADD SWAP2 SWAP1 PUSH0 MSTORE PUSH1 0x20 PUSH0 KECCAK256 SWAP1 JUMPDEST DUP2 SLOAD DUP2 MSTORE SWAP1 PUSH1 0x1 ADD SWAP1 PUSH1 0x20 ADD DUP1 DUP4 GT PUSH2 0x3CC JUMPI DUP3 SWAP1 SUB PUSH1 0x1F AND DUP3 ADD SWAP2 JUMPDEST POP POP POP POP POP DUP2 MSTORE PUSH1 0x20 ADD PUSH1 0x1 DUP3 ADD SLOAD DUP2 MSTORE PUSH1 0x20 ADD PUSH1 0x2 DUP3 ADD PUSH0 SWAP1 SLOAD SWAP1 PUSH2 0x100 EXP SWAP1 DIV PUSH1 0xFF AND ISZERO ISZERO ISZERO ISZERO DUP2 MSTORE POP POP SWAP1 POP DUP1 PUSH0 ADD MLOAD DUP2 PUSH1 0x20 ADD MLOAD DUP3 PUSH1 0x40 ADD MLOAD SWAP4 POP SWAP4 POP SWAP4 POP POP SWAP2 SWAP4 SWAP1 SWAP3 POP JUMP JUMPDEST PUSH1 0x1 SLOAD DUP5 LT PUSH2 0x478 JUMPI PUSH1 0x40 MLOAD PUSH32 0x8C379A000000000000000000000000000000000000000000000000000000000 DUP2 MSTORE PUSH1 0x4 ADD PUSH2 0x46F SWAP1 PUSH2 0xED9 JUMP JUMPDEST PUSH1 0x40 MLOAD DUP1 SWAP2 SUB SWAP1 REVERT JUMPDEST DUP3 PUSH0 DUP1 DUP7 DUP2 MSTORE PUSH1 0x20 ADD SWAP1 DUP2 MSTORE PUSH1 0x20 ADD PUSH0 KECCAK256 PUSH0 ADD SWAP1 DUP2 PUSH2 0x497 SWAP2 SWAP1 PUSH2 0xD79 JUMP JUMPDEST POP DUP2 PUSH0 DUP1 DUP7 DUP2 MSTORE PUSH1 0x20 ADD SWAP1 DUP2 MSTORE PUSH1 0x20 ADD PUSH0 KECCAK256 PUSH1 0x1 ADD DUP2 SWAP1 SSTORE POP DUP1 PUSH0 DUP1 DUP7 DUP2 MSTORE PUSH1 0x20 ADD SWAP1 DUP2 MSTORE PUSH1 0x20 ADD PUSH0 KECCAK256 PUSH1 0x2 ADD PUSH0 PUSH2 0x100 EXP DUP2 SLOAD DUP2 PUSH1 0xFF MUL NOT AND SWAP1 DUP4 ISZERO ISZERO MUL OR SWAP1 SSTORE POP POP POP POP POP JUMP JUMPDEST PUSH0 PUSH1 0x20 MSTORE DUP1 PUSH0 MSTORE PUSH1 0x40 PUSH0 KECCAK256 PUSH0 SWAP2 POP SWAP1 POP DUP1 PUSH0 ADD DUP1 SLOAD PUSH2 0x4FE SWAP1 PUSH2 0xA8B JUMP JUMPDEST DUP1 PUSH1 0x1F ADD PUSH1 0x20 DUP1 SWAP2 DIV MUL PUSH1 0x20 ADD PUSH1 0x40 MLOAD SWAP1 DUP2 ADD PUSH1 0x40 MSTORE DUP1 SWAP3 SWAP2 SWAP1 DUP2 DUP2 MSTORE PUSH1 0x20 ADD DUP3 DUP1 SLOAD PUSH2 0x52A SWAP1 PUSH2 0xA8B JUMP JUMPDEST DUP1 ISZERO PUSH2 0x575 JUMPI DUP1 PUSH1 0x1F LT PUSH2 0x54C JUMPI PUSH2 0x100 DUP1 DUP4 SLOAD DIV MUL DUP4 MSTORE SWAP2 PUSH1 0x20 ADD SWAP2 PUSH2 0x575 JUMP JUMPDEST DUP3 ADD SWAP2 SWAP1 PUSH0 MSTORE PUSH1 0x20 PUSH0 KECCAK256 SWAP1 JUMPDEST DUP2 SLOAD DUP2 MSTORE SWAP1 PUSH1 0x1 ADD SWAP1 PUSH1 0x20 ADD DUP1 DUP4 GT PUSH2 0x558 JUMPI DUP3 SWAP1 SUB PUSH1 0x1F AND DUP3 ADD SWAP2 JUMPDEST POP POP POP POP POP SWAP1 DUP1 PUSH1 0x1 ADD SLOAD SWAP1 DUP1 PUSH1 0x2 ADD PUSH0 SWAP1 SLOAD SWAP1 PUSH2 0x100 EXP SWAP1 DIV PUSH1 0xFF AND SWAP1 POP DUP4 JUMP JUMPDEST POP DUP1 SLOAD PUSH2 0x5A3 SWAP1 PUSH2 0xA8B JUMP JUMPDEST PUSH0 DUP3 SSTORE DUP1 PUSH1 0x1F LT PUSH2 0x5B4 JUMPI POP PUSH2 0x5D1 JUMP JUMPDEST PUSH1 0x1F ADD PUSH1 0x20 SWAP1 DIV SWAP1 PUSH0 MSTORE PUSH1 0x20 PUSH0 KECCAK256 SWAP1 DUP2 ADD SWAP1 PUSH2 0x5D0 SWAP2 SWAP1 PUSH2 0x5D4 JUMP JUMPDEST JUMPDEST POP JUMP JUMPDEST JUMPDEST DUP1 DUP3 GT ISZERO PUSH2 0x5EB JUMPI PUSH0 DUP2 PUSH0 SWAP1 SSTORE POP PUSH1 0x1 ADD PUSH2 0x5D5 JUMP JUMPDEST POP SWAP1 JUMP JUMPDEST PUSH0 DUP2 SWAP1 POP SWAP2 SWAP1 POP JUMP JUMPDEST PUSH2 0x601 DUP2 PUSH2 0x5EF JUMP JUMPDEST DUP3 MSTORE POP POP JUMP JUMPDEST PUSH0 PUSH1 0x20 DUP3 ADD SWAP1 POP PUSH2 0x61A PUSH0 DUP4 ADD DUP5 PUSH2 0x5F8 JUMP JUMPDEST SWAP3 SWAP2 POP POP JUMP JUMPDEST PUSH0 PUSH1 0x40 MLOAD SWAP1 POP SWAP1 JUMP JUMPDEST PUSH0 DUP1 REVERT JUMPDEST PUSH0 DUP1 REVERT JUMPDEST PUSH2 0x63A DUP2 PUSH2 0x5EF JUMP JUMPDEST DUP2 EQ PUSH2 0x644 JUMPI PUSH0 DUP1 REVERT JUMPDEST POP JUMP JUMPDEST PUSH0 DUP2 CALLDATALOAD SWAP1 POP PUSH2 0x655 DUP2 PUSH2 0x631 JUMP JUMPDEST SWAP3 SWAP2 POP POP JUMP JUMPDEST PUSH0 PUSH1 0x20 DUP3 DUP5 SUB SLT ISZERO PUSH2 0x670 JUMPI PUSH2 0x66F PUSH2 0x629 JUMP JUMPDEST JUMPDEST PUSH0 PUSH2 0x67D DUP5 DUP3 DUP6 ADD PUSH2 0x647 JUMP JUMPDEST SWAP2 POP POP SWAP3 SWAP2 POP POP JUMP JUMPDEST PUSH0 DUP1 REVERT JUMPDEST PUSH0 DUP1 REVERT JUMPDEST PUSH0 PUSH1 0x1F NOT PUSH1 0x1F DUP4 ADD AND SWAP1 POP SWAP2 SWAP1 POP JUMP JUMPDEST PUSH32 0x4E487B7100000000000000000000000000000000000000000000000000000000 PUSH0 MSTORE PUSH1 0x41 PUSH1 0x4 MSTORE PUSH1 0x24 PUSH0 REVERT JUMPDEST PUSH2 0x6D4 DUP3 PUSH2 0x68E JUMP JUMPDEST DUP2 ADD DUP2 DUP2 LT PUSH8 0xFFFFFFFFFFFFFFFF DUP3 GT OR ISZERO PUSH2 0x6F3 JUMPI PUSH2 0x6F2 PUSH2 0x69E JUMP JUMPDEST JUMPDEST DUP1 PUSH1 0x40 MSTORE POP POP POP JUMP JUMPDEST PUSH0 PUSH2 0x705 PUSH2 0x620 JUMP JUMPDEST SWAP1 POP PUSH2 0x711 DUP3 DUP3 PUSH2 0x6CB JUMP JUMPDEST SWAP2 SWAP1 POP JUMP JUMPDEST PUSH0 PUSH8 0xFFFFFFFFFFFFFFFF DUP3 GT ISZERO PUSH2 0x730 JUMPI PUSH2 0x72F PUSH2 0x69E JUMP JUMPDEST JUMPDEST PUSH2 0x739 DUP3 PUSH2 0x68E JUMP JUMPDEST SWAP1 POP PUSH1 0x20 DUP2 ADD SWAP1 POP SWAP2 SWAP1 POP JUMP JUMPDEST DUP3 DUP2 DUP4 CALLDATACOPY PUSH0 DUP4 DUP4 ADD MSTORE POP POP POP JUMP JUMPDEST PUSH0 PUSH2 0x766 PUSH2 0x761 DUP5 PUSH2 0x716 JUMP JUMPDEST PUSH2 0x6FC JUMP JUMPDEST SWAP1 POP DUP3 DUP2 MSTORE PUSH1 0x20 DUP2 ADD DUP5 DUP5 DUP5 ADD GT ISZERO PUSH2 0x782 JUMPI PUSH2 0x781 PUSH2 0x68A JUMP JUMPDEST JUMPDEST PUSH2 0x78D DUP5 DUP3 DUP6 PUSH2 0x746 JUMP JUMPDEST POP SWAP4 SWAP3 POP POP POP JUMP JUMPDEST PUSH0 DUP3 PUSH1 0x1F DUP4 ADD SLT PUSH2 0x7A9 JUMPI PUSH2 0x7A8 PUSH2 0x686 JUMP JUMPDEST JUMPDEST DUP2 CALLDATALOAD PUSH2 0x7B9 DUP5 DUP3 PUSH1 0x20 DUP7 ADD PUSH2 0x754 JUMP JUMPDEST SWAP2 POP POP SWAP3 SWAP2 POP POP JUMP JUMPDEST PUSH0 DUP1 PUSH1 0x40 DUP4 DUP6 SUB SLT ISZERO PUSH2 0x7D8 JUMPI PUSH2 0x7D7 PUSH2 0x629 JUMP JUMPDEST JUMPDEST PUSH0 DUP4 ADD CALLDATALOAD PUSH8 0xFFFFFFFFFFFFFFFF DUP2 GT ISZERO PUSH2 0x7F5 JUMPI PUSH2 0x7F4 PUSH2 0x62D JUMP JUMPDEST JUMPDEST PUSH2 0x801 DUP6 DUP3 DUP7 ADD PUSH2 0x795 JUMP JUMPDEST SWAP3 POP POP PUSH1 0x20 PUSH2 0x812 DUP6 DUP3 DUP7 ADD PUSH2 0x647 JUMP JUMPDEST SWAP2 POP POP SWAP3 POP SWAP3 SWAP1 POP JUMP JUMPDEST PUSH0 DUP2 MLOAD SWAP1 POP SWAP2 SWAP1 POP JUMP JUMPDEST PUSH0 DUP3 DUP3 MSTORE PUSH1 0x20 DUP3 ADD SWAP1 POP SWAP3 SWAP2 POP POP JUMP JUMPDEST PUSH0 JUMPDEST DUP4 DUP2 LT ISZERO PUSH2 0x853 JUMPI DUP1 DUP3 ADD MLOAD DUP2 DUP5 ADD MSTORE PUSH1 0x20 DUP2 ADD SWAP1 POP PUSH2 0x838 JUMP JUMPDEST PUSH0 DUP5 DUP5 ADD MSTORE POP POP POP POP JUMP JUMPDEST PUSH0 PUSH2 0x868 DUP3 PUSH2 0x81C JUMP JUMPDEST PUSH2 0x872 DUP2 DUP6 PUSH2 0x826 JUMP JUMPDEST SWAP4 POP PUSH2 0x882 DUP2 DUP6 PUSH1 0x20 DUP7 ADD PUSH2 0x836 JUMP JUMPDEST PUSH2 0x88B DUP2 PUSH2 0x68E JUMP JUMPDEST DUP5 ADD SWAP2 POP POP SWAP3 SWAP2 POP POP JUMP JUMPDEST PUSH0 DUP2 ISZERO ISZERO SWAP1 POP SWAP2 SWAP1 POP JUMP JUMPDEST PUSH2 0x8AA DUP2 PUSH2 0x896 JUMP JUMPDEST DUP3 MSTORE POP POP JUMP JUMPDEST PUSH0 PUSH1 0x60 DUP3 ADD SWAP1 POP DUP2 DUP2 SUB PUSH0 DUP4 ADD MSTORE PUSH2 0x8C8 DUP2 DUP7 PUSH2 0x85E JUMP JUMPDEST SWAP1 POP PUSH2 0x8D7 PUSH1 0x20 DUP4 ADD DUP6 PUSH2 0x5F8 JUMP JUMPDEST PUSH2 0x8E4 PUSH1 0x40 DUP4 ADD DUP5 PUSH2 0x8A1 JUMP JUMPDEST SWAP5 SWAP4 POP POP POP POP JUMP JUMPDEST PUSH2 0x8F5 DUP2 PUSH2 0x896 JUMP JUMPDEST DUP2 EQ PUSH2 0x8FF JUMPI PUSH0 DUP1 REVERT JUMPDEST POP JUMP JUMPDEST PUSH0 DUP2 CALLDATALOAD SWAP1 POP PUSH2 0x910 DUP2 PUSH2 0x8EC JUMP JUMPDEST SWAP3 SWAP2 POP POP JUMP JUMPDEST PUSH0 DUP1 PUSH0 DUP1 PUSH1 0x80 DUP6 DUP8 SUB SLT ISZERO PUSH2 0x92E JUMPI PUSH2 0x92D PUSH2 0x629 JUMP JUMPDEST JUMPDEST PUSH0 PUSH2 0x93B DUP8 DUP3 DUP9 ADD PUSH2 0x647 JUMP JUMPDEST SWAP5 POP POP PUSH1 0x20 DUP6 ADD CALLDATALOAD PUSH8 0xFFFFFFFFFFFFFFFF DUP2 GT ISZERO PUSH2 0x95C JUMPI PUSH2 0x95B PUSH2 0x62D JUMP JUMPDEST JUMPDEST PUSH2 0x968 DUP8 DUP3 DUP9 ADD PUSH2 0x795 JUMP JUMPDEST SWAP4 POP POP PUSH1 0x40 PUSH2 0x979 DUP8 DUP3 DUP9 ADD PUSH2 0x647 JUMP JUMPDEST SWAP3 POP POP PUSH1 0x60 PUSH2 0x98A DUP8 DUP3 DUP9 ADD PUSH2 0x902 JUMP JUMPDEST SWAP2 POP POP SWAP3 SWAP6 SWAP2 SWAP5 POP SWAP3 POP JUMP JUMPDEST PUSH32 0x4E6F6E2076616C6964206163636F6D6F646174696F6E20494400000000000000 PUSH0 DUP3 ADD MSTORE POP JUMP JUMPDEST PUSH0 PUSH2 0x9CA PUSH1 0x19 DUP4 PUSH2 0x826 JUMP JUMPDEST SWAP2 POP PUSH2 0x9D5 DUP3 PUSH2 0x996 JUMP JUMPDEST PUSH1 0x20 DUP3 ADD SWAP1 POP SWAP2 SWAP1 POP JUMP JUMPDEST PUSH0 PUSH1 0x20 DUP3 ADD SWAP1 POP DUP2 DUP2 SUB PUSH0 DUP4 ADD MSTORE PUSH2 0x9F7 DUP2 PUSH2 0x9BE JUMP JUMPDEST SWAP1 POP SWAP2 SWAP1 POP JUMP JUMPDEST PUSH32 0x4E487B7100000000000000000000000000000000000000000000000000000000 PUSH0 MSTORE PUSH1 0x11 PUSH1 0x4 MSTORE PUSH1 0x24 PUSH0 REVERT JUMPDEST PUSH0 PUSH2 0xA35 DUP3 PUSH2 0x5EF JUMP JUMPDEST SWAP2 POP PUSH2 0xA40 DUP4 PUSH2 0x5EF JUMP JUMPDEST SWAP3 POP DUP3 DUP3 SUB SWAP1 POP DUP2 DUP2 GT ISZERO PUSH2 0xA58 JUMPI PUSH2 0xA57 PUSH2 0x9FE JUMP JUMPDEST JUMPDEST SWAP3 SWAP2 POP POP JUMP JUMPDEST PUSH32 0x4E487B7100000000000000000000000000000000000000000000000000000000 PUSH0 MSTORE PUSH1 0x22 PUSH1 0x4 MSTORE PUSH1 0x24 PUSH0 REVERT JUMPDEST PUSH0 PUSH1 0x2 DUP3 DIV SWAP1 POP PUSH1 0x1 DUP3 AND DUP1 PUSH2 0xAA2 JUMPI PUSH1 0x7F DUP3 AND SWAP2 POP JUMPDEST PUSH1 0x20 DUP3 LT DUP2 SUB PUSH2 0xAB5 JUMPI PUSH2 0xAB4 PUSH2 0xA5E JUMP JUMPDEST JUMPDEST POP SWAP2 SWAP1 POP JUMP JUMPDEST PUSH0 DUP2 SLOAD SWAP1 POP PUSH2 0xAC9 DUP2 PUSH2 0xA8B JUMP JUMPDEST SWAP1 POP SWAP2 SWAP1 POP JUMP JUMPDEST PUSH0 DUP2 SWAP1 POP DUP2 PUSH0 MSTORE PUSH1 0x20 PUSH0 KECCAK256 SWAP1 POP SWAP2 SWAP1 POP JUMP JUMPDEST PUSH0 PUSH1 0x20 PUSH1 0x1F DUP4 ADD DIV SWAP1 POP SWAP2 SWAP1 POP JUMP JUMPDEST PUSH0 DUP3 DUP3 SHL SWAP1 POP SWAP3 SWAP2 POP POP JUMP JUMPDEST PUSH0 PUSH1 0x8 DUP4 MUL PUSH2 0xB2C PUSH32 0xFFFFFFFFFFFFFFFFFFFFFFFFFFFFFFFFFFFFFFFFFFFFFFFFFFFFFFFFFFFFFFFF DUP3 PUSH2 0xAF1 JUMP JUMPDEST PUSH2 0xB36 DUP7 DUP4 PUSH2 0xAF1 JUMP JUMPDEST SWAP6 POP DUP1 NOT DUP5 AND SWAP4 POP DUP1 DUP7 AND DUP5 OR SWAP3 POP POP POP SWAP4 SWAP3 POP POP POP JUMP JUMPDEST PUSH0 DUP2 SWAP1 POP SWAP2 SWAP1 POP JUMP JUMPDEST PUSH0 PUSH2 0xB71 PUSH2 0xB6C PUSH2 0xB67 DUP5 PUSH2 0x5EF JUMP JUMPDEST PUSH2 0xB4E JUMP JUMPDEST PUSH2 0x5EF JUMP JUMPDEST SWAP1 POP SWAP2 SWAP1 POP JUMP JUMPDEST PUSH0 DUP2 SWAP1 POP SWAP2 SWAP1 POP JUMP JUMPDEST PUSH2 0xB8A DUP4 PUSH2 0xB57 JUMP JUMPDEST PUSH2 0xB9E PUSH2 0xB96 DUP3 PUSH2 0xB78 JUMP JUMPDEST DUP5 DUP5 SLOAD PUSH2 0xAFD JUMP JUMPDEST DUP3 SSTORE POP POP POP POP JUMP JUMPDEST PUSH0 SWAP1 JUMP JUMPDEST PUSH2 0xBB2 PUSH2 0xBA6 JUMP JUMPDEST PUSH2 0xBBD DUP2 DUP5 DUP5 PUSH2 0xB81 JUMP JUMPDEST POP POP POP JUMP JUMPDEST JUMPDEST DUP2 DUP2 LT ISZERO PUSH2 0xBE0 JUMPI PUSH2 0xBD5 PUSH0 DUP3 PUSH2 0xBAA JUMP JUMPDEST PUSH1 0x1 DUP2 ADD SWAP1 POP PUSH2 0xBC3 JUMP JUMPDEST POP POP JUMP JUMPDEST PUSH1 0x1F DUP3 GT ISZERO PUSH2 0xC25 JUMPI PUSH2 0xBF6 DUP2 PUSH2 0xAD0 JUMP JUMPDEST PUSH2 0xBFF DUP5 PUSH2 0xAE2 JUMP JUMPDEST DUP2 ADD PUSH1 0x20 DUP6 LT ISZERO PUSH2 0xC0E JUMPI DUP2 SWAP1 POP JUMPDEST PUSH2 0xC22 PUSH2 0xC1A DUP6 PUSH2 0xAE2 JUMP JUMPDEST DUP4 ADD DUP3 PUSH2 0xBC2 JUMP JUMPDEST POP POP JUMPDEST POP POP POP JUMP JUMPDEST PUSH0 DUP3 DUP3 SHR SWAP1 POP SWAP3 SWAP2 POP POP JUMP JUMPDEST PUSH0 PUSH2 0xC45 PUSH0 NOT DUP5 PUSH1 0x8 MUL PUSH2 0xC2A JUMP JUMPDEST NOT DUP1 DUP4 AND SWAP2 POP POP SWAP3 SWAP2 POP POP JUMP JUMPDEST PUSH0 PUSH2 0xC5D DUP4 DUP4 PUSH2 0xC36 JUMP JUMPDEST SWAP2 POP DUP3 PUSH1 0x2 MUL DUP3 OR SWAP1 POP SWAP3 SWAP2 POP POP JUMP JUMPDEST DUP2 DUP2 SUB PUSH2 0xC7B JUMPI POP POP PUSH2 0xD50 JUMP JUMPDEST PUSH2 0xC84 DUP3 PUSH2 0xABB JUMP JUMPDEST PUSH8 0xFFFFFFFFFFFFFFFF DUP2 GT ISZERO PUSH2 0xC9D JUMPI PUSH2 0xC9C PUSH2 0x69E JUMP JUMPDEST JUMPDEST PUSH2 0xCA7 DUP3 SLOAD PUSH2 0xA8B JUMP JUMPDEST PUSH2 0xCB2 DUP3 DUP3 DUP6 PUSH2 0xBE4 JUMP JUMPDEST PUSH0 PUSH1 0x1F DUP4 GT PUSH1 0x1 DUP2 EQ PUSH2 0xCDF JUMPI PUSH0 DUP5 ISZERO PUSH2 0xCCD JUMPI DUP3 DUP8 ADD SLOAD SWAP1 POP JUMPDEST PUSH2 0xCD7 DUP6 DUP3 PUSH2 0xC52 JUMP JUMPDEST DUP7 SSTORE POP PUSH2 0xD49 JUMP JUMPDEST PUSH1 0x1F NOT DUP5 AND PUSH2 0xCED DUP8 PUSH2 0xAD0 JUMP JUMPDEST SWAP7 POP PUSH2 0xCF8 DUP7 PUSH2 0xAD0 JUMP JUMPDEST PUSH0 JUMPDEST DUP3 DUP2 LT ISZERO PUSH2 0xD1F JUMPI DUP5 DUP10 ADD SLOAD DUP3 SSTORE PUSH1 0x1 DUP3 ADD SWAP2 POP PUSH1 0x1 DUP6 ADD SWAP5 POP PUSH1 0x20 DUP2 ADD SWAP1 POP PUSH2 0xCFA JUMP JUMPDEST DUP7 DUP4 LT ISZERO PUSH2 0xD3C JUMPI DUP5 DUP10 ADD SLOAD PUSH2 0xD38 PUSH1 0x1F DUP10 AND DUP3 PUSH2 0xC36 JUMP JUMPDEST DUP4 SSTORE POP JUMPDEST PUSH1 0x1 PUSH1 0x2 DUP9 MUL ADD DUP9 SSTORE POP POP POP JUMPDEST POP POP POP POP POP POP JUMPDEST JUMP JUMPDEST PUSH0 PUSH2 0xD5C DUP3 PUSH2 0x5EF JUMP JUMPDEST SWAP2 POP PUSH0 DUP3 SUB PUSH2 0xD6E JUMPI PUSH2 0xD6D PUSH2 0x9FE JUMP JUMPDEST JUMPDEST PUSH1 0x1 DUP3 SUB SWAP1 POP SWAP2 SWAP1 POP JUMP JUMPDEST PUSH2 0xD82 DUP3 PUSH2 0x81C JUMP JUMPDEST PUSH8 0xFFFFFFFFFFFFFFFF DUP2 GT ISZERO PUSH2 0xD9B JUMPI PUSH2 0xD9A PUSH2 0x69E JUMP JUMPDEST JUMPDEST PUSH2 0xDA5 DUP3 SLOAD PUSH2 0xA8B JUMP JUMPDEST PUSH2 0xDB0 DUP3 DUP3 DUP6 PUSH2 0xBE4 JUMP JUMPDEST PUSH0 PUSH1 0x20 SWAP1 POP PUSH1 0x1F DUP4 GT PUSH1 0x1 DUP2 EQ PUSH2 0xDE1 JUMPI PUSH0 DUP5 ISZERO PUSH2 0xDCF JUMPI DUP3 DUP8 ADD MLOAD SWAP1 POP JUMPDEST PUSH2 0xDD9 DUP6 DUP3 PUSH2 0xC52 JUMP JUMPDEST DUP7 SSTORE POP PUSH2 0xE40 JUMP JUMPDEST PUSH1 0x1F NOT DUP5 AND PUSH2 0xDEF DUP7 PUSH2 0xAD0 JUMP JUMPDEST PUSH0 JUMPDEST DUP3 DUP2 LT ISZERO PUSH2 0xE16 JUMPI DUP5 DUP10 ADD MLOAD DUP3 SSTORE PUSH1 0x1 DUP3 ADD SWAP2 POP PUSH1 0x20 DUP6 ADD SWAP5 POP PUSH1 0x20 DUP2 ADD SWAP1 POP PUSH2 0xDF1 JUMP JUMPDEST DUP7 DUP4 LT ISZERO PUSH2 0xE33 JUMPI DUP5 DUP10 ADD MLOAD PUSH2 0xE2F PUSH1 0x1F DUP10 AND DUP3 PUSH2 0xC36 JUMP JUMPDEST DUP4 SSTORE POP JUMPDEST PUSH1 0x1 PUSH1 0x2 DUP9 MUL ADD DUP9 SSTORE POP POP POP JUMPDEST POP POP POP POP POP POP JUMP JUMPDEST PUSH0 PUSH2 0xE52 DUP3 PUSH2 0x5EF JUMP JUMPDEST SWAP2 POP PUSH32 0xFFFFFFFFFFFFFFFFFFFFFFFFFFFFFFFFFFFFFFFFFFFFFFFFFFFFFFFFFFFFFFFF DUP3 SUB PUSH2 0xE84 JUMPI PUSH2 0xE83 PUSH2 0x9FE JUMP JUMPDEST JUMPDEST PUSH1 0x1 DUP3 ADD SWAP1 POP SWAP2 SWAP1 POP JUMP JUMPDEST PUSH32 0x4163636F6D6D6F646174696F6E20494420646F6573206E6F742065786973742E PUSH0 DUP3 ADD MSTORE POP JUMP JUMPDEST PUSH0 PUSH2 0xEC3 PUSH1 0x20 DUP4 PUSH2 0x826 JUMP JUMPDEST SWAP2 POP PUSH2 0xECE DUP3 PUSH2 0xE8F JUMP JUMPDEST PUSH1 0x20 DUP3 ADD SWAP1 POP SWAP2 SWAP1 POP JUMP JUMPDEST PUSH0 PUSH1 0x20 DUP3 ADD SWAP1 POP DUP2 DUP2 SUB PUSH0 DUP4 ADD MSTORE PUSH2 0xEF0 DUP2 PUSH2 0xEB7 JUMP JUMPDEST SWAP1 POP SWAP2 SWAP1 POP JUMP INVALID LOG2 PUSH5 0x6970667358 0x22 SLT KECCAK256 0x4A 0x4D AND MSTORE 0x26 0x5E DUP2 PUSH2 0x76A9 DUP9 0x2C 0xD3 0x1F ADDMOD PUSH25 0x68A918657ED011F5E5665A894C3FE81D64736F6C6343000816 STOP CALLER "
				},
				"gasEstimates": {
					"creation": {
						"codeDepositCost": "777000",
						"executionCost": "810",
						"totalCost": "777810"
					},
					"external": {
						"accomCount()": "2403",
						"accommodations(uint256)": "infinite",
						"createAccommodation(string,uint256)": "infinite",
						"getAccommodationDetails(uint256)": "infinite",
						"removeListing(uint256)": "infinite",
						"updateAccommodationDetails(uint256,string,uint256,bool)": "infinite"
					}
				},
				"methodIdentifiers": {
					"accomCount()": "1a92c875",
					"accommodations(uint256)": "d599db29",
					"createAccommodation(string,uint256)": "82b01cdf",
					"getAccommodationDetails(uint256)": "abad2243",
					"removeListing(uint256)": "479ad4c3",
					"updateAccommodationDetails(uint256,string,uint256,bool)": "d40a7315"
				}
			},
			"storageLayout": {
				"storage": [
					{
						"astId": 13,
						"contract": "Contracts/MainProjectFile.sol:AccommodationProvider",
						"label": "accommodations",
						"offset": 0,
						"slot": "0",
						"type": "t_mapping(t_uint256,t_struct(Accommodation)8_storage)"
					},
					{
						"astId": 15,
						"contract": "Contracts/MainProjectFile.sol:AccommodationProvider",
						"label": "accomCount",
						"offset": 0,
						"slot": "1",
						"type": "t_uint256"
					}
				],
				"types": {
					"t_bool": {
						"encoding": "inplace",
						"label": "bool",
						"numberOfBytes": "1"
					},
					"t_mapping(t_uint256,t_struct(Accommodation)8_storage)": {
						"encoding": "mapping",
						"key": "t_uint256",
						"label": "mapping(uint256 => struct AccommodationProvider.Accommodation)",
						"numberOfBytes": "32",
						"value": "t_struct(Accommodation)8_storage"
					},
					"t_string_storage": {
						"encoding": "bytes",
						"label": "string",
						"numberOfBytes": "32"
					},
					"t_struct(Accommodation)8_storage": {
						"encoding": "inplace",
						"label": "struct AccommodationProvider.Accommodation",
						"members": [
							{
								"astId": 3,
								"contract": "Contracts/MainProjectFile.sol:AccommodationProvider",
								"label": "location",
								"offset": 0,
								"slot": "0",
								"type": "t_string_storage"
							},
							{
								"astId": 5,
								"contract": "Contracts/MainProjectFile.sol:AccommodationProvider",
								"label": "price",
								"offset": 0,
								"slot": "1",
								"type": "t_uint256"
							},
							{
								"astId": 7,
								"contract": "Contracts/MainProjectFile.sol:AccommodationProvider",
								"label": "available",
								"offset": 0,
								"slot": "2",
								"type": "t_bool"
							}
						],
						"numberOfBytes": "96"
					},
					"t_uint256": {
						"encoding": "inplace",
						"label": "uint256",
						"numberOfBytes": "32"
					}
				}
			},
			"userdoc": {
				"kind": "user",
				"methods": {},
				"version": 1
			}
		}
	}
}