{
	"Contracts/MainProjectFile.sol": {
		"SystemRegulator": {
			"abi": [
				{
					"inputs": [],
					"stateMutability": "nonpayable",
					"type": "constructor"
				},
				{
					"anonymous": false,
					"inputs": [
						{
							"indexed": false,
							"internalType": "address",
							"name": "newContractAddress",
							"type": "address"
						}
					],
					"name": "AccommodationProviderDeployed",
					"type": "event"
				},
				{
					"anonymous": false,
					"inputs": [
						{
							"indexed": false,
							"internalType": "address",
							"name": "allowedAddress",
							"type": "address"
						}
					],
					"name": "AllowedAddressAdded",
					"type": "event"
				},
				{
					"anonymous": false,
					"inputs": [
						{
							"indexed": false,
							"internalType": "address",
							"name": "allowedAddress",
							"type": "address"
						}
					],
					"name": "AllowedAddressRemoved",
					"type": "event"
				},
				{
					"inputs": [
						{
							"internalType": "address",
							"name": "_newAddress",
							"type": "address"
						}
					],
					"name": "addNewAddress",
					"outputs": [],
					"stateMutability": "nonpayable",
					"type": "function"
				},
				{
					"inputs": [],
					"name": "deployAccommodationProvider",
					"outputs": [
						{
							"internalType": "address",
							"name": "",
							"type": "address"
						}
					],
					"stateMutability": "nonpayable",
					"type": "function"
				},
				{
					"inputs": [
						{
							"internalType": "uint256",
							"name": "",
							"type": "uint256"
						}
					],
					"name": "newAddresses",
					"outputs": [
						{
							"internalType": "address",
							"name": "",
							"type": "address"
						}
					],
					"stateMutability": "view",
					"type": "function"
				},
				{
					"inputs": [],
					"name": "owner",
					"outputs": [
						{
							"internalType": "address",
							"name": "",
							"type": "address"
						}
					],
					"stateMutability": "view",
					"type": "function"
				},
				{
					"inputs": [
						{
							"internalType": "uint256",
							"name": "index",
							"type": "uint256"
						}
					],
					"name": "removeNewAddress",
					"outputs": [],
					"stateMutability": "nonpayable",
					"type": "function"
				}
			],
			"devdoc": {
				"kind": "dev",
				"methods": {},
				"version": 1
			},
			"evm": {
				"assembly": "    /* \"Contracts/MainProjectFile.sol\":4164:5365  contract SystemRegulator {... */\n  mstore(0x40, 0x80)\n    /* \"Contracts/MainProjectFile.sol\":4573:4624  constructor() {... */\n  callvalue\n  dup1\n  iszero\n  tag_1\n  jumpi\n  0x00\n  dup1\n  revert\ntag_1:\n  pop\n    /* \"Contracts/MainProjectFile.sol\":4606:4616  msg.sender */\n  caller\n    /* \"Contracts/MainProjectFile.sol\":4598:4603  owner */\n  0x00\n  dup1\n    /* \"Contracts/MainProjectFile.sol\":4598:4616  owner = msg.sender */\n  0x0100\n  exp\n  dup2\n  sload\n  dup2\n  0xffffffffffffffffffffffffffffffffffffffff\n  mul\n  not\n  and\n  swap1\n  dup4\n  0xffffffffffffffffffffffffffffffffffffffff\n  and\n  mul\n  or\n  swap1\n  sstore\n  pop\n    /* \"Contracts/MainProjectFile.sol\":4164:5365  contract SystemRegulator {... */\n  dataSize(sub_0)\n  dup1\n  dataOffset(sub_0)\n  0x00\n  codecopy\n  0x00\n  return\nstop\n\nsub_0: assembly {\n        /* \"Contracts/MainProjectFile.sol\":4164:5365  contract SystemRegulator {... */\n      mstore(0x40, 0x80)\n      callvalue\n      dup1\n      iszero\n      tag_1\n      jumpi\n      0x00\n      dup1\n      revert\n    tag_1:\n      pop\n      jumpi(tag_2, lt(calldatasize, 0x04))\n      shr(0xe0, calldataload(0x00))\n      dup1\n      0x47da7c79\n      eq\n      tag_3\n      jumpi\n      dup1\n      0x8da5cb5b\n      eq\n      tag_4\n      jumpi\n      dup1\n      0xa2f35f44\n      eq\n      tag_5\n      jumpi\n      dup1\n      0xa6d5a199\n      eq\n      tag_6\n      jumpi\n      dup1\n      0xb5db56bd\n      eq\n      tag_7\n      jumpi\n    tag_2:\n      0x00\n      dup1\n      revert\n        /* \"Contracts/MainProjectFile.sol\":5091:5362  function deployAccommodationProvider() external Owner returns (address) {... */\n    tag_3:\n      tag_8\n      tag_9\n      jump\t// in\n    tag_8:\n      mload(0x40)\n      tag_10\n      swap2\n      swap1\n      tag_11\n      jump\t// in\n    tag_10:\n      mload(0x40)\n      dup1\n      swap2\n      sub\n      swap1\n      return\n        /* \"Contracts/MainProjectFile.sol\":4196:4216  address public owner */\n    tag_4:\n      tag_12\n      tag_13\n      jump\t// in\n    tag_12:\n      mload(0x40)\n      tag_14\n      swap2\n      swap1\n      tag_11\n      jump\t// in\n    tag_14:\n      mload(0x40)\n      dup1\n      swap2\n      sub\n      swap1\n      return\n        /* \"Contracts/MainProjectFile.sol\":4632:4786  function addNewAddress(address _newAddress) public Owner {... */\n    tag_5:\n      tag_15\n      0x04\n      dup1\n      calldatasize\n      sub\n      dup2\n      add\n      swap1\n      tag_16\n      swap2\n      swap1\n      tag_17\n      jump\t// in\n    tag_16:\n      tag_18\n      jump\t// in\n    tag_15:\n      stop\n        /* \"Contracts/MainProjectFile.sol\":4794:5083  function removeNewAddress(uint256 index) public Owner {... */\n    tag_6:\n      tag_19\n      0x04\n      dup1\n      calldatasize\n      sub\n      dup2\n      add\n      swap1\n      tag_20\n      swap2\n      swap1\n      tag_21\n      jump\t// in\n    tag_20:\n      tag_22\n      jump\t// in\n    tag_19:\n      stop\n        /* \"Contracts/MainProjectFile.sol\":4223:4252  address[] public newAddresses */\n    tag_7:\n      tag_23\n      0x04\n      dup1\n      calldatasize\n      sub\n      dup2\n      add\n      swap1\n      tag_24\n      swap2\n      swap1\n      tag_21\n      jump\t// in\n    tag_24:\n      tag_25\n      jump\t// in\n    tag_23:\n      mload(0x40)\n      tag_26\n      swap2\n      swap1\n      tag_11\n      jump\t// in\n    tag_26:\n      mload(0x40)\n      dup1\n      swap2\n      sub\n      swap1\n      return\n        /* \"Contracts/MainProjectFile.sol\":5091:5362  function deployAccommodationProvider() external Owner returns (address) {... */\n    tag_9:\n        /* \"Contracts/MainProjectFile.sol\":5154:5161  address */\n      0x00\n        /* \"Contracts/MainProjectFile.sol\":4497:4502  owner */\n      dup1\n      0x00\n      swap1\n      sload\n      swap1\n      0x0100\n      exp\n      swap1\n      div\n      0xffffffffffffffffffffffffffffffffffffffff\n      and\n        /* \"Contracts/MainProjectFile.sol\":4483:4502  msg.sender == owner */\n      0xffffffffffffffffffffffffffffffffffffffff\n      and\n        /* \"Contracts/MainProjectFile.sol\":4483:4493  msg.sender */\n      caller\n        /* \"Contracts/MainProjectFile.sol\":4483:4502  msg.sender == owner */\n      0xffffffffffffffffffffffffffffffffffffffff\n      and\n      eq\n        /* \"Contracts/MainProjectFile.sol\":4475:4545  require(msg.sender == owner, \"Only the owner can execute this action\") */\n      tag_28\n      jumpi\n      mload(0x40)\n      0x08c379a000000000000000000000000000000000000000000000000000000000\n      dup2\n      mstore\n      0x04\n      add\n      tag_29\n      swap1\n      tag_30\n      jump\t// in\n    tag_29:\n      mload(0x40)\n      dup1\n      swap2\n      sub\n      swap1\n      revert\n    tag_28:\n        /* \"Contracts/MainProjectFile.sol\":5174:5207  AccommodationProvider newProvider */\n      0x00\n        /* \"Contracts/MainProjectFile.sol\":5236:5248  newAddresses */\n      0x01\n        /* \"Contracts/MainProjectFile.sol\":5210:5249  new AccommodationProvider(newAddresses) */\n      mload(0x40)\n      tag_32\n      swap1\n      tag_33\n      jump\t// in\n    tag_32:\n      tag_34\n      swap2\n      swap1\n      tag_35\n      jump\t// in\n    tag_34:\n      mload(0x40)\n      dup1\n      swap2\n      sub\n      swap1\n      0x00\n      create\n      dup1\n      iszero\n      dup1\n      iszero\n      tag_36\n      jumpi\n      returndatasize\n      0x00\n      dup1\n      returndatacopy\n      revert(0x00, returndatasize)\n    tag_36:\n      pop\n        /* \"Contracts/MainProjectFile.sol\":5174:5249  AccommodationProvider newProvider = new AccommodationProvider(newAddresses) */\n      swap1\n      pop\n        /* \"Contracts/MainProjectFile.sol\":5265:5316  AccommodationProviderDeployed(address(newProvider)) */\n      0x92903bbfcd4c80a2e35ea27f9bdc0722cb0b39649c7075c1c8039c4a527c4878\n        /* \"Contracts/MainProjectFile.sol\":5303:5314  newProvider */\n      dup2\n        /* \"Contracts/MainProjectFile.sol\":5265:5316  AccommodationProviderDeployed(address(newProvider)) */\n      mload(0x40)\n      tag_37\n      swap2\n      swap1\n      tag_11\n      jump\t// in\n    tag_37:\n      mload(0x40)\n      dup1\n      swap2\n      sub\n      swap1\n      log1\n        /* \"Contracts/MainProjectFile.sol\":5342:5353  newProvider */\n      dup1\n        /* \"Contracts/MainProjectFile.sol\":5327:5354  return address(newProvider) */\n      swap2\n      pop\n      pop\n        /* \"Contracts/MainProjectFile.sol\":5091:5362  function deployAccommodationProvider() external Owner returns (address) {... */\n      swap1\n      jump\t// out\n        /* \"Contracts/MainProjectFile.sol\":4196:4216  address public owner */\n    tag_13:\n      0x00\n      dup1\n      sload\n      swap1\n      0x0100\n      exp\n      swap1\n      div\n      0xffffffffffffffffffffffffffffffffffffffff\n      and\n      dup2\n      jump\t// out\n        /* \"Contracts/MainProjectFile.sol\":4632:4786  function addNewAddress(address _newAddress) public Owner {... */\n    tag_18:\n        /* \"Contracts/MainProjectFile.sol\":4497:4502  owner */\n      0x00\n      dup1\n      sload\n      swap1\n      0x0100\n      exp\n      swap1\n      div\n      0xffffffffffffffffffffffffffffffffffffffff\n      and\n        /* \"Contracts/MainProjectFile.sol\":4483:4502  msg.sender == owner */\n      0xffffffffffffffffffffffffffffffffffffffff\n      and\n        /* \"Contracts/MainProjectFile.sol\":4483:4493  msg.sender */\n      caller\n        /* \"Contracts/MainProjectFile.sol\":4483:4502  msg.sender == owner */\n      0xffffffffffffffffffffffffffffffffffffffff\n      and\n      eq\n        /* \"Contracts/MainProjectFile.sol\":4475:4545  require(msg.sender == owner, \"Only the owner can execute this action\") */\n      tag_39\n      jumpi\n      mload(0x40)\n      0x08c379a000000000000000000000000000000000000000000000000000000000\n      dup2\n      mstore\n      0x04\n      add\n      tag_40\n      swap1\n      tag_30\n      jump\t// in\n    tag_40:\n      mload(0x40)\n      dup1\n      swap2\n      sub\n      swap1\n      revert\n    tag_39:\n        /* \"Contracts/MainProjectFile.sol\":4700:4712  newAddresses */\n      0x01\n        /* \"Contracts/MainProjectFile.sol\":4718:4729  _newAddress */\n      dup2\n        /* \"Contracts/MainProjectFile.sol\":4700:4730  newAddresses.push(_newAddress) */\n      swap1\n      dup1\n      0x01\n      dup2\n      sload\n      add\n      dup1\n      dup3\n      sstore\n      dup1\n      swap2\n      pop\n      pop\n      0x01\n      swap1\n      sub\n      swap1\n      0x00\n      mstore\n      keccak256(0x00, 0x20)\n      add\n      0x00\n      swap1\n      swap2\n      swap1\n      swap2\n      swap1\n      swap2\n      0x0100\n      exp\n      dup2\n      sload\n      dup2\n      0xffffffffffffffffffffffffffffffffffffffff\n      mul\n      not\n      and\n      swap1\n      dup4\n      0xffffffffffffffffffffffffffffffffffffffff\n      and\n      mul\n      or\n      swap1\n      sstore\n      pop\n        /* \"Contracts/MainProjectFile.sol\":4746:4778  AllowedAddressAdded(_newAddress) */\n      0x2261c6d9f1ef87b8ec487b00ee19f9bbb1c07081193de9ebfd8f3e3f1c86ea54\n        /* \"Contracts/MainProjectFile.sol\":4766:4777  _newAddress */\n      dup2\n        /* \"Contracts/MainProjectFile.sol\":4746:4778  AllowedAddressAdded(_newAddress) */\n      mload(0x40)\n      tag_43\n      swap2\n      swap1\n      tag_11\n      jump\t// in\n    tag_43:\n      mload(0x40)\n      dup1\n      swap2\n      sub\n      swap1\n      log1\n        /* \"Contracts/MainProjectFile.sol\":4632:4786  function addNewAddress(address _newAddress) public Owner {... */\n      pop\n      jump\t// out\n        /* \"Contracts/MainProjectFile.sol\":4794:5083  function removeNewAddress(uint256 index) public Owner {... */\n    tag_22:\n        /* \"Contracts/MainProjectFile.sol\":4497:4502  owner */\n      0x00\n      dup1\n      sload\n      swap1\n      0x0100\n      exp\n      swap1\n      div\n      0xffffffffffffffffffffffffffffffffffffffff\n      and\n        /* \"Contracts/MainProjectFile.sol\":4483:4502  msg.sender == owner */\n      0xffffffffffffffffffffffffffffffffffffffff\n      and\n        /* \"Contracts/MainProjectFile.sol\":4483:4493  msg.sender */\n      caller\n        /* \"Contracts/MainProjectFile.sol\":4483:4502  msg.sender == owner */\n      0xffffffffffffffffffffffffffffffffffffffff\n      and\n      eq\n        /* \"Contracts/MainProjectFile.sol\":4475:4545  require(msg.sender == owner, \"Only the owner can execute this action\") */\n      tag_45\n      jumpi\n      mload(0x40)\n      0x08c379a000000000000000000000000000000000000000000000000000000000\n      dup2\n      mstore\n      0x04\n      add\n      tag_46\n      swap1\n      tag_30\n      jump\t// in\n    tag_46:\n      mload(0x40)\n      dup1\n      swap2\n      sub\n      swap1\n      revert\n    tag_45:\n        /* \"Contracts/MainProjectFile.sol\":4875:4887  newAddresses */\n      0x01\n        /* \"Contracts/MainProjectFile.sol\":4875:4894  newAddresses.length */\n      dup1\n      sload\n      swap1\n      pop\n        /* \"Contracts/MainProjectFile.sol\":4867:4872  index */\n      dup2\n        /* \"Contracts/MainProjectFile.sol\":4867:4894  index < newAddresses.length */\n      lt\n        /* \"Contracts/MainProjectFile.sol\":4859:4918  require(index < newAddresses.length, \"Index out of bounds\") */\n      tag_48\n      jumpi\n      mload(0x40)\n      0x08c379a000000000000000000000000000000000000000000000000000000000\n      dup2\n      mstore\n      0x04\n      add\n      tag_49\n      swap1\n      tag_50\n      jump\t// in\n    tag_49:\n      mload(0x40)\n      dup1\n      swap2\n      sub\n      swap1\n      revert\n    tag_48:\n        /* \"Contracts/MainProjectFile.sol\":4934:4976  AllowedAddressRemoved(newAddresses[index]) */\n      0x6529a9b0839455cf87ad7a8128177f89aeb8b481e747d75bb9f6f847f622d460\n        /* \"Contracts/MainProjectFile.sol\":4956:4968  newAddresses */\n      0x01\n        /* \"Contracts/MainProjectFile.sol\":4969:4974  index */\n      dup3\n        /* \"Contracts/MainProjectFile.sol\":4956:4975  newAddresses[index] */\n      dup2\n      sload\n      dup2\n      lt\n      tag_51\n      jumpi\n      tag_52\n      tag_53\n      jump\t// in\n    tag_52:\n    tag_51:\n      swap1\n      0x00\n      mstore\n      keccak256(0x00, 0x20)\n      add\n      0x00\n      swap1\n      sload\n      swap1\n      0x0100\n      exp\n      swap1\n      div\n      0xffffffffffffffffffffffffffffffffffffffff\n      and\n        /* \"Contracts/MainProjectFile.sol\":4934:4976  AllowedAddressRemoved(newAddresses[index]) */\n      mload(0x40)\n      tag_55\n      swap2\n      swap1\n      tag_11\n      jump\t// in\n    tag_55:\n      mload(0x40)\n      dup1\n      swap2\n      sub\n      swap1\n      log1\n        /* \"Contracts/MainProjectFile.sol\":5009:5021  newAddresses */\n      0x01\n        /* \"Contracts/MainProjectFile.sol\":5044:5045  1 */\n      dup1\n        /* \"Contracts/MainProjectFile.sol\":5022:5034  newAddresses */\n      dup1\n        /* \"Contracts/MainProjectFile.sol\":5022:5041  newAddresses.length */\n      dup1\n      sload\n      swap1\n      pop\n        /* \"Contracts/MainProjectFile.sol\":5022:5045  newAddresses.length - 1 */\n      tag_56\n      swap2\n      swap1\n      tag_57\n      jump\t// in\n    tag_56:\n        /* \"Contracts/MainProjectFile.sol\":5009:5046  newAddresses[newAddresses.length - 1] */\n      dup2\n      sload\n      dup2\n      lt\n      tag_58\n      jumpi\n      tag_59\n      tag_53\n      jump\t// in\n    tag_59:\n    tag_58:\n      swap1\n      0x00\n      mstore\n      keccak256(0x00, 0x20)\n      add\n      0x00\n      swap1\n      sload\n      swap1\n      0x0100\n      exp\n      swap1\n      div\n      0xffffffffffffffffffffffffffffffffffffffff\n      and\n        /* \"Contracts/MainProjectFile.sol\":4987:4999  newAddresses */\n      0x01\n        /* \"Contracts/MainProjectFile.sol\":5000:5005  index */\n      dup3\n        /* \"Contracts/MainProjectFile.sol\":4987:5006  newAddresses[index] */\n      dup2\n      sload\n      dup2\n      lt\n      tag_61\n      jumpi\n      tag_62\n      tag_53\n      jump\t// in\n    tag_62:\n    tag_61:\n      swap1\n      0x00\n      mstore\n      keccak256(0x00, 0x20)\n      add\n      0x00\n        /* \"Contracts/MainProjectFile.sol\":4987:5046  newAddresses[index] = newAddresses[newAddresses.length - 1] */\n      0x0100\n      exp\n      dup2\n      sload\n      dup2\n      0xffffffffffffffffffffffffffffffffffffffff\n      mul\n      not\n      and\n      swap1\n      dup4\n      0xffffffffffffffffffffffffffffffffffffffff\n      and\n      mul\n      or\n      swap1\n      sstore\n      pop\n        /* \"Contracts/MainProjectFile.sol\":5057:5069  newAddresses */\n      0x01\n        /* \"Contracts/MainProjectFile.sol\":5057:5075  newAddresses.pop() */\n      dup1\n      sload\n      dup1\n      tag_64\n      jumpi\n      tag_65\n      tag_66\n      jump\t// in\n    tag_65:\n    tag_64:\n      0x01\n      swap1\n      sub\n      dup2\n      dup2\n      swap1\n      0x00\n      mstore\n      keccak256(0x00, 0x20)\n      add\n      exp(0x0100, 0x00)\n      dup2\n      sload\n      swap1\n      0xffffffffffffffffffffffffffffffffffffffff\n      mul\n      not\n      and\n      swap1\n      sstore\n      swap1\n      sstore\n        /* \"Contracts/MainProjectFile.sol\":4794:5083  function removeNewAddress(uint256 index) public Owner {... */\n      pop\n      jump\t// out\n        /* \"Contracts/MainProjectFile.sol\":4223:4252  address[] public newAddresses */\n    tag_25:\n      0x01\n      dup2\n      dup2\n      sload\n      dup2\n      lt\n      tag_68\n      jumpi\n      0x00\n      dup1\n      revert\n    tag_68:\n      swap1\n      0x00\n      mstore\n      keccak256(0x00, 0x20)\n      add\n      0x00\n      swap2\n      pop\n      sload\n      swap1\n      0x0100\n      exp\n      swap1\n      div\n      0xffffffffffffffffffffffffffffffffffffffff\n      and\n      dup2\n      jump\t// out\n    tag_33:\n      dataSize(sub_0)\n      dup1\n      dataOffset(sub_0)\n      dup4\n      codecopy\n      add\n      swap1\n      jump\t// out\n        /* \"#utility.yul\":7:133   */\n    tag_70:\n        /* \"#utility.yul\":44:51   */\n      0x00\n        /* \"#utility.yul\":84:126   */\n      0xffffffffffffffffffffffffffffffffffffffff\n        /* \"#utility.yul\":77:82   */\n      dup3\n        /* \"#utility.yul\":73:127   */\n      and\n        /* \"#utility.yul\":62:127   */\n      swap1\n      pop\n        /* \"#utility.yul\":7:133   */\n      swap2\n      swap1\n      pop\n      jump\t// out\n        /* \"#utility.yul\":139:235   */\n    tag_71:\n        /* \"#utility.yul\":176:183   */\n      0x00\n        /* \"#utility.yul\":205:229   */\n      tag_101\n        /* \"#utility.yul\":223:228   */\n      dup3\n        /* \"#utility.yul\":205:229   */\n      tag_70\n      jump\t// in\n    tag_101:\n        /* \"#utility.yul\":194:229   */\n      swap1\n      pop\n        /* \"#utility.yul\":139:235   */\n      swap2\n      swap1\n      pop\n      jump\t// out\n        /* \"#utility.yul\":241:359   */\n    tag_72:\n        /* \"#utility.yul\":328:352   */\n      tag_103\n        /* \"#utility.yul\":346:351   */\n      dup2\n        /* \"#utility.yul\":328:352   */\n      tag_71\n      jump\t// in\n    tag_103:\n        /* \"#utility.yul\":323:326   */\n      dup3\n        /* \"#utility.yul\":316:353   */\n      mstore\n        /* \"#utility.yul\":241:359   */\n      pop\n      pop\n      jump\t// out\n        /* \"#utility.yul\":365:587   */\n    tag_11:\n        /* \"#utility.yul\":458:462   */\n      0x00\n        /* \"#utility.yul\":496:498   */\n      0x20\n        /* \"#utility.yul\":485:494   */\n      dup3\n        /* \"#utility.yul\":481:499   */\n      add\n        /* \"#utility.yul\":473:499   */\n      swap1\n      pop\n        /* \"#utility.yul\":509:580   */\n      tag_105\n        /* \"#utility.yul\":577:578   */\n      0x00\n        /* \"#utility.yul\":566:575   */\n      dup4\n        /* \"#utility.yul\":562:579   */\n      add\n        /* \"#utility.yul\":553:559   */\n      dup5\n        /* \"#utility.yul\":509:580   */\n      tag_72\n      jump\t// in\n    tag_105:\n        /* \"#utility.yul\":365:587   */\n      swap3\n      swap2\n      pop\n      pop\n      jump\t// out\n        /* \"#utility.yul\":674:791   */\n    tag_74:\n        /* \"#utility.yul\":783:784   */\n      0x00\n        /* \"#utility.yul\":780:781   */\n      dup1\n        /* \"#utility.yul\":773:785   */\n      revert\n        /* \"#utility.yul\":920:1042   */\n    tag_76:\n        /* \"#utility.yul\":993:1017   */\n      tag_110\n        /* \"#utility.yul\":1011:1016   */\n      dup2\n        /* \"#utility.yul\":993:1017   */\n      tag_71\n      jump\t// in\n    tag_110:\n        /* \"#utility.yul\":986:991   */\n      dup2\n        /* \"#utility.yul\":983:1018   */\n      eq\n        /* \"#utility.yul\":973:1036   */\n      tag_111\n      jumpi\n        /* \"#utility.yul\":1032:1033   */\n      0x00\n        /* \"#utility.yul\":1029:1030   */\n      dup1\n        /* \"#utility.yul\":1022:1034   */\n      revert\n        /* \"#utility.yul\":973:1036   */\n    tag_111:\n        /* \"#utility.yul\":920:1042   */\n      pop\n      jump\t// out\n        /* \"#utility.yul\":1048:1187   */\n    tag_77:\n        /* \"#utility.yul\":1094:1099   */\n      0x00\n        /* \"#utility.yul\":1132:1138   */\n      dup2\n        /* \"#utility.yul\":1119:1139   */\n      calldataload\n        /* \"#utility.yul\":1110:1139   */\n      swap1\n      pop\n        /* \"#utility.yul\":1148:1181   */\n      tag_113\n        /* \"#utility.yul\":1175:1180   */\n      dup2\n        /* \"#utility.yul\":1148:1181   */\n      tag_76\n      jump\t// in\n    tag_113:\n        /* \"#utility.yul\":1048:1187   */\n      swap3\n      swap2\n      pop\n      pop\n      jump\t// out\n        /* \"#utility.yul\":1193:1522   */\n    tag_17:\n        /* \"#utility.yul\":1252:1258   */\n      0x00\n        /* \"#utility.yul\":1301:1303   */\n      0x20\n        /* \"#utility.yul\":1289:1298   */\n      dup3\n        /* \"#utility.yul\":1280:1287   */\n      dup5\n        /* \"#utility.yul\":1276:1299   */\n      sub\n        /* \"#utility.yul\":1272:1304   */\n      slt\n        /* \"#utility.yul\":1269:1388   */\n      iszero\n      tag_115\n      jumpi\n        /* \"#utility.yul\":1307:1386   */\n      tag_116\n      tag_74\n      jump\t// in\n    tag_116:\n        /* \"#utility.yul\":1269:1388   */\n    tag_115:\n        /* \"#utility.yul\":1427:1428   */\n      0x00\n        /* \"#utility.yul\":1452:1505   */\n      tag_117\n        /* \"#utility.yul\":1497:1504   */\n      dup5\n        /* \"#utility.yul\":1488:1494   */\n      dup3\n        /* \"#utility.yul\":1477:1486   */\n      dup6\n        /* \"#utility.yul\":1473:1495   */\n      add\n        /* \"#utility.yul\":1452:1505   */\n      tag_77\n      jump\t// in\n    tag_117:\n        /* \"#utility.yul\":1442:1505   */\n      swap2\n      pop\n        /* \"#utility.yul\":1398:1515   */\n      pop\n        /* \"#utility.yul\":1193:1522   */\n      swap3\n      swap2\n      pop\n      pop\n      jump\t// out\n        /* \"#utility.yul\":1528:1605   */\n    tag_78:\n        /* \"#utility.yul\":1565:1572   */\n      0x00\n        /* \"#utility.yul\":1594:1599   */\n      dup2\n        /* \"#utility.yul\":1583:1599   */\n      swap1\n      pop\n        /* \"#utility.yul\":1528:1605   */\n      swap2\n      swap1\n      pop\n      jump\t// out\n        /* \"#utility.yul\":1611:1733   */\n    tag_79:\n        /* \"#utility.yul\":1684:1708   */\n      tag_120\n        /* \"#utility.yul\":1702:1707   */\n      dup2\n        /* \"#utility.yul\":1684:1708   */\n      tag_78\n      jump\t// in\n    tag_120:\n        /* \"#utility.yul\":1677:1682   */\n      dup2\n        /* \"#utility.yul\":1674:1709   */\n      eq\n        /* \"#utility.yul\":1664:1727   */\n      tag_121\n      jumpi\n        /* \"#utility.yul\":1723:1724   */\n      0x00\n        /* \"#utility.yul\":1720:1721   */\n      dup1\n        /* \"#utility.yul\":1713:1725   */\n      revert\n        /* \"#utility.yul\":1664:1727   */\n    tag_121:\n        /* \"#utility.yul\":1611:1733   */\n      pop\n      jump\t// out\n        /* \"#utility.yul\":1739:1878   */\n    tag_80:\n        /* \"#utility.yul\":1785:1790   */\n      0x00\n        /* \"#utility.yul\":1823:1829   */\n      dup2\n        /* \"#utility.yul\":1810:1830   */\n      calldataload\n        /* \"#utility.yul\":1801:1830   */\n      swap1\n      pop\n        /* \"#utility.yul\":1839:1872   */\n      tag_123\n        /* \"#utility.yul\":1866:1871   */\n      dup2\n        /* \"#utility.yul\":1839:1872   */\n      tag_79\n      jump\t// in\n    tag_123:\n        /* \"#utility.yul\":1739:1878   */\n      swap3\n      swap2\n      pop\n      pop\n      jump\t// out\n        /* \"#utility.yul\":1884:2213   */\n    tag_21:\n        /* \"#utility.yul\":1943:1949   */\n      0x00\n        /* \"#utility.yul\":1992:1994   */\n      0x20\n        /* \"#utility.yul\":1980:1989   */\n      dup3\n        /* \"#utility.yul\":1971:1978   */\n      dup5\n        /* \"#utility.yul\":1967:1990   */\n      sub\n        /* \"#utility.yul\":1963:1995   */\n      slt\n        /* \"#utility.yul\":1960:2079   */\n      iszero\n      tag_125\n      jumpi\n        /* \"#utility.yul\":1998:2077   */\n      tag_126\n      tag_74\n      jump\t// in\n    tag_126:\n        /* \"#utility.yul\":1960:2079   */\n    tag_125:\n        /* \"#utility.yul\":2118:2119   */\n      0x00\n        /* \"#utility.yul\":2143:2196   */\n      tag_127\n        /* \"#utility.yul\":2188:2195   */\n      dup5\n        /* \"#utility.yul\":2179:2185   */\n      dup3\n        /* \"#utility.yul\":2168:2177   */\n      dup6\n        /* \"#utility.yul\":2164:2186   */\n      add\n        /* \"#utility.yul\":2143:2196   */\n      tag_80\n      jump\t// in\n    tag_127:\n        /* \"#utility.yul\":2133:2196   */\n      swap2\n      pop\n        /* \"#utility.yul\":2089:2206   */\n      pop\n        /* \"#utility.yul\":1884:2213   */\n      swap3\n      swap2\n      pop\n      pop\n      jump\t// out\n        /* \"#utility.yul\":2219:2388   */\n    tag_81:\n        /* \"#utility.yul\":2303:2314   */\n      0x00\n        /* \"#utility.yul\":2337:2343   */\n      dup3\n        /* \"#utility.yul\":2332:2335   */\n      dup3\n        /* \"#utility.yul\":2325:2344   */\n      mstore\n        /* \"#utility.yul\":2377:2381   */\n      0x20\n        /* \"#utility.yul\":2372:2375   */\n      dup3\n        /* \"#utility.yul\":2368:2382   */\n      add\n        /* \"#utility.yul\":2353:2382   */\n      swap1\n      pop\n        /* \"#utility.yul\":2219:2388   */\n      swap3\n      swap2\n      pop\n      pop\n      jump\t// out\n        /* \"#utility.yul\":2394:2619   */\n    tag_82:\n        /* \"#utility.yul\":2534:2568   */\n      0x4f6e6c7920746865206f776e65722063616e2065786563757465207468697320\n        /* \"#utility.yul\":2530:2531   */\n      0x00\n        /* \"#utility.yul\":2522:2528   */\n      dup3\n        /* \"#utility.yul\":2518:2532   */\n      add\n        /* \"#utility.yul\":2511:2569   */\n      mstore\n        /* \"#utility.yul\":2603:2611   */\n      0x616374696f6e0000000000000000000000000000000000000000000000000000\n        /* \"#utility.yul\":2598:2600   */\n      0x20\n        /* \"#utility.yul\":2590:2596   */\n      dup3\n        /* \"#utility.yul\":2586:2601   */\n      add\n        /* \"#utility.yul\":2579:2612   */\n      mstore\n        /* \"#utility.yul\":2394:2619   */\n      pop\n      jump\t// out\n        /* \"#utility.yul\":2625:2991   */\n    tag_83:\n        /* \"#utility.yul\":2767:2770   */\n      0x00\n        /* \"#utility.yul\":2788:2855   */\n      tag_131\n        /* \"#utility.yul\":2852:2854   */\n      0x26\n        /* \"#utility.yul\":2847:2850   */\n      dup4\n        /* \"#utility.yul\":2788:2855   */\n      tag_81\n      jump\t// in\n    tag_131:\n        /* \"#utility.yul\":2781:2855   */\n      swap2\n      pop\n        /* \"#utility.yul\":2864:2957   */\n      tag_132\n        /* \"#utility.yul\":2953:2956   */\n      dup3\n        /* \"#utility.yul\":2864:2957   */\n      tag_82\n      jump\t// in\n    tag_132:\n        /* \"#utility.yul\":2982:2984   */\n      0x40\n        /* \"#utility.yul\":2977:2980   */\n      dup3\n        /* \"#utility.yul\":2973:2985   */\n      add\n        /* \"#utility.yul\":2966:2985   */\n      swap1\n      pop\n        /* \"#utility.yul\":2625:2991   */\n      swap2\n      swap1\n      pop\n      jump\t// out\n        /* \"#utility.yul\":2997:3416   */\n    tag_30:\n        /* \"#utility.yul\":3163:3167   */\n      0x00\n        /* \"#utility.yul\":3201:3203   */\n      0x20\n        /* \"#utility.yul\":3190:3199   */\n      dup3\n        /* \"#utility.yul\":3186:3204   */\n      add\n        /* \"#utility.yul\":3178:3204   */\n      swap1\n      pop\n        /* \"#utility.yul\":3250:3259   */\n      dup2\n        /* \"#utility.yul\":3244:3248   */\n      dup2\n        /* \"#utility.yul\":3240:3260   */\n      sub\n        /* \"#utility.yul\":3236:3237   */\n      0x00\n        /* \"#utility.yul\":3225:3234   */\n      dup4\n        /* \"#utility.yul\":3221:3238   */\n      add\n        /* \"#utility.yul\":3214:3261   */\n      mstore\n        /* \"#utility.yul\":3278:3409   */\n      tag_134\n        /* \"#utility.yul\":3404:3408   */\n      dup2\n        /* \"#utility.yul\":3278:3409   */\n      tag_83\n      jump\t// in\n    tag_134:\n        /* \"#utility.yul\":3270:3409   */\n      swap1\n      pop\n        /* \"#utility.yul\":2997:3416   */\n      swap2\n      swap1\n      pop\n      jump\t// out\n        /* \"#utility.yul\":3422:3533   */\n    tag_84:\n        /* \"#utility.yul\":3486:3492   */\n      0x00\n        /* \"#utility.yul\":3520:3525   */\n      dup2\n        /* \"#utility.yul\":3514:3526   */\n      sload\n        /* \"#utility.yul\":3504:3526   */\n      swap1\n      pop\n        /* \"#utility.yul\":3422:3533   */\n      swap2\n      swap1\n      pop\n      jump\t// out\n        /* \"#utility.yul\":3539:3723   */\n    tag_85:\n        /* \"#utility.yul\":3638:3649   */\n      0x00\n        /* \"#utility.yul\":3672:3678   */\n      dup3\n        /* \"#utility.yul\":3667:3670   */\n      dup3\n        /* \"#utility.yul\":3660:3679   */\n      mstore\n        /* \"#utility.yul\":3712:3716   */\n      0x20\n        /* \"#utility.yul\":3707:3710   */\n      dup3\n        /* \"#utility.yul\":3703:3717   */\n      add\n        /* \"#utility.yul\":3688:3717   */\n      swap1\n      pop\n        /* \"#utility.yul\":3539:3723   */\n      swap3\n      swap2\n      pop\n      pop\n      jump\t// out\n        /* \"#utility.yul\":3729:3885   */\n    tag_86:\n        /* \"#utility.yul\":3793:3797   */\n      0x00\n        /* \"#utility.yul\":3816:3819   */\n      dup2\n        /* \"#utility.yul\":3808:3819   */\n      swap1\n      pop\n        /* \"#utility.yul\":3839:3842   */\n      dup2\n        /* \"#utility.yul\":3836:3837   */\n      0x00\n        /* \"#utility.yul\":3829:3843   */\n      mstore\n        /* \"#utility.yul\":3873:3877   */\n      0x20\n        /* \"#utility.yul\":3870:3871   */\n      0x00\n        /* \"#utility.yul\":3860:3878   */\n      keccak256\n        /* \"#utility.yul\":3852:3878   */\n      swap1\n      pop\n        /* \"#utility.yul\":3729:3885   */\n      swap2\n      swap1\n      pop\n      jump\t// out\n        /* \"#utility.yul\":3891:3999   */\n    tag_87:\n        /* \"#utility.yul\":3968:3992   */\n      tag_139\n        /* \"#utility.yul\":3986:3991   */\n      dup2\n        /* \"#utility.yul\":3968:3992   */\n      tag_71\n      jump\t// in\n    tag_139:\n        /* \"#utility.yul\":3963:3966   */\n      dup3\n        /* \"#utility.yul\":3956:3993   */\n      mstore\n        /* \"#utility.yul\":3891:3999   */\n      pop\n      pop\n      jump\t// out\n        /* \"#utility.yul\":4005:4184   */\n    tag_88:\n        /* \"#utility.yul\":4074:4084   */\n      0x00\n        /* \"#utility.yul\":4095:4141   */\n      tag_141\n        /* \"#utility.yul\":4137:4140   */\n      dup4\n        /* \"#utility.yul\":4129:4135   */\n      dup4\n        /* \"#utility.yul\":4095:4141   */\n      tag_87\n      jump\t// in\n    tag_141:\n        /* \"#utility.yul\":4173:4177   */\n      0x20\n        /* \"#utility.yul\":4168:4171   */\n      dup4\n        /* \"#utility.yul\":4164:4178   */\n      add\n        /* \"#utility.yul\":4150:4178   */\n      swap1\n      pop\n        /* \"#utility.yul\":4005:4184   */\n      swap3\n      swap2\n      pop\n      pop\n      jump\t// out\n        /* \"#utility.yul\":4190:4292   */\n    tag_89:\n        /* \"#utility.yul\":4232:4240   */\n      0x00\n        /* \"#utility.yul\":4279:4284   */\n      dup2\n        /* \"#utility.yul\":4276:4277   */\n      0x00\n        /* \"#utility.yul\":4272:4285   */\n      shr\n        /* \"#utility.yul\":4251:4285   */\n      swap1\n      pop\n        /* \"#utility.yul\":4190:4292   */\n      swap2\n      swap1\n      pop\n      jump\t// out\n        /* \"#utility.yul\":4298:4437   */\n    tag_90:\n        /* \"#utility.yul\":4348:4355   */\n      0x00\n        /* \"#utility.yul\":4388:4430   */\n      0xffffffffffffffffffffffffffffffffffffffff\n        /* \"#utility.yul\":4381:4386   */\n      dup3\n        /* \"#utility.yul\":4377:4431   */\n      and\n        /* \"#utility.yul\":4366:4431   */\n      swap1\n      pop\n        /* \"#utility.yul\":4298:4437   */\n      swap2\n      swap1\n      pop\n      jump\t// out\n        /* \"#utility.yul\":4443:4609   */\n    tag_91:\n        /* \"#utility.yul\":4512:4517   */\n      0x00\n        /* \"#utility.yul\":4537:4603   */\n      tag_145\n        /* \"#utility.yul\":4568:4602   */\n      tag_146\n        /* \"#utility.yul\":4591:4601   */\n      dup4\n        /* \"#utility.yul\":4568:4602   */\n      tag_89\n      jump\t// in\n    tag_146:\n        /* \"#utility.yul\":4537:4603   */\n      tag_90\n      jump\t// in\n    tag_145:\n        /* \"#utility.yul\":4528:4603   */\n      swap1\n      pop\n        /* \"#utility.yul\":4443:4609   */\n      swap2\n      swap1\n      pop\n      jump\t// out\n        /* \"#utility.yul\":4615:4759   */\n    tag_92:\n        /* \"#utility.yul\":4670:4675   */\n      0x00\n        /* \"#utility.yul\":4695:4752   */\n      tag_148\n        /* \"#utility.yul\":4746:4750   */\n      dup3\n        /* \"#utility.yul\":4740:4751   */\n      sload\n        /* \"#utility.yul\":4695:4752   */\n      tag_91\n      jump\t// in\n    tag_148:\n        /* \"#utility.yul\":4686:4752   */\n      swap1\n      pop\n        /* \"#utility.yul\":4615:4759   */\n      swap2\n      swap1\n      pop\n      jump\t// out\n        /* \"#utility.yul\":4765:4875   */\n    tag_93:\n        /* \"#utility.yul\":4832:4836   */\n      0x00\n        /* \"#utility.yul\":4864:4868   */\n      0x01\n        /* \"#utility.yul\":4859:4862   */\n      dup3\n        /* \"#utility.yul\":4855:4869   */\n      add\n        /* \"#utility.yul\":4847:4869   */\n      swap1\n      pop\n        /* \"#utility.yul\":4765:4875   */\n      swap2\n      swap1\n      pop\n      jump\t// out\n        /* \"#utility.yul\":4911:5662   */\n    tag_94:\n        /* \"#utility.yul\":5027:5030   */\n      0x00\n        /* \"#utility.yul\":5056:5107   */\n      tag_151\n        /* \"#utility.yul\":5101:5106   */\n      dup3\n        /* \"#utility.yul\":5056:5107   */\n      tag_84\n      jump\t// in\n    tag_151:\n        /* \"#utility.yul\":5123:5209   */\n      tag_152\n        /* \"#utility.yul\":5202:5208   */\n      dup2\n        /* \"#utility.yul\":5197:5200   */\n      dup6\n        /* \"#utility.yul\":5123:5209   */\n      tag_85\n      jump\t// in\n    tag_152:\n        /* \"#utility.yul\":5116:5209   */\n      swap4\n      pop\n        /* \"#utility.yul\":5233:5286   */\n      tag_153\n        /* \"#utility.yul\":5280:5285   */\n      dup4\n        /* \"#utility.yul\":5233:5286   */\n      tag_86\n      jump\t// in\n    tag_153:\n        /* \"#utility.yul\":5309:5316   */\n      dup1\n        /* \"#utility.yul\":5340:5341   */\n      0x00\n        /* \"#utility.yul\":5325:5637   */\n    tag_154:\n        /* \"#utility.yul\":5350:5356   */\n      dup4\n        /* \"#utility.yul\":5347:5348   */\n      dup2\n        /* \"#utility.yul\":5344:5357   */\n      lt\n        /* \"#utility.yul\":5325:5637   */\n      iszero\n      tag_156\n      jumpi\n        /* \"#utility.yul\":5420:5464   */\n      tag_157\n        /* \"#utility.yul\":5457:5463   */\n      dup3\n        /* \"#utility.yul\":5420:5464   */\n      tag_92\n      jump\t// in\n    tag_157:\n        /* \"#utility.yul\":5484:5547   */\n      tag_158\n        /* \"#utility.yul\":5543:5546   */\n      dup9\n        /* \"#utility.yul\":5528:5541   */\n      dup3\n        /* \"#utility.yul\":5484:5547   */\n      tag_88\n      jump\t// in\n    tag_158:\n        /* \"#utility.yul\":5477:5547   */\n      swap8\n      pop\n        /* \"#utility.yul\":5570:5627   */\n      tag_159\n        /* \"#utility.yul\":5620:5626   */\n      dup4\n        /* \"#utility.yul\":5570:5627   */\n      tag_93\n      jump\t// in\n    tag_159:\n        /* \"#utility.yul\":5560:5627   */\n      swap3\n      pop\n        /* \"#utility.yul\":5385:5637   */\n      pop\n        /* \"#utility.yul\":5372:5373   */\n      0x01\n        /* \"#utility.yul\":5369:5370   */\n      dup2\n        /* \"#utility.yul\":5365:5374   */\n      add\n        /* \"#utility.yul\":5360:5374   */\n      swap1\n      pop\n        /* \"#utility.yul\":5325:5637   */\n      jump(tag_154)\n    tag_156:\n        /* \"#utility.yul\":5329:5343   */\n      pop\n        /* \"#utility.yul\":5653:5656   */\n      dup6\n        /* \"#utility.yul\":5646:5656   */\n      swap4\n      pop\n        /* \"#utility.yul\":5032:5662   */\n      pop\n      pop\n      pop\n        /* \"#utility.yul\":4911:5662   */\n      swap3\n      swap2\n      pop\n      pop\n      jump\t// out\n        /* \"#utility.yul\":5668:6035   */\n    tag_35:\n        /* \"#utility.yul\":5808:5812   */\n      0x00\n        /* \"#utility.yul\":5846:5848   */\n      0x20\n        /* \"#utility.yul\":5835:5844   */\n      dup3\n        /* \"#utility.yul\":5831:5849   */\n      add\n        /* \"#utility.yul\":5823:5849   */\n      swap1\n      pop\n        /* \"#utility.yul\":5895:5904   */\n      dup2\n        /* \"#utility.yul\":5889:5893   */\n      dup2\n        /* \"#utility.yul\":5885:5905   */\n      sub\n        /* \"#utility.yul\":5881:5882   */\n      0x00\n        /* \"#utility.yul\":5870:5879   */\n      dup4\n        /* \"#utility.yul\":5866:5883   */\n      add\n        /* \"#utility.yul\":5859:5906   */\n      mstore\n        /* \"#utility.yul\":5923:6028   */\n      tag_161\n        /* \"#utility.yul\":6023:6027   */\n      dup2\n        /* \"#utility.yul\":6014:6020   */\n      dup5\n        /* \"#utility.yul\":5923:6028   */\n      tag_94\n      jump\t// in\n    tag_161:\n        /* \"#utility.yul\":5915:6028   */\n      swap1\n      pop\n        /* \"#utility.yul\":5668:6035   */\n      swap3\n      swap2\n      pop\n      pop\n      jump\t// out\n        /* \"#utility.yul\":6041:6210   */\n    tag_95:\n        /* \"#utility.yul\":6181:6202   */\n      0x496e646578206f7574206f6620626f756e647300000000000000000000000000\n        /* \"#utility.yul\":6177:6178   */\n      0x00\n        /* \"#utility.yul\":6169:6175   */\n      dup3\n        /* \"#utility.yul\":6165:6179   */\n      add\n        /* \"#utility.yul\":6158:6203   */\n      mstore\n        /* \"#utility.yul\":6041:6210   */\n      pop\n      jump\t// out\n        /* \"#utility.yul\":6216:6582   */\n    tag_96:\n        /* \"#utility.yul\":6358:6361   */\n      0x00\n        /* \"#utility.yul\":6379:6446   */\n      tag_164\n        /* \"#utility.yul\":6443:6445   */\n      0x13\n        /* \"#utility.yul\":6438:6441   */\n      dup4\n        /* \"#utility.yul\":6379:6446   */\n      tag_81\n      jump\t// in\n    tag_164:\n        /* \"#utility.yul\":6372:6446   */\n      swap2\n      pop\n        /* \"#utility.yul\":6455:6548   */\n      tag_165\n        /* \"#utility.yul\":6544:6547   */\n      dup3\n        /* \"#utility.yul\":6455:6548   */\n      tag_95\n      jump\t// in\n    tag_165:\n        /* \"#utility.yul\":6573:6575   */\n      0x20\n        /* \"#utility.yul\":6568:6571   */\n      dup3\n        /* \"#utility.yul\":6564:6576   */\n      add\n        /* \"#utility.yul\":6557:6576   */\n      swap1\n      pop\n        /* \"#utility.yul\":6216:6582   */\n      swap2\n      swap1\n      pop\n      jump\t// out\n        /* \"#utility.yul\":6588:7007   */\n    tag_50:\n        /* \"#utility.yul\":6754:6758   */\n      0x00\n        /* \"#utility.yul\":6792:6794   */\n      0x20\n        /* \"#utility.yul\":6781:6790   */\n      dup3\n        /* \"#utility.yul\":6777:6795   */\n      add\n        /* \"#utility.yul\":6769:6795   */\n      swap1\n      pop\n        /* \"#utility.yul\":6841:6850   */\n      dup2\n        /* \"#utility.yul\":6835:6839   */\n      dup2\n        /* \"#utility.yul\":6831:6851   */\n      sub\n        /* \"#utility.yul\":6827:6828   */\n      0x00\n        /* \"#utility.yul\":6816:6825   */\n      dup4\n        /* \"#utility.yul\":6812:6829   */\n      add\n        /* \"#utility.yul\":6805:6852   */\n      mstore\n        /* \"#utility.yul\":6869:7000   */\n      tag_167\n        /* \"#utility.yul\":6995:6999   */\n      dup2\n        /* \"#utility.yul\":6869:7000   */\n      tag_96\n      jump\t// in\n    tag_167:\n        /* \"#utility.yul\":6861:7000   */\n      swap1\n      pop\n        /* \"#utility.yul\":6588:7007   */\n      swap2\n      swap1\n      pop\n      jump\t// out\n        /* \"#utility.yul\":7013:7193   */\n    tag_53:\n        /* \"#utility.yul\":7061:7138   */\n      0x4e487b7100000000000000000000000000000000000000000000000000000000\n        /* \"#utility.yul\":7058:7059   */\n      0x00\n        /* \"#utility.yul\":7051:7139   */\n      mstore\n        /* \"#utility.yul\":7158:7162   */\n      0x32\n        /* \"#utility.yul\":7155:7156   */\n      0x04\n        /* \"#utility.yul\":7148:7163   */\n      mstore\n        /* \"#utility.yul\":7182:7186   */\n      0x24\n        /* \"#utility.yul\":7179:7180   */\n      0x00\n        /* \"#utility.yul\":7172:7187   */\n      revert\n        /* \"#utility.yul\":7199:7379   */\n    tag_97:\n        /* \"#utility.yul\":7247:7324   */\n      0x4e487b7100000000000000000000000000000000000000000000000000000000\n        /* \"#utility.yul\":7244:7245   */\n      0x00\n        /* \"#utility.yul\":7237:7325   */\n      mstore\n        /* \"#utility.yul\":7344:7348   */\n      0x11\n        /* \"#utility.yul\":7341:7342   */\n      0x04\n        /* \"#utility.yul\":7334:7349   */\n      mstore\n        /* \"#utility.yul\":7368:7372   */\n      0x24\n        /* \"#utility.yul\":7365:7366   */\n      0x00\n        /* \"#utility.yul\":7358:7373   */\n      revert\n        /* \"#utility.yul\":7385:7579   */\n    tag_57:\n        /* \"#utility.yul\":7425:7429   */\n      0x00\n        /* \"#utility.yul\":7445:7465   */\n      tag_171\n        /* \"#utility.yul\":7463:7464   */\n      dup3\n        /* \"#utility.yul\":7445:7465   */\n      tag_78\n      jump\t// in\n    tag_171:\n        /* \"#utility.yul\":7440:7465   */\n      swap2\n      pop\n        /* \"#utility.yul\":7479:7499   */\n      tag_172\n        /* \"#utility.yul\":7497:7498   */\n      dup4\n        /* \"#utility.yul\":7479:7499   */\n      tag_78\n      jump\t// in\n    tag_172:\n        /* \"#utility.yul\":7474:7499   */\n      swap3\n      pop\n        /* \"#utility.yul\":7523:7524   */\n      dup3\n        /* \"#utility.yul\":7520:7521   */\n      dup3\n        /* \"#utility.yul\":7516:7525   */\n      sub\n        /* \"#utility.yul\":7508:7525   */\n      swap1\n      pop\n        /* \"#utility.yul\":7547:7548   */\n      dup2\n        /* \"#utility.yul\":7541:7545   */\n      dup2\n        /* \"#utility.yul\":7538:7549   */\n      gt\n        /* \"#utility.yul\":7535:7572   */\n      iszero\n      tag_173\n      jumpi\n        /* \"#utility.yul\":7552:7570   */\n      tag_174\n      tag_97\n      jump\t// in\n    tag_174:\n        /* \"#utility.yul\":7535:7572   */\n    tag_173:\n        /* \"#utility.yul\":7385:7579   */\n      swap3\n      swap2\n      pop\n      pop\n      jump\t// out\n        /* \"#utility.yul\":7585:7765   */\n    tag_66:\n        /* \"#utility.yul\":7633:7710   */\n      0x4e487b7100000000000000000000000000000000000000000000000000000000\n        /* \"#utility.yul\":7630:7631   */\n      0x00\n        /* \"#utility.yul\":7623:7711   */\n      mstore\n        /* \"#utility.yul\":7730:7734   */\n      0x31\n        /* \"#utility.yul\":7727:7728   */\n      0x04\n        /* \"#utility.yul\":7720:7735   */\n      mstore\n        /* \"#utility.yul\":7754:7758   */\n      0x24\n        /* \"#utility.yul\":7751:7752   */\n      0x00\n        /* \"#utility.yul\":7744:7759   */\n      revert\n    stop\n\n    sub_0: assembly {\n            /* \"Contracts/MainProjectFile.sol\":29:2676  contract AccommodationProvider {... */\n          mstore(0x40, 0x80)\n            /* \"Contracts/MainProjectFile.sol\":1112:1246  constructor(address[] memory _validAddresses) {... */\n          callvalue\n          dup1\n          iszero\n          tag_1\n          jumpi\n          0x00\n          dup1\n          revert\n        tag_1:\n          pop\n          mload(0x40)\n          sub(codesize, bytecodeSize)\n          dup1\n          bytecodeSize\n          dup4\n          codecopy\n          dup2\n          dup2\n          add\n          0x40\n          mstore\n          dup2\n          add\n          swap1\n          tag_2\n          swap2\n          swap1\n          tag_3\n          jump\t// in\n        tag_2:\n            /* \"Contracts/MainProjectFile.sol\":1185:1195  msg.sender */\n          caller\n            /* \"Contracts/MainProjectFile.sol\":1169:1182  providerOwner */\n          0x03\n          0x00\n            /* \"Contracts/MainProjectFile.sol\":1169:1195  providerOwner = msg.sender */\n          0x0100\n          exp\n          dup2\n          sload\n          dup2\n          0xffffffffffffffffffffffffffffffffffffffff\n          mul\n          not\n          and\n          swap1\n          dup4\n          0xffffffffffffffffffffffffffffffffffffffff\n          and\n          mul\n          or\n          swap1\n          sstore\n          pop\n            /* \"Contracts/MainProjectFile.sol\":1223:1238  _validAddresses */\n          dup1\n            /* \"Contracts/MainProjectFile.sol\":1206:1220  validAddresses */\n          0x04\n            /* \"Contracts/MainProjectFile.sol\":1206:1238  validAddresses = _validAddresses */\n          swap1\n          dup1\n          mload\n          swap1\n          0x20\n          add\n          swap1\n          tag_6\n          swap3\n          swap2\n          swap1\n          tag_7\n          jump\t// in\n        tag_6:\n          pop\n            /* \"Contracts/MainProjectFile.sol\":1112:1246  constructor(address[] memory _validAddresses) {... */\n          pop\n            /* \"Contracts/MainProjectFile.sol\":29:2676  contract AccommodationProvider {... */\n          jump(tag_8)\n        tag_7:\n          dup3\n          dup1\n          sload\n          dup3\n          dup3\n          sstore\n          swap1\n          0x00\n          mstore\n          keccak256(0x00, 0x20)\n          swap1\n          dup2\n          add\n          swap3\n          dup3\n          iszero\n          tag_9\n          jumpi\n          swap2\n          0x20\n          mul\n          dup3\n          add\n        tag_10:\n          dup3\n          dup2\n          gt\n          iszero\n          tag_11\n          jumpi\n          dup3\n          mload\n          dup3\n          exp(0x0100, 0x00)\n          dup2\n          sload\n          dup2\n          0xffffffffffffffffffffffffffffffffffffffff\n          mul\n          not\n          and\n          swap1\n          dup4\n          0xffffffffffffffffffffffffffffffffffffffff\n          and\n          mul\n          or\n          swap1\n          sstore\n          pop\n          swap2\n          0x20\n          add\n          swap2\n          swap1\n          0x01\n          add\n          swap1\n          jump(tag_10)\n        tag_11:\n        tag_9:\n          pop\n          swap1\n          pop\n          tag_12\n          swap2\n          swap1\n          tag_13\n          jump\t// in\n        tag_12:\n          pop\n          swap1\n          jump\t// out\n        tag_13:\n        tag_14:\n          dup1\n          dup3\n          gt\n          iszero\n          tag_15\n          jumpi\n          0x00\n          dup2\n          0x00\n          swap1\n          sstore\n          pop\n          0x01\n          add\n          jump(tag_14)\n        tag_15:\n          pop\n          swap1\n          jump\t// out\n            /* \"#utility.yul\":7:82   */\n        tag_16:\n            /* \"#utility.yul\":40:46   */\n          0x00\n            /* \"#utility.yul\":73:75   */\n          0x40\n            /* \"#utility.yul\":67:76   */\n          mload\n            /* \"#utility.yul\":57:76   */\n          swap1\n          pop\n            /* \"#utility.yul\":7:82   */\n          swap1\n          jump\t// out\n            /* \"#utility.yul\":88:205   */\n        tag_17:\n            /* \"#utility.yul\":197:198   */\n          0x00\n            /* \"#utility.yul\":194:195   */\n          dup1\n            /* \"#utility.yul\":187:199   */\n          revert\n            /* \"#utility.yul\":211:328   */\n        tag_18:\n            /* \"#utility.yul\":320:321   */\n          0x00\n            /* \"#utility.yul\":317:318   */\n          dup1\n            /* \"#utility.yul\":310:322   */\n          revert\n            /* \"#utility.yul\":334:451   */\n        tag_19:\n            /* \"#utility.yul\":443:444   */\n          0x00\n            /* \"#utility.yul\":440:441   */\n          dup1\n            /* \"#utility.yul\":433:445   */\n          revert\n            /* \"#utility.yul\":457:559   */\n        tag_20:\n            /* \"#utility.yul\":498:504   */\n          0x00\n            /* \"#utility.yul\":549:551   */\n          0x1f\n            /* \"#utility.yul\":545:552   */\n          not\n            /* \"#utility.yul\":540:542   */\n          0x1f\n            /* \"#utility.yul\":533:538   */\n          dup4\n            /* \"#utility.yul\":529:543   */\n          add\n            /* \"#utility.yul\":525:553   */\n          and\n            /* \"#utility.yul\":515:553   */\n          swap1\n          pop\n            /* \"#utility.yul\":457:559   */\n          swap2\n          swap1\n          pop\n          jump\t// out\n            /* \"#utility.yul\":565:745   */\n        tag_21:\n            /* \"#utility.yul\":613:690   */\n          0x4e487b7100000000000000000000000000000000000000000000000000000000\n            /* \"#utility.yul\":610:611   */\n          0x00\n            /* \"#utility.yul\":603:691   */\n          mstore\n            /* \"#utility.yul\":710:714   */\n          0x41\n            /* \"#utility.yul\":707:708   */\n          0x04\n            /* \"#utility.yul\":700:715   */\n          mstore\n            /* \"#utility.yul\":734:738   */\n          0x24\n            /* \"#utility.yul\":731:732   */\n          0x00\n            /* \"#utility.yul\":724:739   */\n          revert\n            /* \"#utility.yul\":751:1032   */\n        tag_22:\n            /* \"#utility.yul\":834:861   */\n          tag_40\n            /* \"#utility.yul\":856:860   */\n          dup3\n            /* \"#utility.yul\":834:861   */\n          tag_20\n          jump\t// in\n        tag_40:\n            /* \"#utility.yul\":826:832   */\n          dup2\n            /* \"#utility.yul\":822:862   */\n          add\n            /* \"#utility.yul\":964:970   */\n          dup2\n            /* \"#utility.yul\":952:962   */\n          dup2\n            /* \"#utility.yul\":949:971   */\n          lt\n            /* \"#utility.yul\":928:946   */\n          0xffffffffffffffff\n            /* \"#utility.yul\":916:926   */\n          dup3\n            /* \"#utility.yul\":913:947   */\n          gt\n            /* \"#utility.yul\":910:972   */\n          or\n            /* \"#utility.yul\":907:995   */\n          iszero\n          tag_41\n          jumpi\n            /* \"#utility.yul\":975:993   */\n          tag_42\n          tag_21\n          jump\t// in\n        tag_42:\n            /* \"#utility.yul\":907:995   */\n        tag_41:\n            /* \"#utility.yul\":1015:1025   */\n          dup1\n            /* \"#utility.yul\":1011:1013   */\n          0x40\n            /* \"#utility.yul\":1004:1026   */\n          mstore\n            /* \"#utility.yul\":794:1032   */\n          pop\n            /* \"#utility.yul\":751:1032   */\n          pop\n          pop\n          jump\t// out\n            /* \"#utility.yul\":1038:1167   */\n        tag_23:\n            /* \"#utility.yul\":1072:1078   */\n          0x00\n            /* \"#utility.yul\":1099:1119   */\n          tag_44\n          tag_16\n          jump\t// in\n        tag_44:\n            /* \"#utility.yul\":1089:1119   */\n          swap1\n          pop\n            /* \"#utility.yul\":1128:1161   */\n          tag_45\n            /* \"#utility.yul\":1156:1160   */\n          dup3\n            /* \"#utility.yul\":1148:1154   */\n          dup3\n            /* \"#utility.yul\":1128:1161   */\n          tag_22\n          jump\t// in\n        tag_45:\n            /* \"#utility.yul\":1038:1167   */\n          swap2\n          swap1\n          pop\n          jump\t// out\n            /* \"#utility.yul\":1173:1484   */\n        tag_24:\n            /* \"#utility.yul\":1250:1254   */\n          0x00\n            /* \"#utility.yul\":1340:1358   */\n          0xffffffffffffffff\n            /* \"#utility.yul\":1332:1338   */\n          dup3\n            /* \"#utility.yul\":1329:1359   */\n          gt\n            /* \"#utility.yul\":1326:1382   */\n          iszero\n          tag_47\n          jumpi\n            /* \"#utility.yul\":1362:1380   */\n          tag_48\n          tag_21\n          jump\t// in\n        tag_48:\n            /* \"#utility.yul\":1326:1382   */\n        tag_47:\n            /* \"#utility.yul\":1412:1416   */\n          0x20\n            /* \"#utility.yul\":1404:1410   */\n          dup3\n            /* \"#utility.yul\":1400:1417   */\n          mul\n            /* \"#utility.yul\":1392:1417   */\n          swap1\n          pop\n            /* \"#utility.yul\":1472:1476   */\n          0x20\n            /* \"#utility.yul\":1466:1470   */\n          dup2\n            /* \"#utility.yul\":1462:1477   */\n          add\n            /* \"#utility.yul\":1454:1477   */\n          swap1\n          pop\n            /* \"#utility.yul\":1173:1484   */\n          swap2\n          swap1\n          pop\n          jump\t// out\n            /* \"#utility.yul\":1490:1607   */\n        tag_25:\n            /* \"#utility.yul\":1599:1600   */\n          0x00\n            /* \"#utility.yul\":1596:1597   */\n          dup1\n            /* \"#utility.yul\":1589:1601   */\n          revert\n            /* \"#utility.yul\":1613:1739   */\n        tag_26:\n            /* \"#utility.yul\":1650:1657   */\n          0x00\n            /* \"#utility.yul\":1690:1732   */\n          0xffffffffffffffffffffffffffffffffffffffff\n            /* \"#utility.yul\":1683:1688   */\n          dup3\n            /* \"#utility.yul\":1679:1733   */\n          and\n            /* \"#utility.yul\":1668:1733   */\n          swap1\n          pop\n            /* \"#utility.yul\":1613:1739   */\n          swap2\n          swap1\n          pop\n          jump\t// out\n            /* \"#utility.yul\":1745:1841   */\n        tag_27:\n            /* \"#utility.yul\":1782:1789   */\n          0x00\n            /* \"#utility.yul\":1811:1835   */\n          tag_52\n            /* \"#utility.yul\":1829:1834   */\n          dup3\n            /* \"#utility.yul\":1811:1835   */\n          tag_26\n          jump\t// in\n        tag_52:\n            /* \"#utility.yul\":1800:1835   */\n          swap1\n          pop\n            /* \"#utility.yul\":1745:1841   */\n          swap2\n          swap1\n          pop\n          jump\t// out\n            /* \"#utility.yul\":1847:1969   */\n        tag_28:\n            /* \"#utility.yul\":1920:1944   */\n          tag_54\n            /* \"#utility.yul\":1938:1943   */\n          dup2\n            /* \"#utility.yul\":1920:1944   */\n          tag_27\n          jump\t// in\n        tag_54:\n            /* \"#utility.yul\":1913:1918   */\n          dup2\n            /* \"#utility.yul\":1910:1945   */\n          eq\n            /* \"#utility.yul\":1900:1963   */\n          tag_55\n          jumpi\n            /* \"#utility.yul\":1959:1960   */\n          0x00\n            /* \"#utility.yul\":1956:1957   */\n          dup1\n            /* \"#utility.yul\":1949:1961   */\n          revert\n            /* \"#utility.yul\":1900:1963   */\n        tag_55:\n            /* \"#utility.yul\":1847:1969   */\n          pop\n          jump\t// out\n            /* \"#utility.yul\":1975:2118   */\n        tag_29:\n            /* \"#utility.yul\":2032:2037   */\n          0x00\n            /* \"#utility.yul\":2063:2069   */\n          dup2\n            /* \"#utility.yul\":2057:2070   */\n          mload\n            /* \"#utility.yul\":2048:2070   */\n          swap1\n          pop\n            /* \"#utility.yul\":2079:2112   */\n          tag_57\n            /* \"#utility.yul\":2106:2111   */\n          dup2\n            /* \"#utility.yul\":2079:2112   */\n          tag_28\n          jump\t// in\n        tag_57:\n            /* \"#utility.yul\":1975:2118   */\n          swap3\n          swap2\n          pop\n          pop\n          jump\t// out\n            /* \"#utility.yul\":2141:2873   */\n        tag_30:\n            /* \"#utility.yul\":2248:2253   */\n          0x00\n            /* \"#utility.yul\":2273:2354   */\n          tag_59\n            /* \"#utility.yul\":2289:2353   */\n          tag_60\n            /* \"#utility.yul\":2346:2352   */\n          dup5\n            /* \"#utility.yul\":2289:2353   */\n          tag_24\n          jump\t// in\n        tag_60:\n            /* \"#utility.yul\":2273:2354   */\n          tag_23\n          jump\t// in\n        tag_59:\n            /* \"#utility.yul\":2264:2354   */\n          swap1\n          pop\n            /* \"#utility.yul\":2374:2379   */\n          dup1\n            /* \"#utility.yul\":2403:2409   */\n          dup4\n            /* \"#utility.yul\":2396:2401   */\n          dup3\n            /* \"#utility.yul\":2389:2410   */\n          mstore\n            /* \"#utility.yul\":2437:2441   */\n          0x20\n            /* \"#utility.yul\":2430:2435   */\n          dup3\n            /* \"#utility.yul\":2426:2442   */\n          add\n            /* \"#utility.yul\":2419:2442   */\n          swap1\n          pop\n            /* \"#utility.yul\":2490:2494   */\n          0x20\n            /* \"#utility.yul\":2482:2488   */\n          dup5\n            /* \"#utility.yul\":2478:2495   */\n          mul\n            /* \"#utility.yul\":2470:2476   */\n          dup4\n            /* \"#utility.yul\":2466:2496   */\n          add\n            /* \"#utility.yul\":2519:2522   */\n          dup6\n            /* \"#utility.yul\":2511:2517   */\n          dup2\n            /* \"#utility.yul\":2508:2523   */\n          gt\n            /* \"#utility.yul\":2505:2627   */\n          iszero\n          tag_61\n          jumpi\n            /* \"#utility.yul\":2538:2617   */\n          tag_62\n          tag_25\n          jump\t// in\n        tag_62:\n            /* \"#utility.yul\":2505:2627   */\n        tag_61:\n            /* \"#utility.yul\":2653:2659   */\n          dup4\n            /* \"#utility.yul\":2636:2867   */\n        tag_63:\n            /* \"#utility.yul\":2670:2676   */\n          dup2\n            /* \"#utility.yul\":2665:2668   */\n          dup2\n            /* \"#utility.yul\":2662:2677   */\n          lt\n            /* \"#utility.yul\":2636:2867   */\n          iszero\n          tag_65\n          jumpi\n            /* \"#utility.yul\":2745:2748   */\n          dup1\n            /* \"#utility.yul\":2774:2822   */\n          tag_66\n            /* \"#utility.yul\":2818:2821   */\n          dup9\n            /* \"#utility.yul\":2806:2816   */\n          dup3\n            /* \"#utility.yul\":2774:2822   */\n          tag_29\n          jump\t// in\n        tag_66:\n            /* \"#utility.yul\":2769:2772   */\n          dup5\n            /* \"#utility.yul\":2762:2823   */\n          mstore\n            /* \"#utility.yul\":2852:2856   */\n          0x20\n            /* \"#utility.yul\":2847:2850   */\n          dup5\n            /* \"#utility.yul\":2843:2857   */\n          add\n            /* \"#utility.yul\":2836:2857   */\n          swap4\n          pop\n            /* \"#utility.yul\":2712:2867   */\n          pop\n            /* \"#utility.yul\":2696:2700   */\n          0x20\n            /* \"#utility.yul\":2691:2694   */\n          dup2\n            /* \"#utility.yul\":2687:2701   */\n          add\n            /* \"#utility.yul\":2680:2701   */\n          swap1\n          pop\n            /* \"#utility.yul\":2636:2867   */\n          jump(tag_63)\n        tag_65:\n            /* \"#utility.yul\":2640:2661   */\n          pop\n            /* \"#utility.yul\":2254:2873   */\n          pop\n          pop\n            /* \"#utility.yul\":2141:2873   */\n          swap4\n          swap3\n          pop\n          pop\n          pop\n          jump\t// out\n            /* \"#utility.yul\":2896:3281   */\n        tag_31:\n            /* \"#utility.yul\":2978:2983   */\n          0x00\n            /* \"#utility.yul\":3027:3030   */\n          dup3\n            /* \"#utility.yul\":3020:3024   */\n          0x1f\n            /* \"#utility.yul\":3012:3018   */\n          dup4\n            /* \"#utility.yul\":3008:3025   */\n          add\n            /* \"#utility.yul\":3004:3031   */\n          slt\n            /* \"#utility.yul\":2994:3116   */\n          tag_68\n          jumpi\n            /* \"#utility.yul\":3035:3114   */\n          tag_69\n          tag_19\n          jump\t// in\n        tag_69:\n            /* \"#utility.yul\":2994:3116   */\n        tag_68:\n            /* \"#utility.yul\":3145:3151   */\n          dup2\n            /* \"#utility.yul\":3139:3152   */\n          mload\n            /* \"#utility.yul\":3170:3275   */\n          tag_70\n            /* \"#utility.yul\":3271:3274   */\n          dup5\n            /* \"#utility.yul\":3263:3269   */\n          dup3\n            /* \"#utility.yul\":3256:3260   */\n          0x20\n            /* \"#utility.yul\":3248:3254   */\n          dup7\n            /* \"#utility.yul\":3244:3261   */\n          add\n            /* \"#utility.yul\":3170:3275   */\n          tag_30\n          jump\t// in\n        tag_70:\n            /* \"#utility.yul\":3161:3275   */\n          swap2\n          pop\n            /* \"#utility.yul\":2984:3281   */\n          pop\n            /* \"#utility.yul\":2896:3281   */\n          swap3\n          swap2\n          pop\n          pop\n          jump\t// out\n            /* \"#utility.yul\":3287:3841   */\n        tag_3:\n            /* \"#utility.yul\":3382:3388   */\n          0x00\n            /* \"#utility.yul\":3431:3433   */\n          0x20\n            /* \"#utility.yul\":3419:3428   */\n          dup3\n            /* \"#utility.yul\":3410:3417   */\n          dup5\n            /* \"#utility.yul\":3406:3429   */\n          sub\n            /* \"#utility.yul\":3402:3434   */\n          slt\n            /* \"#utility.yul\":3399:3518   */\n          iszero\n          tag_72\n          jumpi\n            /* \"#utility.yul\":3437:3516   */\n          tag_73\n          tag_17\n          jump\t// in\n        tag_73:\n            /* \"#utility.yul\":3399:3518   */\n        tag_72:\n            /* \"#utility.yul\":3578:3579   */\n          0x00\n            /* \"#utility.yul\":3567:3576   */\n          dup3\n            /* \"#utility.yul\":3563:3580   */\n          add\n            /* \"#utility.yul\":3557:3581   */\n          mload\n            /* \"#utility.yul\":3608:3626   */\n          0xffffffffffffffff\n            /* \"#utility.yul\":3600:3606   */\n          dup2\n            /* \"#utility.yul\":3597:3627   */\n          gt\n            /* \"#utility.yul\":3594:3711   */\n          iszero\n          tag_74\n          jumpi\n            /* \"#utility.yul\":3630:3709   */\n          tag_75\n          tag_18\n          jump\t// in\n        tag_75:\n            /* \"#utility.yul\":3594:3711   */\n        tag_74:\n            /* \"#utility.yul\":3735:3824   */\n          tag_76\n            /* \"#utility.yul\":3816:3823   */\n          dup5\n            /* \"#utility.yul\":3807:3813   */\n          dup3\n            /* \"#utility.yul\":3796:3805   */\n          dup6\n            /* \"#utility.yul\":3792:3814   */\n          add\n            /* \"#utility.yul\":3735:3824   */\n          tag_31\n          jump\t// in\n        tag_76:\n            /* \"#utility.yul\":3725:3824   */\n          swap2\n          pop\n            /* \"#utility.yul\":3528:3834   */\n          pop\n            /* \"#utility.yul\":3287:3841   */\n          swap3\n          swap2\n          pop\n          pop\n          jump\t// out\n            /* \"Contracts/MainProjectFile.sol\":29:2676  contract AccommodationProvider {... */\n        tag_8:\n          dataSize(sub_0)\n          dup1\n          dataOffset(sub_0)\n          0x00\n          codecopy\n          0x00\n          return\n        stop\n\n        sub_0: assembly {\n                /* \"Contracts/MainProjectFile.sol\":29:2676  contract AccommodationProvider {... */\n              mstore(0x40, 0x80)\n              callvalue\n              dup1\n              iszero\n              tag_1\n              jumpi\n              0x00\n              dup1\n              revert\n            tag_1:\n              pop\n              jumpi(tag_2, lt(calldatasize, 0x04))\n              shr(0xe0, calldataload(0x00))\n              dup1\n              0xabad2243\n              gt\n              tag_12\n              jumpi\n              dup1\n              0xabad2243\n              eq\n              tag_7\n              jumpi\n              dup1\n              0xd40a7315\n              eq\n              tag_8\n              jumpi\n              dup1\n              0xd599db29\n              eq\n              tag_9\n              jumpi\n              dup1\n              0xe77aaa0b\n              eq\n              tag_10\n              jumpi\n              dup1\n              0xece8027a\n              eq\n              tag_11\n              jumpi\n              jump(tag_2)\n            tag_12:\n              dup1\n              0x1a92c875\n              eq\n              tag_3\n              jumpi\n              dup1\n              0x3826b1ea\n              eq\n              tag_4\n              jumpi\n              dup1\n              0x479ad4c3\n              eq\n              tag_5\n              jumpi\n              dup1\n              0x82b01cdf\n              eq\n              tag_6\n              jumpi\n            tag_2:\n              0x00\n              dup1\n              revert\n                /* \"Contracts/MainProjectFile.sol\":241:266  uint256 public accomCount */\n            tag_3:\n              tag_13\n              tag_14\n              jump\t// in\n            tag_13:\n              mload(0x40)\n              tag_15\n              swap2\n              swap1\n              tag_16\n              jump\t// in\n            tag_15:\n              mload(0x40)\n              dup1\n              swap2\n              sub\n              swap1\n              return\n                /* \"Contracts/MainProjectFile.sol\":273:304  address public regulatorAddress */\n            tag_4:\n              tag_17\n              tag_18\n              jump\t// in\n            tag_17:\n              mload(0x40)\n              tag_19\n              swap2\n              swap1\n              tag_20\n              jump\t// in\n            tag_19:\n              mload(0x40)\n              dup1\n              swap2\n              sub\n              swap1\n              return\n                /* \"Contracts/MainProjectFile.sol\":1972:2333  function removeListing(uint256 _id) public onlyValidAddress {... */\n            tag_5:\n              tag_21\n              0x04\n              dup1\n              calldatasize\n              sub\n              dup2\n              add\n              swap1\n              tag_22\n              swap2\n              swap1\n              tag_23\n              jump\t// in\n            tag_22:\n              tag_24\n              jump\t// in\n            tag_21:\n              stop\n                /* \"Contracts/MainProjectFile.sol\":1254:1524  function createAccommodation(string memory _location, uint256 _price) public onlyValidAddress {... */\n            tag_6:\n              tag_25\n              0x04\n              dup1\n              calldatasize\n              sub\n              dup2\n              add\n              swap1\n              tag_26\n              swap2\n              swap1\n              tag_27\n              jump\t// in\n            tag_26:\n              tag_28\n              jump\t// in\n            tag_25:\n              stop\n                /* \"Contracts/MainProjectFile.sol\":2341:2673  function getAccommodationDetails(uint256 _id) public view returns (string memory, uint256, bool) {... */\n            tag_7:\n              tag_29\n              0x04\n              dup1\n              calldatasize\n              sub\n              dup2\n              add\n              swap1\n              tag_30\n              swap2\n              swap1\n              tag_23\n              jump\t// in\n            tag_30:\n              tag_31\n              jump\t// in\n            tag_29:\n              mload(0x40)\n              tag_32\n              swap4\n              swap3\n              swap2\n              swap1\n              tag_33\n              jump\t// in\n            tag_32:\n              mload(0x40)\n              dup1\n              swap2\n              sub\n              swap1\n              return\n                /* \"Contracts/MainProjectFile.sol\":1532:1964  function updateAccommodationDetails(uint256 _id, string memory _location, uint256 _price, bool _available) public onlyValidAddress {... */\n            tag_8:\n              tag_34\n              0x04\n              dup1\n              calldatasize\n              sub\n              dup2\n              add\n              swap1\n              tag_35\n              swap2\n              swap1\n              tag_36\n              jump\t// in\n            tag_35:\n              tag_37\n              jump\t// in\n            tag_34:\n              stop\n                /* \"Contracts/MainProjectFile.sol\":179:234  mapping(uint256 => Accommodation) public accommodations */\n            tag_9:\n              tag_38\n              0x04\n              dup1\n              calldatasize\n              sub\n              dup2\n              add\n              swap1\n              tag_39\n              swap2\n              swap1\n              tag_23\n              jump\t// in\n            tag_39:\n              tag_40\n              jump\t// in\n            tag_38:\n              mload(0x40)\n              tag_41\n              swap4\n              swap3\n              swap2\n              swap1\n              tag_33\n              jump\t// in\n            tag_41:\n              mload(0x40)\n              dup1\n              swap2\n              sub\n              swap1\n              return\n                /* \"Contracts/MainProjectFile.sol\":346:377  address[] public validAddresses */\n            tag_10:\n              tag_42\n              0x04\n              dup1\n              calldatasize\n              sub\n              dup2\n              add\n              swap1\n              tag_43\n              swap2\n              swap1\n              tag_23\n              jump\t// in\n            tag_43:\n              tag_44\n              jump\t// in\n            tag_42:\n              mload(0x40)\n              tag_45\n              swap2\n              swap1\n              tag_20\n              jump\t// in\n            tag_45:\n              mload(0x40)\n              dup1\n              swap2\n              sub\n              swap1\n              return\n                /* \"Contracts/MainProjectFile.sol\":311:339  address public providerOwner */\n            tag_11:\n              tag_46\n              tag_47\n              jump\t// in\n            tag_46:\n              mload(0x40)\n              tag_48\n              swap2\n              swap1\n              tag_20\n              jump\t// in\n            tag_48:\n              mload(0x40)\n              dup1\n              swap2\n              sub\n              swap1\n              return\n                /* \"Contracts/MainProjectFile.sol\":241:266  uint256 public accomCount */\n            tag_14:\n              sload(0x01)\n              dup2\n              jump\t// out\n                /* \"Contracts/MainProjectFile.sol\":273:304  address public regulatorAddress */\n            tag_18:\n              0x02\n              0x00\n              swap1\n              sload\n              swap1\n              0x0100\n              exp\n              swap1\n              div\n              0xffffffffffffffffffffffffffffffffffffffff\n              and\n              dup2\n              jump\t// out\n                /* \"Contracts/MainProjectFile.sol\":1972:2333  function removeListing(uint256 _id) public onlyValidAddress {... */\n            tag_24:\n                /* \"Contracts/MainProjectFile.sol\":797:809  bool isValid */\n              0x00\n                /* \"Contracts/MainProjectFile.sol\":833:842  uint256 i */\n              dup1\n                /* \"Contracts/MainProjectFile.sol\":828:1016  for (uint256 i = 0; i < validAddresses.length; i++) {... */\n            tag_50:\n                /* \"Contracts/MainProjectFile.sol\":852:866  validAddresses */\n              0x04\n                /* \"Contracts/MainProjectFile.sol\":852:873  validAddresses.length */\n              dup1\n              sload\n              swap1\n              pop\n                /* \"Contracts/MainProjectFile.sol\":848:849  i */\n              dup2\n                /* \"Contracts/MainProjectFile.sol\":848:873  i < validAddresses.length */\n              lt\n                /* \"Contracts/MainProjectFile.sol\":828:1016  for (uint256 i = 0; i < validAddresses.length; i++) {... */\n              iszero\n              tag_51\n              jumpi\n                /* \"Contracts/MainProjectFile.sol\":920:930  msg.sender */\n              caller\n                /* \"Contracts/MainProjectFile.sol\":899:930  validAddresses[i] == msg.sender */\n              0xffffffffffffffffffffffffffffffffffffffff\n              and\n                /* \"Contracts/MainProjectFile.sol\":899:913  validAddresses */\n              0x04\n                /* \"Contracts/MainProjectFile.sol\":914:915  i */\n              dup3\n                /* \"Contracts/MainProjectFile.sol\":899:916  validAddresses[i] */\n              dup2\n              sload\n              dup2\n              lt\n              tag_53\n              jumpi\n              tag_54\n              tag_55\n              jump\t// in\n            tag_54:\n            tag_53:\n              swap1\n              0x00\n              mstore\n              keccak256(0x00, 0x20)\n              add\n              0x00\n              swap1\n              sload\n              swap1\n              0x0100\n              exp\n              swap1\n              div\n              0xffffffffffffffffffffffffffffffffffffffff\n              and\n                /* \"Contracts/MainProjectFile.sol\":899:930  validAddresses[i] == msg.sender */\n              0xffffffffffffffffffffffffffffffffffffffff\n              and\n              sub\n                /* \"Contracts/MainProjectFile.sol\":895:1005  if (validAddresses[i] == msg.sender) {... */\n              tag_57\n              jumpi\n                /* \"Contracts/MainProjectFile.sol\":961:965  true */\n              0x01\n                /* \"Contracts/MainProjectFile.sol\":951:965  isValid = true */\n              swap2\n              pop\n                /* \"Contracts/MainProjectFile.sol\":984:989  break */\n              jump(tag_51)\n                /* \"Contracts/MainProjectFile.sol\":895:1005  if (validAddresses[i] == msg.sender) {... */\n            tag_57:\n                /* \"Contracts/MainProjectFile.sol\":875:878  i++ */\n              dup1\n              dup1\n              0x01\n              add\n              swap2\n              pop\n              pop\n                /* \"Contracts/MainProjectFile.sol\":828:1016  for (uint256 i = 0; i < validAddresses.length; i++) {... */\n              jump(tag_50)\n            tag_51:\n              pop\n                /* \"Contracts/MainProjectFile.sol\":1034:1041  isValid */\n              dup1\n                /* \"Contracts/MainProjectFile.sol\":1026:1084  require(isValid, \"Address is not valid for this contract\") */\n              tag_58\n              jumpi\n              mload(0x40)\n              0x08c379a000000000000000000000000000000000000000000000000000000000\n              dup2\n              mstore\n              0x04\n              add\n              tag_59\n              swap1\n              tag_60\n              jump\t// in\n            tag_59:\n              mload(0x40)\n              dup1\n              swap2\n              sub\n              swap1\n              revert\n            tag_58:\n                /* \"Contracts/MainProjectFile.sol\":2057:2067  accomCount */\n              sload(0x01)\n                /* \"Contracts/MainProjectFile.sol\":2051:2054  _id */\n              dup3\n                /* \"Contracts/MainProjectFile.sol\":2051:2067  _id < accomCount */\n              lt\n                /* \"Contracts/MainProjectFile.sol\":2043:2098  require(_id < accomCount, \"Non valid accommodation ID\") */\n              tag_62\n              jumpi\n              mload(0x40)\n              0x08c379a000000000000000000000000000000000000000000000000000000000\n              dup2\n              mstore\n              0x04\n              add\n              tag_63\n              swap1\n              tag_64\n              jump\t// in\n            tag_63:\n              mload(0x40)\n              dup1\n              swap2\n              sub\n              swap1\n              revert\n            tag_62:\n                /* \"Contracts/MainProjectFile.sol\":2132:2133  1 */\n              0x01\n                /* \"Contracts/MainProjectFile.sol\":2119:2129  accomCount */\n              dup1\n              sload\n                /* \"Contracts/MainProjectFile.sol\":2119:2133  accomCount - 1 */\n              tag_65\n              swap2\n              swap1\n              tag_66\n              jump\t// in\n            tag_65:\n                /* \"Contracts/MainProjectFile.sol\":2113:2116  _id */\n              dup3\n                /* \"Contracts/MainProjectFile.sol\":2113:2133  _id < accomCount - 1 */\n              lt\n                /* \"Contracts/MainProjectFile.sol\":2109:2214  if (_id < accomCount - 1) {... */\n              iszero\n              tag_67\n              jumpi\n                /* \"Contracts/MainProjectFile.sol\":2172:2186  accommodations */\n              0x00\n                /* \"Contracts/MainProjectFile.sol\":2172:2202  accommodations[accomCount - 1] */\n              dup1\n                /* \"Contracts/MainProjectFile.sol\":2200:2201  1 */\n              0x01\n                /* \"Contracts/MainProjectFile.sol\":2187:2197  accomCount */\n              dup1\n              sload\n                /* \"Contracts/MainProjectFile.sol\":2187:2201  accomCount - 1 */\n              tag_68\n              swap2\n              swap1\n              tag_66\n              jump\t// in\n            tag_68:\n                /* \"Contracts/MainProjectFile.sol\":2172:2202  accommodations[accomCount - 1] */\n              dup2\n              mstore\n              0x20\n              add\n              swap1\n              dup2\n              mstore\n              0x20\n              add\n              0x00\n              keccak256\n                /* \"Contracts/MainProjectFile.sol\":2150:2164  accommodations */\n              0x00\n                /* \"Contracts/MainProjectFile.sol\":2150:2169  accommodations[_id] */\n              dup1\n                /* \"Contracts/MainProjectFile.sol\":2165:2168  _id */\n              dup5\n                /* \"Contracts/MainProjectFile.sol\":2150:2169  accommodations[_id] */\n              dup2\n              mstore\n              0x20\n              add\n              swap1\n              dup2\n              mstore\n              0x20\n              add\n              0x00\n              keccak256\n                /* \"Contracts/MainProjectFile.sol\":2150:2202  accommodations[_id] = accommodations[accomCount - 1] */\n              0x00\n              dup3\n              add\n              dup2\n              0x00\n              add\n              swap1\n              dup2\n              tag_69\n              swap2\n              swap1\n              tag_70\n              jump\t// in\n            tag_69:\n              pop\n              0x01\n              dup3\n              add\n              sload\n              dup2\n              0x01\n              add\n              sstore\n              0x02\n              dup3\n              add\n              0x00\n              swap1\n              sload\n              swap1\n              0x0100\n              exp\n              swap1\n              div\n              0xff\n              and\n              dup2\n              0x02\n              add\n              exp(0x0100, 0x00)\n              dup2\n              sload\n              dup2\n              0xff\n              mul\n              not\n              and\n              swap1\n              dup4\n              iszero\n              iszero\n              mul\n              or\n              swap1\n              sstore\n              pop\n              swap1\n              pop\n              pop\n                /* \"Contracts/MainProjectFile.sol\":2109:2214  if (_id < accomCount - 1) {... */\n            tag_67:\n                /* \"Contracts/MainProjectFile.sol\":2231:2245  accommodations */\n              0x00\n                /* \"Contracts/MainProjectFile.sol\":2231:2261  accommodations[accomCount - 1] */\n              dup1\n                /* \"Contracts/MainProjectFile.sol\":2259:2260  1 */\n              0x01\n                /* \"Contracts/MainProjectFile.sol\":2246:2256  accomCount */\n              dup1\n              sload\n                /* \"Contracts/MainProjectFile.sol\":2246:2260  accomCount - 1 */\n              tag_71\n              swap2\n              swap1\n              tag_66\n              jump\t// in\n            tag_71:\n                /* \"Contracts/MainProjectFile.sol\":2231:2261  accommodations[accomCount - 1] */\n              dup2\n              mstore\n              0x20\n              add\n              swap1\n              dup2\n              mstore\n              0x20\n              add\n              0x00\n              keccak256\n              0x00\n                /* \"Contracts/MainProjectFile.sol\":2224:2261  delete accommodations[accomCount - 1] */\n              dup1\n              dup3\n              add\n              0x00\n              tag_72\n              swap2\n              swap1\n              tag_73\n              jump\t// in\n            tag_72:\n              0x01\n              dup3\n              add\n              0x00\n              swap1\n              sstore\n              0x02\n              dup3\n              add\n              exp(0x0100, 0x00)\n              dup2\n              sload\n              swap1\n              0xff\n              mul\n              not\n              and\n              swap1\n              sstore\n              pop\n              pop\n                /* \"Contracts/MainProjectFile.sol\":2277:2302  AccommodationRemoved(_id) */\n              0xf39079f47d6285a460af689f5ed04a6111609ba33a84c513f8aa091eb0822fe9\n                /* \"Contracts/MainProjectFile.sol\":2298:2301  _id */\n              dup3\n                /* \"Contracts/MainProjectFile.sol\":2277:2302  AccommodationRemoved(_id) */\n              mload(0x40)\n              tag_74\n              swap2\n              swap1\n              tag_16\n              jump\t// in\n            tag_74:\n              mload(0x40)\n              dup1\n              swap2\n              sub\n              swap1\n              log1\n                /* \"Contracts/MainProjectFile.sol\":2313:2323  accomCount */\n              0x01\n              0x00\n                /* \"Contracts/MainProjectFile.sol\":2313:2325  accomCount-- */\n              dup2\n              sload\n              dup1\n              swap3\n              swap2\n              swap1\n              tag_75\n              swap1\n              tag_76\n              jump\t// in\n            tag_75:\n              swap2\n              swap1\n              pop\n              sstore\n              pop\n                /* \"Contracts/MainProjectFile.sol\":786:1104  {... */\n              pop\n                /* \"Contracts/MainProjectFile.sol\":1972:2333  function removeListing(uint256 _id) public onlyValidAddress {... */\n              pop\n              jump\t// out\n                /* \"Contracts/MainProjectFile.sol\":1254:1524  function createAccommodation(string memory _location, uint256 _price) public onlyValidAddress {... */\n            tag_28:\n                /* \"Contracts/MainProjectFile.sol\":797:809  bool isValid */\n              0x00\n                /* \"Contracts/MainProjectFile.sol\":833:842  uint256 i */\n              dup1\n                /* \"Contracts/MainProjectFile.sol\":828:1016  for (uint256 i = 0; i < validAddresses.length; i++) {... */\n            tag_78:\n                /* \"Contracts/MainProjectFile.sol\":852:866  validAddresses */\n              0x04\n                /* \"Contracts/MainProjectFile.sol\":852:873  validAddresses.length */\n              dup1\n              sload\n              swap1\n              pop\n                /* \"Contracts/MainProjectFile.sol\":848:849  i */\n              dup2\n                /* \"Contracts/MainProjectFile.sol\":848:873  i < validAddresses.length */\n              lt\n                /* \"Contracts/MainProjectFile.sol\":828:1016  for (uint256 i = 0; i < validAddresses.length; i++) {... */\n              iszero\n              tag_79\n              jumpi\n                /* \"Contracts/MainProjectFile.sol\":920:930  msg.sender */\n              caller\n                /* \"Contracts/MainProjectFile.sol\":899:930  validAddresses[i] == msg.sender */\n              0xffffffffffffffffffffffffffffffffffffffff\n              and\n                /* \"Contracts/MainProjectFile.sol\":899:913  validAddresses */\n              0x04\n                /* \"Contracts/MainProjectFile.sol\":914:915  i */\n              dup3\n                /* \"Contracts/MainProjectFile.sol\":899:916  validAddresses[i] */\n              dup2\n              sload\n              dup2\n              lt\n              tag_81\n              jumpi\n              tag_82\n              tag_55\n              jump\t// in\n            tag_82:\n            tag_81:\n              swap1\n              0x00\n              mstore\n              keccak256(0x00, 0x20)\n              add\n              0x00\n              swap1\n              sload\n              swap1\n              0x0100\n              exp\n              swap1\n              div\n              0xffffffffffffffffffffffffffffffffffffffff\n              and\n                /* \"Contracts/MainProjectFile.sol\":899:930  validAddresses[i] == msg.sender */\n              0xffffffffffffffffffffffffffffffffffffffff\n              and\n              sub\n                /* \"Contracts/MainProjectFile.sol\":895:1005  if (validAddresses[i] == msg.sender) {... */\n              tag_84\n              jumpi\n                /* \"Contracts/MainProjectFile.sol\":961:965  true */\n              0x01\n                /* \"Contracts/MainProjectFile.sol\":951:965  isValid = true */\n              swap2\n              pop\n                /* \"Contracts/MainProjectFile.sol\":984:989  break */\n              jump(tag_79)\n                /* \"Contracts/MainProjectFile.sol\":895:1005  if (validAddresses[i] == msg.sender) {... */\n            tag_84:\n                /* \"Contracts/MainProjectFile.sol\":875:878  i++ */\n              dup1\n              dup1\n              0x01\n              add\n              swap2\n              pop\n              pop\n                /* \"Contracts/MainProjectFile.sol\":828:1016  for (uint256 i = 0; i < validAddresses.length; i++) {... */\n              jump(tag_78)\n            tag_79:\n              pop\n                /* \"Contracts/MainProjectFile.sol\":1034:1041  isValid */\n              dup1\n                /* \"Contracts/MainProjectFile.sol\":1026:1084  require(isValid, \"Address is not valid for this contract\") */\n              tag_85\n              jumpi\n              mload(0x40)\n              0x08c379a000000000000000000000000000000000000000000000000000000000\n              dup2\n              mstore\n              0x04\n              add\n              tag_86\n              swap1\n              tag_60\n              jump\t// in\n            tag_86:\n              mload(0x40)\n              dup1\n              swap2\n              sub\n              swap1\n              revert\n            tag_85:\n                /* \"Contracts/MainProjectFile.sol\":1388:1426  Accommodation(_location, _price, true) */\n              mload(0x40)\n              dup1\n              0x60\n              add\n              0x40\n              mstore\n              dup1\n                /* \"Contracts/MainProjectFile.sol\":1402:1411  _location */\n              dup5\n                /* \"Contracts/MainProjectFile.sol\":1388:1426  Accommodation(_location, _price, true) */\n              dup2\n              mstore\n              0x20\n              add\n                /* \"Contracts/MainProjectFile.sol\":1413:1419  _price */\n              dup4\n                /* \"Contracts/MainProjectFile.sol\":1388:1426  Accommodation(_location, _price, true) */\n              dup2\n              mstore\n              0x20\n              add\n                /* \"Contracts/MainProjectFile.sol\":1421:1425  true */\n              0x01\n                /* \"Contracts/MainProjectFile.sol\":1388:1426  Accommodation(_location, _price, true) */\n              iszero\n              iszero\n              dup2\n              mstore\n              pop\n                /* \"Contracts/MainProjectFile.sol\":1359:1373  accommodations */\n              0x00\n                /* \"Contracts/MainProjectFile.sol\":1359:1385  accommodations[accomCount] */\n              dup1\n                /* \"Contracts/MainProjectFile.sol\":1374:1384  accomCount */\n              sload(0x01)\n                /* \"Contracts/MainProjectFile.sol\":1359:1385  accommodations[accomCount] */\n              dup2\n              mstore\n              0x20\n              add\n              swap1\n              dup2\n              mstore\n              0x20\n              add\n              0x00\n              keccak256\n                /* \"Contracts/MainProjectFile.sol\":1359:1426  accommodations[accomCount] = Accommodation(_location, _price, true) */\n              0x00\n              dup3\n              add\n              mload\n              dup2\n              0x00\n              add\n              swap1\n              dup2\n              tag_88\n              swap2\n              swap1\n              tag_89\n              jump\t// in\n            tag_88:\n              pop\n              0x20\n              dup3\n              add\n              mload\n              dup2\n              0x01\n              add\n              sstore\n              0x40\n              dup3\n              add\n              mload\n              dup2\n              0x02\n              add\n              exp(0x0100, 0x00)\n              dup2\n              sload\n              dup2\n              0xff\n              mul\n              not\n              and\n              swap1\n              dup4\n              iszero\n              iszero\n              mul\n              or\n              swap1\n              sstore\n              pop\n              swap1\n              pop\n              pop\n                /* \"Contracts/MainProjectFile.sol\":1442:1493  AccommodationCreated(accomCount, _location, _price) */\n              0x533ea7ae9c9edafb5b8fb647086d8efd5cecfadb8ed130d777e534f72d941492\n                /* \"Contracts/MainProjectFile.sol\":1463:1473  accomCount */\n              sload(0x01)\n                /* \"Contracts/MainProjectFile.sol\":1475:1484  _location */\n              dup5\n                /* \"Contracts/MainProjectFile.sol\":1486:1492  _price */\n              dup5\n                /* \"Contracts/MainProjectFile.sol\":1442:1493  AccommodationCreated(accomCount, _location, _price) */\n              mload(0x40)\n              tag_90\n              swap4\n              swap3\n              swap2\n              swap1\n              tag_91\n              jump\t// in\n            tag_90:\n              mload(0x40)\n              dup1\n              swap2\n              sub\n              swap1\n              log1\n                /* \"Contracts/MainProjectFile.sol\":1504:1514  accomCount */\n              0x01\n              0x00\n                /* \"Contracts/MainProjectFile.sol\":1504:1516  accomCount++ */\n              dup2\n              sload\n              dup1\n              swap3\n              swap2\n              swap1\n              tag_92\n              swap1\n              tag_93\n              jump\t// in\n            tag_92:\n              swap2\n              swap1\n              pop\n              sstore\n              pop\n                /* \"Contracts/MainProjectFile.sol\":786:1104  {... */\n              pop\n                /* \"Contracts/MainProjectFile.sol\":1254:1524  function createAccommodation(string memory _location, uint256 _price) public onlyValidAddress {... */\n              pop\n              pop\n              jump\t// out\n                /* \"Contracts/MainProjectFile.sol\":2341:2673  function getAccommodationDetails(uint256 _id) public view returns (string memory, uint256, bool) {... */\n            tag_31:\n                /* \"Contracts/MainProjectFile.sol\":2408:2421  string memory */\n              0x60\n                /* \"Contracts/MainProjectFile.sol\":2423:2430  uint256 */\n              0x00\n                /* \"Contracts/MainProjectFile.sol\":2432:2436  bool */\n              dup1\n                /* \"Contracts/MainProjectFile.sol\":2463:2473  accomCount */\n              sload(0x01)\n                /* \"Contracts/MainProjectFile.sol\":2457:2460  _id */\n              dup5\n                /* \"Contracts/MainProjectFile.sol\":2457:2473  _id < accomCount */\n              lt\n                /* \"Contracts/MainProjectFile.sol\":2449:2510  require(_id < accomCount, \"Accommodation ID does not exist.\") */\n              tag_95\n              jumpi\n              mload(0x40)\n              0x08c379a000000000000000000000000000000000000000000000000000000000\n              dup2\n              mstore\n              0x04\n              add\n              tag_96\n              swap1\n              tag_97\n              jump\t// in\n            tag_96:\n              mload(0x40)\n              dup1\n              swap2\n              sub\n              swap1\n              revert\n            tag_95:\n                /* \"Contracts/MainProjectFile.sol\":2521:2555  Accommodation memory accommodation */\n              0x00\n                /* \"Contracts/MainProjectFile.sol\":2558:2572  accommodations */\n              dup1\n                /* \"Contracts/MainProjectFile.sol\":2558:2577  accommodations[_id] */\n              0x00\n                /* \"Contracts/MainProjectFile.sol\":2573:2576  _id */\n              dup7\n                /* \"Contracts/MainProjectFile.sol\":2558:2577  accommodations[_id] */\n              dup2\n              mstore\n              0x20\n              add\n              swap1\n              dup2\n              mstore\n              0x20\n              add\n              0x00\n              keccak256\n                /* \"Contracts/MainProjectFile.sol\":2521:2577  Accommodation memory accommodation = accommodations[_id] */\n              mload(0x40)\n              dup1\n              0x60\n              add\n              0x40\n              mstore\n              swap1\n              dup2\n              0x00\n              dup3\n              add\n              dup1\n              sload\n              tag_98\n              swap1\n              tag_99\n              jump\t// in\n            tag_98:\n              dup1\n              0x1f\n              add\n              0x20\n              dup1\n              swap2\n              div\n              mul\n              0x20\n              add\n              mload(0x40)\n              swap1\n              dup2\n              add\n              0x40\n              mstore\n              dup1\n              swap3\n              swap2\n              swap1\n              dup2\n              dup2\n              mstore\n              0x20\n              add\n              dup3\n              dup1\n              sload\n              tag_100\n              swap1\n              tag_99\n              jump\t// in\n            tag_100:\n              dup1\n              iszero\n              tag_101\n              jumpi\n              dup1\n              0x1f\n              lt\n              tag_102\n              jumpi\n              0x0100\n              dup1\n              dup4\n              sload\n              div\n              mul\n              dup4\n              mstore\n              swap2\n              0x20\n              add\n              swap2\n              jump(tag_101)\n            tag_102:\n              dup3\n              add\n              swap2\n              swap1\n              0x00\n              mstore\n              keccak256(0x00, 0x20)\n              swap1\n            tag_103:\n              dup2\n              sload\n              dup2\n              mstore\n              swap1\n              0x01\n              add\n              swap1\n              0x20\n              add\n              dup1\n              dup4\n              gt\n              tag_103\n              jumpi\n              dup3\n              swap1\n              sub\n              0x1f\n              and\n              dup3\n              add\n              swap2\n            tag_101:\n              pop\n              pop\n              pop\n              pop\n              pop\n              dup2\n              mstore\n              0x20\n              add\n              0x01\n              dup3\n              add\n              sload\n              dup2\n              mstore\n              0x20\n              add\n              0x02\n              dup3\n              add\n              0x00\n              swap1\n              sload\n              swap1\n              0x0100\n              exp\n              swap1\n              div\n              0xff\n              and\n              iszero\n              iszero\n              iszero\n              iszero\n              dup2\n              mstore\n              pop\n              pop\n              swap1\n              pop\n                /* \"Contracts/MainProjectFile.sol\":2596:2609  accommodation */\n              dup1\n                /* \"Contracts/MainProjectFile.sol\":2596:2618  accommodation.location */\n              0x00\n              add\n              mload\n                /* \"Contracts/MainProjectFile.sol\":2620:2633  accommodation */\n              dup2\n                /* \"Contracts/MainProjectFile.sol\":2620:2639  accommodation.price */\n              0x20\n              add\n              mload\n                /* \"Contracts/MainProjectFile.sol\":2641:2654  accommodation */\n              dup3\n                /* \"Contracts/MainProjectFile.sol\":2641:2664  accommodation.available */\n              0x40\n              add\n              mload\n                /* \"Contracts/MainProjectFile.sol\":2588:2665  return (accommodation.location, accommodation.price, accommodation.available) */\n              swap4\n              pop\n              swap4\n              pop\n              swap4\n              pop\n              pop\n                /* \"Contracts/MainProjectFile.sol\":2341:2673  function getAccommodationDetails(uint256 _id) public view returns (string memory, uint256, bool) {... */\n              swap2\n              swap4\n              swap1\n              swap3\n              pop\n              jump\t// out\n                /* \"Contracts/MainProjectFile.sol\":1532:1964  function updateAccommodationDetails(uint256 _id, string memory _location, uint256 _price, bool _available) public onlyValidAddress {... */\n            tag_37:\n                /* \"Contracts/MainProjectFile.sol\":797:809  bool isValid */\n              0x00\n                /* \"Contracts/MainProjectFile.sol\":833:842  uint256 i */\n              dup1\n                /* \"Contracts/MainProjectFile.sol\":828:1016  for (uint256 i = 0; i < validAddresses.length; i++) {... */\n            tag_105:\n                /* \"Contracts/MainProjectFile.sol\":852:866  validAddresses */\n              0x04\n                /* \"Contracts/MainProjectFile.sol\":852:873  validAddresses.length */\n              dup1\n              sload\n              swap1\n              pop\n                /* \"Contracts/MainProjectFile.sol\":848:849  i */\n              dup2\n                /* \"Contracts/MainProjectFile.sol\":848:873  i < validAddresses.length */\n              lt\n                /* \"Contracts/MainProjectFile.sol\":828:1016  for (uint256 i = 0; i < validAddresses.length; i++) {... */\n              iszero\n              tag_106\n              jumpi\n                /* \"Contracts/MainProjectFile.sol\":920:930  msg.sender */\n              caller\n                /* \"Contracts/MainProjectFile.sol\":899:930  validAddresses[i] == msg.sender */\n              0xffffffffffffffffffffffffffffffffffffffff\n              and\n                /* \"Contracts/MainProjectFile.sol\":899:913  validAddresses */\n              0x04\n                /* \"Contracts/MainProjectFile.sol\":914:915  i */\n              dup3\n                /* \"Contracts/MainProjectFile.sol\":899:916  validAddresses[i] */\n              dup2\n              sload\n              dup2\n              lt\n              tag_108\n              jumpi\n              tag_109\n              tag_55\n              jump\t// in\n            tag_109:\n            tag_108:\n              swap1\n              0x00\n              mstore\n              keccak256(0x00, 0x20)\n              add\n              0x00\n              swap1\n              sload\n              swap1\n              0x0100\n              exp\n              swap1\n              div\n              0xffffffffffffffffffffffffffffffffffffffff\n              and\n                /* \"Contracts/MainProjectFile.sol\":899:930  validAddresses[i] == msg.sender */\n              0xffffffffffffffffffffffffffffffffffffffff\n              and\n              sub\n                /* \"Contracts/MainProjectFile.sol\":895:1005  if (validAddresses[i] == msg.sender) {... */\n              tag_111\n              jumpi\n                /* \"Contracts/MainProjectFile.sol\":961:965  true */\n              0x01\n                /* \"Contracts/MainProjectFile.sol\":951:965  isValid = true */\n              swap2\n              pop\n                /* \"Contracts/MainProjectFile.sol\":984:989  break */\n              jump(tag_106)\n                /* \"Contracts/MainProjectFile.sol\":895:1005  if (validAddresses[i] == msg.sender) {... */\n            tag_111:\n                /* \"Contracts/MainProjectFile.sol\":875:878  i++ */\n              dup1\n              dup1\n              0x01\n              add\n              swap2\n              pop\n              pop\n                /* \"Contracts/MainProjectFile.sol\":828:1016  for (uint256 i = 0; i < validAddresses.length; i++) {... */\n              jump(tag_105)\n            tag_106:\n              pop\n                /* \"Contracts/MainProjectFile.sol\":1034:1041  isValid */\n              dup1\n                /* \"Contracts/MainProjectFile.sol\":1026:1084  require(isValid, \"Address is not valid for this contract\") */\n              tag_112\n              jumpi\n              mload(0x40)\n              0x08c379a000000000000000000000000000000000000000000000000000000000\n              dup2\n              mstore\n              0x04\n              add\n              tag_113\n              swap1\n              tag_60\n              jump\t// in\n            tag_113:\n              mload(0x40)\n              dup1\n              swap2\n              sub\n              swap1\n              revert\n            tag_112:\n                /* \"Contracts/MainProjectFile.sol\":1688:1698  accomCount */\n              sload(0x01)\n                /* \"Contracts/MainProjectFile.sol\":1682:1685  _id */\n              dup6\n                /* \"Contracts/MainProjectFile.sol\":1682:1698  _id < accomCount */\n              lt\n                /* \"Contracts/MainProjectFile.sol\":1674:1735  require(_id < accomCount, \"Accommodation ID does not exist.\") */\n              tag_115\n              jumpi\n              mload(0x40)\n              0x08c379a000000000000000000000000000000000000000000000000000000000\n              dup2\n              mstore\n              0x04\n              add\n              tag_116\n              swap1\n              tag_97\n              jump\t// in\n            tag_116:\n              mload(0x40)\n              dup1\n              swap2\n              sub\n              swap1\n              revert\n            tag_115:\n                /* \"Contracts/MainProjectFile.sol\":1777:1786  _location */\n              dup4\n                /* \"Contracts/MainProjectFile.sol\":1746:1760  accommodations */\n              0x00\n                /* \"Contracts/MainProjectFile.sol\":1746:1765  accommodations[_id] */\n              dup1\n                /* \"Contracts/MainProjectFile.sol\":1761:1764  _id */\n              dup8\n                /* \"Contracts/MainProjectFile.sol\":1746:1765  accommodations[_id] */\n              dup2\n              mstore\n              0x20\n              add\n              swap1\n              dup2\n              mstore\n              0x20\n              add\n              0x00\n              keccak256\n                /* \"Contracts/MainProjectFile.sol\":1746:1774  accommodations[_id].location */\n              0x00\n              add\n                /* \"Contracts/MainProjectFile.sol\":1746:1786  accommodations[_id].location = _location */\n              swap1\n              dup2\n              tag_117\n              swap2\n              swap1\n              tag_89\n              jump\t// in\n            tag_117:\n              pop\n                /* \"Contracts/MainProjectFile.sol\":1825:1831  _price */\n              dup3\n                /* \"Contracts/MainProjectFile.sol\":1797:1811  accommodations */\n              0x00\n                /* \"Contracts/MainProjectFile.sol\":1797:1816  accommodations[_id] */\n              dup1\n                /* \"Contracts/MainProjectFile.sol\":1812:1815  _id */\n              dup8\n                /* \"Contracts/MainProjectFile.sol\":1797:1816  accommodations[_id] */\n              dup2\n              mstore\n              0x20\n              add\n              swap1\n              dup2\n              mstore\n              0x20\n              add\n              0x00\n              keccak256\n                /* \"Contracts/MainProjectFile.sol\":1797:1822  accommodations[_id].price */\n              0x01\n              add\n                /* \"Contracts/MainProjectFile.sol\":1797:1831  accommodations[_id].price = _price */\n              dup2\n              swap1\n              sstore\n              pop\n                /* \"Contracts/MainProjectFile.sol\":1874:1884  _available */\n              dup2\n                /* \"Contracts/MainProjectFile.sol\":1842:1856  accommodations */\n              0x00\n                /* \"Contracts/MainProjectFile.sol\":1842:1861  accommodations[_id] */\n              dup1\n                /* \"Contracts/MainProjectFile.sol\":1857:1860  _id */\n              dup8\n                /* \"Contracts/MainProjectFile.sol\":1842:1861  accommodations[_id] */\n              dup2\n              mstore\n              0x20\n              add\n              swap1\n              dup2\n              mstore\n              0x20\n              add\n              0x00\n              keccak256\n                /* \"Contracts/MainProjectFile.sol\":1842:1871  accommodations[_id].available */\n              0x02\n              add\n              0x00\n                /* \"Contracts/MainProjectFile.sol\":1842:1884  accommodations[_id].available = _available */\n              0x0100\n              exp\n              dup2\n              sload\n              dup2\n              0xff\n              mul\n              not\n              and\n              swap1\n              dup4\n              iszero\n              iszero\n              mul\n              or\n              swap1\n              sstore\n              pop\n                /* \"Contracts/MainProjectFile.sol\":1900:1956  AccommodationUpdated(_id, _location, _price, _available) */\n              0x877d6b41b318e470163ebb8045edc3f0346ed37ab360e761bb274a6d75911386\n                /* \"Contracts/MainProjectFile.sol\":1921:1924  _id */\n              dup6\n                /* \"Contracts/MainProjectFile.sol\":1926:1935  _location */\n              dup6\n                /* \"Contracts/MainProjectFile.sol\":1937:1943  _price */\n              dup6\n                /* \"Contracts/MainProjectFile.sol\":1945:1955  _available */\n              dup6\n                /* \"Contracts/MainProjectFile.sol\":1900:1956  AccommodationUpdated(_id, _location, _price, _available) */\n              mload(0x40)\n              tag_118\n              swap5\n              swap4\n              swap3\n              swap2\n              swap1\n              tag_119\n              jump\t// in\n            tag_118:\n              mload(0x40)\n              dup1\n              swap2\n              sub\n              swap1\n              log1\n                /* \"Contracts/MainProjectFile.sol\":786:1104  {... */\n              pop\n                /* \"Contracts/MainProjectFile.sol\":1532:1964  function updateAccommodationDetails(uint256 _id, string memory _location, uint256 _price, bool _available) public onlyValidAddress {... */\n              pop\n              pop\n              pop\n              pop\n              jump\t// out\n                /* \"Contracts/MainProjectFile.sol\":179:234  mapping(uint256 => Accommodation) public accommodations */\n            tag_40:\n              mstore(0x20, 0x00)\n              dup1\n              0x00\n              mstore\n              keccak256(0x00, 0x40)\n              0x00\n              swap2\n              pop\n              swap1\n              pop\n              dup1\n              0x00\n              add\n              dup1\n              sload\n              tag_120\n              swap1\n              tag_99\n              jump\t// in\n            tag_120:\n              dup1\n              0x1f\n              add\n              0x20\n              dup1\n              swap2\n              div\n              mul\n              0x20\n              add\n              mload(0x40)\n              swap1\n              dup2\n              add\n              0x40\n              mstore\n              dup1\n              swap3\n              swap2\n              swap1\n              dup2\n              dup2\n              mstore\n              0x20\n              add\n              dup3\n              dup1\n              sload\n              tag_121\n              swap1\n              tag_99\n              jump\t// in\n            tag_121:\n              dup1\n              iszero\n              tag_122\n              jumpi\n              dup1\n              0x1f\n              lt\n              tag_123\n              jumpi\n              0x0100\n              dup1\n              dup4\n              sload\n              div\n              mul\n              dup4\n              mstore\n              swap2\n              0x20\n              add\n              swap2\n              jump(tag_122)\n            tag_123:\n              dup3\n              add\n              swap2\n              swap1\n              0x00\n              mstore\n              keccak256(0x00, 0x20)\n              swap1\n            tag_124:\n              dup2\n              sload\n              dup2\n              mstore\n              swap1\n              0x01\n              add\n              swap1\n              0x20\n              add\n              dup1\n              dup4\n              gt\n              tag_124\n              jumpi\n              dup3\n              swap1\n              sub\n              0x1f\n              and\n              dup3\n              add\n              swap2\n            tag_122:\n              pop\n              pop\n              pop\n              pop\n              pop\n              swap1\n              dup1\n              0x01\n              add\n              sload\n              swap1\n              dup1\n              0x02\n              add\n              0x00\n              swap1\n              sload\n              swap1\n              0x0100\n              exp\n              swap1\n              div\n              0xff\n              and\n              swap1\n              pop\n              dup4\n              jump\t// out\n                /* \"Contracts/MainProjectFile.sol\":346:377  address[] public validAddresses */\n            tag_44:\n              0x04\n              dup2\n              dup2\n              sload\n              dup2\n              lt\n              tag_125\n              jumpi\n              0x00\n              dup1\n              revert\n            tag_125:\n              swap1\n              0x00\n              mstore\n              keccak256(0x00, 0x20)\n              add\n              0x00\n              swap2\n              pop\n              sload\n              swap1\n              0x0100\n              exp\n              swap1\n              div\n              0xffffffffffffffffffffffffffffffffffffffff\n              and\n              dup2\n              jump\t// out\n                /* \"Contracts/MainProjectFile.sol\":311:339  address public providerOwner */\n            tag_47:\n              0x03\n              0x00\n              swap1\n              sload\n              swap1\n              0x0100\n              exp\n              swap1\n              div\n              0xffffffffffffffffffffffffffffffffffffffff\n              and\n              dup2\n              jump\t// out\n            tag_73:\n              pop\n              dup1\n              sload\n              tag_127\n              swap1\n              tag_99\n              jump\t// in\n            tag_127:\n              0x00\n              dup3\n              sstore\n              dup1\n              0x1f\n              lt\n              tag_129\n              jumpi\n              pop\n              jump(tag_128)\n            tag_129:\n              0x1f\n              add\n              0x20\n              swap1\n              div\n              swap1\n              0x00\n              mstore\n              keccak256(0x00, 0x20)\n              swap1\n              dup2\n              add\n              swap1\n              tag_130\n              swap2\n              swap1\n              tag_131\n              jump\t// in\n            tag_130:\n            tag_128:\n              pop\n              jump\t// out\n            tag_131:\n            tag_132:\n              dup1\n              dup3\n              gt\n              iszero\n              tag_133\n              jumpi\n              0x00\n              dup2\n              0x00\n              swap1\n              sstore\n              pop\n              0x01\n              add\n              jump(tag_132)\n            tag_133:\n              pop\n              swap1\n              jump\t// out\n                /* \"#utility.yul\":7:84   */\n            tag_134:\n                /* \"#utility.yul\":44:51   */\n              0x00\n                /* \"#utility.yul\":73:78   */\n              dup2\n                /* \"#utility.yul\":62:78   */\n              swap1\n              pop\n                /* \"#utility.yul\":7:84   */\n              swap2\n              swap1\n              pop\n              jump\t// out\n                /* \"#utility.yul\":90:208   */\n            tag_135:\n                /* \"#utility.yul\":177:201   */\n              tag_189\n                /* \"#utility.yul\":195:200   */\n              dup2\n                /* \"#utility.yul\":177:201   */\n              tag_134\n              jump\t// in\n            tag_189:\n                /* \"#utility.yul\":172:175   */\n              dup3\n                /* \"#utility.yul\":165:202   */\n              mstore\n                /* \"#utility.yul\":90:208   */\n              pop\n              pop\n              jump\t// out\n                /* \"#utility.yul\":214:436   */\n            tag_16:\n                /* \"#utility.yul\":307:311   */\n              0x00\n                /* \"#utility.yul\":345:347   */\n              0x20\n                /* \"#utility.yul\":334:343   */\n              dup3\n                /* \"#utility.yul\":330:348   */\n              add\n                /* \"#utility.yul\":322:348   */\n              swap1\n              pop\n                /* \"#utility.yul\":358:429   */\n              tag_191\n                /* \"#utility.yul\":426:427   */\n              0x00\n                /* \"#utility.yul\":415:424   */\n              dup4\n                /* \"#utility.yul\":411:428   */\n              add\n                /* \"#utility.yul\":402:408   */\n              dup5\n                /* \"#utility.yul\":358:429   */\n              tag_135\n              jump\t// in\n            tag_191:\n                /* \"#utility.yul\":214:436   */\n              swap3\n              swap2\n              pop\n              pop\n              jump\t// out\n                /* \"#utility.yul\":442:568   */\n            tag_136:\n                /* \"#utility.yul\":479:486   */\n              0x00\n                /* \"#utility.yul\":519:561   */\n              0xffffffffffffffffffffffffffffffffffffffff\n                /* \"#utility.yul\":512:517   */\n              dup3\n                /* \"#utility.yul\":508:562   */\n              and\n                /* \"#utility.yul\":497:562   */\n              swap1\n              pop\n                /* \"#utility.yul\":442:568   */\n              swap2\n              swap1\n              pop\n              jump\t// out\n                /* \"#utility.yul\":574:670   */\n            tag_137:\n                /* \"#utility.yul\":611:618   */\n              0x00\n                /* \"#utility.yul\":640:664   */\n              tag_194\n                /* \"#utility.yul\":658:663   */\n              dup3\n                /* \"#utility.yul\":640:664   */\n              tag_136\n              jump\t// in\n            tag_194:\n                /* \"#utility.yul\":629:664   */\n              swap1\n              pop\n                /* \"#utility.yul\":574:670   */\n              swap2\n              swap1\n              pop\n              jump\t// out\n                /* \"#utility.yul\":676:794   */\n            tag_138:\n                /* \"#utility.yul\":763:787   */\n              tag_196\n                /* \"#utility.yul\":781:786   */\n              dup2\n                /* \"#utility.yul\":763:787   */\n              tag_137\n              jump\t// in\n            tag_196:\n                /* \"#utility.yul\":758:761   */\n              dup3\n                /* \"#utility.yul\":751:788   */\n              mstore\n                /* \"#utility.yul\":676:794   */\n              pop\n              pop\n              jump\t// out\n                /* \"#utility.yul\":800:1022   */\n            tag_20:\n                /* \"#utility.yul\":893:897   */\n              0x00\n                /* \"#utility.yul\":931:933   */\n              0x20\n                /* \"#utility.yul\":920:929   */\n              dup3\n                /* \"#utility.yul\":916:934   */\n              add\n                /* \"#utility.yul\":908:934   */\n              swap1\n              pop\n                /* \"#utility.yul\":944:1015   */\n              tag_198\n                /* \"#utility.yul\":1012:1013   */\n              0x00\n                /* \"#utility.yul\":1001:1010   */\n              dup4\n                /* \"#utility.yul\":997:1014   */\n              add\n                /* \"#utility.yul\":988:994   */\n              dup5\n                /* \"#utility.yul\":944:1015   */\n              tag_138\n              jump\t// in\n            tag_198:\n                /* \"#utility.yul\":800:1022   */\n              swap3\n              swap2\n              pop\n              pop\n              jump\t// out\n                /* \"#utility.yul\":1028:1103   */\n            tag_139:\n                /* \"#utility.yul\":1061:1067   */\n              0x00\n                /* \"#utility.yul\":1094:1096   */\n              0x40\n                /* \"#utility.yul\":1088:1097   */\n              mload\n                /* \"#utility.yul\":1078:1097   */\n              swap1\n              pop\n                /* \"#utility.yul\":1028:1103   */\n              swap1\n              jump\t// out\n                /* \"#utility.yul\":1109:1226   */\n            tag_140:\n                /* \"#utility.yul\":1218:1219   */\n              0x00\n                /* \"#utility.yul\":1215:1216   */\n              dup1\n                /* \"#utility.yul\":1208:1220   */\n              revert\n                /* \"#utility.yul\":1232:1349   */\n            tag_141:\n                /* \"#utility.yul\":1341:1342   */\n              0x00\n                /* \"#utility.yul\":1338:1339   */\n              dup1\n                /* \"#utility.yul\":1331:1343   */\n              revert\n                /* \"#utility.yul\":1355:1477   */\n            tag_142:\n                /* \"#utility.yul\":1428:1452   */\n              tag_203\n                /* \"#utility.yul\":1446:1451   */\n              dup2\n                /* \"#utility.yul\":1428:1452   */\n              tag_134\n              jump\t// in\n            tag_203:\n                /* \"#utility.yul\":1421:1426   */\n              dup2\n                /* \"#utility.yul\":1418:1453   */\n              eq\n                /* \"#utility.yul\":1408:1471   */\n              tag_204\n              jumpi\n                /* \"#utility.yul\":1467:1468   */\n              0x00\n                /* \"#utility.yul\":1464:1465   */\n              dup1\n                /* \"#utility.yul\":1457:1469   */\n              revert\n                /* \"#utility.yul\":1408:1471   */\n            tag_204:\n                /* \"#utility.yul\":1355:1477   */\n              pop\n              jump\t// out\n                /* \"#utility.yul\":1483:1622   */\n            tag_143:\n                /* \"#utility.yul\":1529:1534   */\n              0x00\n                /* \"#utility.yul\":1567:1573   */\n              dup2\n                /* \"#utility.yul\":1554:1574   */\n              calldataload\n                /* \"#utility.yul\":1545:1574   */\n              swap1\n              pop\n                /* \"#utility.yul\":1583:1616   */\n              tag_206\n                /* \"#utility.yul\":1610:1615   */\n              dup2\n                /* \"#utility.yul\":1583:1616   */\n              tag_142\n              jump\t// in\n            tag_206:\n                /* \"#utility.yul\":1483:1622   */\n              swap3\n              swap2\n              pop\n              pop\n              jump\t// out\n                /* \"#utility.yul\":1628:1957   */\n            tag_23:\n                /* \"#utility.yul\":1687:1693   */\n              0x00\n                /* \"#utility.yul\":1736:1738   */\n              0x20\n                /* \"#utility.yul\":1724:1733   */\n              dup3\n                /* \"#utility.yul\":1715:1722   */\n              dup5\n                /* \"#utility.yul\":1711:1734   */\n              sub\n                /* \"#utility.yul\":1707:1739   */\n              slt\n                /* \"#utility.yul\":1704:1823   */\n              iszero\n              tag_208\n              jumpi\n                /* \"#utility.yul\":1742:1821   */\n              tag_209\n              tag_140\n              jump\t// in\n            tag_209:\n                /* \"#utility.yul\":1704:1823   */\n            tag_208:\n                /* \"#utility.yul\":1862:1863   */\n              0x00\n                /* \"#utility.yul\":1887:1940   */\n              tag_210\n                /* \"#utility.yul\":1932:1939   */\n              dup5\n                /* \"#utility.yul\":1923:1929   */\n              dup3\n                /* \"#utility.yul\":1912:1921   */\n              dup6\n                /* \"#utility.yul\":1908:1930   */\n              add\n                /* \"#utility.yul\":1887:1940   */\n              tag_143\n              jump\t// in\n            tag_210:\n                /* \"#utility.yul\":1877:1940   */\n              swap2\n              pop\n                /* \"#utility.yul\":1833:1950   */\n              pop\n                /* \"#utility.yul\":1628:1957   */\n              swap3\n              swap2\n              pop\n              pop\n              jump\t// out\n                /* \"#utility.yul\":1963:2080   */\n            tag_144:\n                /* \"#utility.yul\":2072:2073   */\n              0x00\n                /* \"#utility.yul\":2069:2070   */\n              dup1\n                /* \"#utility.yul\":2062:2074   */\n              revert\n                /* \"#utility.yul\":2086:2203   */\n            tag_145:\n                /* \"#utility.yul\":2195:2196   */\n              0x00\n                /* \"#utility.yul\":2192:2193   */\n              dup1\n                /* \"#utility.yul\":2185:2197   */\n              revert\n                /* \"#utility.yul\":2209:2311   */\n            tag_146:\n                /* \"#utility.yul\":2250:2256   */\n              0x00\n                /* \"#utility.yul\":2301:2303   */\n              0x1f\n                /* \"#utility.yul\":2297:2304   */\n              not\n                /* \"#utility.yul\":2292:2294   */\n              0x1f\n                /* \"#utility.yul\":2285:2290   */\n              dup4\n                /* \"#utility.yul\":2281:2295   */\n              add\n                /* \"#utility.yul\":2277:2305   */\n              and\n                /* \"#utility.yul\":2267:2305   */\n              swap1\n              pop\n                /* \"#utility.yul\":2209:2311   */\n              swap2\n              swap1\n              pop\n              jump\t// out\n                /* \"#utility.yul\":2317:2497   */\n            tag_147:\n                /* \"#utility.yul\":2365:2442   */\n              0x4e487b7100000000000000000000000000000000000000000000000000000000\n                /* \"#utility.yul\":2362:2363   */\n              0x00\n                /* \"#utility.yul\":2355:2443   */\n              mstore\n                /* \"#utility.yul\":2462:2466   */\n              0x41\n                /* \"#utility.yul\":2459:2460   */\n              0x04\n                /* \"#utility.yul\":2452:2467   */\n              mstore\n                /* \"#utility.yul\":2486:2490   */\n              0x24\n                /* \"#utility.yul\":2483:2484   */\n              0x00\n                /* \"#utility.yul\":2476:2491   */\n              revert\n                /* \"#utility.yul\":2503:2784   */\n            tag_148:\n                /* \"#utility.yul\":2586:2613   */\n              tag_216\n                /* \"#utility.yul\":2608:2612   */\n              dup3\n                /* \"#utility.yul\":2586:2613   */\n              tag_146\n              jump\t// in\n            tag_216:\n                /* \"#utility.yul\":2578:2584   */\n              dup2\n                /* \"#utility.yul\":2574:2614   */\n              add\n                /* \"#utility.yul\":2716:2722   */\n              dup2\n                /* \"#utility.yul\":2704:2714   */\n              dup2\n                /* \"#utility.yul\":2701:2723   */\n              lt\n                /* \"#utility.yul\":2680:2698   */\n              0xffffffffffffffff\n                /* \"#utility.yul\":2668:2678   */\n              dup3\n                /* \"#utility.yul\":2665:2699   */\n              gt\n                /* \"#utility.yul\":2662:2724   */\n              or\n                /* \"#utility.yul\":2659:2747   */\n              iszero\n              tag_217\n              jumpi\n                /* \"#utility.yul\":2727:2745   */\n              tag_218\n              tag_147\n              jump\t// in\n            tag_218:\n                /* \"#utility.yul\":2659:2747   */\n            tag_217:\n                /* \"#utility.yul\":2767:2777   */\n              dup1\n                /* \"#utility.yul\":2763:2765   */\n              0x40\n                /* \"#utility.yul\":2756:2778   */\n              mstore\n                /* \"#utility.yul\":2546:2784   */\n              pop\n                /* \"#utility.yul\":2503:2784   */\n              pop\n              pop\n              jump\t// out\n                /* \"#utility.yul\":2790:2919   */\n            tag_149:\n                /* \"#utility.yul\":2824:2830   */\n              0x00\n                /* \"#utility.yul\":2851:2871   */\n              tag_220\n              tag_139\n              jump\t// in\n            tag_220:\n                /* \"#utility.yul\":2841:2871   */\n              swap1\n              pop\n                /* \"#utility.yul\":2880:2913   */\n              tag_221\n                /* \"#utility.yul\":2908:2912   */\n              dup3\n                /* \"#utility.yul\":2900:2906   */\n              dup3\n                /* \"#utility.yul\":2880:2913   */\n              tag_148\n              jump\t// in\n            tag_221:\n                /* \"#utility.yul\":2790:2919   */\n              swap2\n              swap1\n              pop\n              jump\t// out\n                /* \"#utility.yul\":2925:3233   */\n            tag_150:\n                /* \"#utility.yul\":2987:2991   */\n              0x00\n                /* \"#utility.yul\":3077:3095   */\n              0xffffffffffffffff\n                /* \"#utility.yul\":3069:3075   */\n              dup3\n                /* \"#utility.yul\":3066:3096   */\n              gt\n                /* \"#utility.yul\":3063:3119   */\n              iszero\n              tag_223\n              jumpi\n                /* \"#utility.yul\":3099:3117   */\n              tag_224\n              tag_147\n              jump\t// in\n            tag_224:\n                /* \"#utility.yul\":3063:3119   */\n            tag_223:\n                /* \"#utility.yul\":3137:3166   */\n              tag_225\n                /* \"#utility.yul\":3159:3165   */\n              dup3\n                /* \"#utility.yul\":3137:3166   */\n              tag_146\n              jump\t// in\n            tag_225:\n                /* \"#utility.yul\":3129:3166   */\n              swap1\n              pop\n                /* \"#utility.yul\":3221:3225   */\n              0x20\n                /* \"#utility.yul\":3215:3219   */\n              dup2\n                /* \"#utility.yul\":3211:3226   */\n              add\n                /* \"#utility.yul\":3203:3226   */\n              swap1\n              pop\n                /* \"#utility.yul\":2925:3233   */\n              swap2\n              swap1\n              pop\n              jump\t// out\n                /* \"#utility.yul\":3239:3385   */\n            tag_151:\n                /* \"#utility.yul\":3336:3342   */\n              dup3\n                /* \"#utility.yul\":3331:3334   */\n              dup2\n                /* \"#utility.yul\":3326:3329   */\n              dup4\n                /* \"#utility.yul\":3313:3343   */\n              calldatacopy\n                /* \"#utility.yul\":3377:3378   */\n              0x00\n                /* \"#utility.yul\":3368:3374   */\n              dup4\n                /* \"#utility.yul\":3363:3366   */\n              dup4\n                /* \"#utility.yul\":3359:3375   */\n              add\n                /* \"#utility.yul\":3352:3379   */\n              mstore\n                /* \"#utility.yul\":3239:3385   */\n              pop\n              pop\n              pop\n              jump\t// out\n                /* \"#utility.yul\":3391:3816   */\n            tag_152:\n                /* \"#utility.yul\":3469:3474   */\n              0x00\n                /* \"#utility.yul\":3494:3560   */\n              tag_228\n                /* \"#utility.yul\":3510:3559   */\n              tag_229\n                /* \"#utility.yul\":3552:3558   */\n              dup5\n                /* \"#utility.yul\":3510:3559   */\n              tag_150\n              jump\t// in\n            tag_229:\n                /* \"#utility.yul\":3494:3560   */\n              tag_149\n              jump\t// in\n            tag_228:\n                /* \"#utility.yul\":3485:3560   */\n              swap1\n              pop\n                /* \"#utility.yul\":3583:3589   */\n              dup3\n                /* \"#utility.yul\":3576:3581   */\n              dup2\n                /* \"#utility.yul\":3569:3590   */\n              mstore\n                /* \"#utility.yul\":3621:3625   */\n              0x20\n                /* \"#utility.yul\":3614:3619   */\n              dup2\n                /* \"#utility.yul\":3610:3626   */\n              add\n                /* \"#utility.yul\":3659:3662   */\n              dup5\n                /* \"#utility.yul\":3650:3656   */\n              dup5\n                /* \"#utility.yul\":3645:3648   */\n              dup5\n                /* \"#utility.yul\":3641:3657   */\n              add\n                /* \"#utility.yul\":3638:3663   */\n              gt\n                /* \"#utility.yul\":3635:3747   */\n              iszero\n              tag_230\n              jumpi\n                /* \"#utility.yul\":3666:3745   */\n              tag_231\n              tag_145\n              jump\t// in\n            tag_231:\n                /* \"#utility.yul\":3635:3747   */\n            tag_230:\n                /* \"#utility.yul\":3756:3810   */\n              tag_232\n                /* \"#utility.yul\":3803:3809   */\n              dup5\n                /* \"#utility.yul\":3798:3801   */\n              dup3\n                /* \"#utility.yul\":3793:3796   */\n              dup6\n                /* \"#utility.yul\":3756:3810   */\n              tag_151\n              jump\t// in\n            tag_232:\n                /* \"#utility.yul\":3475:3816   */\n              pop\n                /* \"#utility.yul\":3391:3816   */\n              swap4\n              swap3\n              pop\n              pop\n              pop\n              jump\t// out\n                /* \"#utility.yul\":3836:4176   */\n            tag_153:\n                /* \"#utility.yul\":3892:3897   */\n              0x00\n                /* \"#utility.yul\":3941:3944   */\n              dup3\n                /* \"#utility.yul\":3934:3938   */\n              0x1f\n                /* \"#utility.yul\":3926:3932   */\n              dup4\n                /* \"#utility.yul\":3922:3939   */\n              add\n                /* \"#utility.yul\":3918:3945   */\n              slt\n                /* \"#utility.yul\":3908:4030   */\n              tag_234\n              jumpi\n                /* \"#utility.yul\":3949:4028   */\n              tag_235\n              tag_144\n              jump\t// in\n            tag_235:\n                /* \"#utility.yul\":3908:4030   */\n            tag_234:\n                /* \"#utility.yul\":4066:4072   */\n              dup2\n                /* \"#utility.yul\":4053:4073   */\n              calldataload\n                /* \"#utility.yul\":4091:4170   */\n              tag_236\n                /* \"#utility.yul\":4166:4169   */\n              dup5\n                /* \"#utility.yul\":4158:4164   */\n              dup3\n                /* \"#utility.yul\":4151:4155   */\n              0x20\n                /* \"#utility.yul\":4143:4149   */\n              dup7\n                /* \"#utility.yul\":4139:4156   */\n              add\n                /* \"#utility.yul\":4091:4170   */\n              tag_152\n              jump\t// in\n            tag_236:\n                /* \"#utility.yul\":4082:4170   */\n              swap2\n              pop\n                /* \"#utility.yul\":3898:4176   */\n              pop\n                /* \"#utility.yul\":3836:4176   */\n              swap3\n              swap2\n              pop\n              pop\n              jump\t// out\n                /* \"#utility.yul\":4182:4836   */\n            tag_27:\n                /* \"#utility.yul\":4260:4266   */\n              0x00\n                /* \"#utility.yul\":4268:4274   */\n              dup1\n                /* \"#utility.yul\":4317:4319   */\n              0x40\n                /* \"#utility.yul\":4305:4314   */\n              dup4\n                /* \"#utility.yul\":4296:4303   */\n              dup6\n                /* \"#utility.yul\":4292:4315   */\n              sub\n                /* \"#utility.yul\":4288:4320   */\n              slt\n                /* \"#utility.yul\":4285:4404   */\n              iszero\n              tag_238\n              jumpi\n                /* \"#utility.yul\":4323:4402   */\n              tag_239\n              tag_140\n              jump\t// in\n            tag_239:\n                /* \"#utility.yul\":4285:4404   */\n            tag_238:\n                /* \"#utility.yul\":4471:4472   */\n              0x00\n                /* \"#utility.yul\":4460:4469   */\n              dup4\n                /* \"#utility.yul\":4456:4473   */\n              add\n                /* \"#utility.yul\":4443:4474   */\n              calldataload\n                /* \"#utility.yul\":4501:4519   */\n              0xffffffffffffffff\n                /* \"#utility.yul\":4493:4499   */\n              dup2\n                /* \"#utility.yul\":4490:4520   */\n              gt\n                /* \"#utility.yul\":4487:4604   */\n              iszero\n              tag_240\n              jumpi\n                /* \"#utility.yul\":4523:4602   */\n              tag_241\n              tag_141\n              jump\t// in\n            tag_241:\n                /* \"#utility.yul\":4487:4604   */\n            tag_240:\n                /* \"#utility.yul\":4628:4691   */\n              tag_242\n                /* \"#utility.yul\":4683:4690   */\n              dup6\n                /* \"#utility.yul\":4674:4680   */\n              dup3\n                /* \"#utility.yul\":4663:4672   */\n              dup7\n                /* \"#utility.yul\":4659:4681   */\n              add\n                /* \"#utility.yul\":4628:4691   */\n              tag_153\n              jump\t// in\n            tag_242:\n                /* \"#utility.yul\":4618:4691   */\n              swap3\n              pop\n                /* \"#utility.yul\":4414:4701   */\n              pop\n                /* \"#utility.yul\":4740:4742   */\n              0x20\n                /* \"#utility.yul\":4766:4819   */\n              tag_243\n                /* \"#utility.yul\":4811:4818   */\n              dup6\n                /* \"#utility.yul\":4802:4808   */\n              dup3\n                /* \"#utility.yul\":4791:4800   */\n              dup7\n                /* \"#utility.yul\":4787:4809   */\n              add\n                /* \"#utility.yul\":4766:4819   */\n              tag_143\n              jump\t// in\n            tag_243:\n                /* \"#utility.yul\":4756:4819   */\n              swap2\n              pop\n                /* \"#utility.yul\":4711:4829   */\n              pop\n                /* \"#utility.yul\":4182:4836   */\n              swap3\n              pop\n              swap3\n              swap1\n              pop\n              jump\t// out\n                /* \"#utility.yul\":4842:4941   */\n            tag_154:\n                /* \"#utility.yul\":4894:4900   */\n              0x00\n                /* \"#utility.yul\":4928:4933   */\n              dup2\n                /* \"#utility.yul\":4922:4934   */\n              mload\n                /* \"#utility.yul\":4912:4934   */\n              swap1\n              pop\n                /* \"#utility.yul\":4842:4941   */\n              swap2\n              swap1\n              pop\n              jump\t// out\n                /* \"#utility.yul\":4947:5116   */\n            tag_155:\n                /* \"#utility.yul\":5031:5042   */\n              0x00\n                /* \"#utility.yul\":5065:5071   */\n              dup3\n                /* \"#utility.yul\":5060:5063   */\n              dup3\n                /* \"#utility.yul\":5053:5072   */\n              mstore\n                /* \"#utility.yul\":5105:5109   */\n              0x20\n                /* \"#utility.yul\":5100:5103   */\n              dup3\n                /* \"#utility.yul\":5096:5110   */\n              add\n                /* \"#utility.yul\":5081:5110   */\n              swap1\n              pop\n                /* \"#utility.yul\":4947:5116   */\n              swap3\n              swap2\n              pop\n              pop\n              jump\t// out\n                /* \"#utility.yul\":5122:5368   */\n            tag_156:\n                /* \"#utility.yul\":5203:5204   */\n              0x00\n                /* \"#utility.yul\":5213:5326   */\n            tag_247:\n                /* \"#utility.yul\":5227:5233   */\n              dup4\n                /* \"#utility.yul\":5224:5225   */\n              dup2\n                /* \"#utility.yul\":5221:5234   */\n              lt\n                /* \"#utility.yul\":5213:5326   */\n              iszero\n              tag_249\n              jumpi\n                /* \"#utility.yul\":5312:5313   */\n              dup1\n                /* \"#utility.yul\":5307:5310   */\n              dup3\n                /* \"#utility.yul\":5303:5314   */\n              add\n                /* \"#utility.yul\":5297:5315   */\n              mload\n                /* \"#utility.yul\":5293:5294   */\n              dup2\n                /* \"#utility.yul\":5288:5291   */\n              dup5\n                /* \"#utility.yul\":5284:5295   */\n              add\n                /* \"#utility.yul\":5277:5316   */\n              mstore\n                /* \"#utility.yul\":5249:5251   */\n              0x20\n                /* \"#utility.yul\":5246:5247   */\n              dup2\n                /* \"#utility.yul\":5242:5252   */\n              add\n                /* \"#utility.yul\":5237:5252   */\n              swap1\n              pop\n                /* \"#utility.yul\":5213:5326   */\n              jump(tag_247)\n            tag_249:\n                /* \"#utility.yul\":5360:5361   */\n              0x00\n                /* \"#utility.yul\":5351:5357   */\n              dup5\n                /* \"#utility.yul\":5346:5349   */\n              dup5\n                /* \"#utility.yul\":5342:5358   */\n              add\n                /* \"#utility.yul\":5335:5362   */\n              mstore\n                /* \"#utility.yul\":5184:5368   */\n              pop\n                /* \"#utility.yul\":5122:5368   */\n              pop\n              pop\n              pop\n              jump\t// out\n                /* \"#utility.yul\":5374:5751   */\n            tag_157:\n                /* \"#utility.yul\":5462:5465   */\n              0x00\n                /* \"#utility.yul\":5490:5529   */\n              tag_251\n                /* \"#utility.yul\":5523:5528   */\n              dup3\n                /* \"#utility.yul\":5490:5529   */\n              tag_154\n              jump\t// in\n            tag_251:\n                /* \"#utility.yul\":5545:5616   */\n              tag_252\n                /* \"#utility.yul\":5609:5615   */\n              dup2\n                /* \"#utility.yul\":5604:5607   */\n              dup6\n                /* \"#utility.yul\":5545:5616   */\n              tag_155\n              jump\t// in\n            tag_252:\n                /* \"#utility.yul\":5538:5616   */\n              swap4\n              pop\n                /* \"#utility.yul\":5625:5690   */\n              tag_253\n                /* \"#utility.yul\":5683:5689   */\n              dup2\n                /* \"#utility.yul\":5678:5681   */\n              dup6\n                /* \"#utility.yul\":5671:5675   */\n              0x20\n                /* \"#utility.yul\":5664:5669   */\n              dup7\n                /* \"#utility.yul\":5660:5676   */\n              add\n                /* \"#utility.yul\":5625:5690   */\n              tag_156\n              jump\t// in\n            tag_253:\n                /* \"#utility.yul\":5715:5744   */\n              tag_254\n                /* \"#utility.yul\":5737:5743   */\n              dup2\n                /* \"#utility.yul\":5715:5744   */\n              tag_146\n              jump\t// in\n            tag_254:\n                /* \"#utility.yul\":5710:5713   */\n              dup5\n                /* \"#utility.yul\":5706:5745   */\n              add\n                /* \"#utility.yul\":5699:5745   */\n              swap2\n              pop\n                /* \"#utility.yul\":5466:5751   */\n              pop\n                /* \"#utility.yul\":5374:5751   */\n              swap3\n              swap2\n              pop\n              pop\n              jump\t// out\n                /* \"#utility.yul\":5757:5847   */\n            tag_158:\n                /* \"#utility.yul\":5791:5798   */\n              0x00\n                /* \"#utility.yul\":5834:5839   */\n              dup2\n                /* \"#utility.yul\":5827:5840   */\n              iszero\n                /* \"#utility.yul\":5820:5841   */\n              iszero\n                /* \"#utility.yul\":5809:5841   */\n              swap1\n              pop\n                /* \"#utility.yul\":5757:5847   */\n              swap2\n              swap1\n              pop\n              jump\t// out\n                /* \"#utility.yul\":5853:5962   */\n            tag_159:\n                /* \"#utility.yul\":5934:5955   */\n              tag_257\n                /* \"#utility.yul\":5949:5954   */\n              dup2\n                /* \"#utility.yul\":5934:5955   */\n              tag_158\n              jump\t// in\n            tag_257:\n                /* \"#utility.yul\":5929:5932   */\n              dup3\n                /* \"#utility.yul\":5922:5956   */\n              mstore\n                /* \"#utility.yul\":5853:5962   */\n              pop\n              pop\n              jump\t// out\n                /* \"#utility.yul\":5968:6489   */\n            tag_33:\n                /* \"#utility.yul\":6131:6135   */\n              0x00\n                /* \"#utility.yul\":6169:6171   */\n              0x60\n                /* \"#utility.yul\":6158:6167   */\n              dup3\n                /* \"#utility.yul\":6154:6172   */\n              add\n                /* \"#utility.yul\":6146:6172   */\n              swap1\n              pop\n                /* \"#utility.yul\":6218:6227   */\n              dup2\n                /* \"#utility.yul\":6212:6216   */\n              dup2\n                /* \"#utility.yul\":6208:6228   */\n              sub\n                /* \"#utility.yul\":6204:6205   */\n              0x00\n                /* \"#utility.yul\":6193:6202   */\n              dup4\n                /* \"#utility.yul\":6189:6206   */\n              add\n                /* \"#utility.yul\":6182:6229   */\n              mstore\n                /* \"#utility.yul\":6246:6324   */\n              tag_259\n                /* \"#utility.yul\":6319:6323   */\n              dup2\n                /* \"#utility.yul\":6310:6316   */\n              dup7\n                /* \"#utility.yul\":6246:6324   */\n              tag_157\n              jump\t// in\n            tag_259:\n                /* \"#utility.yul\":6238:6324   */\n              swap1\n              pop\n                /* \"#utility.yul\":6334:6406   */\n              tag_260\n                /* \"#utility.yul\":6402:6404   */\n              0x20\n                /* \"#utility.yul\":6391:6400   */\n              dup4\n                /* \"#utility.yul\":6387:6405   */\n              add\n                /* \"#utility.yul\":6378:6384   */\n              dup6\n                /* \"#utility.yul\":6334:6406   */\n              tag_135\n              jump\t// in\n            tag_260:\n                /* \"#utility.yul\":6416:6482   */\n              tag_261\n                /* \"#utility.yul\":6478:6480   */\n              0x40\n                /* \"#utility.yul\":6467:6476   */\n              dup4\n                /* \"#utility.yul\":6463:6481   */\n              add\n                /* \"#utility.yul\":6454:6460   */\n              dup5\n                /* \"#utility.yul\":6416:6482   */\n              tag_159\n              jump\t// in\n            tag_261:\n                /* \"#utility.yul\":5968:6489   */\n              swap5\n              swap4\n              pop\n              pop\n              pop\n              pop\n              jump\t// out\n                /* \"#utility.yul\":6495:6611   */\n            tag_160:\n                /* \"#utility.yul\":6565:6586   */\n              tag_263\n                /* \"#utility.yul\":6580:6585   */\n              dup2\n                /* \"#utility.yul\":6565:6586   */\n              tag_158\n              jump\t// in\n            tag_263:\n                /* \"#utility.yul\":6558:6563   */\n              dup2\n                /* \"#utility.yul\":6555:6587   */\n              eq\n                /* \"#utility.yul\":6545:6605   */\n              tag_264\n              jumpi\n                /* \"#utility.yul\":6601:6602   */\n              0x00\n                /* \"#utility.yul\":6598:6599   */\n              dup1\n                /* \"#utility.yul\":6591:6603   */\n              revert\n                /* \"#utility.yul\":6545:6605   */\n            tag_264:\n                /* \"#utility.yul\":6495:6611   */\n              pop\n              jump\t// out\n                /* \"#utility.yul\":6617:6750   */\n            tag_161:\n                /* \"#utility.yul\":6660:6665   */\n              0x00\n                /* \"#utility.yul\":6698:6704   */\n              dup2\n                /* \"#utility.yul\":6685:6705   */\n              calldataload\n                /* \"#utility.yul\":6676:6705   */\n              swap1\n              pop\n                /* \"#utility.yul\":6714:6744   */\n              tag_266\n                /* \"#utility.yul\":6738:6743   */\n              dup2\n                /* \"#utility.yul\":6714:6744   */\n              tag_160\n              jump\t// in\n            tag_266:\n                /* \"#utility.yul\":6617:6750   */\n              swap3\n              swap2\n              pop\n              pop\n              jump\t// out\n                /* \"#utility.yul\":6756:7695   */\n            tag_36:\n                /* \"#utility.yul\":6849:6855   */\n              0x00\n                /* \"#utility.yul\":6857:6863   */\n              dup1\n                /* \"#utility.yul\":6865:6871   */\n              0x00\n                /* \"#utility.yul\":6873:6879   */\n              dup1\n                /* \"#utility.yul\":6922:6925   */\n              0x80\n                /* \"#utility.yul\":6910:6919   */\n              dup6\n                /* \"#utility.yul\":6901:6908   */\n              dup8\n                /* \"#utility.yul\":6897:6920   */\n              sub\n                /* \"#utility.yul\":6893:6926   */\n              slt\n                /* \"#utility.yul\":6890:7010   */\n              iszero\n              tag_268\n              jumpi\n                /* \"#utility.yul\":6929:7008   */\n              tag_269\n              tag_140\n              jump\t// in\n            tag_269:\n                /* \"#utility.yul\":6890:7010   */\n            tag_268:\n                /* \"#utility.yul\":7049:7050   */\n              0x00\n                /* \"#utility.yul\":7074:7127   */\n              tag_270\n                /* \"#utility.yul\":7119:7126   */\n              dup8\n                /* \"#utility.yul\":7110:7116   */\n              dup3\n                /* \"#utility.yul\":7099:7108   */\n              dup9\n                /* \"#utility.yul\":7095:7117   */\n              add\n                /* \"#utility.yul\":7074:7127   */\n              tag_143\n              jump\t// in\n            tag_270:\n                /* \"#utility.yul\":7064:7127   */\n              swap5\n              pop\n                /* \"#utility.yul\":7020:7137   */\n              pop\n                /* \"#utility.yul\":7204:7206   */\n              0x20\n                /* \"#utility.yul\":7193:7202   */\n              dup6\n                /* \"#utility.yul\":7189:7207   */\n              add\n                /* \"#utility.yul\":7176:7208   */\n              calldataload\n                /* \"#utility.yul\":7235:7253   */\n              0xffffffffffffffff\n                /* \"#utility.yul\":7227:7233   */\n              dup2\n                /* \"#utility.yul\":7224:7254   */\n              gt\n                /* \"#utility.yul\":7221:7338   */\n              iszero\n              tag_271\n              jumpi\n                /* \"#utility.yul\":7257:7336   */\n              tag_272\n              tag_141\n              jump\t// in\n            tag_272:\n                /* \"#utility.yul\":7221:7338   */\n            tag_271:\n                /* \"#utility.yul\":7362:7425   */\n              tag_273\n                /* \"#utility.yul\":7417:7424   */\n              dup8\n                /* \"#utility.yul\":7408:7414   */\n              dup3\n                /* \"#utility.yul\":7397:7406   */\n              dup9\n                /* \"#utility.yul\":7393:7415   */\n              add\n                /* \"#utility.yul\":7362:7425   */\n              tag_153\n              jump\t// in\n            tag_273:\n                /* \"#utility.yul\":7352:7425   */\n              swap4\n              pop\n                /* \"#utility.yul\":7147:7435   */\n              pop\n                /* \"#utility.yul\":7474:7476   */\n              0x40\n                /* \"#utility.yul\":7500:7553   */\n              tag_274\n                /* \"#utility.yul\":7545:7552   */\n              dup8\n                /* \"#utility.yul\":7536:7542   */\n              dup3\n                /* \"#utility.yul\":7525:7534   */\n              dup9\n                /* \"#utility.yul\":7521:7543   */\n              add\n                /* \"#utility.yul\":7500:7553   */\n              tag_143\n              jump\t// in\n            tag_274:\n                /* \"#utility.yul\":7490:7553   */\n              swap3\n              pop\n                /* \"#utility.yul\":7445:7563   */\n              pop\n                /* \"#utility.yul\":7602:7604   */\n              0x60\n                /* \"#utility.yul\":7628:7678   */\n              tag_275\n                /* \"#utility.yul\":7670:7677   */\n              dup8\n                /* \"#utility.yul\":7661:7667   */\n              dup3\n                /* \"#utility.yul\":7650:7659   */\n              dup9\n                /* \"#utility.yul\":7646:7668   */\n              add\n                /* \"#utility.yul\":7628:7678   */\n              tag_161\n              jump\t// in\n            tag_275:\n                /* \"#utility.yul\":7618:7678   */\n              swap2\n              pop\n                /* \"#utility.yul\":7573:7688   */\n              pop\n                /* \"#utility.yul\":6756:7695   */\n              swap3\n              swap6\n              swap2\n              swap5\n              pop\n              swap3\n              pop\n              jump\t// out\n                /* \"#utility.yul\":7701:7881   */\n            tag_55:\n                /* \"#utility.yul\":7749:7826   */\n              0x4e487b7100000000000000000000000000000000000000000000000000000000\n                /* \"#utility.yul\":7746:7747   */\n              0x00\n                /* \"#utility.yul\":7739:7827   */\n              mstore\n                /* \"#utility.yul\":7846:7850   */\n              0x32\n                /* \"#utility.yul\":7843:7844   */\n              0x04\n                /* \"#utility.yul\":7836:7851   */\n              mstore\n                /* \"#utility.yul\":7870:7874   */\n              0x24\n                /* \"#utility.yul\":7867:7868   */\n              0x00\n                /* \"#utility.yul\":7860:7875   */\n              revert\n                /* \"#utility.yul\":7887:8112   */\n            tag_162:\n                /* \"#utility.yul\":8027:8061   */\n              0x41646472657373206973206e6f742076616c696420666f72207468697320636f\n                /* \"#utility.yul\":8023:8024   */\n              0x00\n                /* \"#utility.yul\":8015:8021   */\n              dup3\n                /* \"#utility.yul\":8011:8025   */\n              add\n                /* \"#utility.yul\":8004:8062   */\n              mstore\n                /* \"#utility.yul\":8096:8104   */\n              0x6e74726163740000000000000000000000000000000000000000000000000000\n                /* \"#utility.yul\":8091:8093   */\n              0x20\n                /* \"#utility.yul\":8083:8089   */\n              dup3\n                /* \"#utility.yul\":8079:8094   */\n              add\n                /* \"#utility.yul\":8072:8105   */\n              mstore\n                /* \"#utility.yul\":7887:8112   */\n              pop\n              jump\t// out\n                /* \"#utility.yul\":8118:8484   */\n            tag_163:\n                /* \"#utility.yul\":8260:8263   */\n              0x00\n                /* \"#utility.yul\":8281:8348   */\n              tag_279\n                /* \"#utility.yul\":8345:8347   */\n              0x26\n                /* \"#utility.yul\":8340:8343   */\n              dup4\n                /* \"#utility.yul\":8281:8348   */\n              tag_155\n              jump\t// in\n            tag_279:\n                /* \"#utility.yul\":8274:8348   */\n              swap2\n              pop\n                /* \"#utility.yul\":8357:8450   */\n              tag_280\n                /* \"#utility.yul\":8446:8449   */\n              dup3\n                /* \"#utility.yul\":8357:8450   */\n              tag_162\n              jump\t// in\n            tag_280:\n                /* \"#utility.yul\":8475:8477   */\n              0x40\n                /* \"#utility.yul\":8470:8473   */\n              dup3\n                /* \"#utility.yul\":8466:8478   */\n              add\n                /* \"#utility.yul\":8459:8478   */\n              swap1\n              pop\n                /* \"#utility.yul\":8118:8484   */\n              swap2\n              swap1\n              pop\n              jump\t// out\n                /* \"#utility.yul\":8490:8909   */\n            tag_60:\n                /* \"#utility.yul\":8656:8660   */\n              0x00\n                /* \"#utility.yul\":8694:8696   */\n              0x20\n                /* \"#utility.yul\":8683:8692   */\n              dup3\n                /* \"#utility.yul\":8679:8697   */\n              add\n                /* \"#utility.yul\":8671:8697   */\n              swap1\n              pop\n                /* \"#utility.yul\":8743:8752   */\n              dup2\n                /* \"#utility.yul\":8737:8741   */\n              dup2\n                /* \"#utility.yul\":8733:8753   */\n              sub\n                /* \"#utility.yul\":8729:8730   */\n              0x00\n                /* \"#utility.yul\":8718:8727   */\n              dup4\n                /* \"#utility.yul\":8714:8731   */\n              add\n                /* \"#utility.yul\":8707:8754   */\n              mstore\n                /* \"#utility.yul\":8771:8902   */\n              tag_282\n                /* \"#utility.yul\":8897:8901   */\n              dup2\n                /* \"#utility.yul\":8771:8902   */\n              tag_163\n              jump\t// in\n            tag_282:\n                /* \"#utility.yul\":8763:8902   */\n              swap1\n              pop\n                /* \"#utility.yul\":8490:8909   */\n              swap2\n              swap1\n              pop\n              jump\t// out\n                /* \"#utility.yul\":8915:9091   */\n            tag_164:\n                /* \"#utility.yul\":9055:9083   */\n              0x4e6f6e2076616c6964206163636f6d6d6f646174696f6e204944000000000000\n                /* \"#utility.yul\":9051:9052   */\n              0x00\n                /* \"#utility.yul\":9043:9049   */\n              dup3\n                /* \"#utility.yul\":9039:9053   */\n              add\n                /* \"#utility.yul\":9032:9084   */\n              mstore\n                /* \"#utility.yul\":8915:9091   */\n              pop\n              jump\t// out\n                /* \"#utility.yul\":9097:9463   */\n            tag_165:\n                /* \"#utility.yul\":9239:9242   */\n              0x00\n                /* \"#utility.yul\":9260:9327   */\n              tag_285\n                /* \"#utility.yul\":9324:9326   */\n              0x1a\n                /* \"#utility.yul\":9319:9322   */\n              dup4\n                /* \"#utility.yul\":9260:9327   */\n              tag_155\n              jump\t// in\n            tag_285:\n                /* \"#utility.yul\":9253:9327   */\n              swap2\n              pop\n                /* \"#utility.yul\":9336:9429   */\n              tag_286\n                /* \"#utility.yul\":9425:9428   */\n              dup3\n                /* \"#utility.yul\":9336:9429   */\n              tag_164\n              jump\t// in\n            tag_286:\n                /* \"#utility.yul\":9454:9456   */\n              0x20\n                /* \"#utility.yul\":9449:9452   */\n              dup3\n                /* \"#utility.yul\":9445:9457   */\n              add\n                /* \"#utility.yul\":9438:9457   */\n              swap1\n              pop\n                /* \"#utility.yul\":9097:9463   */\n              swap2\n              swap1\n              pop\n              jump\t// out\n                /* \"#utility.yul\":9469:9888   */\n            tag_64:\n                /* \"#utility.yul\":9635:9639   */\n              0x00\n                /* \"#utility.yul\":9673:9675   */\n              0x20\n                /* \"#utility.yul\":9662:9671   */\n              dup3\n                /* \"#utility.yul\":9658:9676   */\n              add\n                /* \"#utility.yul\":9650:9676   */\n              swap1\n              pop\n                /* \"#utility.yul\":9722:9731   */\n              dup2\n                /* \"#utility.yul\":9716:9720   */\n              dup2\n                /* \"#utility.yul\":9712:9732   */\n              sub\n                /* \"#utility.yul\":9708:9709   */\n              0x00\n                /* \"#utility.yul\":9697:9706   */\n              dup4\n                /* \"#utility.yul\":9693:9710   */\n              add\n                /* \"#utility.yul\":9686:9733   */\n              mstore\n                /* \"#utility.yul\":9750:9881   */\n              tag_288\n                /* \"#utility.yul\":9876:9880   */\n              dup2\n                /* \"#utility.yul\":9750:9881   */\n              tag_165\n              jump\t// in\n            tag_288:\n                /* \"#utility.yul\":9742:9881   */\n              swap1\n              pop\n                /* \"#utility.yul\":9469:9888   */\n              swap2\n              swap1\n              pop\n              jump\t// out\n                /* \"#utility.yul\":9894:10074   */\n            tag_166:\n                /* \"#utility.yul\":9942:10019   */\n              0x4e487b7100000000000000000000000000000000000000000000000000000000\n                /* \"#utility.yul\":9939:9940   */\n              0x00\n                /* \"#utility.yul\":9932:10020   */\n              mstore\n                /* \"#utility.yul\":10039:10043   */\n              0x11\n                /* \"#utility.yul\":10036:10037   */\n              0x04\n                /* \"#utility.yul\":10029:10044   */\n              mstore\n                /* \"#utility.yul\":10063:10067   */\n              0x24\n                /* \"#utility.yul\":10060:10061   */\n              0x00\n                /* \"#utility.yul\":10053:10068   */\n              revert\n                /* \"#utility.yul\":10080:10274   */\n            tag_66:\n                /* \"#utility.yul\":10120:10124   */\n              0x00\n                /* \"#utility.yul\":10140:10160   */\n              tag_291\n                /* \"#utility.yul\":10158:10159   */\n              dup3\n                /* \"#utility.yul\":10140:10160   */\n              tag_134\n              jump\t// in\n            tag_291:\n                /* \"#utility.yul\":10135:10160   */\n              swap2\n              pop\n                /* \"#utility.yul\":10174:10194   */\n              tag_292\n                /* \"#utility.yul\":10192:10193   */\n              dup4\n                /* \"#utility.yul\":10174:10194   */\n              tag_134\n              jump\t// in\n            tag_292:\n                /* \"#utility.yul\":10169:10194   */\n              swap3\n              pop\n                /* \"#utility.yul\":10218:10219   */\n              dup3\n                /* \"#utility.yul\":10215:10216   */\n              dup3\n                /* \"#utility.yul\":10211:10220   */\n              sub\n                /* \"#utility.yul\":10203:10220   */\n              swap1\n              pop\n                /* \"#utility.yul\":10242:10243   */\n              dup2\n                /* \"#utility.yul\":10236:10240   */\n              dup2\n                /* \"#utility.yul\":10233:10244   */\n              gt\n                /* \"#utility.yul\":10230:10267   */\n              iszero\n              tag_293\n              jumpi\n                /* \"#utility.yul\":10247:10265   */\n              tag_294\n              tag_166\n              jump\t// in\n            tag_294:\n                /* \"#utility.yul\":10230:10267   */\n            tag_293:\n                /* \"#utility.yul\":10080:10274   */\n              swap3\n              swap2\n              pop\n              pop\n              jump\t// out\n                /* \"#utility.yul\":10280:10460   */\n            tag_167:\n                /* \"#utility.yul\":10328:10405   */\n              0x4e487b7100000000000000000000000000000000000000000000000000000000\n                /* \"#utility.yul\":10325:10326   */\n              0x00\n                /* \"#utility.yul\":10318:10406   */\n              mstore\n                /* \"#utility.yul\":10425:10429   */\n              0x22\n                /* \"#utility.yul\":10422:10423   */\n              0x04\n                /* \"#utility.yul\":10415:10430   */\n              mstore\n                /* \"#utility.yul\":10449:10453   */\n              0x24\n                /* \"#utility.yul\":10446:10447   */\n              0x00\n                /* \"#utility.yul\":10439:10454   */\n              revert\n                /* \"#utility.yul\":10466:10786   */\n            tag_99:\n                /* \"#utility.yul\":10510:10516   */\n              0x00\n                /* \"#utility.yul\":10547:10548   */\n              0x02\n                /* \"#utility.yul\":10541:10545   */\n              dup3\n                /* \"#utility.yul\":10537:10549   */\n              div\n                /* \"#utility.yul\":10527:10549   */\n              swap1\n              pop\n                /* \"#utility.yul\":10594:10595   */\n              0x01\n                /* \"#utility.yul\":10588:10592   */\n              dup3\n                /* \"#utility.yul\":10584:10596   */\n              and\n                /* \"#utility.yul\":10615:10633   */\n              dup1\n                /* \"#utility.yul\":10605:10686   */\n              tag_297\n              jumpi\n                /* \"#utility.yul\":10671:10675   */\n              0x7f\n                /* \"#utility.yul\":10663:10669   */\n              dup3\n                /* \"#utility.yul\":10659:10676   */\n              and\n                /* \"#utility.yul\":10649:10676   */\n              swap2\n              pop\n                /* \"#utility.yul\":10605:10686   */\n            tag_297:\n                /* \"#utility.yul\":10733:10735   */\n              0x20\n                /* \"#utility.yul\":10725:10731   */\n              dup3\n                /* \"#utility.yul\":10722:10736   */\n              lt\n                /* \"#utility.yul\":10702:10720   */\n              dup2\n                /* \"#utility.yul\":10699:10737   */\n              sub\n                /* \"#utility.yul\":10696:10780   */\n              tag_298\n              jumpi\n                /* \"#utility.yul\":10752:10770   */\n              tag_299\n              tag_167\n              jump\t// in\n            tag_299:\n                /* \"#utility.yul\":10696:10780   */\n            tag_298:\n                /* \"#utility.yul\":10517:10786   */\n              pop\n                /* \"#utility.yul\":10466:10786   */\n              swap2\n              swap1\n              pop\n              jump\t// out\n                /* \"#utility.yul\":10792:10941   */\n            tag_168:\n                /* \"#utility.yul\":10841:10847   */\n              0x00\n                /* \"#utility.yul\":10875:10880   */\n              dup2\n                /* \"#utility.yul\":10869:10881   */\n              sload\n                /* \"#utility.yul\":10859:10881   */\n              swap1\n              pop\n                /* \"#utility.yul\":10901:10934   */\n              tag_301\n                /* \"#utility.yul\":10927:10933   */\n              dup2\n                /* \"#utility.yul\":10901:10934   */\n              tag_99\n              jump\t// in\n            tag_301:\n                /* \"#utility.yul\":10891:10934   */\n              swap1\n              pop\n                /* \"#utility.yul\":10792:10941   */\n              swap2\n              swap1\n              pop\n              jump\t// out\n                /* \"#utility.yul\":10947:11088   */\n            tag_169:\n                /* \"#utility.yul\":10996:11000   */\n              0x00\n                /* \"#utility.yul\":11019:11022   */\n              dup2\n                /* \"#utility.yul\":11011:11022   */\n              swap1\n              pop\n                /* \"#utility.yul\":11042:11045   */\n              dup2\n                /* \"#utility.yul\":11039:11040   */\n              0x00\n                /* \"#utility.yul\":11032:11046   */\n              mstore\n                /* \"#utility.yul\":11076:11080   */\n              0x20\n                /* \"#utility.yul\":11073:11074   */\n              0x00\n                /* \"#utility.yul\":11063:11081   */\n              keccak256\n                /* \"#utility.yul\":11055:11081   */\n              swap1\n              pop\n                /* \"#utility.yul\":10947:11088   */\n              swap2\n              swap1\n              pop\n              jump\t// out\n                /* \"#utility.yul\":11094:11187   */\n            tag_170:\n                /* \"#utility.yul\":11131:11137   */\n              0x00\n                /* \"#utility.yul\":11178:11180   */\n              0x20\n                /* \"#utility.yul\":11173:11175   */\n              0x1f\n                /* \"#utility.yul\":11166:11171   */\n              dup4\n                /* \"#utility.yul\":11162:11176   */\n              add\n                /* \"#utility.yul\":11158:11181   */\n              div\n                /* \"#utility.yul\":11148:11181   */\n              swap1\n              pop\n                /* \"#utility.yul\":11094:11187   */\n              swap2\n              swap1\n              pop\n              jump\t// out\n                /* \"#utility.yul\":11193:11300   */\n            tag_171:\n                /* \"#utility.yul\":11237:11245   */\n              0x00\n                /* \"#utility.yul\":11287:11292   */\n              dup3\n                /* \"#utility.yul\":11281:11285   */\n              dup3\n                /* \"#utility.yul\":11277:11293   */\n              shl\n                /* \"#utility.yul\":11256:11293   */\n              swap1\n              pop\n                /* \"#utility.yul\":11193:11300   */\n              swap3\n              swap2\n              pop\n              pop\n              jump\t// out\n                /* \"#utility.yul\":11306:11699   */\n            tag_172:\n                /* \"#utility.yul\":11375:11381   */\n              0x00\n                /* \"#utility.yul\":11425:11426   */\n              0x08\n                /* \"#utility.yul\":11413:11423   */\n              dup4\n                /* \"#utility.yul\":11409:11427   */\n              mul\n                /* \"#utility.yul\":11448:11545   */\n              tag_306\n                /* \"#utility.yul\":11478:11544   */\n              0xffffffffffffffffffffffffffffffffffffffffffffffffffffffffffffffff\n                /* \"#utility.yul\":11467:11476   */\n              dup3\n                /* \"#utility.yul\":11448:11545   */\n              tag_171\n              jump\t// in\n            tag_306:\n                /* \"#utility.yul\":11566:11605   */\n              tag_307\n                /* \"#utility.yul\":11596:11604   */\n              dup7\n                /* \"#utility.yul\":11585:11594   */\n              dup4\n                /* \"#utility.yul\":11566:11605   */\n              tag_171\n              jump\t// in\n            tag_307:\n                /* \"#utility.yul\":11554:11605   */\n              swap6\n              pop\n                /* \"#utility.yul\":11638:11642   */\n              dup1\n                /* \"#utility.yul\":11634:11643   */\n              not\n                /* \"#utility.yul\":11627:11632   */\n              dup5\n                /* \"#utility.yul\":11623:11644   */\n              and\n                /* \"#utility.yul\":11614:11644   */\n              swap4\n              pop\n                /* \"#utility.yul\":11687:11691   */\n              dup1\n                /* \"#utility.yul\":11677:11685   */\n              dup7\n                /* \"#utility.yul\":11673:11692   */\n              and\n                /* \"#utility.yul\":11666:11671   */\n              dup5\n                /* \"#utility.yul\":11663:11693   */\n              or\n                /* \"#utility.yul\":11653:11693   */\n              swap3\n              pop\n                /* \"#utility.yul\":11382:11699   */\n              pop\n              pop\n                /* \"#utility.yul\":11306:11699   */\n              swap4\n              swap3\n              pop\n              pop\n              pop\n              jump\t// out\n                /* \"#utility.yul\":11705:11765   */\n            tag_173:\n                /* \"#utility.yul\":11733:11736   */\n              0x00\n                /* \"#utility.yul\":11754:11759   */\n              dup2\n                /* \"#utility.yul\":11747:11759   */\n              swap1\n              pop\n                /* \"#utility.yul\":11705:11765   */\n              swap2\n              swap1\n              pop\n              jump\t// out\n                /* \"#utility.yul\":11771:11913   */\n            tag_174:\n                /* \"#utility.yul\":11821:11830   */\n              0x00\n                /* \"#utility.yul\":11854:11907   */\n              tag_310\n                /* \"#utility.yul\":11872:11906   */\n              tag_311\n                /* \"#utility.yul\":11881:11905   */\n              tag_312\n                /* \"#utility.yul\":11899:11904   */\n              dup5\n                /* \"#utility.yul\":11881:11905   */\n              tag_134\n              jump\t// in\n            tag_312:\n                /* \"#utility.yul\":11872:11906   */\n              tag_173\n              jump\t// in\n            tag_311:\n                /* \"#utility.yul\":11854:11907   */\n              tag_134\n              jump\t// in\n            tag_310:\n                /* \"#utility.yul\":11841:11907   */\n              swap1\n              pop\n                /* \"#utility.yul\":11771:11913   */\n              swap2\n              swap1\n              pop\n              jump\t// out\n                /* \"#utility.yul\":11919:11994   */\n            tag_175:\n                /* \"#utility.yul\":11962:11965   */\n              0x00\n                /* \"#utility.yul\":11983:11988   */\n              dup2\n                /* \"#utility.yul\":11976:11988   */\n              swap1\n              pop\n                /* \"#utility.yul\":11919:11994   */\n              swap2\n              swap1\n              pop\n              jump\t// out\n                /* \"#utility.yul\":12000:12269   */\n            tag_176:\n                /* \"#utility.yul\":12110:12149   */\n              tag_315\n                /* \"#utility.yul\":12141:12148   */\n              dup4\n                /* \"#utility.yul\":12110:12149   */\n              tag_174\n              jump\t// in\n            tag_315:\n                /* \"#utility.yul\":12171:12262   */\n              tag_316\n                /* \"#utility.yul\":12220:12261   */\n              tag_317\n                /* \"#utility.yul\":12244:12260   */\n              dup3\n                /* \"#utility.yul\":12220:12261   */\n              tag_175\n              jump\t// in\n            tag_317:\n                /* \"#utility.yul\":12212:12218   */\n              dup5\n                /* \"#utility.yul\":12205:12209   */\n              dup5\n                /* \"#utility.yul\":12199:12210   */\n              sload\n                /* \"#utility.yul\":12171:12262   */\n              tag_172\n              jump\t// in\n            tag_316:\n                /* \"#utility.yul\":12165:12169   */\n              dup3\n                /* \"#utility.yul\":12158:12263   */\n              sstore\n                /* \"#utility.yul\":12076:12269   */\n              pop\n                /* \"#utility.yul\":12000:12269   */\n              pop\n              pop\n              pop\n              jump\t// out\n                /* \"#utility.yul\":12275:12348   */\n            tag_177:\n                /* \"#utility.yul\":12320:12323   */\n              0x00\n                /* \"#utility.yul\":12275:12348   */\n              swap1\n              jump\t// out\n                /* \"#utility.yul\":12354:12543   */\n            tag_178:\n                /* \"#utility.yul\":12431:12463   */\n              tag_320\n              tag_177\n              jump\t// in\n            tag_320:\n                /* \"#utility.yul\":12472:12537   */\n              tag_321\n                /* \"#utility.yul\":12530:12536   */\n              dup2\n                /* \"#utility.yul\":12522:12528   */\n              dup5\n                /* \"#utility.yul\":12516:12520   */\n              dup5\n                /* \"#utility.yul\":12472:12537   */\n              tag_176\n              jump\t// in\n            tag_321:\n                /* \"#utility.yul\":12407:12543   */\n              pop\n                /* \"#utility.yul\":12354:12543   */\n              pop\n              pop\n              jump\t// out\n                /* \"#utility.yul\":12549:12735   */\n            tag_179:\n                /* \"#utility.yul\":12609:12729   */\n            tag_323:\n                /* \"#utility.yul\":12626:12629   */\n              dup2\n                /* \"#utility.yul\":12619:12624   */\n              dup2\n                /* \"#utility.yul\":12616:12630   */\n              lt\n                /* \"#utility.yul\":12609:12729   */\n              iszero\n              tag_325\n              jumpi\n                /* \"#utility.yul\":12680:12719   */\n              tag_326\n                /* \"#utility.yul\":12717:12718   */\n              0x00\n                /* \"#utility.yul\":12710:12715   */\n              dup3\n                /* \"#utility.yul\":12680:12719   */\n              tag_178\n              jump\t// in\n            tag_326:\n                /* \"#utility.yul\":12653:12654   */\n              0x01\n                /* \"#utility.yul\":12646:12651   */\n              dup2\n                /* \"#utility.yul\":12642:12655   */\n              add\n                /* \"#utility.yul\":12633:12655   */\n              swap1\n              pop\n                /* \"#utility.yul\":12609:12729   */\n              jump(tag_323)\n            tag_325:\n                /* \"#utility.yul\":12549:12735   */\n              pop\n              pop\n              jump\t// out\n                /* \"#utility.yul\":12741:13284   */\n            tag_180:\n                /* \"#utility.yul\":12842:12844   */\n              0x1f\n                /* \"#utility.yul\":12837:12840   */\n              dup3\n                /* \"#utility.yul\":12834:12845   */\n              gt\n                /* \"#utility.yul\":12831:13277   */\n              iszero\n              tag_328\n              jumpi\n                /* \"#utility.yul\":12876:12914   */\n              tag_329\n                /* \"#utility.yul\":12908:12913   */\n              dup2\n                /* \"#utility.yul\":12876:12914   */\n              tag_169\n              jump\t// in\n            tag_329:\n                /* \"#utility.yul\":12960:12989   */\n              tag_330\n                /* \"#utility.yul\":12978:12988   */\n              dup5\n                /* \"#utility.yul\":12960:12989   */\n              tag_170\n              jump\t// in\n            tag_330:\n                /* \"#utility.yul\":12950:12958   */\n              dup2\n                /* \"#utility.yul\":12946:12990   */\n              add\n                /* \"#utility.yul\":13143:13145   */\n              0x20\n                /* \"#utility.yul\":13131:13141   */\n              dup6\n                /* \"#utility.yul\":13128:13146   */\n              lt\n                /* \"#utility.yul\":13125:13174   */\n              iszero\n              tag_331\n              jumpi\n                /* \"#utility.yul\":13164:13172   */\n              dup2\n                /* \"#utility.yul\":13149:13172   */\n              swap1\n              pop\n                /* \"#utility.yul\":13125:13174   */\n            tag_331:\n                /* \"#utility.yul\":13187:13267   */\n              tag_332\n                /* \"#utility.yul\":13243:13265   */\n              tag_333\n                /* \"#utility.yul\":13261:13264   */\n              dup6\n                /* \"#utility.yul\":13243:13265   */\n              tag_170\n              jump\t// in\n            tag_333:\n                /* \"#utility.yul\":13233:13241   */\n              dup4\n                /* \"#utility.yul\":13229:13266   */\n              add\n                /* \"#utility.yul\":13216:13227   */\n              dup3\n                /* \"#utility.yul\":13187:13267   */\n              tag_179\n              jump\t// in\n            tag_332:\n                /* \"#utility.yul\":12846:13277   */\n              pop\n              pop\n                /* \"#utility.yul\":12831:13277   */\n            tag_328:\n                /* \"#utility.yul\":12741:13284   */\n              pop\n              pop\n              pop\n              jump\t// out\n                /* \"#utility.yul\":13290:13407   */\n            tag_181:\n                /* \"#utility.yul\":13344:13352   */\n              0x00\n                /* \"#utility.yul\":13394:13399   */\n              dup3\n                /* \"#utility.yul\":13388:13392   */\n              dup3\n                /* \"#utility.yul\":13384:13400   */\n              shr\n                /* \"#utility.yul\":13363:13400   */\n              swap1\n              pop\n                /* \"#utility.yul\":13290:13407   */\n              swap3\n              swap2\n              pop\n              pop\n              jump\t// out\n                /* \"#utility.yul\":13413:13582   */\n            tag_182:\n                /* \"#utility.yul\":13457:13463   */\n              0x00\n                /* \"#utility.yul\":13490:13541   */\n              tag_336\n                /* \"#utility.yul\":13538:13539   */\n              0x00\n                /* \"#utility.yul\":13534:13540   */\n              not\n                /* \"#utility.yul\":13526:13531   */\n              dup5\n                /* \"#utility.yul\":13523:13524   */\n              0x08\n                /* \"#utility.yul\":13519:13532   */\n              mul\n                /* \"#utility.yul\":13490:13541   */\n              tag_181\n              jump\t// in\n            tag_336:\n                /* \"#utility.yul\":13486:13542   */\n              not\n                /* \"#utility.yul\":13571:13575   */\n              dup1\n                /* \"#utility.yul\":13565:13569   */\n              dup4\n                /* \"#utility.yul\":13561:13576   */\n              and\n                /* \"#utility.yul\":13551:13576   */\n              swap2\n              pop\n                /* \"#utility.yul\":13464:13582   */\n              pop\n                /* \"#utility.yul\":13413:13582   */\n              swap3\n              swap2\n              pop\n              pop\n              jump\t// out\n                /* \"#utility.yul\":13587:13882   */\n            tag_183:\n                /* \"#utility.yul\":13663:13667   */\n              0x00\n                /* \"#utility.yul\":13809:13838   */\n              tag_338\n                /* \"#utility.yul\":13834:13837   */\n              dup4\n                /* \"#utility.yul\":13828:13832   */\n              dup4\n                /* \"#utility.yul\":13809:13838   */\n              tag_182\n              jump\t// in\n            tag_338:\n                /* \"#utility.yul\":13801:13838   */\n              swap2\n              pop\n                /* \"#utility.yul\":13871:13874   */\n              dup3\n                /* \"#utility.yul\":13868:13869   */\n              0x02\n                /* \"#utility.yul\":13864:13875   */\n              mul\n                /* \"#utility.yul\":13858:13862   */\n              dup3\n                /* \"#utility.yul\":13855:13876   */\n              or\n                /* \"#utility.yul\":13847:13876   */\n              swap1\n              pop\n                /* \"#utility.yul\":13587:13882   */\n              swap3\n              swap2\n              pop\n              pop\n              jump\t// out\n                /* \"#utility.yul\":13887:15338   */\n            tag_70:\n                /* \"#utility.yul\":13998:14001   */\n              dup2\n                /* \"#utility.yul\":13992:13996   */\n              dup2\n                /* \"#utility.yul\":13989:14002   */\n              sub\n                /* \"#utility.yul\":13986:14012   */\n              tag_340\n              jumpi\n                /* \"#utility.yul\":14005:14010   */\n              pop\n              pop\n              jump(tag_339)\n                /* \"#utility.yul\":13986:14012   */\n            tag_340:\n                /* \"#utility.yul\":14036:14070   */\n              tag_341\n                /* \"#utility.yul\":14066:14069   */\n              dup3\n                /* \"#utility.yul\":14036:14070   */\n              tag_168\n              jump\t// in\n            tag_341:\n                /* \"#utility.yul\":14135:14153   */\n              0xffffffffffffffff\n                /* \"#utility.yul\":14127:14133   */\n              dup2\n                /* \"#utility.yul\":14124:14154   */\n              gt\n                /* \"#utility.yul\":14121:14177   */\n              iszero\n              tag_342\n              jumpi\n                /* \"#utility.yul\":14157:14175   */\n              tag_343\n              tag_147\n              jump\t// in\n            tag_343:\n                /* \"#utility.yul\":14121:14177   */\n            tag_342:\n                /* \"#utility.yul\":14201:14239   */\n              tag_344\n                /* \"#utility.yul\":14233:14237   */\n              dup3\n                /* \"#utility.yul\":14227:14238   */\n              sload\n                /* \"#utility.yul\":14201:14239   */\n              tag_99\n              jump\t// in\n            tag_344:\n                /* \"#utility.yul\":14286:14353   */\n              tag_345\n                /* \"#utility.yul\":14346:14352   */\n              dup3\n                /* \"#utility.yul\":14338:14344   */\n              dup3\n                /* \"#utility.yul\":14332:14336   */\n              dup6\n                /* \"#utility.yul\":14286:14353   */\n              tag_180\n              jump\t// in\n            tag_345:\n                /* \"#utility.yul\":14380:14381   */\n              0x00\n                /* \"#utility.yul\":14409:14411   */\n              0x1f\n                /* \"#utility.yul\":14401:14407   */\n              dup4\n                /* \"#utility.yul\":14398:14412   */\n              gt\n                /* \"#utility.yul\":14426:14427   */\n              0x01\n                /* \"#utility.yul\":14421:15093   */\n              dup2\n              eq\n              tag_347\n              jumpi\n                /* \"#utility.yul\":15137:15138   */\n              0x00\n                /* \"#utility.yul\":15154:15160   */\n              dup5\n                /* \"#utility.yul\":15151:15228   */\n              iszero\n              tag_348\n              jumpi\n                /* \"#utility.yul\":15203:15212   */\n              dup3\n                /* \"#utility.yul\":15198:15201   */\n              dup8\n                /* \"#utility.yul\":15194:15213   */\n              add\n                /* \"#utility.yul\":15188:15214   */\n              sload\n                /* \"#utility.yul\":15179:15214   */\n              swap1\n              pop\n                /* \"#utility.yul\":15151:15228   */\n            tag_348:\n                /* \"#utility.yul\":15254:15321   */\n              tag_349\n                /* \"#utility.yul\":15314:15320   */\n              dup6\n                /* \"#utility.yul\":15307:15312   */\n              dup3\n                /* \"#utility.yul\":15254:15321   */\n              tag_183\n              jump\t// in\n            tag_349:\n                /* \"#utility.yul\":15248:15252   */\n              dup7\n                /* \"#utility.yul\":15241:15322   */\n              sstore\n                /* \"#utility.yul\":15110:15332   */\n              pop\n                /* \"#utility.yul\":14391:15332   */\n              jump(tag_346)\n                /* \"#utility.yul\":14421:15093   */\n            tag_347:\n                /* \"#utility.yul\":14473:14477   */\n              0x1f\n                /* \"#utility.yul\":14469:14478   */\n              not\n                /* \"#utility.yul\":14461:14467   */\n              dup5\n                /* \"#utility.yul\":14457:14479   */\n              and\n                /* \"#utility.yul\":14499:14535   */\n              tag_350\n                /* \"#utility.yul\":14531:14534   */\n              dup8\n                /* \"#utility.yul\":14499:14535   */\n              tag_169\n              jump\t// in\n            tag_350:\n                /* \"#utility.yul\":14492:14535   */\n              swap7\n              pop\n                /* \"#utility.yul\":14562:14599   */\n              tag_351\n                /* \"#utility.yul\":14594:14598   */\n              dup7\n                /* \"#utility.yul\":14562:14599   */\n              tag_169\n              jump\t// in\n            tag_351:\n                /* \"#utility.yul\":14621:14622   */\n              0x00\n                /* \"#utility.yul\":14635:14842   */\n            tag_352:\n                /* \"#utility.yul\":14649:14656   */\n              dup3\n                /* \"#utility.yul\":14646:14647   */\n              dup2\n                /* \"#utility.yul\":14643:14657   */\n              lt\n                /* \"#utility.yul\":14635:14842   */\n              iszero\n              tag_354\n              jumpi\n                /* \"#utility.yul\":14728:14737   */\n              dup5\n                /* \"#utility.yul\":14723:14726   */\n              dup10\n                /* \"#utility.yul\":14719:14738   */\n              add\n                /* \"#utility.yul\":14713:14739   */\n              sload\n                /* \"#utility.yul\":14705:14711   */\n              dup3\n                /* \"#utility.yul\":14698:14740   */\n              sstore\n                /* \"#utility.yul\":14779:14780   */\n              0x01\n                /* \"#utility.yul\":14771:14777   */\n              dup3\n                /* \"#utility.yul\":14767:14781   */\n              add\n                /* \"#utility.yul\":14757:14781   */\n              swap2\n              pop\n                /* \"#utility.yul\":14826:14827   */\n              0x01\n                /* \"#utility.yul\":14815:14824   */\n              dup6\n                /* \"#utility.yul\":14811:14828   */\n              add\n                /* \"#utility.yul\":14798:14828   */\n              swap5\n              pop\n                /* \"#utility.yul\":14672:14676   */\n              0x20\n                /* \"#utility.yul\":14669:14670   */\n              dup2\n                /* \"#utility.yul\":14665:14677   */\n              add\n                /* \"#utility.yul\":14660:14677   */\n              swap1\n              pop\n                /* \"#utility.yul\":14635:14842   */\n              jump(tag_352)\n            tag_354:\n                /* \"#utility.yul\":14870:14876   */\n              dup7\n                /* \"#utility.yul\":14861:14868   */\n              dup4\n                /* \"#utility.yul\":14858:14877   */\n              lt\n                /* \"#utility.yul\":14855:15034   */\n              iszero\n              tag_355\n              jumpi\n                /* \"#utility.yul\":14928:14937   */\n              dup5\n                /* \"#utility.yul\":14923:14926   */\n              dup10\n                /* \"#utility.yul\":14919:14938   */\n              add\n                /* \"#utility.yul\":14913:14939   */\n              sload\n                /* \"#utility.yul\":14971:15019   */\n              tag_356\n                /* \"#utility.yul\":15013:15017   */\n              0x1f\n                /* \"#utility.yul\":15005:15011   */\n              dup10\n                /* \"#utility.yul\":15001:15018   */\n              and\n                /* \"#utility.yul\":14990:14999   */\n              dup3\n                /* \"#utility.yul\":14971:15019   */\n              tag_182\n              jump\t// in\n            tag_356:\n                /* \"#utility.yul\":14963:14969   */\n              dup4\n                /* \"#utility.yul\":14956:15020   */\n              sstore\n                /* \"#utility.yul\":14878:15034   */\n              pop\n                /* \"#utility.yul\":14855:15034   */\n            tag_355:\n                /* \"#utility.yul\":15080:15081   */\n              0x01\n                /* \"#utility.yul\":15076:15077   */\n              0x02\n                /* \"#utility.yul\":15068:15074   */\n              dup9\n                /* \"#utility.yul\":15064:15078   */\n              mul\n                /* \"#utility.yul\":15060:15082   */\n              add\n                /* \"#utility.yul\":15054:15058   */\n              dup9\n                /* \"#utility.yul\":15047:15083   */\n              sstore\n                /* \"#utility.yul\":14428:15093   */\n              pop\n              pop\n              pop\n                /* \"#utility.yul\":14391:15332   */\n            tag_346:\n              pop\n                /* \"#utility.yul\":13976:15338   */\n              pop\n              pop\n              pop\n                /* \"#utility.yul\":13887:15338   */\n              pop\n              pop\n            tag_339:\n              jump\t// out\n                /* \"#utility.yul\":15344:15515   */\n            tag_76:\n                /* \"#utility.yul\":15383:15386   */\n              0x00\n                /* \"#utility.yul\":15406:15430   */\n              tag_358\n                /* \"#utility.yul\":15424:15429   */\n              dup3\n                /* \"#utility.yul\":15406:15430   */\n              tag_134\n              jump\t// in\n            tag_358:\n                /* \"#utility.yul\":15397:15430   */\n              swap2\n              pop\n                /* \"#utility.yul\":15452:15456   */\n              0x00\n                /* \"#utility.yul\":15445:15450   */\n              dup3\n                /* \"#utility.yul\":15442:15457   */\n              sub\n                /* \"#utility.yul\":15439:15480   */\n              tag_359\n              jumpi\n                /* \"#utility.yul\":15460:15478   */\n              tag_360\n              tag_166\n              jump\t// in\n            tag_360:\n                /* \"#utility.yul\":15439:15480   */\n            tag_359:\n                /* \"#utility.yul\":15507:15508   */\n              0x01\n                /* \"#utility.yul\":15500:15505   */\n              dup3\n                /* \"#utility.yul\":15496:15509   */\n              sub\n                /* \"#utility.yul\":15489:15509   */\n              swap1\n              pop\n                /* \"#utility.yul\":15344:15515   */\n              swap2\n              swap1\n              pop\n              jump\t// out\n                /* \"#utility.yul\":15521:16916   */\n            tag_89:\n                /* \"#utility.yul\":15638:15675   */\n              tag_362\n                /* \"#utility.yul\":15671:15674   */\n              dup3\n                /* \"#utility.yul\":15638:15675   */\n              tag_154\n              jump\t// in\n            tag_362:\n                /* \"#utility.yul\":15740:15758   */\n              0xffffffffffffffff\n                /* \"#utility.yul\":15732:15738   */\n              dup2\n                /* \"#utility.yul\":15729:15759   */\n              gt\n                /* \"#utility.yul\":15726:15782   */\n              iszero\n              tag_363\n              jumpi\n                /* \"#utility.yul\":15762:15780   */\n              tag_364\n              tag_147\n              jump\t// in\n            tag_364:\n                /* \"#utility.yul\":15726:15782   */\n            tag_363:\n                /* \"#utility.yul\":15806:15844   */\n              tag_365\n                /* \"#utility.yul\":15838:15842   */\n              dup3\n                /* \"#utility.yul\":15832:15843   */\n              sload\n                /* \"#utility.yul\":15806:15844   */\n              tag_99\n              jump\t// in\n            tag_365:\n                /* \"#utility.yul\":15891:15958   */\n              tag_366\n                /* \"#utility.yul\":15951:15957   */\n              dup3\n                /* \"#utility.yul\":15943:15949   */\n              dup3\n                /* \"#utility.yul\":15937:15941   */\n              dup6\n                /* \"#utility.yul\":15891:15958   */\n              tag_180\n              jump\t// in\n            tag_366:\n                /* \"#utility.yul\":15985:15986   */\n              0x00\n                /* \"#utility.yul\":16009:16013   */\n              0x20\n                /* \"#utility.yul\":15996:16013   */\n              swap1\n              pop\n                /* \"#utility.yul\":16041:16043   */\n              0x1f\n                /* \"#utility.yul\":16033:16039   */\n              dup4\n                /* \"#utility.yul\":16030:16044   */\n              gt\n                /* \"#utility.yul\":16058:16059   */\n              0x01\n                /* \"#utility.yul\":16053:16671   */\n              dup2\n              eq\n              tag_368\n              jumpi\n                /* \"#utility.yul\":16715:16716   */\n              0x00\n                /* \"#utility.yul\":16732:16738   */\n              dup5\n                /* \"#utility.yul\":16729:16806   */\n              iszero\n              tag_369\n              jumpi\n                /* \"#utility.yul\":16781:16790   */\n              dup3\n                /* \"#utility.yul\":16776:16779   */\n              dup8\n                /* \"#utility.yul\":16772:16791   */\n              add\n                /* \"#utility.yul\":16766:16792   */\n              mload\n                /* \"#utility.yul\":16757:16792   */\n              swap1\n              pop\n                /* \"#utility.yul\":16729:16806   */\n            tag_369:\n                /* \"#utility.yul\":16832:16899   */\n              tag_370\n                /* \"#utility.yul\":16892:16898   */\n              dup6\n                /* \"#utility.yul\":16885:16890   */\n              dup3\n                /* \"#utility.yul\":16832:16899   */\n              tag_183\n              jump\t// in\n            tag_370:\n                /* \"#utility.yul\":16826:16830   */\n              dup7\n                /* \"#utility.yul\":16819:16900   */\n              sstore\n                /* \"#utility.yul\":16688:16910   */\n              pop\n                /* \"#utility.yul\":16023:16910   */\n              jump(tag_367)\n                /* \"#utility.yul\":16053:16671   */\n            tag_368:\n                /* \"#utility.yul\":16105:16109   */\n              0x1f\n                /* \"#utility.yul\":16101:16110   */\n              not\n                /* \"#utility.yul\":16093:16099   */\n              dup5\n                /* \"#utility.yul\":16089:16111   */\n              and\n                /* \"#utility.yul\":16139:16176   */\n              tag_371\n                /* \"#utility.yul\":16171:16175   */\n              dup7\n                /* \"#utility.yul\":16139:16176   */\n              tag_169\n              jump\t// in\n            tag_371:\n                /* \"#utility.yul\":16198:16199   */\n              0x00\n                /* \"#utility.yul\":16212:16420   */\n            tag_372:\n                /* \"#utility.yul\":16226:16233   */\n              dup3\n                /* \"#utility.yul\":16223:16224   */\n              dup2\n                /* \"#utility.yul\":16220:16234   */\n              lt\n                /* \"#utility.yul\":16212:16420   */\n              iszero\n              tag_374\n              jumpi\n                /* \"#utility.yul\":16305:16314   */\n              dup5\n                /* \"#utility.yul\":16300:16303   */\n              dup10\n                /* \"#utility.yul\":16296:16315   */\n              add\n                /* \"#utility.yul\":16290:16316   */\n              mload\n                /* \"#utility.yul\":16282:16288   */\n              dup3\n                /* \"#utility.yul\":16275:16317   */\n              sstore\n                /* \"#utility.yul\":16356:16357   */\n              0x01\n                /* \"#utility.yul\":16348:16354   */\n              dup3\n                /* \"#utility.yul\":16344:16358   */\n              add\n                /* \"#utility.yul\":16334:16358   */\n              swap2\n              pop\n                /* \"#utility.yul\":16403:16405   */\n              0x20\n                /* \"#utility.yul\":16392:16401   */\n              dup6\n                /* \"#utility.yul\":16388:16406   */\n              add\n                /* \"#utility.yul\":16375:16406   */\n              swap5\n              pop\n                /* \"#utility.yul\":16249:16253   */\n              0x20\n                /* \"#utility.yul\":16246:16247   */\n              dup2\n                /* \"#utility.yul\":16242:16254   */\n              add\n                /* \"#utility.yul\":16237:16254   */\n              swap1\n              pop\n                /* \"#utility.yul\":16212:16420   */\n              jump(tag_372)\n            tag_374:\n                /* \"#utility.yul\":16448:16454   */\n              dup7\n                /* \"#utility.yul\":16439:16446   */\n              dup4\n                /* \"#utility.yul\":16436:16455   */\n              lt\n                /* \"#utility.yul\":16433:16612   */\n              iszero\n              tag_375\n              jumpi\n                /* \"#utility.yul\":16506:16515   */\n              dup5\n                /* \"#utility.yul\":16501:16504   */\n              dup10\n                /* \"#utility.yul\":16497:16516   */\n              add\n                /* \"#utility.yul\":16491:16517   */\n              mload\n                /* \"#utility.yul\":16549:16597   */\n              tag_376\n                /* \"#utility.yul\":16591:16595   */\n              0x1f\n                /* \"#utility.yul\":16583:16589   */\n              dup10\n                /* \"#utility.yul\":16579:16596   */\n              and\n                /* \"#utility.yul\":16568:16577   */\n              dup3\n                /* \"#utility.yul\":16549:16597   */\n              tag_182\n              jump\t// in\n            tag_376:\n                /* \"#utility.yul\":16541:16547   */\n              dup4\n                /* \"#utility.yul\":16534:16598   */\n              sstore\n                /* \"#utility.yul\":16456:16612   */\n              pop\n                /* \"#utility.yul\":16433:16612   */\n            tag_375:\n                /* \"#utility.yul\":16658:16659   */\n              0x01\n                /* \"#utility.yul\":16654:16655   */\n              0x02\n                /* \"#utility.yul\":16646:16652   */\n              dup9\n                /* \"#utility.yul\":16642:16656   */\n              mul\n                /* \"#utility.yul\":16638:16660   */\n              add\n                /* \"#utility.yul\":16632:16636   */\n              dup9\n                /* \"#utility.yul\":16625:16661   */\n              sstore\n                /* \"#utility.yul\":16060:16671   */\n              pop\n              pop\n              pop\n                /* \"#utility.yul\":16023:16910   */\n            tag_367:\n              pop\n                /* \"#utility.yul\":15613:16916   */\n              pop\n              pop\n              pop\n                /* \"#utility.yul\":15521:16916   */\n              pop\n              pop\n              jump\t// out\n                /* \"#utility.yul\":16922:17455   */\n            tag_91:\n                /* \"#utility.yul\":17091:17095   */\n              0x00\n                /* \"#utility.yul\":17129:17131   */\n              0x60\n                /* \"#utility.yul\":17118:17127   */\n              dup3\n                /* \"#utility.yul\":17114:17132   */\n              add\n                /* \"#utility.yul\":17106:17132   */\n              swap1\n              pop\n                /* \"#utility.yul\":17142:17213   */\n              tag_378\n                /* \"#utility.yul\":17210:17211   */\n              0x00\n                /* \"#utility.yul\":17199:17208   */\n              dup4\n                /* \"#utility.yul\":17195:17212   */\n              add\n                /* \"#utility.yul\":17186:17192   */\n              dup7\n                /* \"#utility.yul\":17142:17213   */\n              tag_135\n              jump\t// in\n            tag_378:\n                /* \"#utility.yul\":17260:17269   */\n              dup2\n                /* \"#utility.yul\":17254:17258   */\n              dup2\n                /* \"#utility.yul\":17250:17270   */\n              sub\n                /* \"#utility.yul\":17245:17247   */\n              0x20\n                /* \"#utility.yul\":17234:17243   */\n              dup4\n                /* \"#utility.yul\":17230:17248   */\n              add\n                /* \"#utility.yul\":17223:17271   */\n              mstore\n                /* \"#utility.yul\":17288:17366   */\n              tag_379\n                /* \"#utility.yul\":17361:17365   */\n              dup2\n                /* \"#utility.yul\":17352:17358   */\n              dup6\n                /* \"#utility.yul\":17288:17366   */\n              tag_157\n              jump\t// in\n            tag_379:\n                /* \"#utility.yul\":17280:17366   */\n              swap1\n              pop\n                /* \"#utility.yul\":17376:17448   */\n              tag_380\n                /* \"#utility.yul\":17444:17446   */\n              0x40\n                /* \"#utility.yul\":17433:17442   */\n              dup4\n                /* \"#utility.yul\":17429:17447   */\n              add\n                /* \"#utility.yul\":17420:17426   */\n              dup5\n                /* \"#utility.yul\":17376:17448   */\n              tag_135\n              jump\t// in\n            tag_380:\n                /* \"#utility.yul\":16922:17455   */\n              swap5\n              swap4\n              pop\n              pop\n              pop\n              pop\n              jump\t// out\n                /* \"#utility.yul\":17461:17694   */\n            tag_93:\n                /* \"#utility.yul\":17500:17503   */\n              0x00\n                /* \"#utility.yul\":17523:17547   */\n              tag_382\n                /* \"#utility.yul\":17541:17546   */\n              dup3\n                /* \"#utility.yul\":17523:17547   */\n              tag_134\n              jump\t// in\n            tag_382:\n                /* \"#utility.yul\":17514:17547   */\n              swap2\n              pop\n                /* \"#utility.yul\":17569:17635   */\n              0xffffffffffffffffffffffffffffffffffffffffffffffffffffffffffffffff\n                /* \"#utility.yul\":17562:17567   */\n              dup3\n                /* \"#utility.yul\":17559:17636   */\n              sub\n                /* \"#utility.yul\":17556:17659   */\n              tag_383\n              jumpi\n                /* \"#utility.yul\":17639:17657   */\n              tag_384\n              tag_166\n              jump\t// in\n            tag_384:\n                /* \"#utility.yul\":17556:17659   */\n            tag_383:\n                /* \"#utility.yul\":17686:17687   */\n              0x01\n                /* \"#utility.yul\":17679:17684   */\n              dup3\n                /* \"#utility.yul\":17675:17688   */\n              add\n                /* \"#utility.yul\":17668:17688   */\n              swap1\n              pop\n                /* \"#utility.yul\":17461:17694   */\n              swap2\n              swap1\n              pop\n              jump\t// out\n                /* \"#utility.yul\":17700:17882   */\n            tag_184:\n                /* \"#utility.yul\":17840:17874   */\n              0x4163636f6d6d6f646174696f6e20494420646f6573206e6f742065786973742e\n                /* \"#utility.yul\":17836:17837   */\n              0x00\n                /* \"#utility.yul\":17828:17834   */\n              dup3\n                /* \"#utility.yul\":17824:17838   */\n              add\n                /* \"#utility.yul\":17817:17875   */\n              mstore\n                /* \"#utility.yul\":17700:17882   */\n              pop\n              jump\t// out\n                /* \"#utility.yul\":17888:18254   */\n            tag_185:\n                /* \"#utility.yul\":18030:18033   */\n              0x00\n                /* \"#utility.yul\":18051:18118   */\n              tag_387\n                /* \"#utility.yul\":18115:18117   */\n              0x20\n                /* \"#utility.yul\":18110:18113   */\n              dup4\n                /* \"#utility.yul\":18051:18118   */\n              tag_155\n              jump\t// in\n            tag_387:\n                /* \"#utility.yul\":18044:18118   */\n              swap2\n              pop\n                /* \"#utility.yul\":18127:18220   */\n              tag_388\n                /* \"#utility.yul\":18216:18219   */\n              dup3\n                /* \"#utility.yul\":18127:18220   */\n              tag_184\n              jump\t// in\n            tag_388:\n                /* \"#utility.yul\":18245:18247   */\n              0x20\n                /* \"#utility.yul\":18240:18243   */\n              dup3\n                /* \"#utility.yul\":18236:18248   */\n              add\n                /* \"#utility.yul\":18229:18248   */\n              swap1\n              pop\n                /* \"#utility.yul\":17888:18254   */\n              swap2\n              swap1\n              pop\n              jump\t// out\n                /* \"#utility.yul\":18260:18679   */\n            tag_97:\n                /* \"#utility.yul\":18426:18430   */\n              0x00\n                /* \"#utility.yul\":18464:18466   */\n              0x20\n                /* \"#utility.yul\":18453:18462   */\n              dup3\n                /* \"#utility.yul\":18449:18467   */\n              add\n                /* \"#utility.yul\":18441:18467   */\n              swap1\n              pop\n                /* \"#utility.yul\":18513:18522   */\n              dup2\n                /* \"#utility.yul\":18507:18511   */\n              dup2\n                /* \"#utility.yul\":18503:18523   */\n              sub\n                /* \"#utility.yul\":18499:18500   */\n              0x00\n                /* \"#utility.yul\":18488:18497   */\n              dup4\n                /* \"#utility.yul\":18484:18501   */\n              add\n                /* \"#utility.yul\":18477:18524   */\n              mstore\n                /* \"#utility.yul\":18541:18672   */\n              tag_390\n                /* \"#utility.yul\":18667:18671   */\n              dup2\n                /* \"#utility.yul\":18541:18672   */\n              tag_185\n              jump\t// in\n            tag_390:\n                /* \"#utility.yul\":18533:18672   */\n              swap1\n              pop\n                /* \"#utility.yul\":18260:18679   */\n              swap2\n              swap1\n              pop\n              jump\t// out\n                /* \"#utility.yul\":18685:19317   */\n            tag_119:\n                /* \"#utility.yul\":18876:18880   */\n              0x00\n                /* \"#utility.yul\":18914:18917   */\n              0x80\n                /* \"#utility.yul\":18903:18912   */\n              dup3\n                /* \"#utility.yul\":18899:18918   */\n              add\n                /* \"#utility.yul\":18891:18918   */\n              swap1\n              pop\n                /* \"#utility.yul\":18928:18999   */\n              tag_392\n                /* \"#utility.yul\":18996:18997   */\n              0x00\n                /* \"#utility.yul\":18985:18994   */\n              dup4\n                /* \"#utility.yul\":18981:18998   */\n              add\n                /* \"#utility.yul\":18972:18978   */\n              dup8\n                /* \"#utility.yul\":18928:18999   */\n              tag_135\n              jump\t// in\n            tag_392:\n                /* \"#utility.yul\":19046:19055   */\n              dup2\n                /* \"#utility.yul\":19040:19044   */\n              dup2\n                /* \"#utility.yul\":19036:19056   */\n              sub\n                /* \"#utility.yul\":19031:19033   */\n              0x20\n                /* \"#utility.yul\":19020:19029   */\n              dup4\n                /* \"#utility.yul\":19016:19034   */\n              add\n                /* \"#utility.yul\":19009:19057   */\n              mstore\n                /* \"#utility.yul\":19074:19152   */\n              tag_393\n                /* \"#utility.yul\":19147:19151   */\n              dup2\n                /* \"#utility.yul\":19138:19144   */\n              dup7\n                /* \"#utility.yul\":19074:19152   */\n              tag_157\n              jump\t// in\n            tag_393:\n                /* \"#utility.yul\":19066:19152   */\n              swap1\n              pop\n                /* \"#utility.yul\":19162:19234   */\n              tag_394\n                /* \"#utility.yul\":19230:19232   */\n              0x40\n                /* \"#utility.yul\":19219:19228   */\n              dup4\n                /* \"#utility.yul\":19215:19233   */\n              add\n                /* \"#utility.yul\":19206:19212   */\n              dup6\n                /* \"#utility.yul\":19162:19234   */\n              tag_135\n              jump\t// in\n            tag_394:\n                /* \"#utility.yul\":19244:19310   */\n              tag_395\n                /* \"#utility.yul\":19306:19308   */\n              0x60\n                /* \"#utility.yul\":19295:19304   */\n              dup4\n                /* \"#utility.yul\":19291:19309   */\n              add\n                /* \"#utility.yul\":19282:19288   */\n              dup5\n                /* \"#utility.yul\":19244:19310   */\n              tag_159\n              jump\t// in\n            tag_395:\n                /* \"#utility.yul\":18685:19317   */\n              swap6\n              swap5\n              pop\n              pop\n              pop\n              pop\n              pop\n              jump\t// out\n\n            auxdata: 0xa26469706673582212201c130a424ce027bddd19ef228b22ac53c154e202e576762770207772a92e5b5d64736f6c63430008160033\n        }\n    }\n\n    auxdata: 0xa264697066735822122014f1ec83a2b6e3416202520e707305ef8145d1b94eb01ea2acddebf5a67bb2f764736f6c63430008160033\n}\n",
				"bytecode": {
					"linkReferences": {},
					"object": "608060405234801561000f575f80fd5b50335f806101000a81548173ffffffffffffffffffffffffffffffffffffffff021916908373ffffffffffffffffffffffffffffffffffffffff16021790555061231d8061005c5f395ff3fe608060405234801562000010575f80fd5b50600436106200005c575f3560e01c806347da7c7914620000605780638da5cb5b1462000082578063a2f35f4414620000a4578063a6d5a19914620000c4578063b5db56bd14620000e4575b5f80fd5b6200006a6200011a565b60405162000079919062000649565b60405180910390f35b6200008c62000226565b6040516200009b919062000649565b60405180910390f35b620000c26004803603810190620000bc919062000697565b62000249565b005b620000e26004803603810190620000dc9190620006ff565b62000375565b005b620001026004803603810190620000fc9190620006ff565b620005bc565b60405162000111919062000649565b60405180910390f35b5f805f9054906101000a900473ffffffffffffffffffffffffffffffffffffffff1673ffffffffffffffffffffffffffffffffffffffff163373ffffffffffffffffffffffffffffffffffffffff1614620001ac576040517f08c379a0000000000000000000000000000000000000000000000000000000008152600401620001a390620007b3565b60405180910390fd5b5f6001604051620001bd90620005f8565b620001c9919062000901565b604051809103905ff080158015620001e3573d5f803e3d5ffd5b5090507f92903bbfcd4c80a2e35ea27f9bdc0722cb0b39649c7075c1c8039c4a527c48788160405162000217919062000649565b60405180910390a18091505090565b5f8054906101000a900473ffffffffffffffffffffffffffffffffffffffff1681565b5f8054906101000a900473ffffffffffffffffffffffffffffffffffffffff1673ffffffffffffffffffffffffffffffffffffffff163373ffffffffffffffffffffffffffffffffffffffff1614620002d9576040517f08c379a0000000000000000000000000000000000000000000000000000000008152600401620002d090620007b3565b60405180910390fd5b600181908060018154018082558091505060019003905f5260205f20015f9091909190916101000a81548173ffffffffffffffffffffffffffffffffffffffff021916908373ffffffffffffffffffffffffffffffffffffffff1602179055507f2261c6d9f1ef87b8ec487b00ee19f9bbb1c07081193de9ebfd8f3e3f1c86ea54816040516200036a919062000649565b60405180910390a150565b5f8054906101000a900473ffffffffffffffffffffffffffffffffffffffff1673ffffffffffffffffffffffffffffffffffffffff163373ffffffffffffffffffffffffffffffffffffffff161462000405576040517f08c379a0000000000000000000000000000000000000000000000000000000008152600401620003fc90620007b3565b60405180910390fd5b60018054905081106200044f576040517f08c379a0000000000000000000000000000000000000000000000000000000008152600401620004469062000971565b60405180910390fd5b7f6529a9b0839455cf87ad7a8128177f89aeb8b481e747d75bb9f6f847f622d4606001828154811062000487576200048662000991565b5b905f5260205f20015f9054906101000a900473ffffffffffffffffffffffffffffffffffffffff16604051620004be919062000649565b60405180910390a16001808080549050620004da9190620009eb565b81548110620004ee57620004ed62000991565b5b905f5260205f20015f9054906101000a900473ffffffffffffffffffffffffffffffffffffffff16600182815481106200052d576200052c62000991565b5b905f5260205f20015f6101000a81548173ffffffffffffffffffffffffffffffffffffffff021916908373ffffffffffffffffffffffffffffffffffffffff160217905550600180548062000587576200058662000a25565b5b600190038181905f5260205f20015f6101000a81549073ffffffffffffffffffffffffffffffffffffffff0219169055905550565b60018181548110620005cc575f80fd5b905f5260205f20015f915054906101000a900473ffffffffffffffffffffffffffffffffffffffff1681565b6118958062000a5383390190565b5f73ffffffffffffffffffffffffffffffffffffffff82169050919050565b5f620006318262000606565b9050919050565b620006438162000625565b82525050565b5f6020820190506200065e5f83018462000638565b92915050565b5f80fd5b620006738162000625565b81146200067e575f80fd5b50565b5f81359050620006918162000668565b92915050565b5f60208284031215620006af57620006ae62000664565b5b5f620006be8482850162000681565b91505092915050565b5f819050919050565b620006db81620006c7565b8114620006e6575f80fd5b50565b5f81359050620006f981620006d0565b92915050565b5f6020828403121562000717576200071662000664565b5b5f6200072684828501620006e9565b91505092915050565b5f82825260208201905092915050565b7f4f6e6c7920746865206f776e65722063616e20657865637574652074686973205f8201527f616374696f6e0000000000000000000000000000000000000000000000000000602082015250565b5f6200079b6026836200072f565b9150620007a8826200073f565b604082019050919050565b5f6020820190508181035f830152620007cc816200078d565b9050919050565b5f81549050919050565b5f82825260208201905092915050565b5f819050815f5260205f209050919050565b6200080a8162000625565b82525050565b5f6200081d8383620007ff565b60208301905092915050565b5f815f1c9050919050565b5f73ffffffffffffffffffffffffffffffffffffffff82169050919050565b5f62000869620008638362000829565b62000834565b9050919050565b5f6200087d825462000853565b9050919050565b5f600182019050919050565b5f6200089c82620007d3565b620008a88185620007dd565b9350620008b583620007ed565b805f5b83811015620008f457620008cc8262000870565b620008d8888262000810565b9750620008e58362000884565b925050600181019050620008b8565b5085935050505092915050565b5f6020820190508181035f8301526200091b818462000890565b905092915050565b7f496e646578206f7574206f6620626f756e6473000000000000000000000000005f82015250565b5f620009596013836200072f565b9150620009668262000923565b602082019050919050565b5f6020820190508181035f8301526200098a816200094b565b9050919050565b7f4e487b71000000000000000000000000000000000000000000000000000000005f52603260045260245ffd5b7f4e487b71000000000000000000000000000000000000000000000000000000005f52601160045260245ffd5b5f620009f782620006c7565b915062000a0483620006c7565b925082820390508181111562000a1f5762000a1e620009be565b5b92915050565b7f4e487b71000000000000000000000000000000000000000000000000000000005f52603160045260245ffdfe608060405234801562000010575f80fd5b50604051620018953803806200189583398181016040528101906200003691906200031d565b3360035f6101000a81548173ffffffffffffffffffffffffffffffffffffffff021916908373ffffffffffffffffffffffffffffffffffffffff16021790555080600490805190602001906200008e92919062000096565b50506200036c565b828054828255905f5260205f209081019282156200010f579160200282015b828111156200010e578251825f6101000a81548173ffffffffffffffffffffffffffffffffffffffff021916908373ffffffffffffffffffffffffffffffffffffffff16021790555091602001919060010190620000b5565b5b5090506200011e919062000122565b5090565b5b808211156200013b575f815f90555060010162000123565b5090565b5f604051905090565b5f80fd5b5f80fd5b5f80fd5b5f601f19601f8301169050919050565b7f4e487b71000000000000000000000000000000000000000000000000000000005f52604160045260245ffd5b6200019c8262000154565b810181811067ffffffffffffffff82111715620001be57620001bd62000164565b5b80604052505050565b5f620001d26200013f565b9050620001e0828262000191565b919050565b5f67ffffffffffffffff82111562000202576200020162000164565b5b602082029050602081019050919050565b5f80fd5b5f73ffffffffffffffffffffffffffffffffffffffff82169050919050565b5f620002428262000217565b9050919050565b620002548162000236565b81146200025f575f80fd5b50565b5f81519050620002728162000249565b92915050565b5f6200028e6200028884620001e5565b620001c7565b90508083825260208201905060208402830185811115620002b457620002b362000213565b5b835b81811015620002e15780620002cc888262000262565b845260208401935050602081019050620002b6565b5050509392505050565b5f82601f83011262000302576200030162000150565b5b81516200031484826020860162000278565b91505092915050565b5f6020828403121562000335576200033462000148565b5b5f82015167ffffffffffffffff8111156200035557620003546200014c565b5b6200036384828501620002eb565b91505092915050565b61151b806200037a5f395ff3fe608060405234801561000f575f80fd5b5060043610610091575f3560e01c8063abad224311610064578063abad224314610109578063d40a73151461013b578063d599db2914610157578063e77aaa0b14610189578063ece8027a146101b957610091565b80631a92c875146100955780633826b1ea146100b3578063479ad4c3146100d157806382b01cdf146100ed575b5f80fd5b61009d6101d7565b6040516100aa9190610a5c565b60405180910390f35b6100bb6101dd565b6040516100c89190610ab4565b60405180910390f35b6100eb60048036038101906100e69190610b08565b610202565b005b61010760048036038101906101029190610c6f565b610443565b005b610123600480360381019061011e9190610b08565b6105e1565b60405161013293929190610d5d565b60405180910390f35b61015560048036038101906101509190610dc3565b610716565b005b610171600480360381019061016c9190610b08565b6108d5565b60405161018093929190610d5d565b60405180910390f35b6101a3600480360381019061019e9190610b08565b61098c565b6040516101b09190610ab4565b60405180910390f35b6101c16109c7565b6040516101ce9190610ab4565b60405180910390f35b60015481565b60025f9054906101000a900473ffffffffffffffffffffffffffffffffffffffff1681565b5f805b600480549050811015610296573373ffffffffffffffffffffffffffffffffffffffff166004828154811061023d5761023c610e43565b5b905f5260205f20015f9054906101000a900473ffffffffffffffffffffffffffffffffffffffff1673ffffffffffffffffffffffffffffffffffffffff16036102895760019150610296565b8080600101915050610205565b50806102d7576040517f08c379a00000000000000000000000000000000000000000000000000000000081526004016102ce90610ee0565b60405180910390fd5b600154821061031b576040517f08c379a000000000000000000000000000000000000000000000000000000000815260040161031290610f48565b60405180910390fd5b600180546103299190610f93565b8210156103a9575f80600180546103409190610f93565b81526020019081526020015f205f808481526020019081526020015f205f8201815f01908161036f91906111d5565b5060018201548160010155600282015f9054906101000a900460ff16816002015f6101000a81548160ff0219169083151502179055509050505b5f80600180546103b99190610f93565b81526020019081526020015f205f8082015f6103d591906109ec565b600182015f9055600282015f6101000a81549060ff021916905550507ff39079f47d6285a460af689f5ed04a6111609ba33a84c513f8aa091eb0822fe9826040516104209190610a5c565b60405180910390a160015f81548092919061043a906112ba565b91905055505050565b5f805b6004805490508110156104d7573373ffffffffffffffffffffffffffffffffffffffff166004828154811061047e5761047d610e43565b5b905f5260205f20015f9054906101000a900473ffffffffffffffffffffffffffffffffffffffff1673ffffffffffffffffffffffffffffffffffffffff16036104ca57600191506104d7565b8080600101915050610446565b5080610518576040517f08c379a000000000000000000000000000000000000000000000000000000000815260040161050f90610ee0565b60405180910390fd5b6040518060600160405280848152602001838152602001600115158152505f8060015481526020019081526020015f205f820151815f01908161055b91906112e1565b50602082015181600101556040820151816002015f6101000a81548160ff0219169083151502179055509050507f533ea7ae9c9edafb5b8fb647086d8efd5cecfadb8ed130d777e534f72d94149260015484846040516105bd939291906113b0565b60405180910390a160015f8154809291906105d7906113ec565b9190505550505050565b60605f806001548410610629576040517f08c379a00000000000000000000000000000000000000000000000000000000081526004016106209061147d565b60405180910390fd5b5f805f8681526020019081526020015f206040518060600160405290815f8201805461065490610ff3565b80601f016020809104026020016040519081016040528092919081815260200182805461068090610ff3565b80156106cb5780601f106106a2576101008083540402835291602001916106cb565b820191905f5260205f20905b8154815290600101906020018083116106ae57829003601f168201915b5050505050815260200160018201548152602001600282015f9054906101000a900460ff1615151515815250509050805f015181602001518260400151935093509350509193909250565b5f805b6004805490508110156107aa573373ffffffffffffffffffffffffffffffffffffffff166004828154811061075157610750610e43565b5b905f5260205f20015f9054906101000a900473ffffffffffffffffffffffffffffffffffffffff1673ffffffffffffffffffffffffffffffffffffffff160361079d57600191506107aa565b8080600101915050610719565b50806107eb576040517f08c379a00000000000000000000000000000000000000000000000000000000081526004016107e290610ee0565b60405180910390fd5b600154851061082f576040517f08c379a00000000000000000000000000000000000000000000000000000000081526004016108269061147d565b60405180910390fd5b835f808781526020019081526020015f205f01908161084e91906112e1565b50825f808781526020019081526020015f2060010181905550815f808781526020019081526020015f206002015f6101000a81548160ff0219169083151502179055507f877d6b41b318e470163ebb8045edc3f0346ed37ab360e761bb274a6d75911386858585856040516108c6949392919061149b565b60405180910390a15050505050565b5f602052805f5260405f205f91509050805f0180546108f390610ff3565b80601f016020809104026020016040519081016040528092919081815260200182805461091f90610ff3565b801561096a5780601f106109415761010080835404028352916020019161096a565b820191905f5260205f20905b81548152906001019060200180831161094d57829003601f168201915b505050505090806001015490806002015f9054906101000a900460ff16905083565b6004818154811061099b575f80fd5b905f5260205f20015f915054906101000a900473ffffffffffffffffffffffffffffffffffffffff1681565b60035f9054906101000a900473ffffffffffffffffffffffffffffffffffffffff1681565b5080546109f890610ff3565b5f825580601f10610a095750610a26565b601f0160209004905f5260205f2090810190610a259190610a29565b5b50565b5b80821115610a40575f815f905550600101610a2a565b5090565b5f819050919050565b610a5681610a44565b82525050565b5f602082019050610a6f5f830184610a4d565b92915050565b5f73ffffffffffffffffffffffffffffffffffffffff82169050919050565b5f610a9e82610a75565b9050919050565b610aae81610a94565b82525050565b5f602082019050610ac75f830184610aa5565b92915050565b5f604051905090565b5f80fd5b5f80fd5b610ae781610a44565b8114610af1575f80fd5b50565b5f81359050610b0281610ade565b92915050565b5f60208284031215610b1d57610b1c610ad6565b5b5f610b2a84828501610af4565b91505092915050565b5f80fd5b5f80fd5b5f601f19601f8301169050919050565b7f4e487b71000000000000000000000000000000000000000000000000000000005f52604160045260245ffd5b610b8182610b3b565b810181811067ffffffffffffffff82111715610ba057610b9f610b4b565b5b80604052505050565b5f610bb2610acd565b9050610bbe8282610b78565b919050565b5f67ffffffffffffffff821115610bdd57610bdc610b4b565b5b610be682610b3b565b9050602081019050919050565b828183375f83830152505050565b5f610c13610c0e84610bc3565b610ba9565b905082815260208101848484011115610c2f57610c2e610b37565b5b610c3a848285610bf3565b509392505050565b5f82601f830112610c5657610c55610b33565b5b8135610c66848260208601610c01565b91505092915050565b5f8060408385031215610c8557610c84610ad6565b5b5f83013567ffffffffffffffff811115610ca257610ca1610ada565b5b610cae85828601610c42565b9250506020610cbf85828601610af4565b9150509250929050565b5f81519050919050565b5f82825260208201905092915050565b5f5b83811015610d00578082015181840152602081019050610ce5565b5f8484015250505050565b5f610d1582610cc9565b610d1f8185610cd3565b9350610d2f818560208601610ce3565b610d3881610b3b565b840191505092915050565b5f8115159050919050565b610d5781610d43565b82525050565b5f6060820190508181035f830152610d758186610d0b565b9050610d846020830185610a4d565b610d916040830184610d4e565b949350505050565b610da281610d43565b8114610dac575f80fd5b50565b5f81359050610dbd81610d99565b92915050565b5f805f8060808587031215610ddb57610dda610ad6565b5b5f610de887828801610af4565b945050602085013567ffffffffffffffff811115610e0957610e08610ada565b5b610e1587828801610c42565b9350506040610e2687828801610af4565b9250506060610e3787828801610daf565b91505092959194509250565b7f4e487b71000000000000000000000000000000000000000000000000000000005f52603260045260245ffd5b7f41646472657373206973206e6f742076616c696420666f72207468697320636f5f8201527f6e74726163740000000000000000000000000000000000000000000000000000602082015250565b5f610eca602683610cd3565b9150610ed582610e70565b604082019050919050565b5f6020820190508181035f830152610ef781610ebe565b9050919050565b7f4e6f6e2076616c6964206163636f6d6d6f646174696f6e2049440000000000005f82015250565b5f610f32601a83610cd3565b9150610f3d82610efe565b602082019050919050565b5f6020820190508181035f830152610f5f81610f26565b9050919050565b7f4e487b71000000000000000000000000000000000000000000000000000000005f52601160045260245ffd5b5f610f9d82610a44565b9150610fa883610a44565b9250828203905081811115610fc057610fbf610f66565b5b92915050565b7f4e487b71000000000000000000000000000000000000000000000000000000005f52602260045260245ffd5b5f600282049050600182168061100a57607f821691505b60208210810361101d5761101c610fc6565b5b50919050565b5f8154905061103181610ff3565b9050919050565b5f819050815f5260205f209050919050565b5f6020601f8301049050919050565b5f82821b905092915050565b5f600883026110947fffffffffffffffffffffffffffffffffffffffffffffffffffffffffffffffff82611059565b61109e8683611059565b95508019841693508086168417925050509392505050565b5f819050919050565b5f6110d96110d46110cf84610a44565b6110b6565b610a44565b9050919050565b5f819050919050565b6110f2836110bf565b6111066110fe826110e0565b848454611065565b825550505050565b5f90565b61111a61110e565b6111258184846110e9565b505050565b5b818110156111485761113d5f82611112565b60018101905061112b565b5050565b601f82111561118d5761115e81611038565b6111678461104a565b81016020851015611176578190505b61118a6111828561104a565b83018261112a565b50505b505050565b5f82821c905092915050565b5f6111ad5f1984600802611192565b1980831691505092915050565b5f6111c5838361119e565b9150826002028217905092915050565b8181036111e35750506112b8565b6111ec82611023565b67ffffffffffffffff81111561120557611204610b4b565b5b61120f8254610ff3565b61121a82828561114c565b5f601f831160018114611247575f8415611235578287015490505b61123f85826111ba565b8655506112b1565b601f19841661125587611038565b965061126086611038565b5f5b8281101561128757848901548255600182019150600185019450602081019050611262565b868310156112a457848901546112a0601f89168261119e565b8355505b6001600288020188555050505b5050505050505b565b5f6112c482610a44565b91505f82036112d6576112d5610f66565b5b600182039050919050565b6112ea82610cc9565b67ffffffffffffffff81111561130357611302610b4b565b5b61130d8254610ff3565b61131882828561114c565b5f60209050601f831160018114611349575f8415611337578287015190505b61134185826111ba565b8655506113a8565b601f19841661135786611038565b5f5b8281101561137e57848901518255600182019150602085019450602081019050611359565b8683101561139b5784890151611397601f89168261119e565b8355505b6001600288020188555050505b505050505050565b5f6060820190506113c35f830186610a4d565b81810360208301526113d58185610d0b565b90506113e46040830184610a4d565b949350505050565b5f6113f682610a44565b91507fffffffffffffffffffffffffffffffffffffffffffffffffffffffffffffffff820361142857611427610f66565b5b600182019050919050565b7f4163636f6d6d6f646174696f6e20494420646f6573206e6f742065786973742e5f82015250565b5f611467602083610cd3565b915061147282611433565b602082019050919050565b5f6020820190508181035f8301526114948161145b565b9050919050565b5f6080820190506114ae5f830187610a4d565b81810360208301526114c08186610d0b565b90506114cf6040830185610a4d565b6114dc6060830184610d4e565b9594505050505056fea26469706673582212201c130a424ce027bddd19ef228b22ac53c154e202e576762770207772a92e5b5d64736f6c63430008160033a264697066735822122014f1ec83a2b6e3416202520e707305ef8145d1b94eb01ea2acddebf5a67bb2f764736f6c63430008160033",
					"opcodes": "PUSH1 0x80 PUSH1 0x40 MSTORE CALLVALUE DUP1 ISZERO PUSH2 0xF JUMPI PUSH0 DUP1 REVERT JUMPDEST POP CALLER PUSH0 DUP1 PUSH2 0x100 EXP DUP2 SLOAD DUP2 PUSH20 0xFFFFFFFFFFFFFFFFFFFFFFFFFFFFFFFFFFFFFFFF MUL NOT AND SWAP1 DUP4 PUSH20 0xFFFFFFFFFFFFFFFFFFFFFFFFFFFFFFFFFFFFFFFF AND MUL OR SWAP1 SSTORE POP PUSH2 0x231D DUP1 PUSH2 0x5C PUSH0 CODECOPY PUSH0 RETURN INVALID PUSH1 0x80 PUSH1 0x40 MSTORE CALLVALUE DUP1 ISZERO PUSH3 0x10 JUMPI PUSH0 DUP1 REVERT JUMPDEST POP PUSH1 0x4 CALLDATASIZE LT PUSH3 0x5C JUMPI PUSH0 CALLDATALOAD PUSH1 0xE0 SHR DUP1 PUSH4 0x47DA7C79 EQ PUSH3 0x60 JUMPI DUP1 PUSH4 0x8DA5CB5B EQ PUSH3 0x82 JUMPI DUP1 PUSH4 0xA2F35F44 EQ PUSH3 0xA4 JUMPI DUP1 PUSH4 0xA6D5A199 EQ PUSH3 0xC4 JUMPI DUP1 PUSH4 0xB5DB56BD EQ PUSH3 0xE4 JUMPI JUMPDEST PUSH0 DUP1 REVERT JUMPDEST PUSH3 0x6A PUSH3 0x11A JUMP JUMPDEST PUSH1 0x40 MLOAD PUSH3 0x79 SWAP2 SWAP1 PUSH3 0x649 JUMP JUMPDEST PUSH1 0x40 MLOAD DUP1 SWAP2 SUB SWAP1 RETURN JUMPDEST PUSH3 0x8C PUSH3 0x226 JUMP JUMPDEST PUSH1 0x40 MLOAD PUSH3 0x9B SWAP2 SWAP1 PUSH3 0x649 JUMP JUMPDEST PUSH1 0x40 MLOAD DUP1 SWAP2 SUB SWAP1 RETURN JUMPDEST PUSH3 0xC2 PUSH1 0x4 DUP1 CALLDATASIZE SUB DUP2 ADD SWAP1 PUSH3 0xBC SWAP2 SWAP1 PUSH3 0x697 JUMP JUMPDEST PUSH3 0x249 JUMP JUMPDEST STOP JUMPDEST PUSH3 0xE2 PUSH1 0x4 DUP1 CALLDATASIZE SUB DUP2 ADD SWAP1 PUSH3 0xDC SWAP2 SWAP1 PUSH3 0x6FF JUMP JUMPDEST PUSH3 0x375 JUMP JUMPDEST STOP JUMPDEST PUSH3 0x102 PUSH1 0x4 DUP1 CALLDATASIZE SUB DUP2 ADD SWAP1 PUSH3 0xFC SWAP2 SWAP1 PUSH3 0x6FF JUMP JUMPDEST PUSH3 0x5BC JUMP JUMPDEST PUSH1 0x40 MLOAD PUSH3 0x111 SWAP2 SWAP1 PUSH3 0x649 JUMP JUMPDEST PUSH1 0x40 MLOAD DUP1 SWAP2 SUB SWAP1 RETURN JUMPDEST PUSH0 DUP1 PUSH0 SWAP1 SLOAD SWAP1 PUSH2 0x100 EXP SWAP1 DIV PUSH20 0xFFFFFFFFFFFFFFFFFFFFFFFFFFFFFFFFFFFFFFFF AND PUSH20 0xFFFFFFFFFFFFFFFFFFFFFFFFFFFFFFFFFFFFFFFF AND CALLER PUSH20 0xFFFFFFFFFFFFFFFFFFFFFFFFFFFFFFFFFFFFFFFF AND EQ PUSH3 0x1AC JUMPI PUSH1 0x40 MLOAD PUSH32 0x8C379A000000000000000000000000000000000000000000000000000000000 DUP2 MSTORE PUSH1 0x4 ADD PUSH3 0x1A3 SWAP1 PUSH3 0x7B3 JUMP JUMPDEST PUSH1 0x40 MLOAD DUP1 SWAP2 SUB SWAP1 REVERT JUMPDEST PUSH0 PUSH1 0x1 PUSH1 0x40 MLOAD PUSH3 0x1BD SWAP1 PUSH3 0x5F8 JUMP JUMPDEST PUSH3 0x1C9 SWAP2 SWAP1 PUSH3 0x901 JUMP JUMPDEST PUSH1 0x40 MLOAD DUP1 SWAP2 SUB SWAP1 PUSH0 CREATE DUP1 ISZERO DUP1 ISZERO PUSH3 0x1E3 JUMPI RETURNDATASIZE PUSH0 DUP1 RETURNDATACOPY RETURNDATASIZE PUSH0 REVERT JUMPDEST POP SWAP1 POP PUSH32 0x92903BBFCD4C80A2E35EA27F9BDC0722CB0B39649C7075C1C8039C4A527C4878 DUP2 PUSH1 0x40 MLOAD PUSH3 0x217 SWAP2 SWAP1 PUSH3 0x649 JUMP JUMPDEST PUSH1 0x40 MLOAD DUP1 SWAP2 SUB SWAP1 LOG1 DUP1 SWAP2 POP POP SWAP1 JUMP JUMPDEST PUSH0 DUP1 SLOAD SWAP1 PUSH2 0x100 EXP SWAP1 DIV PUSH20 0xFFFFFFFFFFFFFFFFFFFFFFFFFFFFFFFFFFFFFFFF AND DUP2 JUMP JUMPDEST PUSH0 DUP1 SLOAD SWAP1 PUSH2 0x100 EXP SWAP1 DIV PUSH20 0xFFFFFFFFFFFFFFFFFFFFFFFFFFFFFFFFFFFFFFFF AND PUSH20 0xFFFFFFFFFFFFFFFFFFFFFFFFFFFFFFFFFFFFFFFF AND CALLER PUSH20 0xFFFFFFFFFFFFFFFFFFFFFFFFFFFFFFFFFFFFFFFF AND EQ PUSH3 0x2D9 JUMPI PUSH1 0x40 MLOAD PUSH32 0x8C379A000000000000000000000000000000000000000000000000000000000 DUP2 MSTORE PUSH1 0x4 ADD PUSH3 0x2D0 SWAP1 PUSH3 0x7B3 JUMP JUMPDEST PUSH1 0x40 MLOAD DUP1 SWAP2 SUB SWAP1 REVERT JUMPDEST PUSH1 0x1 DUP2 SWAP1 DUP1 PUSH1 0x1 DUP2 SLOAD ADD DUP1 DUP3 SSTORE DUP1 SWAP2 POP POP PUSH1 0x1 SWAP1 SUB SWAP1 PUSH0 MSTORE PUSH1 0x20 PUSH0 KECCAK256 ADD PUSH0 SWAP1 SWAP2 SWAP1 SWAP2 SWAP1 SWAP2 PUSH2 0x100 EXP DUP2 SLOAD DUP2 PUSH20 0xFFFFFFFFFFFFFFFFFFFFFFFFFFFFFFFFFFFFFFFF MUL NOT AND SWAP1 DUP4 PUSH20 0xFFFFFFFFFFFFFFFFFFFFFFFFFFFFFFFFFFFFFFFF AND MUL OR SWAP1 SSTORE POP PUSH32 0x2261C6D9F1EF87B8EC487B00EE19F9BBB1C07081193DE9EBFD8F3E3F1C86EA54 DUP2 PUSH1 0x40 MLOAD PUSH3 0x36A SWAP2 SWAP1 PUSH3 0x649 JUMP JUMPDEST PUSH1 0x40 MLOAD DUP1 SWAP2 SUB SWAP1 LOG1 POP JUMP JUMPDEST PUSH0 DUP1 SLOAD SWAP1 PUSH2 0x100 EXP SWAP1 DIV PUSH20 0xFFFFFFFFFFFFFFFFFFFFFFFFFFFFFFFFFFFFFFFF AND PUSH20 0xFFFFFFFFFFFFFFFFFFFFFFFFFFFFFFFFFFFFFFFF AND CALLER PUSH20 0xFFFFFFFFFFFFFFFFFFFFFFFFFFFFFFFFFFFFFFFF AND EQ PUSH3 0x405 JUMPI PUSH1 0x40 MLOAD PUSH32 0x8C379A000000000000000000000000000000000000000000000000000000000 DUP2 MSTORE PUSH1 0x4 ADD PUSH3 0x3FC SWAP1 PUSH3 0x7B3 JUMP JUMPDEST PUSH1 0x40 MLOAD DUP1 SWAP2 SUB SWAP1 REVERT JUMPDEST PUSH1 0x1 DUP1 SLOAD SWAP1 POP DUP2 LT PUSH3 0x44F JUMPI PUSH1 0x40 MLOAD PUSH32 0x8C379A000000000000000000000000000000000000000000000000000000000 DUP2 MSTORE PUSH1 0x4 ADD PUSH3 0x446 SWAP1 PUSH3 0x971 JUMP JUMPDEST PUSH1 0x40 MLOAD DUP1 SWAP2 SUB SWAP1 REVERT JUMPDEST PUSH32 0x6529A9B0839455CF87AD7A8128177F89AEB8B481E747D75BB9F6F847F622D460 PUSH1 0x1 DUP3 DUP2 SLOAD DUP2 LT PUSH3 0x487 JUMPI PUSH3 0x486 PUSH3 0x991 JUMP JUMPDEST JUMPDEST SWAP1 PUSH0 MSTORE PUSH1 0x20 PUSH0 KECCAK256 ADD PUSH0 SWAP1 SLOAD SWAP1 PUSH2 0x100 EXP SWAP1 DIV PUSH20 0xFFFFFFFFFFFFFFFFFFFFFFFFFFFFFFFFFFFFFFFF AND PUSH1 0x40 MLOAD PUSH3 0x4BE SWAP2 SWAP1 PUSH3 0x649 JUMP JUMPDEST PUSH1 0x40 MLOAD DUP1 SWAP2 SUB SWAP1 LOG1 PUSH1 0x1 DUP1 DUP1 DUP1 SLOAD SWAP1 POP PUSH3 0x4DA SWAP2 SWAP1 PUSH3 0x9EB JUMP JUMPDEST DUP2 SLOAD DUP2 LT PUSH3 0x4EE JUMPI PUSH3 0x4ED PUSH3 0x991 JUMP JUMPDEST JUMPDEST SWAP1 PUSH0 MSTORE PUSH1 0x20 PUSH0 KECCAK256 ADD PUSH0 SWAP1 SLOAD SWAP1 PUSH2 0x100 EXP SWAP1 DIV PUSH20 0xFFFFFFFFFFFFFFFFFFFFFFFFFFFFFFFFFFFFFFFF AND PUSH1 0x1 DUP3 DUP2 SLOAD DUP2 LT PUSH3 0x52D JUMPI PUSH3 0x52C PUSH3 0x991 JUMP JUMPDEST JUMPDEST SWAP1 PUSH0 MSTORE PUSH1 0x20 PUSH0 KECCAK256 ADD PUSH0 PUSH2 0x100 EXP DUP2 SLOAD DUP2 PUSH20 0xFFFFFFFFFFFFFFFFFFFFFFFFFFFFFFFFFFFFFFFF MUL NOT AND SWAP1 DUP4 PUSH20 0xFFFFFFFFFFFFFFFFFFFFFFFFFFFFFFFFFFFFFFFF AND MUL OR SWAP1 SSTORE POP PUSH1 0x1 DUP1 SLOAD DUP1 PUSH3 0x587 JUMPI PUSH3 0x586 PUSH3 0xA25 JUMP JUMPDEST JUMPDEST PUSH1 0x1 SWAP1 SUB DUP2 DUP2 SWAP1 PUSH0 MSTORE PUSH1 0x20 PUSH0 KECCAK256 ADD PUSH0 PUSH2 0x100 EXP DUP2 SLOAD SWAP1 PUSH20 0xFFFFFFFFFFFFFFFFFFFFFFFFFFFFFFFFFFFFFFFF MUL NOT AND SWAP1 SSTORE SWAP1 SSTORE POP JUMP JUMPDEST PUSH1 0x1 DUP2 DUP2 SLOAD DUP2 LT PUSH3 0x5CC JUMPI PUSH0 DUP1 REVERT JUMPDEST SWAP1 PUSH0 MSTORE PUSH1 0x20 PUSH0 KECCAK256 ADD PUSH0 SWAP2 POP SLOAD SWAP1 PUSH2 0x100 EXP SWAP1 DIV PUSH20 0xFFFFFFFFFFFFFFFFFFFFFFFFFFFFFFFFFFFFFFFF AND DUP2 JUMP JUMPDEST PUSH2 0x1895 DUP1 PUSH3 0xA53 DUP4 CODECOPY ADD SWAP1 JUMP JUMPDEST PUSH0 PUSH20 0xFFFFFFFFFFFFFFFFFFFFFFFFFFFFFFFFFFFFFFFF DUP3 AND SWAP1 POP SWAP2 SWAP1 POP JUMP JUMPDEST PUSH0 PUSH3 0x631 DUP3 PUSH3 0x606 JUMP JUMPDEST SWAP1 POP SWAP2 SWAP1 POP JUMP JUMPDEST PUSH3 0x643 DUP2 PUSH3 0x625 JUMP JUMPDEST DUP3 MSTORE POP POP JUMP JUMPDEST PUSH0 PUSH1 0x20 DUP3 ADD SWAP1 POP PUSH3 0x65E PUSH0 DUP4 ADD DUP5 PUSH3 0x638 JUMP JUMPDEST SWAP3 SWAP2 POP POP JUMP JUMPDEST PUSH0 DUP1 REVERT JUMPDEST PUSH3 0x673 DUP2 PUSH3 0x625 JUMP JUMPDEST DUP2 EQ PUSH3 0x67E JUMPI PUSH0 DUP1 REVERT JUMPDEST POP JUMP JUMPDEST PUSH0 DUP2 CALLDATALOAD SWAP1 POP PUSH3 0x691 DUP2 PUSH3 0x668 JUMP JUMPDEST SWAP3 SWAP2 POP POP JUMP JUMPDEST PUSH0 PUSH1 0x20 DUP3 DUP5 SUB SLT ISZERO PUSH3 0x6AF JUMPI PUSH3 0x6AE PUSH3 0x664 JUMP JUMPDEST JUMPDEST PUSH0 PUSH3 0x6BE DUP5 DUP3 DUP6 ADD PUSH3 0x681 JUMP JUMPDEST SWAP2 POP POP SWAP3 SWAP2 POP POP JUMP JUMPDEST PUSH0 DUP2 SWAP1 POP SWAP2 SWAP1 POP JUMP JUMPDEST PUSH3 0x6DB DUP2 PUSH3 0x6C7 JUMP JUMPDEST DUP2 EQ PUSH3 0x6E6 JUMPI PUSH0 DUP1 REVERT JUMPDEST POP JUMP JUMPDEST PUSH0 DUP2 CALLDATALOAD SWAP1 POP PUSH3 0x6F9 DUP2 PUSH3 0x6D0 JUMP JUMPDEST SWAP3 SWAP2 POP POP JUMP JUMPDEST PUSH0 PUSH1 0x20 DUP3 DUP5 SUB SLT ISZERO PUSH3 0x717 JUMPI PUSH3 0x716 PUSH3 0x664 JUMP JUMPDEST JUMPDEST PUSH0 PUSH3 0x726 DUP5 DUP3 DUP6 ADD PUSH3 0x6E9 JUMP JUMPDEST SWAP2 POP POP SWAP3 SWAP2 POP POP JUMP JUMPDEST PUSH0 DUP3 DUP3 MSTORE PUSH1 0x20 DUP3 ADD SWAP1 POP SWAP3 SWAP2 POP POP JUMP JUMPDEST PUSH32 0x4F6E6C7920746865206F776E65722063616E2065786563757465207468697320 PUSH0 DUP3 ADD MSTORE PUSH32 0x616374696F6E0000000000000000000000000000000000000000000000000000 PUSH1 0x20 DUP3 ADD MSTORE POP JUMP JUMPDEST PUSH0 PUSH3 0x79B PUSH1 0x26 DUP4 PUSH3 0x72F JUMP JUMPDEST SWAP2 POP PUSH3 0x7A8 DUP3 PUSH3 0x73F JUMP JUMPDEST PUSH1 0x40 DUP3 ADD SWAP1 POP SWAP2 SWAP1 POP JUMP JUMPDEST PUSH0 PUSH1 0x20 DUP3 ADD SWAP1 POP DUP2 DUP2 SUB PUSH0 DUP4 ADD MSTORE PUSH3 0x7CC DUP2 PUSH3 0x78D JUMP JUMPDEST SWAP1 POP SWAP2 SWAP1 POP JUMP JUMPDEST PUSH0 DUP2 SLOAD SWAP1 POP SWAP2 SWAP1 POP JUMP JUMPDEST PUSH0 DUP3 DUP3 MSTORE PUSH1 0x20 DUP3 ADD SWAP1 POP SWAP3 SWAP2 POP POP JUMP JUMPDEST PUSH0 DUP2 SWAP1 POP DUP2 PUSH0 MSTORE PUSH1 0x20 PUSH0 KECCAK256 SWAP1 POP SWAP2 SWAP1 POP JUMP JUMPDEST PUSH3 0x80A DUP2 PUSH3 0x625 JUMP JUMPDEST DUP3 MSTORE POP POP JUMP JUMPDEST PUSH0 PUSH3 0x81D DUP4 DUP4 PUSH3 0x7FF JUMP JUMPDEST PUSH1 0x20 DUP4 ADD SWAP1 POP SWAP3 SWAP2 POP POP JUMP JUMPDEST PUSH0 DUP2 PUSH0 SHR SWAP1 POP SWAP2 SWAP1 POP JUMP JUMPDEST PUSH0 PUSH20 0xFFFFFFFFFFFFFFFFFFFFFFFFFFFFFFFFFFFFFFFF DUP3 AND SWAP1 POP SWAP2 SWAP1 POP JUMP JUMPDEST PUSH0 PUSH3 0x869 PUSH3 0x863 DUP4 PUSH3 0x829 JUMP JUMPDEST PUSH3 0x834 JUMP JUMPDEST SWAP1 POP SWAP2 SWAP1 POP JUMP JUMPDEST PUSH0 PUSH3 0x87D DUP3 SLOAD PUSH3 0x853 JUMP JUMPDEST SWAP1 POP SWAP2 SWAP1 POP JUMP JUMPDEST PUSH0 PUSH1 0x1 DUP3 ADD SWAP1 POP SWAP2 SWAP1 POP JUMP JUMPDEST PUSH0 PUSH3 0x89C DUP3 PUSH3 0x7D3 JUMP JUMPDEST PUSH3 0x8A8 DUP2 DUP6 PUSH3 0x7DD JUMP JUMPDEST SWAP4 POP PUSH3 0x8B5 DUP4 PUSH3 0x7ED JUMP JUMPDEST DUP1 PUSH0 JUMPDEST DUP4 DUP2 LT ISZERO PUSH3 0x8F4 JUMPI PUSH3 0x8CC DUP3 PUSH3 0x870 JUMP JUMPDEST PUSH3 0x8D8 DUP9 DUP3 PUSH3 0x810 JUMP JUMPDEST SWAP8 POP PUSH3 0x8E5 DUP4 PUSH3 0x884 JUMP JUMPDEST SWAP3 POP POP PUSH1 0x1 DUP2 ADD SWAP1 POP PUSH3 0x8B8 JUMP JUMPDEST POP DUP6 SWAP4 POP POP POP POP SWAP3 SWAP2 POP POP JUMP JUMPDEST PUSH0 PUSH1 0x20 DUP3 ADD SWAP1 POP DUP2 DUP2 SUB PUSH0 DUP4 ADD MSTORE PUSH3 0x91B DUP2 DUP5 PUSH3 0x890 JUMP JUMPDEST SWAP1 POP SWAP3 SWAP2 POP POP JUMP JUMPDEST PUSH32 0x496E646578206F7574206F6620626F756E647300000000000000000000000000 PUSH0 DUP3 ADD MSTORE POP JUMP JUMPDEST PUSH0 PUSH3 0x959 PUSH1 0x13 DUP4 PUSH3 0x72F JUMP JUMPDEST SWAP2 POP PUSH3 0x966 DUP3 PUSH3 0x923 JUMP JUMPDEST PUSH1 0x20 DUP3 ADD SWAP1 POP SWAP2 SWAP1 POP JUMP JUMPDEST PUSH0 PUSH1 0x20 DUP3 ADD SWAP1 POP DUP2 DUP2 SUB PUSH0 DUP4 ADD MSTORE PUSH3 0x98A DUP2 PUSH3 0x94B JUMP JUMPDEST SWAP1 POP SWAP2 SWAP1 POP JUMP JUMPDEST PUSH32 0x4E487B7100000000000000000000000000000000000000000000000000000000 PUSH0 MSTORE PUSH1 0x32 PUSH1 0x4 MSTORE PUSH1 0x24 PUSH0 REVERT JUMPDEST PUSH32 0x4E487B7100000000000000000000000000000000000000000000000000000000 PUSH0 MSTORE PUSH1 0x11 PUSH1 0x4 MSTORE PUSH1 0x24 PUSH0 REVERT JUMPDEST PUSH0 PUSH3 0x9F7 DUP3 PUSH3 0x6C7 JUMP JUMPDEST SWAP2 POP PUSH3 0xA04 DUP4 PUSH3 0x6C7 JUMP JUMPDEST SWAP3 POP DUP3 DUP3 SUB SWAP1 POP DUP2 DUP2 GT ISZERO PUSH3 0xA1F JUMPI PUSH3 0xA1E PUSH3 0x9BE JUMP JUMPDEST JUMPDEST SWAP3 SWAP2 POP POP JUMP JUMPDEST PUSH32 0x4E487B7100000000000000000000000000000000000000000000000000000000 PUSH0 MSTORE PUSH1 0x31 PUSH1 0x4 MSTORE PUSH1 0x24 PUSH0 REVERT INVALID PUSH1 0x80 PUSH1 0x40 MSTORE CALLVALUE DUP1 ISZERO PUSH3 0x10 JUMPI PUSH0 DUP1 REVERT JUMPDEST POP PUSH1 0x40 MLOAD PUSH3 0x1895 CODESIZE SUB DUP1 PUSH3 0x1895 DUP4 CODECOPY DUP2 DUP2 ADD PUSH1 0x40 MSTORE DUP2 ADD SWAP1 PUSH3 0x36 SWAP2 SWAP1 PUSH3 0x31D JUMP JUMPDEST CALLER PUSH1 0x3 PUSH0 PUSH2 0x100 EXP DUP2 SLOAD DUP2 PUSH20 0xFFFFFFFFFFFFFFFFFFFFFFFFFFFFFFFFFFFFFFFF MUL NOT AND SWAP1 DUP4 PUSH20 0xFFFFFFFFFFFFFFFFFFFFFFFFFFFFFFFFFFFFFFFF AND MUL OR SWAP1 SSTORE POP DUP1 PUSH1 0x4 SWAP1 DUP1 MLOAD SWAP1 PUSH1 0x20 ADD SWAP1 PUSH3 0x8E SWAP3 SWAP2 SWAP1 PUSH3 0x96 JUMP JUMPDEST POP POP PUSH3 0x36C JUMP JUMPDEST DUP3 DUP1 SLOAD DUP3 DUP3 SSTORE SWAP1 PUSH0 MSTORE PUSH1 0x20 PUSH0 KECCAK256 SWAP1 DUP2 ADD SWAP3 DUP3 ISZERO PUSH3 0x10F JUMPI SWAP2 PUSH1 0x20 MUL DUP3 ADD JUMPDEST DUP3 DUP2 GT ISZERO PUSH3 0x10E JUMPI DUP3 MLOAD DUP3 PUSH0 PUSH2 0x100 EXP DUP2 SLOAD DUP2 PUSH20 0xFFFFFFFFFFFFFFFFFFFFFFFFFFFFFFFFFFFFFFFF MUL NOT AND SWAP1 DUP4 PUSH20 0xFFFFFFFFFFFFFFFFFFFFFFFFFFFFFFFFFFFFFFFF AND MUL OR SWAP1 SSTORE POP SWAP2 PUSH1 0x20 ADD SWAP2 SWAP1 PUSH1 0x1 ADD SWAP1 PUSH3 0xB5 JUMP JUMPDEST JUMPDEST POP SWAP1 POP PUSH3 0x11E SWAP2 SWAP1 PUSH3 0x122 JUMP JUMPDEST POP SWAP1 JUMP JUMPDEST JUMPDEST DUP1 DUP3 GT ISZERO PUSH3 0x13B JUMPI PUSH0 DUP2 PUSH0 SWAP1 SSTORE POP PUSH1 0x1 ADD PUSH3 0x123 JUMP JUMPDEST POP SWAP1 JUMP JUMPDEST PUSH0 PUSH1 0x40 MLOAD SWAP1 POP SWAP1 JUMP JUMPDEST PUSH0 DUP1 REVERT JUMPDEST PUSH0 DUP1 REVERT JUMPDEST PUSH0 DUP1 REVERT JUMPDEST PUSH0 PUSH1 0x1F NOT PUSH1 0x1F DUP4 ADD AND SWAP1 POP SWAP2 SWAP1 POP JUMP JUMPDEST PUSH32 0x4E487B7100000000000000000000000000000000000000000000000000000000 PUSH0 MSTORE PUSH1 0x41 PUSH1 0x4 MSTORE PUSH1 0x24 PUSH0 REVERT JUMPDEST PUSH3 0x19C DUP3 PUSH3 0x154 JUMP JUMPDEST DUP2 ADD DUP2 DUP2 LT PUSH8 0xFFFFFFFFFFFFFFFF DUP3 GT OR ISZERO PUSH3 0x1BE JUMPI PUSH3 0x1BD PUSH3 0x164 JUMP JUMPDEST JUMPDEST DUP1 PUSH1 0x40 MSTORE POP POP POP JUMP JUMPDEST PUSH0 PUSH3 0x1D2 PUSH3 0x13F JUMP JUMPDEST SWAP1 POP PUSH3 0x1E0 DUP3 DUP3 PUSH3 0x191 JUMP JUMPDEST SWAP2 SWAP1 POP JUMP JUMPDEST PUSH0 PUSH8 0xFFFFFFFFFFFFFFFF DUP3 GT ISZERO PUSH3 0x202 JUMPI PUSH3 0x201 PUSH3 0x164 JUMP JUMPDEST JUMPDEST PUSH1 0x20 DUP3 MUL SWAP1 POP PUSH1 0x20 DUP2 ADD SWAP1 POP SWAP2 SWAP1 POP JUMP JUMPDEST PUSH0 DUP1 REVERT JUMPDEST PUSH0 PUSH20 0xFFFFFFFFFFFFFFFFFFFFFFFFFFFFFFFFFFFFFFFF DUP3 AND SWAP1 POP SWAP2 SWAP1 POP JUMP JUMPDEST PUSH0 PUSH3 0x242 DUP3 PUSH3 0x217 JUMP JUMPDEST SWAP1 POP SWAP2 SWAP1 POP JUMP JUMPDEST PUSH3 0x254 DUP2 PUSH3 0x236 JUMP JUMPDEST DUP2 EQ PUSH3 0x25F JUMPI PUSH0 DUP1 REVERT JUMPDEST POP JUMP JUMPDEST PUSH0 DUP2 MLOAD SWAP1 POP PUSH3 0x272 DUP2 PUSH3 0x249 JUMP JUMPDEST SWAP3 SWAP2 POP POP JUMP JUMPDEST PUSH0 PUSH3 0x28E PUSH3 0x288 DUP5 PUSH3 0x1E5 JUMP JUMPDEST PUSH3 0x1C7 JUMP JUMPDEST SWAP1 POP DUP1 DUP4 DUP3 MSTORE PUSH1 0x20 DUP3 ADD SWAP1 POP PUSH1 0x20 DUP5 MUL DUP4 ADD DUP6 DUP2 GT ISZERO PUSH3 0x2B4 JUMPI PUSH3 0x2B3 PUSH3 0x213 JUMP JUMPDEST JUMPDEST DUP4 JUMPDEST DUP2 DUP2 LT ISZERO PUSH3 0x2E1 JUMPI DUP1 PUSH3 0x2CC DUP9 DUP3 PUSH3 0x262 JUMP JUMPDEST DUP5 MSTORE PUSH1 0x20 DUP5 ADD SWAP4 POP POP PUSH1 0x20 DUP2 ADD SWAP1 POP PUSH3 0x2B6 JUMP JUMPDEST POP POP POP SWAP4 SWAP3 POP POP POP JUMP JUMPDEST PUSH0 DUP3 PUSH1 0x1F DUP4 ADD SLT PUSH3 0x302 JUMPI PUSH3 0x301 PUSH3 0x150 JUMP JUMPDEST JUMPDEST DUP2 MLOAD PUSH3 0x314 DUP5 DUP3 PUSH1 0x20 DUP7 ADD PUSH3 0x278 JUMP JUMPDEST SWAP2 POP POP SWAP3 SWAP2 POP POP JUMP JUMPDEST PUSH0 PUSH1 0x20 DUP3 DUP5 SUB SLT ISZERO PUSH3 0x335 JUMPI PUSH3 0x334 PUSH3 0x148 JUMP JUMPDEST JUMPDEST PUSH0 DUP3 ADD MLOAD PUSH8 0xFFFFFFFFFFFFFFFF DUP2 GT ISZERO PUSH3 0x355 JUMPI PUSH3 0x354 PUSH3 0x14C JUMP JUMPDEST JUMPDEST PUSH3 0x363 DUP5 DUP3 DUP6 ADD PUSH3 0x2EB JUMP JUMPDEST SWAP2 POP POP SWAP3 SWAP2 POP POP JUMP JUMPDEST PUSH2 0x151B DUP1 PUSH3 0x37A PUSH0 CODECOPY PUSH0 RETURN INVALID PUSH1 0x80 PUSH1 0x40 MSTORE CALLVALUE DUP1 ISZERO PUSH2 0xF JUMPI PUSH0 DUP1 REVERT JUMPDEST POP PUSH1 0x4 CALLDATASIZE LT PUSH2 0x91 JUMPI PUSH0 CALLDATALOAD PUSH1 0xE0 SHR DUP1 PUSH4 0xABAD2243 GT PUSH2 0x64 JUMPI DUP1 PUSH4 0xABAD2243 EQ PUSH2 0x109 JUMPI DUP1 PUSH4 0xD40A7315 EQ PUSH2 0x13B JUMPI DUP1 PUSH4 0xD599DB29 EQ PUSH2 0x157 JUMPI DUP1 PUSH4 0xE77AAA0B EQ PUSH2 0x189 JUMPI DUP1 PUSH4 0xECE8027A EQ PUSH2 0x1B9 JUMPI PUSH2 0x91 JUMP JUMPDEST DUP1 PUSH4 0x1A92C875 EQ PUSH2 0x95 JUMPI DUP1 PUSH4 0x3826B1EA EQ PUSH2 0xB3 JUMPI DUP1 PUSH4 0x479AD4C3 EQ PUSH2 0xD1 JUMPI DUP1 PUSH4 0x82B01CDF EQ PUSH2 0xED JUMPI JUMPDEST PUSH0 DUP1 REVERT JUMPDEST PUSH2 0x9D PUSH2 0x1D7 JUMP JUMPDEST PUSH1 0x40 MLOAD PUSH2 0xAA SWAP2 SWAP1 PUSH2 0xA5C JUMP JUMPDEST PUSH1 0x40 MLOAD DUP1 SWAP2 SUB SWAP1 RETURN JUMPDEST PUSH2 0xBB PUSH2 0x1DD JUMP JUMPDEST PUSH1 0x40 MLOAD PUSH2 0xC8 SWAP2 SWAP1 PUSH2 0xAB4 JUMP JUMPDEST PUSH1 0x40 MLOAD DUP1 SWAP2 SUB SWAP1 RETURN JUMPDEST PUSH2 0xEB PUSH1 0x4 DUP1 CALLDATASIZE SUB DUP2 ADD SWAP1 PUSH2 0xE6 SWAP2 SWAP1 PUSH2 0xB08 JUMP JUMPDEST PUSH2 0x202 JUMP JUMPDEST STOP JUMPDEST PUSH2 0x107 PUSH1 0x4 DUP1 CALLDATASIZE SUB DUP2 ADD SWAP1 PUSH2 0x102 SWAP2 SWAP1 PUSH2 0xC6F JUMP JUMPDEST PUSH2 0x443 JUMP JUMPDEST STOP JUMPDEST PUSH2 0x123 PUSH1 0x4 DUP1 CALLDATASIZE SUB DUP2 ADD SWAP1 PUSH2 0x11E SWAP2 SWAP1 PUSH2 0xB08 JUMP JUMPDEST PUSH2 0x5E1 JUMP JUMPDEST PUSH1 0x40 MLOAD PUSH2 0x132 SWAP4 SWAP3 SWAP2 SWAP1 PUSH2 0xD5D JUMP JUMPDEST PUSH1 0x40 MLOAD DUP1 SWAP2 SUB SWAP1 RETURN JUMPDEST PUSH2 0x155 PUSH1 0x4 DUP1 CALLDATASIZE SUB DUP2 ADD SWAP1 PUSH2 0x150 SWAP2 SWAP1 PUSH2 0xDC3 JUMP JUMPDEST PUSH2 0x716 JUMP JUMPDEST STOP JUMPDEST PUSH2 0x171 PUSH1 0x4 DUP1 CALLDATASIZE SUB DUP2 ADD SWAP1 PUSH2 0x16C SWAP2 SWAP1 PUSH2 0xB08 JUMP JUMPDEST PUSH2 0x8D5 JUMP JUMPDEST PUSH1 0x40 MLOAD PUSH2 0x180 SWAP4 SWAP3 SWAP2 SWAP1 PUSH2 0xD5D JUMP JUMPDEST PUSH1 0x40 MLOAD DUP1 SWAP2 SUB SWAP1 RETURN JUMPDEST PUSH2 0x1A3 PUSH1 0x4 DUP1 CALLDATASIZE SUB DUP2 ADD SWAP1 PUSH2 0x19E SWAP2 SWAP1 PUSH2 0xB08 JUMP JUMPDEST PUSH2 0x98C JUMP JUMPDEST PUSH1 0x40 MLOAD PUSH2 0x1B0 SWAP2 SWAP1 PUSH2 0xAB4 JUMP JUMPDEST PUSH1 0x40 MLOAD DUP1 SWAP2 SUB SWAP1 RETURN JUMPDEST PUSH2 0x1C1 PUSH2 0x9C7 JUMP JUMPDEST PUSH1 0x40 MLOAD PUSH2 0x1CE SWAP2 SWAP1 PUSH2 0xAB4 JUMP JUMPDEST PUSH1 0x40 MLOAD DUP1 SWAP2 SUB SWAP1 RETURN JUMPDEST PUSH1 0x1 SLOAD DUP2 JUMP JUMPDEST PUSH1 0x2 PUSH0 SWAP1 SLOAD SWAP1 PUSH2 0x100 EXP SWAP1 DIV PUSH20 0xFFFFFFFFFFFFFFFFFFFFFFFFFFFFFFFFFFFFFFFF AND DUP2 JUMP JUMPDEST PUSH0 DUP1 JUMPDEST PUSH1 0x4 DUP1 SLOAD SWAP1 POP DUP2 LT ISZERO PUSH2 0x296 JUMPI CALLER PUSH20 0xFFFFFFFFFFFFFFFFFFFFFFFFFFFFFFFFFFFFFFFF AND PUSH1 0x4 DUP3 DUP2 SLOAD DUP2 LT PUSH2 0x23D JUMPI PUSH2 0x23C PUSH2 0xE43 JUMP JUMPDEST JUMPDEST SWAP1 PUSH0 MSTORE PUSH1 0x20 PUSH0 KECCAK256 ADD PUSH0 SWAP1 SLOAD SWAP1 PUSH2 0x100 EXP SWAP1 DIV PUSH20 0xFFFFFFFFFFFFFFFFFFFFFFFFFFFFFFFFFFFFFFFF AND PUSH20 0xFFFFFFFFFFFFFFFFFFFFFFFFFFFFFFFFFFFFFFFF AND SUB PUSH2 0x289 JUMPI PUSH1 0x1 SWAP2 POP PUSH2 0x296 JUMP JUMPDEST DUP1 DUP1 PUSH1 0x1 ADD SWAP2 POP POP PUSH2 0x205 JUMP JUMPDEST POP DUP1 PUSH2 0x2D7 JUMPI PUSH1 0x40 MLOAD PUSH32 0x8C379A000000000000000000000000000000000000000000000000000000000 DUP2 MSTORE PUSH1 0x4 ADD PUSH2 0x2CE SWAP1 PUSH2 0xEE0 JUMP JUMPDEST PUSH1 0x40 MLOAD DUP1 SWAP2 SUB SWAP1 REVERT JUMPDEST PUSH1 0x1 SLOAD DUP3 LT PUSH2 0x31B JUMPI PUSH1 0x40 MLOAD PUSH32 0x8C379A000000000000000000000000000000000000000000000000000000000 DUP2 MSTORE PUSH1 0x4 ADD PUSH2 0x312 SWAP1 PUSH2 0xF48 JUMP JUMPDEST PUSH1 0x40 MLOAD DUP1 SWAP2 SUB SWAP1 REVERT JUMPDEST PUSH1 0x1 DUP1 SLOAD PUSH2 0x329 SWAP2 SWAP1 PUSH2 0xF93 JUMP JUMPDEST DUP3 LT ISZERO PUSH2 0x3A9 JUMPI PUSH0 DUP1 PUSH1 0x1 DUP1 SLOAD PUSH2 0x340 SWAP2 SWAP1 PUSH2 0xF93 JUMP JUMPDEST DUP2 MSTORE PUSH1 0x20 ADD SWAP1 DUP2 MSTORE PUSH1 0x20 ADD PUSH0 KECCAK256 PUSH0 DUP1 DUP5 DUP2 MSTORE PUSH1 0x20 ADD SWAP1 DUP2 MSTORE PUSH1 0x20 ADD PUSH0 KECCAK256 PUSH0 DUP3 ADD DUP2 PUSH0 ADD SWAP1 DUP2 PUSH2 0x36F SWAP2 SWAP1 PUSH2 0x11D5 JUMP JUMPDEST POP PUSH1 0x1 DUP3 ADD SLOAD DUP2 PUSH1 0x1 ADD SSTORE PUSH1 0x2 DUP3 ADD PUSH0 SWAP1 SLOAD SWAP1 PUSH2 0x100 EXP SWAP1 DIV PUSH1 0xFF AND DUP2 PUSH1 0x2 ADD PUSH0 PUSH2 0x100 EXP DUP2 SLOAD DUP2 PUSH1 0xFF MUL NOT AND SWAP1 DUP4 ISZERO ISZERO MUL OR SWAP1 SSTORE POP SWAP1 POP POP JUMPDEST PUSH0 DUP1 PUSH1 0x1 DUP1 SLOAD PUSH2 0x3B9 SWAP2 SWAP1 PUSH2 0xF93 JUMP JUMPDEST DUP2 MSTORE PUSH1 0x20 ADD SWAP1 DUP2 MSTORE PUSH1 0x20 ADD PUSH0 KECCAK256 PUSH0 DUP1 DUP3 ADD PUSH0 PUSH2 0x3D5 SWAP2 SWAP1 PUSH2 0x9EC JUMP JUMPDEST PUSH1 0x1 DUP3 ADD PUSH0 SWAP1 SSTORE PUSH1 0x2 DUP3 ADD PUSH0 PUSH2 0x100 EXP DUP2 SLOAD SWAP1 PUSH1 0xFF MUL NOT AND SWAP1 SSTORE POP POP PUSH32 0xF39079F47D6285A460AF689F5ED04A6111609BA33A84C513F8AA091EB0822FE9 DUP3 PUSH1 0x40 MLOAD PUSH2 0x420 SWAP2 SWAP1 PUSH2 0xA5C JUMP JUMPDEST PUSH1 0x40 MLOAD DUP1 SWAP2 SUB SWAP1 LOG1 PUSH1 0x1 PUSH0 DUP2 SLOAD DUP1 SWAP3 SWAP2 SWAP1 PUSH2 0x43A SWAP1 PUSH2 0x12BA JUMP JUMPDEST SWAP2 SWAP1 POP SSTORE POP POP POP JUMP JUMPDEST PUSH0 DUP1 JUMPDEST PUSH1 0x4 DUP1 SLOAD SWAP1 POP DUP2 LT ISZERO PUSH2 0x4D7 JUMPI CALLER PUSH20 0xFFFFFFFFFFFFFFFFFFFFFFFFFFFFFFFFFFFFFFFF AND PUSH1 0x4 DUP3 DUP2 SLOAD DUP2 LT PUSH2 0x47E JUMPI PUSH2 0x47D PUSH2 0xE43 JUMP JUMPDEST JUMPDEST SWAP1 PUSH0 MSTORE PUSH1 0x20 PUSH0 KECCAK256 ADD PUSH0 SWAP1 SLOAD SWAP1 PUSH2 0x100 EXP SWAP1 DIV PUSH20 0xFFFFFFFFFFFFFFFFFFFFFFFFFFFFFFFFFFFFFFFF AND PUSH20 0xFFFFFFFFFFFFFFFFFFFFFFFFFFFFFFFFFFFFFFFF AND SUB PUSH2 0x4CA JUMPI PUSH1 0x1 SWAP2 POP PUSH2 0x4D7 JUMP JUMPDEST DUP1 DUP1 PUSH1 0x1 ADD SWAP2 POP POP PUSH2 0x446 JUMP JUMPDEST POP DUP1 PUSH2 0x518 JUMPI PUSH1 0x40 MLOAD PUSH32 0x8C379A000000000000000000000000000000000000000000000000000000000 DUP2 MSTORE PUSH1 0x4 ADD PUSH2 0x50F SWAP1 PUSH2 0xEE0 JUMP JUMPDEST PUSH1 0x40 MLOAD DUP1 SWAP2 SUB SWAP1 REVERT JUMPDEST PUSH1 0x40 MLOAD DUP1 PUSH1 0x60 ADD PUSH1 0x40 MSTORE DUP1 DUP5 DUP2 MSTORE PUSH1 0x20 ADD DUP4 DUP2 MSTORE PUSH1 0x20 ADD PUSH1 0x1 ISZERO ISZERO DUP2 MSTORE POP PUSH0 DUP1 PUSH1 0x1 SLOAD DUP2 MSTORE PUSH1 0x20 ADD SWAP1 DUP2 MSTORE PUSH1 0x20 ADD PUSH0 KECCAK256 PUSH0 DUP3 ADD MLOAD DUP2 PUSH0 ADD SWAP1 DUP2 PUSH2 0x55B SWAP2 SWAP1 PUSH2 0x12E1 JUMP JUMPDEST POP PUSH1 0x20 DUP3 ADD MLOAD DUP2 PUSH1 0x1 ADD SSTORE PUSH1 0x40 DUP3 ADD MLOAD DUP2 PUSH1 0x2 ADD PUSH0 PUSH2 0x100 EXP DUP2 SLOAD DUP2 PUSH1 0xFF MUL NOT AND SWAP1 DUP4 ISZERO ISZERO MUL OR SWAP1 SSTORE POP SWAP1 POP POP PUSH32 0x533EA7AE9C9EDAFB5B8FB647086D8EFD5CECFADB8ED130D777E534F72D941492 PUSH1 0x1 SLOAD DUP5 DUP5 PUSH1 0x40 MLOAD PUSH2 0x5BD SWAP4 SWAP3 SWAP2 SWAP1 PUSH2 0x13B0 JUMP JUMPDEST PUSH1 0x40 MLOAD DUP1 SWAP2 SUB SWAP1 LOG1 PUSH1 0x1 PUSH0 DUP2 SLOAD DUP1 SWAP3 SWAP2 SWAP1 PUSH2 0x5D7 SWAP1 PUSH2 0x13EC JUMP JUMPDEST SWAP2 SWAP1 POP SSTORE POP POP POP POP JUMP JUMPDEST PUSH1 0x60 PUSH0 DUP1 PUSH1 0x1 SLOAD DUP5 LT PUSH2 0x629 JUMPI PUSH1 0x40 MLOAD PUSH32 0x8C379A000000000000000000000000000000000000000000000000000000000 DUP2 MSTORE PUSH1 0x4 ADD PUSH2 0x620 SWAP1 PUSH2 0x147D JUMP JUMPDEST PUSH1 0x40 MLOAD DUP1 SWAP2 SUB SWAP1 REVERT JUMPDEST PUSH0 DUP1 PUSH0 DUP7 DUP2 MSTORE PUSH1 0x20 ADD SWAP1 DUP2 MSTORE PUSH1 0x20 ADD PUSH0 KECCAK256 PUSH1 0x40 MLOAD DUP1 PUSH1 0x60 ADD PUSH1 0x40 MSTORE SWAP1 DUP2 PUSH0 DUP3 ADD DUP1 SLOAD PUSH2 0x654 SWAP1 PUSH2 0xFF3 JUMP JUMPDEST DUP1 PUSH1 0x1F ADD PUSH1 0x20 DUP1 SWAP2 DIV MUL PUSH1 0x20 ADD PUSH1 0x40 MLOAD SWAP1 DUP2 ADD PUSH1 0x40 MSTORE DUP1 SWAP3 SWAP2 SWAP1 DUP2 DUP2 MSTORE PUSH1 0x20 ADD DUP3 DUP1 SLOAD PUSH2 0x680 SWAP1 PUSH2 0xFF3 JUMP JUMPDEST DUP1 ISZERO PUSH2 0x6CB JUMPI DUP1 PUSH1 0x1F LT PUSH2 0x6A2 JUMPI PUSH2 0x100 DUP1 DUP4 SLOAD DIV MUL DUP4 MSTORE SWAP2 PUSH1 0x20 ADD SWAP2 PUSH2 0x6CB JUMP JUMPDEST DUP3 ADD SWAP2 SWAP1 PUSH0 MSTORE PUSH1 0x20 PUSH0 KECCAK256 SWAP1 JUMPDEST DUP2 SLOAD DUP2 MSTORE SWAP1 PUSH1 0x1 ADD SWAP1 PUSH1 0x20 ADD DUP1 DUP4 GT PUSH2 0x6AE JUMPI DUP3 SWAP1 SUB PUSH1 0x1F AND DUP3 ADD SWAP2 JUMPDEST POP POP POP POP POP DUP2 MSTORE PUSH1 0x20 ADD PUSH1 0x1 DUP3 ADD SLOAD DUP2 MSTORE PUSH1 0x20 ADD PUSH1 0x2 DUP3 ADD PUSH0 SWAP1 SLOAD SWAP1 PUSH2 0x100 EXP SWAP1 DIV PUSH1 0xFF AND ISZERO ISZERO ISZERO ISZERO DUP2 MSTORE POP POP SWAP1 POP DUP1 PUSH0 ADD MLOAD DUP2 PUSH1 0x20 ADD MLOAD DUP3 PUSH1 0x40 ADD MLOAD SWAP4 POP SWAP4 POP SWAP4 POP POP SWAP2 SWAP4 SWAP1 SWAP3 POP JUMP JUMPDEST PUSH0 DUP1 JUMPDEST PUSH1 0x4 DUP1 SLOAD SWAP1 POP DUP2 LT ISZERO PUSH2 0x7AA JUMPI CALLER PUSH20 0xFFFFFFFFFFFFFFFFFFFFFFFFFFFFFFFFFFFFFFFF AND PUSH1 0x4 DUP3 DUP2 SLOAD DUP2 LT PUSH2 0x751 JUMPI PUSH2 0x750 PUSH2 0xE43 JUMP JUMPDEST JUMPDEST SWAP1 PUSH0 MSTORE PUSH1 0x20 PUSH0 KECCAK256 ADD PUSH0 SWAP1 SLOAD SWAP1 PUSH2 0x100 EXP SWAP1 DIV PUSH20 0xFFFFFFFFFFFFFFFFFFFFFFFFFFFFFFFFFFFFFFFF AND PUSH20 0xFFFFFFFFFFFFFFFFFFFFFFFFFFFFFFFFFFFFFFFF AND SUB PUSH2 0x79D JUMPI PUSH1 0x1 SWAP2 POP PUSH2 0x7AA JUMP JUMPDEST DUP1 DUP1 PUSH1 0x1 ADD SWAP2 POP POP PUSH2 0x719 JUMP JUMPDEST POP DUP1 PUSH2 0x7EB JUMPI PUSH1 0x40 MLOAD PUSH32 0x8C379A000000000000000000000000000000000000000000000000000000000 DUP2 MSTORE PUSH1 0x4 ADD PUSH2 0x7E2 SWAP1 PUSH2 0xEE0 JUMP JUMPDEST PUSH1 0x40 MLOAD DUP1 SWAP2 SUB SWAP1 REVERT JUMPDEST PUSH1 0x1 SLOAD DUP6 LT PUSH2 0x82F JUMPI PUSH1 0x40 MLOAD PUSH32 0x8C379A000000000000000000000000000000000000000000000000000000000 DUP2 MSTORE PUSH1 0x4 ADD PUSH2 0x826 SWAP1 PUSH2 0x147D JUMP JUMPDEST PUSH1 0x40 MLOAD DUP1 SWAP2 SUB SWAP1 REVERT JUMPDEST DUP4 PUSH0 DUP1 DUP8 DUP2 MSTORE PUSH1 0x20 ADD SWAP1 DUP2 MSTORE PUSH1 0x20 ADD PUSH0 KECCAK256 PUSH0 ADD SWAP1 DUP2 PUSH2 0x84E SWAP2 SWAP1 PUSH2 0x12E1 JUMP JUMPDEST POP DUP3 PUSH0 DUP1 DUP8 DUP2 MSTORE PUSH1 0x20 ADD SWAP1 DUP2 MSTORE PUSH1 0x20 ADD PUSH0 KECCAK256 PUSH1 0x1 ADD DUP2 SWAP1 SSTORE POP DUP2 PUSH0 DUP1 DUP8 DUP2 MSTORE PUSH1 0x20 ADD SWAP1 DUP2 MSTORE PUSH1 0x20 ADD PUSH0 KECCAK256 PUSH1 0x2 ADD PUSH0 PUSH2 0x100 EXP DUP2 SLOAD DUP2 PUSH1 0xFF MUL NOT AND SWAP1 DUP4 ISZERO ISZERO MUL OR SWAP1 SSTORE POP PUSH32 0x877D6B41B318E470163EBB8045EDC3F0346ED37AB360E761BB274A6D75911386 DUP6 DUP6 DUP6 DUP6 PUSH1 0x40 MLOAD PUSH2 0x8C6 SWAP5 SWAP4 SWAP3 SWAP2 SWAP1 PUSH2 0x149B JUMP JUMPDEST PUSH1 0x40 MLOAD DUP1 SWAP2 SUB SWAP1 LOG1 POP POP POP POP POP JUMP JUMPDEST PUSH0 PUSH1 0x20 MSTORE DUP1 PUSH0 MSTORE PUSH1 0x40 PUSH0 KECCAK256 PUSH0 SWAP2 POP SWAP1 POP DUP1 PUSH0 ADD DUP1 SLOAD PUSH2 0x8F3 SWAP1 PUSH2 0xFF3 JUMP JUMPDEST DUP1 PUSH1 0x1F ADD PUSH1 0x20 DUP1 SWAP2 DIV MUL PUSH1 0x20 ADD PUSH1 0x40 MLOAD SWAP1 DUP2 ADD PUSH1 0x40 MSTORE DUP1 SWAP3 SWAP2 SWAP1 DUP2 DUP2 MSTORE PUSH1 0x20 ADD DUP3 DUP1 SLOAD PUSH2 0x91F SWAP1 PUSH2 0xFF3 JUMP JUMPDEST DUP1 ISZERO PUSH2 0x96A JUMPI DUP1 PUSH1 0x1F LT PUSH2 0x941 JUMPI PUSH2 0x100 DUP1 DUP4 SLOAD DIV MUL DUP4 MSTORE SWAP2 PUSH1 0x20 ADD SWAP2 PUSH2 0x96A JUMP JUMPDEST DUP3 ADD SWAP2 SWAP1 PUSH0 MSTORE PUSH1 0x20 PUSH0 KECCAK256 SWAP1 JUMPDEST DUP2 SLOAD DUP2 MSTORE SWAP1 PUSH1 0x1 ADD SWAP1 PUSH1 0x20 ADD DUP1 DUP4 GT PUSH2 0x94D JUMPI DUP3 SWAP1 SUB PUSH1 0x1F AND DUP3 ADD SWAP2 JUMPDEST POP POP POP POP POP SWAP1 DUP1 PUSH1 0x1 ADD SLOAD SWAP1 DUP1 PUSH1 0x2 ADD PUSH0 SWAP1 SLOAD SWAP1 PUSH2 0x100 EXP SWAP1 DIV PUSH1 0xFF AND SWAP1 POP DUP4 JUMP JUMPDEST PUSH1 0x4 DUP2 DUP2 SLOAD DUP2 LT PUSH2 0x99B JUMPI PUSH0 DUP1 REVERT JUMPDEST SWAP1 PUSH0 MSTORE PUSH1 0x20 PUSH0 KECCAK256 ADD PUSH0 SWAP2 POP SLOAD SWAP1 PUSH2 0x100 EXP SWAP1 DIV PUSH20 0xFFFFFFFFFFFFFFFFFFFFFFFFFFFFFFFFFFFFFFFF AND DUP2 JUMP JUMPDEST PUSH1 0x3 PUSH0 SWAP1 SLOAD SWAP1 PUSH2 0x100 EXP SWAP1 DIV PUSH20 0xFFFFFFFFFFFFFFFFFFFFFFFFFFFFFFFFFFFFFFFF AND DUP2 JUMP JUMPDEST POP DUP1 SLOAD PUSH2 0x9F8 SWAP1 PUSH2 0xFF3 JUMP JUMPDEST PUSH0 DUP3 SSTORE DUP1 PUSH1 0x1F LT PUSH2 0xA09 JUMPI POP PUSH2 0xA26 JUMP JUMPDEST PUSH1 0x1F ADD PUSH1 0x20 SWAP1 DIV SWAP1 PUSH0 MSTORE PUSH1 0x20 PUSH0 KECCAK256 SWAP1 DUP2 ADD SWAP1 PUSH2 0xA25 SWAP2 SWAP1 PUSH2 0xA29 JUMP JUMPDEST JUMPDEST POP JUMP JUMPDEST JUMPDEST DUP1 DUP3 GT ISZERO PUSH2 0xA40 JUMPI PUSH0 DUP2 PUSH0 SWAP1 SSTORE POP PUSH1 0x1 ADD PUSH2 0xA2A JUMP JUMPDEST POP SWAP1 JUMP JUMPDEST PUSH0 DUP2 SWAP1 POP SWAP2 SWAP1 POP JUMP JUMPDEST PUSH2 0xA56 DUP2 PUSH2 0xA44 JUMP JUMPDEST DUP3 MSTORE POP POP JUMP JUMPDEST PUSH0 PUSH1 0x20 DUP3 ADD SWAP1 POP PUSH2 0xA6F PUSH0 DUP4 ADD DUP5 PUSH2 0xA4D JUMP JUMPDEST SWAP3 SWAP2 POP POP JUMP JUMPDEST PUSH0 PUSH20 0xFFFFFFFFFFFFFFFFFFFFFFFFFFFFFFFFFFFFFFFF DUP3 AND SWAP1 POP SWAP2 SWAP1 POP JUMP JUMPDEST PUSH0 PUSH2 0xA9E DUP3 PUSH2 0xA75 JUMP JUMPDEST SWAP1 POP SWAP2 SWAP1 POP JUMP JUMPDEST PUSH2 0xAAE DUP2 PUSH2 0xA94 JUMP JUMPDEST DUP3 MSTORE POP POP JUMP JUMPDEST PUSH0 PUSH1 0x20 DUP3 ADD SWAP1 POP PUSH2 0xAC7 PUSH0 DUP4 ADD DUP5 PUSH2 0xAA5 JUMP JUMPDEST SWAP3 SWAP2 POP POP JUMP JUMPDEST PUSH0 PUSH1 0x40 MLOAD SWAP1 POP SWAP1 JUMP JUMPDEST PUSH0 DUP1 REVERT JUMPDEST PUSH0 DUP1 REVERT JUMPDEST PUSH2 0xAE7 DUP2 PUSH2 0xA44 JUMP JUMPDEST DUP2 EQ PUSH2 0xAF1 JUMPI PUSH0 DUP1 REVERT JUMPDEST POP JUMP JUMPDEST PUSH0 DUP2 CALLDATALOAD SWAP1 POP PUSH2 0xB02 DUP2 PUSH2 0xADE JUMP JUMPDEST SWAP3 SWAP2 POP POP JUMP JUMPDEST PUSH0 PUSH1 0x20 DUP3 DUP5 SUB SLT ISZERO PUSH2 0xB1D JUMPI PUSH2 0xB1C PUSH2 0xAD6 JUMP JUMPDEST JUMPDEST PUSH0 PUSH2 0xB2A DUP5 DUP3 DUP6 ADD PUSH2 0xAF4 JUMP JUMPDEST SWAP2 POP POP SWAP3 SWAP2 POP POP JUMP JUMPDEST PUSH0 DUP1 REVERT JUMPDEST PUSH0 DUP1 REVERT JUMPDEST PUSH0 PUSH1 0x1F NOT PUSH1 0x1F DUP4 ADD AND SWAP1 POP SWAP2 SWAP1 POP JUMP JUMPDEST PUSH32 0x4E487B7100000000000000000000000000000000000000000000000000000000 PUSH0 MSTORE PUSH1 0x41 PUSH1 0x4 MSTORE PUSH1 0x24 PUSH0 REVERT JUMPDEST PUSH2 0xB81 DUP3 PUSH2 0xB3B JUMP JUMPDEST DUP2 ADD DUP2 DUP2 LT PUSH8 0xFFFFFFFFFFFFFFFF DUP3 GT OR ISZERO PUSH2 0xBA0 JUMPI PUSH2 0xB9F PUSH2 0xB4B JUMP JUMPDEST JUMPDEST DUP1 PUSH1 0x40 MSTORE POP POP POP JUMP JUMPDEST PUSH0 PUSH2 0xBB2 PUSH2 0xACD JUMP JUMPDEST SWAP1 POP PUSH2 0xBBE DUP3 DUP3 PUSH2 0xB78 JUMP JUMPDEST SWAP2 SWAP1 POP JUMP JUMPDEST PUSH0 PUSH8 0xFFFFFFFFFFFFFFFF DUP3 GT ISZERO PUSH2 0xBDD JUMPI PUSH2 0xBDC PUSH2 0xB4B JUMP JUMPDEST JUMPDEST PUSH2 0xBE6 DUP3 PUSH2 0xB3B JUMP JUMPDEST SWAP1 POP PUSH1 0x20 DUP2 ADD SWAP1 POP SWAP2 SWAP1 POP JUMP JUMPDEST DUP3 DUP2 DUP4 CALLDATACOPY PUSH0 DUP4 DUP4 ADD MSTORE POP POP POP JUMP JUMPDEST PUSH0 PUSH2 0xC13 PUSH2 0xC0E DUP5 PUSH2 0xBC3 JUMP JUMPDEST PUSH2 0xBA9 JUMP JUMPDEST SWAP1 POP DUP3 DUP2 MSTORE PUSH1 0x20 DUP2 ADD DUP5 DUP5 DUP5 ADD GT ISZERO PUSH2 0xC2F JUMPI PUSH2 0xC2E PUSH2 0xB37 JUMP JUMPDEST JUMPDEST PUSH2 0xC3A DUP5 DUP3 DUP6 PUSH2 0xBF3 JUMP JUMPDEST POP SWAP4 SWAP3 POP POP POP JUMP JUMPDEST PUSH0 DUP3 PUSH1 0x1F DUP4 ADD SLT PUSH2 0xC56 JUMPI PUSH2 0xC55 PUSH2 0xB33 JUMP JUMPDEST JUMPDEST DUP2 CALLDATALOAD PUSH2 0xC66 DUP5 DUP3 PUSH1 0x20 DUP7 ADD PUSH2 0xC01 JUMP JUMPDEST SWAP2 POP POP SWAP3 SWAP2 POP POP JUMP JUMPDEST PUSH0 DUP1 PUSH1 0x40 DUP4 DUP6 SUB SLT ISZERO PUSH2 0xC85 JUMPI PUSH2 0xC84 PUSH2 0xAD6 JUMP JUMPDEST JUMPDEST PUSH0 DUP4 ADD CALLDATALOAD PUSH8 0xFFFFFFFFFFFFFFFF DUP2 GT ISZERO PUSH2 0xCA2 JUMPI PUSH2 0xCA1 PUSH2 0xADA JUMP JUMPDEST JUMPDEST PUSH2 0xCAE DUP6 DUP3 DUP7 ADD PUSH2 0xC42 JUMP JUMPDEST SWAP3 POP POP PUSH1 0x20 PUSH2 0xCBF DUP6 DUP3 DUP7 ADD PUSH2 0xAF4 JUMP JUMPDEST SWAP2 POP POP SWAP3 POP SWAP3 SWAP1 POP JUMP JUMPDEST PUSH0 DUP2 MLOAD SWAP1 POP SWAP2 SWAP1 POP JUMP JUMPDEST PUSH0 DUP3 DUP3 MSTORE PUSH1 0x20 DUP3 ADD SWAP1 POP SWAP3 SWAP2 POP POP JUMP JUMPDEST PUSH0 JUMPDEST DUP4 DUP2 LT ISZERO PUSH2 0xD00 JUMPI DUP1 DUP3 ADD MLOAD DUP2 DUP5 ADD MSTORE PUSH1 0x20 DUP2 ADD SWAP1 POP PUSH2 0xCE5 JUMP JUMPDEST PUSH0 DUP5 DUP5 ADD MSTORE POP POP POP POP JUMP JUMPDEST PUSH0 PUSH2 0xD15 DUP3 PUSH2 0xCC9 JUMP JUMPDEST PUSH2 0xD1F DUP2 DUP6 PUSH2 0xCD3 JUMP JUMPDEST SWAP4 POP PUSH2 0xD2F DUP2 DUP6 PUSH1 0x20 DUP7 ADD PUSH2 0xCE3 JUMP JUMPDEST PUSH2 0xD38 DUP2 PUSH2 0xB3B JUMP JUMPDEST DUP5 ADD SWAP2 POP POP SWAP3 SWAP2 POP POP JUMP JUMPDEST PUSH0 DUP2 ISZERO ISZERO SWAP1 POP SWAP2 SWAP1 POP JUMP JUMPDEST PUSH2 0xD57 DUP2 PUSH2 0xD43 JUMP JUMPDEST DUP3 MSTORE POP POP JUMP JUMPDEST PUSH0 PUSH1 0x60 DUP3 ADD SWAP1 POP DUP2 DUP2 SUB PUSH0 DUP4 ADD MSTORE PUSH2 0xD75 DUP2 DUP7 PUSH2 0xD0B JUMP JUMPDEST SWAP1 POP PUSH2 0xD84 PUSH1 0x20 DUP4 ADD DUP6 PUSH2 0xA4D JUMP JUMPDEST PUSH2 0xD91 PUSH1 0x40 DUP4 ADD DUP5 PUSH2 0xD4E JUMP JUMPDEST SWAP5 SWAP4 POP POP POP POP JUMP JUMPDEST PUSH2 0xDA2 DUP2 PUSH2 0xD43 JUMP JUMPDEST DUP2 EQ PUSH2 0xDAC JUMPI PUSH0 DUP1 REVERT JUMPDEST POP JUMP JUMPDEST PUSH0 DUP2 CALLDATALOAD SWAP1 POP PUSH2 0xDBD DUP2 PUSH2 0xD99 JUMP JUMPDEST SWAP3 SWAP2 POP POP JUMP JUMPDEST PUSH0 DUP1 PUSH0 DUP1 PUSH1 0x80 DUP6 DUP8 SUB SLT ISZERO PUSH2 0xDDB JUMPI PUSH2 0xDDA PUSH2 0xAD6 JUMP JUMPDEST JUMPDEST PUSH0 PUSH2 0xDE8 DUP8 DUP3 DUP9 ADD PUSH2 0xAF4 JUMP JUMPDEST SWAP5 POP POP PUSH1 0x20 DUP6 ADD CALLDATALOAD PUSH8 0xFFFFFFFFFFFFFFFF DUP2 GT ISZERO PUSH2 0xE09 JUMPI PUSH2 0xE08 PUSH2 0xADA JUMP JUMPDEST JUMPDEST PUSH2 0xE15 DUP8 DUP3 DUP9 ADD PUSH2 0xC42 JUMP JUMPDEST SWAP4 POP POP PUSH1 0x40 PUSH2 0xE26 DUP8 DUP3 DUP9 ADD PUSH2 0xAF4 JUMP JUMPDEST SWAP3 POP POP PUSH1 0x60 PUSH2 0xE37 DUP8 DUP3 DUP9 ADD PUSH2 0xDAF JUMP JUMPDEST SWAP2 POP POP SWAP3 SWAP6 SWAP2 SWAP5 POP SWAP3 POP JUMP JUMPDEST PUSH32 0x4E487B7100000000000000000000000000000000000000000000000000000000 PUSH0 MSTORE PUSH1 0x32 PUSH1 0x4 MSTORE PUSH1 0x24 PUSH0 REVERT JUMPDEST PUSH32 0x41646472657373206973206E6F742076616C696420666F72207468697320636F PUSH0 DUP3 ADD MSTORE PUSH32 0x6E74726163740000000000000000000000000000000000000000000000000000 PUSH1 0x20 DUP3 ADD MSTORE POP JUMP JUMPDEST PUSH0 PUSH2 0xECA PUSH1 0x26 DUP4 PUSH2 0xCD3 JUMP JUMPDEST SWAP2 POP PUSH2 0xED5 DUP3 PUSH2 0xE70 JUMP JUMPDEST PUSH1 0x40 DUP3 ADD SWAP1 POP SWAP2 SWAP1 POP JUMP JUMPDEST PUSH0 PUSH1 0x20 DUP3 ADD SWAP1 POP DUP2 DUP2 SUB PUSH0 DUP4 ADD MSTORE PUSH2 0xEF7 DUP2 PUSH2 0xEBE JUMP JUMPDEST SWAP1 POP SWAP2 SWAP1 POP JUMP JUMPDEST PUSH32 0x4E6F6E2076616C6964206163636F6D6D6F646174696F6E204944000000000000 PUSH0 DUP3 ADD MSTORE POP JUMP JUMPDEST PUSH0 PUSH2 0xF32 PUSH1 0x1A DUP4 PUSH2 0xCD3 JUMP JUMPDEST SWAP2 POP PUSH2 0xF3D DUP3 PUSH2 0xEFE JUMP JUMPDEST PUSH1 0x20 DUP3 ADD SWAP1 POP SWAP2 SWAP1 POP JUMP JUMPDEST PUSH0 PUSH1 0x20 DUP3 ADD SWAP1 POP DUP2 DUP2 SUB PUSH0 DUP4 ADD MSTORE PUSH2 0xF5F DUP2 PUSH2 0xF26 JUMP JUMPDEST SWAP1 POP SWAP2 SWAP1 POP JUMP JUMPDEST PUSH32 0x4E487B7100000000000000000000000000000000000000000000000000000000 PUSH0 MSTORE PUSH1 0x11 PUSH1 0x4 MSTORE PUSH1 0x24 PUSH0 REVERT JUMPDEST PUSH0 PUSH2 0xF9D DUP3 PUSH2 0xA44 JUMP JUMPDEST SWAP2 POP PUSH2 0xFA8 DUP4 PUSH2 0xA44 JUMP JUMPDEST SWAP3 POP DUP3 DUP3 SUB SWAP1 POP DUP2 DUP2 GT ISZERO PUSH2 0xFC0 JUMPI PUSH2 0xFBF PUSH2 0xF66 JUMP JUMPDEST JUMPDEST SWAP3 SWAP2 POP POP JUMP JUMPDEST PUSH32 0x4E487B7100000000000000000000000000000000000000000000000000000000 PUSH0 MSTORE PUSH1 0x22 PUSH1 0x4 MSTORE PUSH1 0x24 PUSH0 REVERT JUMPDEST PUSH0 PUSH1 0x2 DUP3 DIV SWAP1 POP PUSH1 0x1 DUP3 AND DUP1 PUSH2 0x100A JUMPI PUSH1 0x7F DUP3 AND SWAP2 POP JUMPDEST PUSH1 0x20 DUP3 LT DUP2 SUB PUSH2 0x101D JUMPI PUSH2 0x101C PUSH2 0xFC6 JUMP JUMPDEST JUMPDEST POP SWAP2 SWAP1 POP JUMP JUMPDEST PUSH0 DUP2 SLOAD SWAP1 POP PUSH2 0x1031 DUP2 PUSH2 0xFF3 JUMP JUMPDEST SWAP1 POP SWAP2 SWAP1 POP JUMP JUMPDEST PUSH0 DUP2 SWAP1 POP DUP2 PUSH0 MSTORE PUSH1 0x20 PUSH0 KECCAK256 SWAP1 POP SWAP2 SWAP1 POP JUMP JUMPDEST PUSH0 PUSH1 0x20 PUSH1 0x1F DUP4 ADD DIV SWAP1 POP SWAP2 SWAP1 POP JUMP JUMPDEST PUSH0 DUP3 DUP3 SHL SWAP1 POP SWAP3 SWAP2 POP POP JUMP JUMPDEST PUSH0 PUSH1 0x8 DUP4 MUL PUSH2 0x1094 PUSH32 0xFFFFFFFFFFFFFFFFFFFFFFFFFFFFFFFFFFFFFFFFFFFFFFFFFFFFFFFFFFFFFFFF DUP3 PUSH2 0x1059 JUMP JUMPDEST PUSH2 0x109E DUP7 DUP4 PUSH2 0x1059 JUMP JUMPDEST SWAP6 POP DUP1 NOT DUP5 AND SWAP4 POP DUP1 DUP7 AND DUP5 OR SWAP3 POP POP POP SWAP4 SWAP3 POP POP POP JUMP JUMPDEST PUSH0 DUP2 SWAP1 POP SWAP2 SWAP1 POP JUMP JUMPDEST PUSH0 PUSH2 0x10D9 PUSH2 0x10D4 PUSH2 0x10CF DUP5 PUSH2 0xA44 JUMP JUMPDEST PUSH2 0x10B6 JUMP JUMPDEST PUSH2 0xA44 JUMP JUMPDEST SWAP1 POP SWAP2 SWAP1 POP JUMP JUMPDEST PUSH0 DUP2 SWAP1 POP SWAP2 SWAP1 POP JUMP JUMPDEST PUSH2 0x10F2 DUP4 PUSH2 0x10BF JUMP JUMPDEST PUSH2 0x1106 PUSH2 0x10FE DUP3 PUSH2 0x10E0 JUMP JUMPDEST DUP5 DUP5 SLOAD PUSH2 0x1065 JUMP JUMPDEST DUP3 SSTORE POP POP POP POP JUMP JUMPDEST PUSH0 SWAP1 JUMP JUMPDEST PUSH2 0x111A PUSH2 0x110E JUMP JUMPDEST PUSH2 0x1125 DUP2 DUP5 DUP5 PUSH2 0x10E9 JUMP JUMPDEST POP POP POP JUMP JUMPDEST JUMPDEST DUP2 DUP2 LT ISZERO PUSH2 0x1148 JUMPI PUSH2 0x113D PUSH0 DUP3 PUSH2 0x1112 JUMP JUMPDEST PUSH1 0x1 DUP2 ADD SWAP1 POP PUSH2 0x112B JUMP JUMPDEST POP POP JUMP JUMPDEST PUSH1 0x1F DUP3 GT ISZERO PUSH2 0x118D JUMPI PUSH2 0x115E DUP2 PUSH2 0x1038 JUMP JUMPDEST PUSH2 0x1167 DUP5 PUSH2 0x104A JUMP JUMPDEST DUP2 ADD PUSH1 0x20 DUP6 LT ISZERO PUSH2 0x1176 JUMPI DUP2 SWAP1 POP JUMPDEST PUSH2 0x118A PUSH2 0x1182 DUP6 PUSH2 0x104A JUMP JUMPDEST DUP4 ADD DUP3 PUSH2 0x112A JUMP JUMPDEST POP POP JUMPDEST POP POP POP JUMP JUMPDEST PUSH0 DUP3 DUP3 SHR SWAP1 POP SWAP3 SWAP2 POP POP JUMP JUMPDEST PUSH0 PUSH2 0x11AD PUSH0 NOT DUP5 PUSH1 0x8 MUL PUSH2 0x1192 JUMP JUMPDEST NOT DUP1 DUP4 AND SWAP2 POP POP SWAP3 SWAP2 POP POP JUMP JUMPDEST PUSH0 PUSH2 0x11C5 DUP4 DUP4 PUSH2 0x119E JUMP JUMPDEST SWAP2 POP DUP3 PUSH1 0x2 MUL DUP3 OR SWAP1 POP SWAP3 SWAP2 POP POP JUMP JUMPDEST DUP2 DUP2 SUB PUSH2 0x11E3 JUMPI POP POP PUSH2 0x12B8 JUMP JUMPDEST PUSH2 0x11EC DUP3 PUSH2 0x1023 JUMP JUMPDEST PUSH8 0xFFFFFFFFFFFFFFFF DUP2 GT ISZERO PUSH2 0x1205 JUMPI PUSH2 0x1204 PUSH2 0xB4B JUMP JUMPDEST JUMPDEST PUSH2 0x120F DUP3 SLOAD PUSH2 0xFF3 JUMP JUMPDEST PUSH2 0x121A DUP3 DUP3 DUP6 PUSH2 0x114C JUMP JUMPDEST PUSH0 PUSH1 0x1F DUP4 GT PUSH1 0x1 DUP2 EQ PUSH2 0x1247 JUMPI PUSH0 DUP5 ISZERO PUSH2 0x1235 JUMPI DUP3 DUP8 ADD SLOAD SWAP1 POP JUMPDEST PUSH2 0x123F DUP6 DUP3 PUSH2 0x11BA JUMP JUMPDEST DUP7 SSTORE POP PUSH2 0x12B1 JUMP JUMPDEST PUSH1 0x1F NOT DUP5 AND PUSH2 0x1255 DUP8 PUSH2 0x1038 JUMP JUMPDEST SWAP7 POP PUSH2 0x1260 DUP7 PUSH2 0x1038 JUMP JUMPDEST PUSH0 JUMPDEST DUP3 DUP2 LT ISZERO PUSH2 0x1287 JUMPI DUP5 DUP10 ADD SLOAD DUP3 SSTORE PUSH1 0x1 DUP3 ADD SWAP2 POP PUSH1 0x1 DUP6 ADD SWAP5 POP PUSH1 0x20 DUP2 ADD SWAP1 POP PUSH2 0x1262 JUMP JUMPDEST DUP7 DUP4 LT ISZERO PUSH2 0x12A4 JUMPI DUP5 DUP10 ADD SLOAD PUSH2 0x12A0 PUSH1 0x1F DUP10 AND DUP3 PUSH2 0x119E JUMP JUMPDEST DUP4 SSTORE POP JUMPDEST PUSH1 0x1 PUSH1 0x2 DUP9 MUL ADD DUP9 SSTORE POP POP POP JUMPDEST POP POP POP POP POP POP JUMPDEST JUMP JUMPDEST PUSH0 PUSH2 0x12C4 DUP3 PUSH2 0xA44 JUMP JUMPDEST SWAP2 POP PUSH0 DUP3 SUB PUSH2 0x12D6 JUMPI PUSH2 0x12D5 PUSH2 0xF66 JUMP JUMPDEST JUMPDEST PUSH1 0x1 DUP3 SUB SWAP1 POP SWAP2 SWAP1 POP JUMP JUMPDEST PUSH2 0x12EA DUP3 PUSH2 0xCC9 JUMP JUMPDEST PUSH8 0xFFFFFFFFFFFFFFFF DUP2 GT ISZERO PUSH2 0x1303 JUMPI PUSH2 0x1302 PUSH2 0xB4B JUMP JUMPDEST JUMPDEST PUSH2 0x130D DUP3 SLOAD PUSH2 0xFF3 JUMP JUMPDEST PUSH2 0x1318 DUP3 DUP3 DUP6 PUSH2 0x114C JUMP JUMPDEST PUSH0 PUSH1 0x20 SWAP1 POP PUSH1 0x1F DUP4 GT PUSH1 0x1 DUP2 EQ PUSH2 0x1349 JUMPI PUSH0 DUP5 ISZERO PUSH2 0x1337 JUMPI DUP3 DUP8 ADD MLOAD SWAP1 POP JUMPDEST PUSH2 0x1341 DUP6 DUP3 PUSH2 0x11BA JUMP JUMPDEST DUP7 SSTORE POP PUSH2 0x13A8 JUMP JUMPDEST PUSH1 0x1F NOT DUP5 AND PUSH2 0x1357 DUP7 PUSH2 0x1038 JUMP JUMPDEST PUSH0 JUMPDEST DUP3 DUP2 LT ISZERO PUSH2 0x137E JUMPI DUP5 DUP10 ADD MLOAD DUP3 SSTORE PUSH1 0x1 DUP3 ADD SWAP2 POP PUSH1 0x20 DUP6 ADD SWAP5 POP PUSH1 0x20 DUP2 ADD SWAP1 POP PUSH2 0x1359 JUMP JUMPDEST DUP7 DUP4 LT ISZERO PUSH2 0x139B JUMPI DUP5 DUP10 ADD MLOAD PUSH2 0x1397 PUSH1 0x1F DUP10 AND DUP3 PUSH2 0x119E JUMP JUMPDEST DUP4 SSTORE POP JUMPDEST PUSH1 0x1 PUSH1 0x2 DUP9 MUL ADD DUP9 SSTORE POP POP POP JUMPDEST POP POP POP POP POP POP JUMP JUMPDEST PUSH0 PUSH1 0x60 DUP3 ADD SWAP1 POP PUSH2 0x13C3 PUSH0 DUP4 ADD DUP7 PUSH2 0xA4D JUMP JUMPDEST DUP2 DUP2 SUB PUSH1 0x20 DUP4 ADD MSTORE PUSH2 0x13D5 DUP2 DUP6 PUSH2 0xD0B JUMP JUMPDEST SWAP1 POP PUSH2 0x13E4 PUSH1 0x40 DUP4 ADD DUP5 PUSH2 0xA4D JUMP JUMPDEST SWAP5 SWAP4 POP POP POP POP JUMP JUMPDEST PUSH0 PUSH2 0x13F6 DUP3 PUSH2 0xA44 JUMP JUMPDEST SWAP2 POP PUSH32 0xFFFFFFFFFFFFFFFFFFFFFFFFFFFFFFFFFFFFFFFFFFFFFFFFFFFFFFFFFFFFFFFF DUP3 SUB PUSH2 0x1428 JUMPI PUSH2 0x1427 PUSH2 0xF66 JUMP JUMPDEST JUMPDEST PUSH1 0x1 DUP3 ADD SWAP1 POP SWAP2 SWAP1 POP JUMP JUMPDEST PUSH32 0x4163636F6D6D6F646174696F6E20494420646F6573206E6F742065786973742E PUSH0 DUP3 ADD MSTORE POP JUMP JUMPDEST PUSH0 PUSH2 0x1467 PUSH1 0x20 DUP4 PUSH2 0xCD3 JUMP JUMPDEST SWAP2 POP PUSH2 0x1472 DUP3 PUSH2 0x1433 JUMP JUMPDEST PUSH1 0x20 DUP3 ADD SWAP1 POP SWAP2 SWAP1 POP JUMP JUMPDEST PUSH0 PUSH1 0x20 DUP3 ADD SWAP1 POP DUP2 DUP2 SUB PUSH0 DUP4 ADD MSTORE PUSH2 0x1494 DUP2 PUSH2 0x145B JUMP JUMPDEST SWAP1 POP SWAP2 SWAP1 POP JUMP JUMPDEST PUSH0 PUSH1 0x80 DUP3 ADD SWAP1 POP PUSH2 0x14AE PUSH0 DUP4 ADD DUP8 PUSH2 0xA4D JUMP JUMPDEST DUP2 DUP2 SUB PUSH1 0x20 DUP4 ADD MSTORE PUSH2 0x14C0 DUP2 DUP7 PUSH2 0xD0B JUMP JUMPDEST SWAP1 POP PUSH2 0x14CF PUSH1 0x40 DUP4 ADD DUP6 PUSH2 0xA4D JUMP JUMPDEST PUSH2 0x14DC PUSH1 0x60 DUP4 ADD DUP5 PUSH2 0xD4E JUMP JUMPDEST SWAP6 SWAP5 POP POP POP POP POP JUMP INVALID LOG2 PUSH5 0x6970667358 0x22 SLT KECCAK256 SHR SGT EXP TIMESTAMP 0x4C 0xE0 0x27 0xBD 0xDD NOT 0xEF 0x22 DUP12 0x22 0xAC MSTORE8 0xC1 SLOAD 0xE2 MUL 0xE5 PUSH23 0x762770207772A92E5B5D64736F6C63430008160033A264 PUSH10 0x7066735822122014F1EC DUP4 LOG2 0xB6 0xE3 COINBASE PUSH3 0x2520E PUSH17 0x7305EF8145D1B94EB01EA2ACDDEBF5A67B 0xB2 0xF7 PUSH5 0x736F6C6343 STOP ADDMOD AND STOP CALLER "
				},
				"gasEstimates": {
					"creation": {
						"codeDepositCost": "1797800",
						"executionCost": "26154",
						"totalCost": "1823954"
					},
					"external": {
						"addNewAddress(address)": "infinite",
						"deployAccommodationProvider()": "infinite",
						"newAddresses(uint256)": "5010",
						"owner()": "2505",
						"removeNewAddress(uint256)": "infinite"
					}
				},
				"methodIdentifiers": {
					"addNewAddress(address)": "a2f35f44",
					"deployAccommodationProvider()": "47da7c79",
					"newAddresses(uint256)": "b5db56bd",
					"owner()": "8da5cb5b",
					"removeNewAddress(uint256)": "a6d5a199"
				}
			},
			"storageLayout": {
				"storage": [
					{
						"astId": 409,
						"contract": "Contracts/MainProjectFile.sol:SystemRegulator",
						"label": "owner",
						"offset": 0,
						"slot": "0",
						"type": "t_address"
					},
					{
						"astId": 412,
						"contract": "Contracts/MainProjectFile.sol:SystemRegulator",
						"label": "newAddresses",
						"offset": 0,
						"slot": "1",
						"type": "t_array(t_address)dyn_storage"
					}
				],
				"types": {
					"t_address": {
						"encoding": "inplace",
						"label": "address",
						"numberOfBytes": "20"
					},
					"t_array(t_address)dyn_storage": {
						"base": "t_address",
						"encoding": "dynamic_array",
						"label": "address[]",
						"numberOfBytes": "32"
					}
				}
			},
			"userdoc": {
				"kind": "user",
				"methods": {},
				"version": 1
			}
		}
	}
}